{"contracts/mocks/ReentrancyAttacker.sol":{"ReentrancyAttacker":{"abi":[{"inputs":[{"internalType":"address","name":"targetAddress","type":"address"}],"stateMutability":"nonpayable","type":"constructor"},{"inputs":[],"name":"attackInProgress","outputs":[{"internalType":"bool","name":"","type":"bool"}],"stateMutability":"view","type":"function"},{"inputs":[],"name":"attackWithdraw","outputs":[],"stateMutability":"nonpayable","type":"function"},{"inputs":[{"internalType":"bytes32","name":"batchId","type":"bytes32"},{"internalType":"bytes32","name":"cropTypeHash","type":"bytes32"},{"internalType":"uint256","name":"batchQuantity","type":"uint256"},{"internalType":"uint256","name":"listingQuantity","type":"uint256"},{"internalType":"uint256","name":"unitPriceWei","type":"uint256"}],"name":"createBatchAndListing","outputs":[],"stateMutability":"nonpayable","type":"function"},{"inputs":[],"name":"reentrancySucceeded","outputs":[{"internalType":"bool","name":"","type":"bool"}],"stateMutability":"view","type":"function"},{"inputs":[],"name":"reentryAttempts","outputs":[{"internalType":"uint256","name":"","type":"uint256"}],"stateMutability":"view","type":"function"},{"inputs":[],"name":"target","outputs":[{"internalType":"contract ICropChain","name":"","type":"address"}],"stateMutability":"view","type":"function"},{"stateMutability":"payable","type":"receive"}],"evm":{"bytecode":{"linkReferences":{},"object":"60a060405234801561001057600080fd5b506040516105f03803806105f083398101604081905261002f91610040565b6001600160a01b0316608052610070565b60006020828403121561005257600080fd5b81516001600160a01b038116811461006957600080fd5b9392505050565b60805161054a6100a66000396000818160b0015281816101d90152818161025a015281816102d80152610365015261054a6000f3fe6080604052600436106100595760003560e01c80636c760a23146101405780637340889514610174578063818c8c7c14610189578063a8745cd2146101a3578063d4b83992146101c7578063dd4bc2f51461021357600080fd5b3661013b5760005460ff1680156100705750600154155b15610139576001805560408051600481526024810182526020810180516001600160e01b0316639038e69360e01b17905290516000916001600160a01b037f000000000000000000000000000000000000000000000000000000000000000016916100db91906103e4565b6000604051808303816000865af19150503d8060008114610118576040519150601f19603f3d011682016040523d82523d6000602084013e61011d565b606091505b5050600080549115156101000261ff0019909216919091179055505b005b600080fd5b34801561014c57600080fd5b5060005461015f90610100900460ff1681565b60405190151581526020015b60405180910390f35b34801561018057600080fd5b50610139610233565b34801561019557600080fd5b5060005461015f9060ff1681565b3480156101af57600080fd5b506101b960015481565b60405190815260200161016b565b3480156101d357600080fd5b506101fb7f000000000000000000000000000000000000000000000000000000000000000081565b6040516001600160a01b03909116815260200161016b565b34801561021f57600080fd5b5061013961022e366004610413565b6102c1565b6000805460ff1916600117815560408051639038e69360e01b815290516001600160a01b037f00000000000000000000000000000000000000000000000000000000000000001692639038e693926004808201939182900301818387803b15801561029d57600080fd5b505af11580156102b1573d6000803e3d6000fd5b50506000805460ff191690555050565b604051636cccf52d60e01b81526001600160a01b037f00000000000000000000000000000000000000000000000000000000000000001690636cccf52d906103119088908890889060040161044e565b600060405180830381600087803b15801561032b57600080fd5b505af115801561033f573d6000803e3d6000fd5b505060405163b68210a960e01b81526004810188905260248101859052604481018490527f00000000000000000000000000000000000000000000000000000000000000006001600160a01b0316925063b68210a991506064016020604051808303816000875af11580156103b8573d6000803e3d6000fd5b505050506040513d601f19601f820116820180604052508101906103dc91906104fb565b505050505050565b6000825160005b8181101561040557602081860181015185830152016103eb565b506000920191825250919050565b600080600080600060a0868803121561042b57600080fd5b505083359560208501359550604085013594606081013594506080013592509050565b83815282602082015260e06040820152601360e0820152720d2e0cce6745e5ec2e8e8c2c6d65ac4c2e8c6d606b1b6101008201526000610120836060840152806080840152600881840152506730ba3a30b1b5b2b960c11b6101408301526101608060a084015260058184015250646d616e646960d81b6101808301526101a08060c08401526104f181840160048152631cd9595960e21b602082015260400190565b9695505050505050565b60006020828403121561050d57600080fd5b505191905056fea2646970667358221220a87942e281ef50aa74c9e378fe39e88696145173326a52e40ecb14b1c5a4457a64736f6c63430008130033","opcodes":"PUSH1 0xA0 PUSH1 0x40 MSTORE CALLVALUE DUP1 ISZERO PUSH2 0x10 JUMPI PUSH1 0x0 DUP1 REVERT JUMPDEST POP PUSH1 0x40 MLOAD PUSH2 0x5F0 CODESIZE SUB DUP1 PUSH2 0x5F0 DUP4 CODECOPY DUP2 ADD PUSH1 0x40 DUP2 SWAP1 MSTORE PUSH2 0x2F SWAP2 PUSH2 0x40 JUMP JUMPDEST PUSH1 0x1 PUSH1 0x1 PUSH1 0xA0 SHL SUB AND PUSH1 0x80 MSTORE PUSH2 0x70 JUMP JUMPDEST PUSH1 0x0 PUSH1 0x20 DUP3 DUP5 SUB SLT ISZERO PUSH2 0x52 JUMPI PUSH1 0x0 DUP1 REVERT JUMPDEST DUP2 MLOAD PUSH1 0x1 PUSH1 0x1 PUSH1 0xA0 SHL SUB DUP2 AND DUP2 EQ PUSH2 0x69 JUMPI PUSH1 0x0 DUP1 REVERT JUMPDEST SWAP4 SWAP3 POP POP POP JUMP JUMPDEST PUSH1 0x80 MLOAD PUSH2 0x54A PUSH2 0xA6 PUSH1 0x0 CODECOPY PUSH1 0x0 DUP2 DUP2 PUSH1 0xB0 ADD MSTORE DUP2 DUP2 PUSH2 0x1D9 ADD MSTORE DUP2 DUP2 PUSH2 0x25A ADD MSTORE DUP2 DUP2 PUSH2 0x2D8 ADD MSTORE PUSH2 0x365 ADD MSTORE PUSH2 0x54A PUSH1 0x0 RETURN INVALID PUSH1 0x80 PUSH1 0x40 MSTORE PUSH1 0x4 CALLDATASIZE LT PUSH2 0x59 JUMPI PUSH1 0x0 CALLDATALOAD PUSH1 0xE0 SHR DUP1 PUSH4 0x6C760A23 EQ PUSH2 0x140 JUMPI DUP1 PUSH4 0x73408895 EQ PUSH2 0x174 JUMPI DUP1 PUSH4 0x818C8C7C EQ PUSH2 0x189 JUMPI DUP1 PUSH4 0xA8745CD2 EQ PUSH2 0x1A3 JUMPI DUP1 PUSH4 0xD4B83992 EQ PUSH2 0x1C7 JUMPI DUP1 PUSH4 0xDD4BC2F5 EQ PUSH2 0x213 JUMPI PUSH1 0x0 DUP1 REVERT JUMPDEST CALLDATASIZE PUSH2 0x13B JUMPI PUSH1 0x0 SLOAD PUSH1 0xFF AND DUP1 ISZERO PUSH2 0x70 JUMPI POP PUSH1 0x1 SLOAD ISZERO JUMPDEST ISZERO PUSH2 0x139 JUMPI PUSH1 0x1 DUP1 SSTORE PUSH1 0x40 DUP1 MLOAD PUSH1 0x4 DUP2 MSTORE PUSH1 0x24 DUP2 ADD DUP3 MSTORE PUSH1 0x20 DUP2 ADD DUP1 MLOAD PUSH1 0x1 PUSH1 0x1 PUSH1 0xE0 SHL SUB AND PUSH4 0x9038E693 PUSH1 0xE0 SHL OR SWAP1 MSTORE SWAP1 MLOAD PUSH1 0x0 SWAP2 PUSH1 0x1 PUSH1 0x1 PUSH1 0xA0 SHL SUB PUSH32 0x0 AND SWAP2 PUSH2 0xDB SWAP2 SWAP1 PUSH2 0x3E4 JUMP JUMPDEST PUSH1 0x0 PUSH1 0x40 MLOAD DUP1 DUP4 SUB DUP2 PUSH1 0x0 DUP7 GAS CALL SWAP2 POP POP RETURNDATASIZE DUP1 PUSH1 0x0 DUP2 EQ PUSH2 0x118 JUMPI PUSH1 0x40 MLOAD SWAP2 POP PUSH1 0x1F NOT PUSH1 0x3F RETURNDATASIZE ADD AND DUP3 ADD PUSH1 0x40 MSTORE RETURNDATASIZE DUP3 MSTORE RETURNDATASIZE PUSH1 0x0 PUSH1 0x20 DUP5 ADD RETURNDATACOPY PUSH2 0x11D JUMP JUMPDEST PUSH1 0x60 SWAP2 POP JUMPDEST POP POP PUSH1 0x0 DUP1 SLOAD SWAP2 ISZERO ISZERO PUSH2 0x100 MUL PUSH2 0xFF00 NOT SWAP1 SWAP3 AND SWAP2 SWAP1 SWAP2 OR SWAP1 SSTORE POP JUMPDEST STOP JUMPDEST PUSH1 0x0 DUP1 REVERT JUMPDEST CALLVALUE DUP1 ISZERO PUSH2 0x14C JUMPI PUSH1 0x0 DUP1 REVERT JUMPDEST POP PUSH1 0x0 SLOAD PUSH2 0x15F SWAP1 PUSH2 0x100 SWAP1 DIV PUSH1 0xFF AND DUP2 JUMP JUMPDEST PUSH1 0x40 MLOAD SWAP1 ISZERO ISZERO DUP2 MSTORE PUSH1 0x20 ADD JUMPDEST PUSH1 0x40 MLOAD DUP1 SWAP2 SUB SWAP1 RETURN JUMPDEST CALLVALUE DUP1 ISZERO PUSH2 0x180 JUMPI PUSH1 0x0 DUP1 REVERT JUMPDEST POP PUSH2 0x139 PUSH2 0x233 JUMP JUMPDEST CALLVALUE DUP1 ISZERO PUSH2 0x195 JUMPI PUSH1 0x0 DUP1 REVERT JUMPDEST POP PUSH1 0x0 SLOAD PUSH2 0x15F SWAP1 PUSH1 0xFF AND DUP2 JUMP JUMPDEST CALLVALUE DUP1 ISZERO PUSH2 0x1AF JUMPI PUSH1 0x0 DUP1 REVERT JUMPDEST POP PUSH2 0x1B9 PUSH1 0x1 SLOAD DUP2 JUMP JUMPDEST PUSH1 0x40 MLOAD SWAP1 DUP2 MSTORE PUSH1 0x20 ADD PUSH2 0x16B JUMP JUMPDEST CALLVALUE DUP1 ISZERO PUSH2 0x1D3 JUMPI PUSH1 0x0 DUP1 REVERT JUMPDEST POP PUSH2 0x1FB PUSH32 0x0 DUP2 JUMP JUMPDEST PUSH1 0x40 MLOAD PUSH1 0x1 PUSH1 0x1 PUSH1 0xA0 SHL SUB SWAP1 SWAP2 AND DUP2 MSTORE PUSH1 0x20 ADD PUSH2 0x16B JUMP JUMPDEST CALLVALUE DUP1 ISZERO PUSH2 0x21F JUMPI PUSH1 0x0 DUP1 REVERT JUMPDEST POP PUSH2 0x139 PUSH2 0x22E CALLDATASIZE PUSH1 0x4 PUSH2 0x413 JUMP JUMPDEST PUSH2 0x2C1 JUMP JUMPDEST PUSH1 0x0 DUP1 SLOAD PUSH1 0xFF NOT AND PUSH1 0x1 OR DUP2 SSTORE PUSH1 0x40 DUP1 MLOAD PUSH4 0x9038E693 PUSH1 0xE0 SHL DUP2 MSTORE SWAP1 MLOAD PUSH1 0x1 PUSH1 0x1 PUSH1 0xA0 SHL SUB PUSH32 0x0 AND SWAP3 PUSH4 0x9038E693 SWAP3 PUSH1 0x4 DUP1 DUP3 ADD SWAP4 SWAP2 DUP3 SWAP1 SUB ADD DUP2 DUP4 DUP8 DUP1 EXTCODESIZE ISZERO DUP1 ISZERO PUSH2 0x29D JUMPI PUSH1 0x0 DUP1 REVERT JUMPDEST POP GAS CALL ISZERO DUP1 ISZERO PUSH2 0x2B1 JUMPI RETURNDATASIZE PUSH1 0x0 DUP1 RETURNDATACOPY RETURNDATASIZE PUSH1 0x0 REVERT JUMPDEST POP POP PUSH1 0x0 DUP1 SLOAD PUSH1 0xFF NOT AND SWAP1 SSTORE POP POP JUMP JUMPDEST PUSH1 0x40 MLOAD PUSH4 0x6CCCF52D PUSH1 0xE0 SHL DUP2 MSTORE PUSH1 0x1 PUSH1 0x1 PUSH1 0xA0 SHL SUB PUSH32 0x0 AND SWAP1 PUSH4 0x6CCCF52D SWAP1 PUSH2 0x311 SWAP1 DUP9 SWAP1 DUP9 SWAP1 DUP9 SWAP1 PUSH1 0x4 ADD PUSH2 0x44E JUMP JUMPDEST PUSH1 0x0 PUSH1 0x40 MLOAD DUP1 DUP4 SUB DUP2 PUSH1 0x0 DUP8 DUP1 EXTCODESIZE ISZERO DUP1 ISZERO PUSH2 0x32B JUMPI PUSH1 0x0 DUP1 REVERT JUMPDEST POP GAS CALL ISZERO DUP1 ISZERO PUSH2 0x33F JUMPI RETURNDATASIZE PUSH1 0x0 DUP1 RETURNDATACOPY RETURNDATASIZE PUSH1 0x0 REVERT JUMPDEST POP POP PUSH1 0x40 MLOAD PUSH4 0xB68210A9 PUSH1 0xE0 SHL DUP2 MSTORE PUSH1 0x4 DUP2 ADD DUP9 SWAP1 MSTORE PUSH1 0x24 DUP2 ADD DUP6 SWAP1 MSTORE PUSH1 0x44 DUP2 ADD DUP5 SWAP1 MSTORE PUSH32 0x0 PUSH1 0x1 PUSH1 0x1 PUSH1 0xA0 SHL SUB AND SWAP3 POP PUSH4 0xB68210A9 SWAP2 POP PUSH1 0x64 ADD PUSH1 0x20 PUSH1 0x40 MLOAD DUP1 DUP4 SUB DUP2 PUSH1 0x0 DUP8 GAS CALL ISZERO DUP1 ISZERO PUSH2 0x3B8 JUMPI RETURNDATASIZE PUSH1 0x0 DUP1 RETURNDATACOPY RETURNDATASIZE PUSH1 0x0 REVERT JUMPDEST POP POP POP POP PUSH1 0x40 MLOAD RETURNDATASIZE PUSH1 0x1F NOT PUSH1 0x1F DUP3 ADD AND DUP3 ADD DUP1 PUSH1 0x40 MSTORE POP DUP2 ADD SWAP1 PUSH2 0x3DC SWAP2 SWAP1 PUSH2 0x4FB JUMP JUMPDEST POP POP POP POP POP POP JUMP JUMPDEST PUSH1 0x0 DUP3 MLOAD PUSH1 0x0 JUMPDEST DUP2 DUP2 LT ISZERO PUSH2 0x405 JUMPI PUSH1 0x20 DUP2 DUP7 ADD DUP2 ADD MLOAD DUP6 DUP4 ADD MSTORE ADD PUSH2 0x3EB JUMP JUMPDEST POP PUSH1 0x0 SWAP3 ADD SWAP2 DUP3 MSTORE POP SWAP2 SWAP1 POP JUMP JUMPDEST PUSH1 0x0 DUP1 PUSH1 0x0 DUP1 PUSH1 0x0 PUSH1 0xA0 DUP7 DUP9 SUB SLT ISZERO PUSH2 0x42B JUMPI PUSH1 0x0 DUP1 REVERT JUMPDEST POP POP DUP4 CALLDATALOAD SWAP6 PUSH1 0x20 DUP6 ADD CALLDATALOAD SWAP6 POP PUSH1 0x40 DUP6 ADD CALLDATALOAD SWAP5 PUSH1 0x60 DUP2 ADD CALLDATALOAD SWAP5 POP PUSH1 0x80 ADD CALLDATALOAD SWAP3 POP SWAP1 POP JUMP JUMPDEST DUP4 DUP2 MSTORE DUP3 PUSH1 0x20 DUP3 ADD MSTORE PUSH1 0xE0 PUSH1 0x40 DUP3 ADD MSTORE PUSH1 0x13 PUSH1 0xE0 DUP3 ADD MSTORE PUSH19 0xD2E0CCE6745E5EC2E8E8C2C6D65AC4C2E8C6D PUSH1 0x6B SHL PUSH2 0x100 DUP3 ADD MSTORE PUSH1 0x0 PUSH2 0x120 DUP4 PUSH1 0x60 DUP5 ADD MSTORE DUP1 PUSH1 0x80 DUP5 ADD MSTORE PUSH1 0x8 DUP2 DUP5 ADD MSTORE POP PUSH8 0x30BA3A30B1B5B2B9 PUSH1 0xC1 SHL PUSH2 0x140 DUP4 ADD MSTORE PUSH2 0x160 DUP1 PUSH1 0xA0 DUP5 ADD MSTORE PUSH1 0x5 DUP2 DUP5 ADD MSTORE POP PUSH5 0x6D616E6469 PUSH1 0xD8 SHL PUSH2 0x180 DUP4 ADD MSTORE PUSH2 0x1A0 DUP1 PUSH1 0xC0 DUP5 ADD MSTORE PUSH2 0x4F1 DUP2 DUP5 ADD PUSH1 0x4 DUP2 MSTORE PUSH4 0x1CD95959 PUSH1 0xE2 SHL PUSH1 0x20 DUP3 ADD MSTORE PUSH1 0x40 ADD SWAP1 JUMP JUMPDEST SWAP7 SWAP6 POP POP POP POP POP POP JUMP JUMPDEST PUSH1 0x0 PUSH1 0x20 DUP3 DUP5 SUB SLT ISZERO PUSH2 0x50D JUMPI PUSH1 0x0 DUP1 REVERT JUMPDEST POP MLOAD SWAP2 SWAP1 POP JUMP INVALID LOG2 PUSH5 0x6970667358 0x22 SLT KECCAK256 0xA8 PUSH26 0x42E281EF50AA74C9E378FE39E88696145173326A52E40ECB14B1 0xC5 LOG4 GASLIMIT PUSH27 0x64736F6C6343000813003300000000000000000000000000000000 "},"methodIdentifiers":{"attackInProgress()":"818c8c7c","attackWithdraw()":"73408895","createBatchAndListing(bytes32,bytes32,uint256,uint256,uint256)":"dd4bc2f5","reentrancySucceeded()":"6c760a23","reentryAttempts()":"a8745cd2","target()":"d4b83992"}}}}}