{"contracts/CropChain.sol":{"CropChain":{"abi":[{"inputs":[],"stateMutability":"nonpayable","type":"constructor"},{"anonymous":false,"inputs":[{"indexed":true,"internalType":"bytes32","name":"batchId","type":"bytes32"},{"indexed":false,"internalType":"string","name":"ipfsCID","type":"string"},{"indexed":false,"internalType":"uint256","name":"quantity","type":"uint256"},{"indexed":true,"internalType":"address","name":"creator","type":"address"}],"name":"BatchCreated","type":"event"},{"anonymous":false,"inputs":[{"indexed":true,"internalType":"bytes32","name":"batchId","type":"bytes32"},{"indexed":true,"internalType":"address","name":"triggeredBy","type":"address"}],"name":"BatchRecalled","type":"event"},{"anonymous":false,"inputs":[{"indexed":true,"internalType":"bytes32","name":"batchId","type":"bytes32"},{"indexed":false,"internalType":"enum CropChain.Stage","name":"stage","type":"uint8"},{"indexed":false,"internalType":"string","name":"actorName","type":"string"},{"indexed":false,"internalType":"string","name":"location","type":"string"},{"indexed":true,"internalType":"address","name":"updatedBy","type":"address"}],"name":"BatchUpdated","type":"event"},{"anonymous":false,"inputs":[{"indexed":true,"internalType":"uint256","name":"listingId","type":"uint256"},{"indexed":true,"internalType":"address","name":"cancelledBy","type":"address"}],"name":"ListingCancelled","type":"event"},{"anonymous":false,"inputs":[{"indexed":true,"internalType":"uint256","name":"listingId","type":"uint256"},{"indexed":true,"internalType":"bytes32","name":"batchId","type":"bytes32"},{"indexed":true,"internalType":"address","name":"seller","type":"address"},{"indexed":false,"internalType":"uint256","name":"quantity","type":"uint256"},{"indexed":false,"internalType":"uint256","name":"unitPriceWei","type":"uint256"}],"name":"ListingCreated","type":"event"},{"anonymous":false,"inputs":[{"indexed":true,"internalType":"uint256","name":"listingId","type":"uint256"},{"indexed":true,"internalType":"address","name":"buyer","type":"address"},{"indexed":false,"internalType":"uint256","name":"quantity","type":"uint256"},{"indexed":false,"internalType":"uint256","name":"totalPaidWei","type":"uint256"}],"name":"ListingPurchased","type":"event"},{"anonymous":false,"inputs":[{"indexed":true,"internalType":"address","name":"previousOwner","type":"address"},{"indexed":true,"internalType":"address","name":"newOwner","type":"address"}],"name":"OwnershipTransferred","type":"event"},{"anonymous":false,"inputs":[{"indexed":false,"internalType":"address","name":"account","type":"address"}],"name":"Paused","type":"event"},{"anonymous":false,"inputs":[{"indexed":true,"internalType":"address","name":"account","type":"address"},{"indexed":false,"internalType":"uint256","name":"amountWei","type":"uint256"}],"name":"ProceedsWithdrawn","type":"event"},{"anonymous":false,"inputs":[{"indexed":true,"internalType":"address","name":"user","type":"address"},{"indexed":false,"internalType":"enum CropChain.ActorRole","name":"role","type":"uint8"}],"name":"RoleUpdated","type":"event"},{"anonymous":false,"inputs":[{"indexed":true,"internalType":"bytes32","name":"cropTypeHash","type":"bytes32"},{"indexed":false,"internalType":"uint256","name":"priceWei","type":"uint256"},{"indexed":false,"internalType":"uint256","name":"timestamp","type":"uint256"}],"name":"SpotPriceRecorded","type":"event"},{"anonymous":false,"inputs":[{"indexed":false,"internalType":"uint256","name":"twapWindowSeconds","type":"uint256"},{"indexed":false,"internalType":"uint256","name":"maxPriceDeviationBps","type":"uint256"}],"name":"TwapConfigUpdated","type":"event"},{"anonymous":false,"inputs":[{"indexed":false,"internalType":"address","name":"account","type":"address"}],"name":"Unpaused","type":"event"},{"inputs":[{"internalType":"uint256","name":"","type":"uint256"}],"name":"allBatchIds","outputs":[{"internalType":"bytes32","name":"","type":"bytes32"}],"stateMutability":"view","type":"function"},{"inputs":[{"internalType":"uint256","name":"listingId","type":"uint256"},{"internalType":"uint256","name":"quantity","type":"uint256"}],"name":"buyFromListing","outputs":[],"stateMutability":"payable","type":"function"},{"inputs":[{"internalType":"uint256","name":"listingId","type":"uint256"}],"name":"cancelListing","outputs":[],"stateMutability":"nonpayable","type":"function"},{"inputs":[{"internalType":"bytes32","name":"batchId","type":"bytes32"},{"internalType":"bytes32","name":"cropTypeHash","type":"bytes32"},{"internalType":"string","name":"ipfsCID","type":"string"},{"internalType":"uint256","name":"quantity","type":"uint256"},{"internalType":"string","name":"actorName","type":"string"},{"internalType":"string","name":"location","type":"string"},{"internalType":"string","name":"notes","type":"string"}],"name":"createBatch","outputs":[],"stateMutability":"nonpayable","type":"function"},{"inputs":[{"internalType":"bytes32","name":"batchId","type":"bytes32"},{"internalType":"uint256","name":"quantity","type":"uint256"},{"internalType":"uint256","name":"unitPriceWei","type":"uint256"}],"name":"createListing","outputs":[{"internalType":"uint256","name":"","type":"uint256"}],"stateMutability":"nonpayable","type":"function"},{"inputs":[{"internalType":"bytes32","name":"","type":"bytes32"}],"name":"cropBatches","outputs":[{"internalType":"bytes32","name":"batchId","type":"bytes32"},{"internalType":"bytes32","name":"cropTypeHash","type":"bytes32"},{"internalType":"string","name":"ipfsCID","type":"string"},{"internalType":"uint256","name":"quantity","type":"uint256"},{"internalType":"uint256","name":"createdAt","type":"uint256"},{"internalType":"address","name":"creator","type":"address"},{"internalType":"bool","name":"exists","type":"bool"},{"internalType":"bool","name":"isRecalled","type":"bool"}],"stateMutability":"view","type":"function"},{"inputs":[{"internalType":"bytes32","name":"batchId","type":"bytes32"}],"name":"getBatch","outputs":[{"components":[{"internalType":"bytes32","name":"batchId","type":"bytes32"},{"internalType":"bytes32","name":"cropTypeHash","type":"bytes32"},{"internalType":"string","name":"ipfsCID","type":"string"},{"internalType":"uint256","name":"quantity","type":"uint256"},{"internalType":"uint256","name":"createdAt","type":"uint256"},{"internalType":"address","name":"creator","type":"address"},{"internalType":"bool","name":"exists","type":"bool"},{"internalType":"bool","name":"isRecalled","type":"bool"}],"internalType":"struct CropChain.CropBatch","name":"","type":"tuple"}],"stateMutability":"view","type":"function"},{"inputs":[{"internalType":"uint256","name":"index","type":"uint256"}],"name":"getBatchIdByIndex","outputs":[{"internalType":"bytes32","name":"","type":"bytes32"}],"stateMutability":"view","type":"function"},{"inputs":[{"internalType":"bytes32","name":"batchId","type":"bytes32"}],"name":"getBatchUpdates","outputs":[{"components":[{"internalType":"enum CropChain.Stage","name":"stage","type":"uint8"},{"internalType":"string","name":"actorName","type":"string"},{"internalType":"string","name":"location","type":"string"},{"internalType":"uint256","name":"timestamp","type":"uint256"},{"internalType":"string","name":"notes","type":"string"},{"internalType":"address","name":"updatedBy","type":"address"}],"internalType":"struct CropChain.SupplyChainUpdate[]","name":"","type":"tuple[]"}],"stateMutability":"view","type":"function"},{"inputs":[{"internalType":"bytes32","name":"batchId","type":"bytes32"}],"name":"getLatestUpdate","outputs":[{"components":[{"internalType":"enum CropChain.Stage","name":"stage","type":"uint8"},{"internalType":"string","name":"actorName","type":"string"},{"internalType":"string","name":"location","type":"string"},{"internalType":"uint256","name":"timestamp","type":"uint256"},{"internalType":"string","name":"notes","type":"string"},{"internalType":"address","name":"updatedBy","type":"address"}],"internalType":"struct CropChain.SupplyChainUpdate","name":"","type":"tuple"}],"stateMutability":"view","type":"function"},{"inputs":[{"internalType":"bytes32","name":"cropTypeHash","type":"bytes32"}],"name":"getPriceObservationCount","outputs":[{"internalType":"uint256","name":"","type":"uint256"}],"stateMutability":"view","type":"function"},{"inputs":[],"name":"getTotalBatches","outputs":[{"internalType":"uint256","name":"","type":"uint256"}],"stateMutability":"view","type":"function"},{"inputs":[{"internalType":"bytes32","name":"cropTypeHash","type":"bytes32"},{"internalType":"uint256","name":"windowSeconds","type":"uint256"}],"name":"getTwapPrice","outputs":[{"internalType":"uint256","name":"","type":"uint256"}],"stateMutability":"view","type":"function"},{"inputs":[{"internalType":"bytes32","name":"","type":"bytes32"}],"name":"latestOraclePrice","outputs":[{"internalType":"uint256","name":"","type":"uint256"}],"stateMutability":"view","type":"function"},{"inputs":[{"internalType":"uint256","name":"","type":"uint256"}],"name":"listings","outputs":[{"internalType":"uint256","name":"listingId","type":"uint256"},{"internalType":"bytes32","name":"batchId","type":"bytes32"},{"internalType":"address","name":"seller","type":"address"},{"internalType":"uint256","name":"quantity","type":"uint256"},{"internalType":"uint256","name":"quantityAvailable","type":"uint256"},{"internalType":"uint256","name":"unitPriceWei","type":"uint256"},{"internalType":"bool","name":"active","type":"bool"},{"internalType":"uint256","name":"createdAt","type":"uint256"}],"stateMutability":"view","type":"function"},{"inputs":[],"name":"maxPriceDeviationBps","outputs":[{"internalType":"uint256","name":"","type":"uint256"}],"stateMutability":"view","type":"function"},{"inputs":[],"name":"nextListingId","outputs":[{"internalType":"uint256","name":"","type":"uint256"}],"stateMutability":"view","type":"function"},{"inputs":[],"name":"owner","outputs":[{"internalType":"address","name":"","type":"address"}],"stateMutability":"view","type":"function"},{"inputs":[],"name":"pause","outputs":[],"stateMutability":"nonpayable","type":"function"},{"inputs":[],"name":"paused","outputs":[{"internalType":"bool","name":"","type":"bool"}],"stateMutability":"view","type":"function"},{"inputs":[{"internalType":"address","name":"","type":"address"}],"name":"pendingWithdrawals","outputs":[{"internalType":"uint256","name":"","type":"uint256"}],"stateMutability":"view","type":"function"},{"inputs":[{"internalType":"bytes32","name":"batchId","type":"bytes32"}],"name":"recallBatch","outputs":[],"stateMutability":"nonpayable","type":"function"},{"inputs":[{"internalType":"bytes32","name":"cropTypeHash","type":"bytes32"},{"internalType":"uint256","name":"priceWei","type":"uint256"}],"name":"recordSpotPrice","outputs":[],"stateMutability":"nonpayable","type":"function"},{"inputs":[{"internalType":"address","name":"","type":"address"}],"name":"roles","outputs":[{"internalType":"enum CropChain.ActorRole","name":"","type":"uint8"}],"stateMutability":"view","type":"function"},{"inputs":[{"internalType":"bool","name":"shouldPause","type":"bool"}],"name":"setPaused","outputs":[],"stateMutability":"nonpayable","type":"function"},{"inputs":[{"internalType":"address","name":"user","type":"address"},{"internalType":"enum CropChain.ActorRole","name":"role","type":"uint8"}],"name":"setRole","outputs":[],"stateMutability":"nonpayable","type":"function"},{"inputs":[{"internalType":"uint256","name":"twapWindowSeconds","type":"uint256"},{"internalType":"uint256","name":"maxDeviationBps","type":"uint256"}],"name":"setTwapConfig","outputs":[],"stateMutability":"nonpayable","type":"function"},{"inputs":[{"internalType":"address","name":"newOwner","type":"address"}],"name":"transferOwnership","outputs":[],"stateMutability":"nonpayable","type":"function"},{"inputs":[],"name":"twapWindow","outputs":[{"internalType":"uint256","name":"","type":"uint256"}],"stateMutability":"view","type":"function"},{"inputs":[],"name":"unpause","outputs":[],"stateMutability":"nonpayable","type":"function"},{"inputs":[{"internalType":"bytes32","name":"batchId","type":"bytes32"},{"internalType":"enum CropChain.Stage","name":"stage","type":"uint8"},{"internalType":"string","name":"actorName","type":"string"},{"internalType":"string","name":"location","type":"string"},{"internalType":"string","name":"notes","type":"string"}],"name":"updateBatch","outputs":[],"stateMutability":"nonpayable","type":"function"},{"inputs":[],"name":"withdrawProceeds","outputs":[],"stateMutability":"nonpayable","type":"function"}],"evm":{"bytecode":{"linkReferences":{},"object":"608060405234801561001057600080fd5b506000805460ff1990811682556001808055600a8054336001600160a01b0319909116811790915583526004602052604090922080549091166006179055600b55610e10600c556105dc600d556134eb8061006c6000396000f3fe6080604052600436106101e35760003560e01c80638da5cb5b11610102578063ab00501111610095578063e561dddc11610064578063e561dddc14610649578063ed42136f1461065e578063f2fde38b1461068b578063f3f43703146106ab57600080fd5b8063ab00501114610517578063aef9f81314610544578063b68210a914610571578063de74e57b1461059157600080fd5b8063a0b6041d116100d1578063a0b6041d14610494578063a2173df4146104b4578063a9437275146104d4578063aaccf1ec1461050157600080fd5b80638da5cb5b146103d65780639038e6931461040e578063906ddff114610423578063993746421461045757600080fd5b80634e8cdd9c1161017a5780636cccf52d116101495780636cccf52d1461037557806379baa1a2146103955780638107e133146103ab5780638456cb59146103c157600080fd5b80634e8cdd9c146102f2578063507e222414610305578063571c3e60146103325780635c975abb1461035257600080fd5b8063332e2ac0116101b6578063332e2ac01461027d57806336214a1c1461029d5780633aac0544146102bd5780633f4ba83a146102dd57600080fd5b80630c13e6db146101e857806316c38b3c1461020a578063290b17ec1461022a578063305a67a81461025d575b600080fd5b3480156101f457600080fd5b50610208610203366004612c8d565b6106d8565b005b34801561021657600080fd5b50610208610225366004612ca6565b6107ae565b34801561023657600080fd5b5061024a610245366004612c8d565b610804565b6040519081526020015b60405180910390f35b34801561026957600080fd5b50610208610278366004612c8d565b610825565b34801561028957600080fd5b50610208610298366004612cc8565b610933565b3480156102a957600080fd5b506102086102b8366004612d33565b610a37565b3480156102c957600080fd5b506102086102d8366004612cc8565b610e70565b3480156102e957600080fd5b50610208611018565b610208610300366004612cc8565b61105d565b34801561031157600080fd5b5061024a610320366004612c8d565b60009081526006602052604090205490565b34801561033e57600080fd5b5061020861034d366004612e09565b6113ae565b34801561035e57600080fd5b5060005460ff166040519015158152602001610254565b34801561038157600080fd5b50610208610390366004612e44565b6114ac565b3480156103a157600080fd5b5061024a600d5481565b3480156103b757600080fd5b5061024a600c5481565b3480156103cd57600080fd5b50610208611953565b3480156103e257600080fd5b50600a546103f6906001600160a01b031681565b6040516001600160a01b039091168152602001610254565b34801561041a57600080fd5b5061020861198d565b34801561042f57600080fd5b5061044361043e366004612c8d565b611ac1565b604051610254989796959493929190612f72565b34801561046357600080fd5b50610487610472366004612fcb565b60046020526000908152604090205460ff1681565b6040516102549190612ffc565b3480156104a057600080fd5b5061024a6104af366004612c8d565b611ba1565b3480156104c057600080fd5b5061024a6104cf366004612cc8565b611c0a565b3480156104e057600080fd5b506104f46104ef366004612c8d565b611d8a565b60405161025491906130ac565b34801561050d57600080fd5b5061024a600b5481565b34801561052357600080fd5b50610537610532366004612c8d565b612032565b604051610254919061310e565b34801561055057600080fd5b5061024a61055f366004612c8d565b60076020526000908152604090205481565b34801561057d57600080fd5b5061024a61058c366004613121565b612346565b34801561059d57600080fd5b506106006105ac366004612c8d565b600560208190526000918252604090912080546001820154600283015460038401546004850154958501546006860154600790960154949693956001600160a01b0390931694919392909160ff9091169088565b6040805198895260208901979097526001600160a01b03909516958701959095526060860192909252608085015260a084015290151560c083015260e082015261010001610254565b34801561065557600080fd5b5060095461024a565b34801561066a57600080fd5b5061067e610679366004612c8d565b612682565b604051610254919061314d565b34801561069757600080fd5b506102086106a6366004612fcb565b612816565b3480156106b757600080fd5b5061024a6106c6366004612fcb565b60086020526000908152604090205481565b600a546001600160a01b0316331461070b5760405162461bcd60e51b8152600401610702906131d0565b60405180910390fd5b610713612902565b61071b612948565b6000818152600260205260409020600501548190600160a01b900460ff166107555760405162461bcd60e51b8152600401610702906131f4565b600082815260026020526040808220600501805460ff60a81b1916600160a81b17905551339184917fe436bcddf7c3f20475a5cdfeaed40936b46f491ec050e636f35cfa92161342ba9190a3506107ab60018055565b50565b600a546001600160a01b031633146107d85760405162461bcd60e51b8152600401610702906131d0565b6107e0612948565b80156107f3576107ee6129a1565b6107fb565b6107fb6129fb565b6107ab60018055565b6009818154811061081457600080fd5b600091825260209091200154905081565b61082d612902565b610835612948565b6000818152600560205260409020600681015460ff1661088a5760405162461bcd60e51b815260206004820152601060248201526f4c697374696e6720696e61637469766560801b6044820152606401610702565b60028101546001600160a01b03163314806108af5750600a546001600160a01b031633145b6108e95760405162461bcd60e51b815260206004820152600b60248201526a139bdd08185b1b1bddd95960aa1b6044820152606401610702565b60068101805460ff19169055600060048201819055604051339184917f8e25282255ab31897df2b0456bb993ac7f84d376861aefd84901d2d63a7428a29190a3506107ab60018055565b600a546001600160a01b0316331461095d5760405162461bcd60e51b8152600401610702906131d0565b610965612948565b600082116109a05760405162461bcd60e51b8152602060048201526008602482015267057696e646f773d360c41b6044820152606401610702565b6113888111156109e75760405162461bcd60e51b8152602060048201526012602482015271088caecd2c2e8d2dedc40e8dede40d0d2ced60731b6044820152606401610702565b600c829055600d81905560408051838152602081018390527fd7ddc163e966adaeef708042d878eaa18ade5df877818262c96dd6eb79c42b7d910160405180910390a1610a3360018055565b5050565b3360009081526004602052604081205460ff166006811115610a5b57610a5b612fe6565b03610a785760405162461bcd60e51b81526004016107029061321d565b610a80612902565b610a88612948565b6000888152600260205260409020600501548890600160a01b900460ff16610ac25760405162461bcd60e51b8152600401610702906131f4565b600089815260026020526040902060050154600160a81b900460ff1615610b1f5760405162461bcd60e51b815260206004820152601160248201527010985d18da081a5cc81c9958d85b1b1959607a1b6044820152606401610702565b85610b5d5760405162461bcd60e51b815260206004820152600e60248201526d1058dd1bdc881c995c5d5a5c995960921b6044820152606401610702565b83610b9e5760405162461bcd60e51b8152602060048201526011602482015270131bd8d85d1a5bdb881c995c5d5a5c9959607a1b6044820152606401610702565b610ba88989612a34565b610bf45760405162461bcd60e51b815260206004820152601860248201527f496e76616c6964207374616765207472616e736974696f6e00000000000000006044820152606401610702565b3360009081526004602052604090205460ff166006816006811115610c1b57610c1b612fe6565b1480610c2c5750610c2c8982612ad9565b610c785760405162461bcd60e51b815260206004820152601a60248201527f526f6c65206e6f7420616c6c6f77656420666f722073746167650000000000006044820152606401610702565b600360008b81526020019081526020016000206040518060c001604052808b6003811115610ca857610ca8612fe6565b81526020018a8a8080601f016020809104026020016040519081016040528093929190818152602001838380828437600092019190915250505090825250604080516020601f8b0181900481028201810190925289815291810191908a908a90819084018382808284376000920191909152505050908252504260208083019190915260408051601f890183900483028101830182528881529201919088908890819084018382808284376000920182905250938552505033602093840152508354600181810186559482529190208251600690920201805492939092839160ff1990911690836003811115610da057610da0612fe6565b021790555060208201516001820190610db990826132dd565b5060408201516002820190610dce90826132dd565b506060820151600382015560808201516004820190610ded90826132dd565b5060a09190910151600590910180546001600160a01b0319166001600160a01b0390921691909117905560405133908b907f2cefceaa731c274adf2f7bd3b3237d2e06cb4fe59bd62d9ea2055287a132d36490610e53908d908d908d908d908d906133c6565b60405180910390a35050610e6660018055565b5050505050505050565b3360009081526004602052604090205460ff166005816006811115610e9757610e97612fe6565b1480610eb457506006816006811115610eb257610eb2612fe6565b145b610ef45760405162461bcd60e51b815260206004820152601160248201527027b7363c9037b930b1b63297b0b236b4b760791b6044820152606401610702565b610efc612902565b610f04612948565b82610f455760405162461bcd60e51b8152602060048201526011602482015270496e76616c69642063726f70207479706560781b6044820152606401610702565b60008211610f7f5760405162461bcd60e51b8152602060048201526007602482015266050726963653d360cc1b6044820152606401610702565b6000838152600660209081526040808320815180830183524280825281850188815283546001808201865594885286882093516002909102909301928355519190920155868452600783529281902085905580518581529182019290925284917f9c43ba64e58f42018e29d3b8e3aa7f03ec30366613d0b3a2b07b26e75b5bb817910160405180910390a261101360018055565b505050565b600a546001600160a01b031633146110425760405162461bcd60e51b8152600401610702906131d0565b61104a612948565b6110526129fb565b61105b60018055565b565b611065612902565b61106d612948565b6000828152600560205260409020600681015460ff166110c25760405162461bcd60e51b815260206004820152601060248201526f4c697374696e6720696e61637469766560801b6044820152606401610702565b6000821180156110d6575080600401548211155b6111155760405162461bcd60e51b815260206004820152601060248201526f496e76616c6964207175616e7469747960801b6044820152606401610702565b600181015460009081526002602052604090206005810154600160a01b900460ff16801561114f57506005810154600160a81b900460ff16155b61118f5760405162461bcd60e51b8152602060048201526011602482015270426174636820756e617661696c61626c6560781b6044820152606401610702565b60006111a18260010154600c54611c0a565b90508015611206576111ba836005015482600d54612bdf565b6112065760405162461bcd60e51b815260206004820152601760248201527f5457415020646576696174696f6e20746f6f20686967680000000000000000006044820152606401610702565b6000848460050154611218919061341c565b9050803410156112615760405162461bcd60e51b8152602060048201526014602482015273125b9cdd59999a58da595b9d081c185e5b595b9d60621b6044820152606401610702565b848460040160008282546112759190613433565b909155505060048401546000036112935760068401805460ff191690555b60028401546001600160a01b0316600090815260086020526040812080548392906112bf908490613446565b90915550600090506112d18234613433565b9050801561136357604051600090339083908381818185875af1925050503d806000811461131b576040519150601f19603f3d011682016040523d82523d6000602084013e611320565b606091505b50509050806113615760405162461bcd60e51b815260206004820152600d60248201526c1499599d5b990819985a5b1959609a1b6044820152606401610702565b505b6040805187815260208101849052339189917f0db6cd6881fc0453b2d01f52eb5a16417707659f245732abc10f847426e3525d910160405180910390a35050505050610a3360018055565b600a546001600160a01b031633146113d85760405162461bcd60e51b8152600401610702906131d0565b6113e0612948565b6001600160a01b0382166114285760405162461bcd60e51b815260206004820152600f60248201526e496e76616c6964206164647265737360881b6044820152606401610702565b6001600160a01b0382166000908152600460205260409020805482919060ff1916600183600681111561145d5761145d612fe6565b0217905550816001600160a01b03167fc3f8f61911a1537261f77e2703626e158e299a98e341024ecaa26bbd1d884c648260405161149b9190612ffc565b60405180910390a2610a3360018055565b3360009081526004602052604081205460ff1660068111156114d0576114d0612fe6565b036114ed5760405162461bcd60e51b81526004016107029061321d565b6114f5612902565b6114fd612948565b60008b815260026020526040902060050154600160a01b900460ff161561155d5760405162461bcd60e51b8152602060048201526014602482015273426174636820616c72656164792065786973747360601b6044820152606401610702565b8a61159d5760405162461bcd60e51b815260206004820152601060248201526f125b9d985b1a590818985d18da08125160821b6044820152606401610702565b896115de5760405162461bcd60e51b8152602060048201526011602482015270496e76616c69642063726f70207479706560781b6044820152606401610702565b600087116116255760405162461bcd60e51b815260206004820152601460248201527305175616e74697479206d757374206265203e20360641b6044820152606401610702565b6040518061010001604052808c81526020018b81526020018a8a8080601f016020809104026020016040519081016040528093929190818152602001838380828437600092018290525093855250505060208083018b90524260408085019190915233606085015260016080850181905260a09094018390528f835260028083529281902085518155918501519382019390935591830151908201906116cb90826132dd565b5060608201516003808301919091556080830151600483015560a08301516005909201805460c08086015160e0909601511515600160a81b0260ff60a81b19961515600160a01b026001600160a81b03199093166001600160a01b039096169590951791909117949094169290921790915560008d81526020919091526040808220815193840190915291908190815260200188888080601f016020809104026020016040519081016040528093929190818152602001838380828437600092019190915250505090825250604080516020601f8901819004810282018101909252878152918101919088908890819084018382808284376000920191909152505050908252504260208083019190915260408051601f870183900483028101830182528681529201919086908690819084018382808284376000920182905250938552505033602093840152508354600181810186559482529190208251600690920201805492939092839160ff199091169083600381111561185157611851612fe6565b02179055506020820151600182019061186a90826132dd565b506040820151600282019061187f90826132dd565b50606082015160038201556080820151600482019061189e90826132dd565b5060a09190910151600590910180546001600160a01b0319166001600160a01b03909216919091179055600980546001810182556000919091527f6e1540171b6c0c960b71a7020d9f60077f6af931a8bbf590da0223dacf75c7af018b905560405133908c907f1e548d6c3fb449f78f5b7457156dcfb300cbb65d12a4038b334b6bfbdba9573890611935908d908d908d90613459565b60405180910390a361194660018055565b5050505050505050505050565b600a546001600160a01b0316331461197d5760405162461bcd60e51b8152600401610702906131d0565b611985612948565b6110526129a1565b611995612902565b61199d612948565b33600090815260086020526040902054806119e85760405162461bcd60e51b815260206004820152600b60248201526a4e6f2070726f636565647360a81b6044820152606401610702565b336000818152600860205260408082208290555190919083908381818185875af1925050503d8060008114611a39576040519150601f19603f3d011682016040523d82523d6000602084013e611a3e565b606091505b5050905080611a815760405162461bcd60e51b815260206004820152600f60248201526e15da5d1a191c985dc819985a5b1959608a1b6044820152606401610702565b60405182815233907f0f2fb75cc1977a496e94837f859e957f68e26e70dc1b75d9945ee92ae57969ba9060200160405180910390a2505061105b60018055565b600260208190526000918252604090912080546001820154928201805491939291611aeb9061325b565b80601f0160208091040260200160405190810160405280929190818152602001828054611b179061325b565b8015611b645780601f10611b3957610100808354040283529160200191611b64565b820191906000526020600020905b815481529060010190602001808311611b4757829003601f168201915b50505060038401546004850154600590950154939490939092506001600160a01b038116915060ff600160a01b8204811691600160a81b90041688565b6009546000908210611be55760405162461bcd60e51b815260206004820152600d60248201526c4f7574206f6620626f756e647360981b6044820152606401610702565b60098281548110611bf857611bf861347d565b90600052602060002001549050919050565b60008281526006602052604081208054808303611c2c57600092505050611d84565b83600003611c6b5781611c40600183613433565b81548110611c5057611c5061347d565b90600052602060002090600202016001015492505050611d84565b6000844211611c7b576000611c85565b611c858542613433565b905042600080845b8015611d2d576001810390506000878281548110611cad57611cad61347d565b90600052602060002090600202019050600086826000015411611cd05786611cd3565b81545b905080861115611d15576000611ce98288613433565b9050808360010154611cfb919061341c565b611d059087613446565b9550611d118186613446565b9450505b81548710611d24575050611d2d565b50549350611c8d565b5080600003611d715785611d42600187613433565b81548110611d5257611d5261347d565b9060005260206000209060020201600101549650505050505050611d84565b611d7b8183613493565b96505050505050505b92915050565b6000818152600260205260409020600501546060908290600160a01b900460ff16611dc75760405162461bcd60e51b8152600401610702906131f4565b600083815260036020908152604080832080548251818502810185019093528083529193909284015b82821015612025576000848152602090206040805160c08101909152600684029091018054829060ff166003811115611e2b57611e2b612fe6565b6003811115611e3c57611e3c612fe6565b8152602001600182018054611e509061325b565b80601f0160208091040260200160405190810160405280929190818152602001828054611e7c9061325b565b8015611ec95780601f10611e9e57610100808354040283529160200191611ec9565b820191906000526020600020905b815481529060010190602001808311611eac57829003601f168201915b50505050508152602001600282018054611ee29061325b565b80601f0160208091040260200160405190810160405280929190818152602001828054611f0e9061325b565b8015611f5b5780601f10611f3057610100808354040283529160200191611f5b565b820191906000526020600020905b815481529060010190602001808311611f3e57829003601f168201915b5050505050815260200160038201548152602001600482018054611f7e9061325b565b80601f0160208091040260200160405190810160405280929190818152602001828054611faa9061325b565b8015611ff75780601f10611fcc57610100808354040283529160200191611ff7565b820191906000526020600020905b815481529060010190602001808311611fda57829003601f168201915b5050509183525050600591909101546001600160a01b03166020918201529082526001929092019101611df0565b5050505091505b50919050565b6120756040805160c0810190915280600081526020016060815260200160608152602001600081526020016060815260200160006001600160a01b031681525090565b6000828152600260205260409020600501548290600160a01b900460ff166120af5760405162461bcd60e51b8152600401610702906131f4565b600083815260036020526040902054806120f85760405162461bcd60e51b815260206004820152600a6024820152694e6f207570646174657360b01b6044820152606401610702565b6000848152600360205260409020612111600183613433565b815481106121215761212161347d565b600091825260209091206040805160c081019091526006909202018054829060ff16600381111561215457612154612fe6565b600381111561216557612165612fe6565b81526020016001820180546121799061325b565b80601f01602080910402602001604051908101604052809291908181526020018280546121a59061325b565b80156121f25780601f106121c7576101008083540402835291602001916121f2565b820191906000526020600020905b8154815290600101906020018083116121d557829003601f168201915b5050505050815260200160028201805461220b9061325b565b80601f01602080910402602001604051908101604052809291908181526020018280546122379061325b565b80156122845780601f1061225957610100808354040283529160200191612284565b820191906000526020600020905b81548152906001019060200180831161226757829003601f168201915b50505050508152602001600382015481526020016004820180546122a79061325b565b80601f01602080910402602001604051908101604052809291908181526020018280546122d39061325b565b80156123205780601f106122f557610100808354040283529160200191612320565b820191906000526020600020905b81548152906001019060200180831161230357829003601f168201915b5050509183525050600591909101546001600160a01b0316602090910152949350505050565b6000803360009081526004602052604090205460ff16600681111561236d5761236d612fe6565b0361238a5760405162461bcd60e51b81526004016107029061321d565b612392612902565b61239a612948565b6000848152600260205260409020600501548490600160a01b900460ff166123d45760405162461bcd60e51b8152600401610702906131f4565b60008581526002602052604090206005810154600160a81b900460ff16156124325760405162461bcd60e51b815260206004820152601160248201527010985d18da081a5cc81c9958d85b1b1959607a1b6044820152606401610702565b600085118015612446575080600301548511155b6124855760405162461bcd60e51b815260206004820152601060248201526f496e76616c6964207175616e7469747960801b6044820152606401610702565b600084116124bf5760405162461bcd60e51b8152602060048201526007602482015266050726963653d360cc1b6044820152606401610702565b33600081815260046020526040902054600583015460ff909116916001600160a01b0390911614806125025750600281600681111561250057612500612fe6565b145b8061251e5750600681600681111561251c5761251c612fe6565b145b61256a5760405162461bcd60e51b815260206004820152601860248201527f4f6e6c792063726561746f722f6d616e64692f61646d696e00000000000000006044820152606401610702565b600b54612578816001613446565b600b55604080516101008101825282815260208082018b815233838501818152606085018d8152608086018e815260a087018e8152600160c089018181524260e08b0190815260008d81526005808c52908d90209b518c559851928b0192909255945160028a0180546001600160a01b0319166001600160a01b03909216919091179055925160038901559051600488015551938601939093555160068501805460ff1916911515919091179055905160079093019290925582518a815290810189905290918a9184917f70a9073e3ca286ce6123fbda2a3a02d9ab166d67e00d7863763c09f138575220910160405180910390a4935050505061267b60018055565b9392505050565b604080516101008101825260008082526020820181905260609282018390529181018290526080810182905260a0810182905260c0810182905260e08101919091526000828152600260205260409020600501548290600160a01b900460ff166126fe5760405162461bcd60e51b8152600401610702906131f4565b600260008481526020019081526020016000206040518061010001604052908160008201548152602001600182015481526020016002820180546127419061325b565b80601f016020809104026020016040519081016040528092919081815260200182805461276d9061325b565b80156127ba5780601f1061278f576101008083540402835291602001916127ba565b820191906000526020600020905b81548152906001019060200180831161279d57829003601f168201915b505050918352505060038201546020820152600482015460408201526005909101546001600160a01b038116606083015260ff600160a01b8204811615156080840152600160a81b90910416151560a090910152915050919050565b600a546001600160a01b031633146128405760405162461bcd60e51b8152600401610702906131d0565b612848612948565b6001600160a01b0381166128905760405162461bcd60e51b815260206004820152600f60248201526e496e76616c6964206164647265737360881b6044820152606401610702565b600a80546001600160a01b031981166001600160a01b03848116918217909355600081815260046020526040808220805460ff19166006179055519390921692909183917f8be0079c531659141344cd1fd0a4f28419497f9722a3daafe3b4186f6b6457e09190a3506107ab60018055565b60005460ff161561105b5760405162461bcd60e51b815260206004820152601060248201526f14185d5cd8589b194e881c185d5cd95960821b6044820152606401610702565b60026001540361299a5760405162461bcd60e51b815260206004820152601f60248201527f5265656e7472616e637947756172643a207265656e7472616e742063616c6c006044820152606401610702565b6002600155565b6129a9612902565b6000805460ff191660011790557f62e78cea01bee320cd4e420270b5ea74000d11b0c9f74754ebdbfc544b05a2586129de3390565b6040516001600160a01b03909116815260200160405180910390a1565b612a03612c44565b6000805460ff191690557f5db9ee0a495bf2e6ff9c91a7834c1ba4fdd244a5e8aa4e537bd38aeae4b073aa336129de565b600082815260036020526040812080548203612a67576000836003811115612a5e57612a5e612fe6565b14915050611d84565b80546000908290612a7a90600190613433565b81548110612a8a57612a8a61347d565b600091825260209091206006909102015460ff169050806003811115612ab257612ab2612fe6565b612abd906001613446565b846003811115612acf57612acf612fe6565b1495945050505050565b600080836003811115612aee57612aee612fe6565b148015612b0c57506001826006811115612b0a57612b0a612fe6565b145b15612b1957506001611d84565b6001836003811115612b2d57612b2d612fe6565b148015612b4b57506002826006811115612b4957612b49612fe6565b145b15612b5857506001611d84565b6002836003811115612b6c57612b6c612fe6565b148015612b8a57506003826006811115612b8857612b88612fe6565b145b15612b9757506001611d84565b6003836003811115612bab57612bab612fe6565b148015612bc957506004826006811115612bc757612bc7612fe6565b145b15612bd657506001611d84565b50600092915050565b600080612710612bef8482613433565b612bf9908661341c565b612c039190613493565b90506000612710612c148582613446565b612c1e908761341c565b612c289190613493565b9050818610158015612c3a5750808611155b9695505050505050565b60005460ff1661105b5760405162461bcd60e51b815260206004820152601460248201527314185d5cd8589b194e881b9bdd081c185d5cd95960621b6044820152606401610702565b600060208284031215612c9f57600080fd5b5035919050565b600060208284031215612cb857600080fd5b8135801515811461267b57600080fd5b60008060408385031215612cdb57600080fd5b50508035926020909101359150565b60008083601f840112612cfc57600080fd5b50813567ffffffffffffffff811115612d1457600080fd5b602083019150836020828501011115612d2c57600080fd5b9250929050565b60008060008060008060008060a0898b031215612d4f57600080fd5b88359750602089013560048110612d6557600080fd5b9650604089013567ffffffffffffffff80821115612d8257600080fd5b612d8e8c838d01612cea565b909850965060608b0135915080821115612da757600080fd5b612db38c838d01612cea565b909650945060808b0135915080821115612dcc57600080fd5b50612dd98b828c01612cea565b999c989b5096995094979396929594505050565b80356001600160a01b0381168114612e0457600080fd5b919050565b60008060408385031215612e1c57600080fd5b612e2583612ded565b9150602083013560078110612e3957600080fd5b809150509250929050565b600080600080600080600080600080600060e08c8e031215612e6557600080fd5b8b359a5060208c0135995067ffffffffffffffff8060408e01351115612e8a57600080fd5b612e9a8e60408f01358f01612cea565b909a50985060608d0135975060808d0135811015612eb757600080fd5b612ec78e60808f01358f01612cea565b909750955060a08d0135811015612edd57600080fd5b612eed8e60a08f01358f01612cea565b909550935060c08d0135811015612f0357600080fd5b50612f148d60c08e01358e01612cea565b81935080925050509295989b509295989b9093969950565b6000815180845260005b81811015612f5257602081850181015186830182015201612f36565b506000602082860101526020601f19601f83011685010191505092915050565b60006101008a8352896020840152806040840152612f928184018a612f2c565b6060840198909852505060808101949094526001600160a01b039290921660a0840152151560c0830152151560e0909101529392505050565b600060208284031215612fdd57600080fd5b61267b82612ded565b634e487b7160e01b600052602160045260246000fd5b602081016007831061301057613010612fe6565b91905290565b6004811061302657613026612fe6565b9052565b613035828251613016565b6000602082015160c0602085015261305060c0850182612f2c565b9050604083015184820360408601526130698282612f2c565b915050606083015160608501526080830151848203608086015261308d8282612f2c565b60a0948501516001600160a01b03169590940194909452509092915050565b6000602080830181845280855180835260408601915060408160051b870101925083870160005b8281101561310157603f198886030184526130ef85835161302a565b945092850192908501906001016130d3565b5092979650505050505050565b60208152600061267b602083018461302a565b60008060006060848603121561313657600080fd5b505081359360208301359350604090920135919050565b60208152815160208201526020820151604082015260006040830151610100806060850152613180610120850183612f2c565b915060608501516080850152608085015160a085015260018060a01b0360a08601511660c085015260c0850151151560e085015260e08501516131c68286018215159052565b5090949350505050565b6020808252600a908201526927b7363c9037bbb732b960b11b604082015260600190565b6020808252600f908201526e10985d18da081b9bdd08199bdd5b99608a1b604082015260600190565b6020808252600e908201526d139bdd08185d5d1a1bdc9a5e995960921b604082015260600190565b634e487b7160e01b600052604160045260246000fd5b600181811c9082168061326f57607f821691505b60208210810361202c57634e487b7160e01b600052602260045260246000fd5b601f82111561101357600081815260208120601f850160051c810160208610156132b65750805b601f850160051c820191505b818110156132d5578281556001016132c2565b505050505050565b815167ffffffffffffffff8111156132f7576132f7613245565b61330b81613305845461325b565b8461328f565b602080601f83116001811461334057600084156133285750858301515b600019600386901b1c1916600185901b1785556132d5565b600085815260208120601f198616915b8281101561336f57888601518255948401946001909101908401613350565b508582101561338d5787850151600019600388901b60f8161c191681555b5050505050600190811b01905550565b81835281816020850137506000828201602090810191909152601f909101601f19169091010190565b6133d08187613016565b6060602082015260006133e760608301868861339d565b82810360408401526133fa81858761339d565b98975050505050505050565b634e487b7160e01b600052601160045260246000fd5b8082028115828204841417611d8457611d84613406565b81810381811115611d8457611d84613406565b80820180821115611d8457611d84613406565b60408152600061346d60408301858761339d565b9050826020830152949350505050565b634e487b7160e01b600052603260045260246000fd5b6000826134b057634e487b7160e01b600052601260045260246000fd5b50049056fea2646970667358221220bb90c9eeaa2d0946c8bc2a4901204aee171d0d5529c1804f636325caf3b551d364736f6c63430008130033","opcodes":"PUSH1 0x80 PUSH1 0x40 MSTORE CALLVALUE DUP1 ISZERO PUSH2 0x10 JUMPI PUSH1 0x0 DUP1 REVERT JUMPDEST POP PUSH1 0x0 DUP1 SLOAD PUSH1 0xFF NOT SWAP1 DUP2 AND DUP3 SSTORE PUSH1 0x1 DUP1 DUP1 SSTORE PUSH1 0xA DUP1 SLOAD CALLER PUSH1 0x1 PUSH1 0x1 PUSH1 0xA0 SHL SUB NOT SWAP1 SWAP2 AND DUP2 OR SWAP1 SWAP2 SSTORE DUP4 MSTORE PUSH1 0x4 PUSH1 0x20 MSTORE PUSH1 0x40 SWAP1 SWAP3 KECCAK256 DUP1 SLOAD SWAP1 SWAP2 AND PUSH1 0x6 OR SWAP1 SSTORE PUSH1 0xB SSTORE PUSH2 0xE10 PUSH1 0xC SSTORE PUSH2 0x5DC PUSH1 0xD SSTORE PUSH2 0x34EB DUP1 PUSH2 0x6C PUSH1 0x0 CODECOPY PUSH1 0x0 RETURN INVALID PUSH1 0x80 PUSH1 0x40 MSTORE PUSH1 0x4 CALLDATASIZE LT PUSH2 0x1E3 JUMPI PUSH1 0x0 CALLDATALOAD PUSH1 0xE0 SHR DUP1 PUSH4 0x8DA5CB5B GT PUSH2 0x102 JUMPI DUP1 PUSH4 0xAB005011 GT PUSH2 0x95 JUMPI DUP1 PUSH4 0xE561DDDC GT PUSH2 0x64 JUMPI DUP1 PUSH4 0xE561DDDC EQ PUSH2 0x649 JUMPI DUP1 PUSH4 0xED42136F EQ PUSH2 0x65E JUMPI DUP1 PUSH4 0xF2FDE38B EQ PUSH2 0x68B JUMPI DUP1 PUSH4 0xF3F43703 EQ PUSH2 0x6AB JUMPI PUSH1 0x0 DUP1 REVERT JUMPDEST DUP1 PUSH4 0xAB005011 EQ PUSH2 0x517 JUMPI DUP1 PUSH4 0xAEF9F813 EQ PUSH2 0x544 JUMPI DUP1 PUSH4 0xB68210A9 EQ PUSH2 0x571 JUMPI DUP1 PUSH4 0xDE74E57B EQ PUSH2 0x591 JUMPI PUSH1 0x0 DUP1 REVERT JUMPDEST DUP1 PUSH4 0xA0B6041D GT PUSH2 0xD1 JUMPI DUP1 PUSH4 0xA0B6041D EQ PUSH2 0x494 JUMPI DUP1 PUSH4 0xA2173DF4 EQ PUSH2 0x4B4 JUMPI DUP1 PUSH4 0xA9437275 EQ PUSH2 0x4D4 JUMPI DUP1 PUSH4 0xAACCF1EC EQ PUSH2 0x501 JUMPI PUSH1 0x0 DUP1 REVERT JUMPDEST DUP1 PUSH4 0x8DA5CB5B EQ PUSH2 0x3D6 JUMPI DUP1 PUSH4 0x9038E693 EQ PUSH2 0x40E JUMPI DUP1 PUSH4 0x906DDFF1 EQ PUSH2 0x423 JUMPI DUP1 PUSH4 0x99374642 EQ PUSH2 0x457 JUMPI PUSH1 0x0 DUP1 REVERT JUMPDEST DUP1 PUSH4 0x4E8CDD9C GT PUSH2 0x17A JUMPI DUP1 PUSH4 0x6CCCF52D GT PUSH2 0x149 JUMPI DUP1 PUSH4 0x6CCCF52D EQ PUSH2 0x375 JUMPI DUP1 PUSH4 0x79BAA1A2 EQ PUSH2 0x395 JUMPI DUP1 PUSH4 0x8107E133 EQ PUSH2 0x3AB JUMPI DUP1 PUSH4 0x8456CB59 EQ PUSH2 0x3C1 JUMPI PUSH1 0x0 DUP1 REVERT JUMPDEST DUP1 PUSH4 0x4E8CDD9C EQ PUSH2 0x2F2 JUMPI DUP1 PUSH4 0x507E2224 EQ PUSH2 0x305 JUMPI DUP1 PUSH4 0x571C3E60 EQ PUSH2 0x332 JUMPI DUP1 PUSH4 0x5C975ABB EQ PUSH2 0x352 JUMPI PUSH1 0x0 DUP1 REVERT JUMPDEST DUP1 PUSH4 0x332E2AC0 GT PUSH2 0x1B6 JUMPI DUP1 PUSH4 0x332E2AC0 EQ PUSH2 0x27D JUMPI DUP1 PUSH4 0x36214A1C EQ PUSH2 0x29D JUMPI DUP1 PUSH4 0x3AAC0544 EQ PUSH2 0x2BD JUMPI DUP1 PUSH4 0x3F4BA83A EQ PUSH2 0x2DD JUMPI PUSH1 0x0 DUP1 REVERT JUMPDEST DUP1 PUSH4 0xC13E6DB EQ PUSH2 0x1E8 JUMPI DUP1 PUSH4 0x16C38B3C EQ PUSH2 0x20A JUMPI DUP1 PUSH4 0x290B17EC EQ PUSH2 0x22A JUMPI DUP1 PUSH4 0x305A67A8 EQ PUSH2 0x25D JUMPI JUMPDEST PUSH1 0x0 DUP1 REVERT JUMPDEST CALLVALUE DUP1 ISZERO PUSH2 0x1F4 JUMPI PUSH1 0x0 DUP1 REVERT JUMPDEST POP PUSH2 0x208 PUSH2 0x203 CALLDATASIZE PUSH1 0x4 PUSH2 0x2C8D JUMP JUMPDEST PUSH2 0x6D8 JUMP JUMPDEST STOP JUMPDEST CALLVALUE DUP1 ISZERO PUSH2 0x216 JUMPI PUSH1 0x0 DUP1 REVERT JUMPDEST POP PUSH2 0x208 PUSH2 0x225 CALLDATASIZE PUSH1 0x4 PUSH2 0x2CA6 JUMP JUMPDEST PUSH2 0x7AE JUMP JUMPDEST CALLVALUE DUP1 ISZERO PUSH2 0x236 JUMPI PUSH1 0x0 DUP1 REVERT JUMPDEST POP PUSH2 0x24A PUSH2 0x245 CALLDATASIZE PUSH1 0x4 PUSH2 0x2C8D JUMP JUMPDEST PUSH2 0x804 JUMP JUMPDEST PUSH1 0x40 MLOAD SWAP1 DUP2 MSTORE PUSH1 0x20 ADD JUMPDEST PUSH1 0x40 MLOAD DUP1 SWAP2 SUB SWAP1 RETURN JUMPDEST CALLVALUE DUP1 ISZERO PUSH2 0x269 JUMPI PUSH1 0x0 DUP1 REVERT JUMPDEST POP PUSH2 0x208 PUSH2 0x278 CALLDATASIZE PUSH1 0x4 PUSH2 0x2C8D JUMP JUMPDEST PUSH2 0x825 JUMP JUMPDEST CALLVALUE DUP1 ISZERO PUSH2 0x289 JUMPI PUSH1 0x0 DUP1 REVERT JUMPDEST POP PUSH2 0x208 PUSH2 0x298 CALLDATASIZE PUSH1 0x4 PUSH2 0x2CC8 JUMP JUMPDEST PUSH2 0x933 JUMP JUMPDEST CALLVALUE DUP1 ISZERO PUSH2 0x2A9 JUMPI PUSH1 0x0 DUP1 REVERT JUMPDEST POP PUSH2 0x208 PUSH2 0x2B8 CALLDATASIZE PUSH1 0x4 PUSH2 0x2D33 JUMP JUMPDEST PUSH2 0xA37 JUMP JUMPDEST CALLVALUE DUP1 ISZERO PUSH2 0x2C9 JUMPI PUSH1 0x0 DUP1 REVERT JUMPDEST POP PUSH2 0x208 PUSH2 0x2D8 CALLDATASIZE PUSH1 0x4 PUSH2 0x2CC8 JUMP JUMPDEST PUSH2 0xE70 JUMP JUMPDEST CALLVALUE DUP1 ISZERO PUSH2 0x2E9 JUMPI PUSH1 0x0 DUP1 REVERT JUMPDEST POP PUSH2 0x208 PUSH2 0x1018 JUMP JUMPDEST PUSH2 0x208 PUSH2 0x300 CALLDATASIZE PUSH1 0x4 PUSH2 0x2CC8 JUMP JUMPDEST PUSH2 0x105D JUMP JUMPDEST CALLVALUE DUP1 ISZERO PUSH2 0x311 JUMPI PUSH1 0x0 DUP1 REVERT JUMPDEST POP PUSH2 0x24A PUSH2 0x320 CALLDATASIZE PUSH1 0x4 PUSH2 0x2C8D JUMP JUMPDEST PUSH1 0x0 SWAP1 DUP2 MSTORE PUSH1 0x6 PUSH1 0x20 MSTORE PUSH1 0x40 SWAP1 KECCAK256 SLOAD SWAP1 JUMP JUMPDEST CALLVALUE DUP1 ISZERO PUSH2 0x33E JUMPI PUSH1 0x0 DUP1 REVERT JUMPDEST POP PUSH2 0x208 PUSH2 0x34D CALLDATASIZE PUSH1 0x4 PUSH2 0x2E09 JUMP JUMPDEST PUSH2 0x13AE JUMP JUMPDEST CALLVALUE DUP1 ISZERO PUSH2 0x35E JUMPI PUSH1 0x0 DUP1 REVERT JUMPDEST POP PUSH1 0x0 SLOAD PUSH1 0xFF AND PUSH1 0x40 MLOAD SWAP1 ISZERO ISZERO DUP2 MSTORE PUSH1 0x20 ADD PUSH2 0x254 JUMP JUMPDEST CALLVALUE DUP1 ISZERO PUSH2 0x381 JUMPI PUSH1 0x0 DUP1 REVERT JUMPDEST POP PUSH2 0x208 PUSH2 0x390 CALLDATASIZE PUSH1 0x4 PUSH2 0x2E44 JUMP JUMPDEST PUSH2 0x14AC JUMP JUMPDEST CALLVALUE DUP1 ISZERO PUSH2 0x3A1 JUMPI PUSH1 0x0 DUP1 REVERT JUMPDEST POP PUSH2 0x24A PUSH1 0xD SLOAD DUP2 JUMP JUMPDEST CALLVALUE DUP1 ISZERO PUSH2 0x3B7 JUMPI PUSH1 0x0 DUP1 REVERT JUMPDEST POP PUSH2 0x24A PUSH1 0xC SLOAD DUP2 JUMP JUMPDEST CALLVALUE DUP1 ISZERO PUSH2 0x3CD JUMPI PUSH1 0x0 DUP1 REVERT JUMPDEST POP PUSH2 0x208 PUSH2 0x1953 JUMP JUMPDEST CALLVALUE DUP1 ISZERO PUSH2 0x3E2 JUMPI PUSH1 0x0 DUP1 REVERT JUMPDEST POP PUSH1 0xA SLOAD PUSH2 0x3F6 SWAP1 PUSH1 0x1 PUSH1 0x1 PUSH1 0xA0 SHL SUB AND DUP2 JUMP JUMPDEST PUSH1 0x40 MLOAD PUSH1 0x1 PUSH1 0x1 PUSH1 0xA0 SHL SUB SWAP1 SWAP2 AND DUP2 MSTORE PUSH1 0x20 ADD PUSH2 0x254 JUMP JUMPDEST CALLVALUE DUP1 ISZERO PUSH2 0x41A JUMPI PUSH1 0x0 DUP1 REVERT JUMPDEST POP PUSH2 0x208 PUSH2 0x198D JUMP JUMPDEST CALLVALUE DUP1 ISZERO PUSH2 0x42F JUMPI PUSH1 0x0 DUP1 REVERT JUMPDEST POP PUSH2 0x443 PUSH2 0x43E CALLDATASIZE PUSH1 0x4 PUSH2 0x2C8D JUMP JUMPDEST PUSH2 0x1AC1 JUMP JUMPDEST PUSH1 0x40 MLOAD PUSH2 0x254 SWAP9 SWAP8 SWAP7 SWAP6 SWAP5 SWAP4 SWAP3 SWAP2 SWAP1 PUSH2 0x2F72 JUMP JUMPDEST CALLVALUE DUP1 ISZERO PUSH2 0x463 JUMPI PUSH1 0x0 DUP1 REVERT JUMPDEST POP PUSH2 0x487 PUSH2 0x472 CALLDATASIZE PUSH1 0x4 PUSH2 0x2FCB JUMP JUMPDEST PUSH1 0x4 PUSH1 0x20 MSTORE PUSH1 0x0 SWAP1 DUP2 MSTORE PUSH1 0x40 SWAP1 KECCAK256 SLOAD PUSH1 0xFF AND DUP2 JUMP JUMPDEST PUSH1 0x40 MLOAD PUSH2 0x254 SWAP2 SWAP1 PUSH2 0x2FFC JUMP JUMPDEST CALLVALUE DUP1 ISZERO PUSH2 0x4A0 JUMPI PUSH1 0x0 DUP1 REVERT JUMPDEST POP PUSH2 0x24A PUSH2 0x4AF CALLDATASIZE PUSH1 0x4 PUSH2 0x2C8D JUMP JUMPDEST PUSH2 0x1BA1 JUMP JUMPDEST CALLVALUE DUP1 ISZERO PUSH2 0x4C0 JUMPI PUSH1 0x0 DUP1 REVERT JUMPDEST POP PUSH2 0x24A PUSH2 0x4CF CALLDATASIZE PUSH1 0x4 PUSH2 0x2CC8 JUMP JUMPDEST PUSH2 0x1C0A JUMP JUMPDEST CALLVALUE DUP1 ISZERO PUSH2 0x4E0 JUMPI PUSH1 0x0 DUP1 REVERT JUMPDEST POP PUSH2 0x4F4 PUSH2 0x4EF CALLDATASIZE PUSH1 0x4 PUSH2 0x2C8D JUMP JUMPDEST PUSH2 0x1D8A JUMP JUMPDEST PUSH1 0x40 MLOAD PUSH2 0x254 SWAP2 SWAP1 PUSH2 0x30AC JUMP JUMPDEST CALLVALUE DUP1 ISZERO PUSH2 0x50D JUMPI PUSH1 0x0 DUP1 REVERT JUMPDEST POP PUSH2 0x24A PUSH1 0xB SLOAD DUP2 JUMP JUMPDEST CALLVALUE DUP1 ISZERO PUSH2 0x523 JUMPI PUSH1 0x0 DUP1 REVERT JUMPDEST POP PUSH2 0x537 PUSH2 0x532 CALLDATASIZE PUSH1 0x4 PUSH2 0x2C8D JUMP JUMPDEST PUSH2 0x2032 JUMP JUMPDEST PUSH1 0x40 MLOAD PUSH2 0x254 SWAP2 SWAP1 PUSH2 0x310E JUMP JUMPDEST CALLVALUE DUP1 ISZERO PUSH2 0x550 JUMPI PUSH1 0x0 DUP1 REVERT JUMPDEST POP PUSH2 0x24A PUSH2 0x55F CALLDATASIZE PUSH1 0x4 PUSH2 0x2C8D JUMP JUMPDEST PUSH1 0x7 PUSH1 0x20 MSTORE PUSH1 0x0 SWAP1 DUP2 MSTORE PUSH1 0x40 SWAP1 KECCAK256 SLOAD DUP2 JUMP JUMPDEST CALLVALUE DUP1 ISZERO PUSH2 0x57D JUMPI PUSH1 0x0 DUP1 REVERT JUMPDEST POP PUSH2 0x24A PUSH2 0x58C CALLDATASIZE PUSH1 0x4 PUSH2 0x3121 JUMP JUMPDEST PUSH2 0x2346 JUMP JUMPDEST CALLVALUE DUP1 ISZERO PUSH2 0x59D JUMPI PUSH1 0x0 DUP1 REVERT JUMPDEST POP PUSH2 0x600 PUSH2 0x5AC CALLDATASIZE PUSH1 0x4 PUSH2 0x2C8D JUMP JUMPDEST PUSH1 0x5 PUSH1 0x20 DUP2 SWAP1 MSTORE PUSH1 0x0 SWAP2 DUP3 MSTORE PUSH1 0x40 SWAP1 SWAP2 KECCAK256 DUP1 SLOAD PUSH1 0x1 DUP3 ADD SLOAD PUSH1 0x2 DUP4 ADD SLOAD PUSH1 0x3 DUP5 ADD SLOAD PUSH1 0x4 DUP6 ADD SLOAD SWAP6 DUP6 ADD SLOAD PUSH1 0x6 DUP7 ADD SLOAD PUSH1 0x7 SWAP1 SWAP7 ADD SLOAD SWAP5 SWAP7 SWAP4 SWAP6 PUSH1 0x1 PUSH1 0x1 PUSH1 0xA0 SHL SUB SWAP1 SWAP4 AND SWAP5 SWAP2 SWAP4 SWAP3 SWAP1 SWAP2 PUSH1 0xFF SWAP1 SWAP2 AND SWAP1 DUP9 JUMP JUMPDEST PUSH1 0x40 DUP1 MLOAD SWAP9 DUP10 MSTORE PUSH1 0x20 DUP10 ADD SWAP8 SWAP1 SWAP8 MSTORE PUSH1 0x1 PUSH1 0x1 PUSH1 0xA0 SHL SUB SWAP1 SWAP6 AND SWAP6 DUP8 ADD SWAP6 SWAP1 SWAP6 MSTORE PUSH1 0x60 DUP7 ADD SWAP3 SWAP1 SWAP3 MSTORE PUSH1 0x80 DUP6 ADD MSTORE PUSH1 0xA0 DUP5 ADD MSTORE SWAP1 ISZERO ISZERO PUSH1 0xC0 DUP4 ADD MSTORE PUSH1 0xE0 DUP3 ADD MSTORE PUSH2 0x100 ADD PUSH2 0x254 JUMP JUMPDEST CALLVALUE DUP1 ISZERO PUSH2 0x655 JUMPI PUSH1 0x0 DUP1 REVERT JUMPDEST POP PUSH1 0x9 SLOAD PUSH2 0x24A JUMP JUMPDEST CALLVALUE DUP1 ISZERO PUSH2 0x66A JUMPI PUSH1 0x0 DUP1 REVERT JUMPDEST POP PUSH2 0x67E PUSH2 0x679 CALLDATASIZE PUSH1 0x4 PUSH2 0x2C8D JUMP JUMPDEST PUSH2 0x2682 JUMP JUMPDEST PUSH1 0x40 MLOAD PUSH2 0x254 SWAP2 SWAP1 PUSH2 0x314D JUMP JUMPDEST CALLVALUE DUP1 ISZERO PUSH2 0x697 JUMPI PUSH1 0x0 DUP1 REVERT JUMPDEST POP PUSH2 0x208 PUSH2 0x6A6 CALLDATASIZE PUSH1 0x4 PUSH2 0x2FCB JUMP JUMPDEST PUSH2 0x2816 JUMP JUMPDEST CALLVALUE DUP1 ISZERO PUSH2 0x6B7 JUMPI PUSH1 0x0 DUP1 REVERT JUMPDEST POP PUSH2 0x24A PUSH2 0x6C6 CALLDATASIZE PUSH1 0x4 PUSH2 0x2FCB JUMP JUMPDEST PUSH1 0x8 PUSH1 0x20 MSTORE PUSH1 0x0 SWAP1 DUP2 MSTORE PUSH1 0x40 SWAP1 KECCAK256 SLOAD DUP2 JUMP JUMPDEST PUSH1 0xA SLOAD PUSH1 0x1 PUSH1 0x1 PUSH1 0xA0 SHL SUB AND CALLER EQ PUSH2 0x70B JUMPI PUSH1 0x40 MLOAD PUSH3 0x461BCD PUSH1 0xE5 SHL DUP2 MSTORE PUSH1 0x4 ADD PUSH2 0x702 SWAP1 PUSH2 0x31D0 JUMP JUMPDEST PUSH1 0x40 MLOAD DUP1 SWAP2 SUB SWAP1 REVERT JUMPDEST PUSH2 0x713 PUSH2 0x2902 JUMP JUMPDEST PUSH2 0x71B PUSH2 0x2948 JUMP JUMPDEST PUSH1 0x0 DUP2 DUP2 MSTORE PUSH1 0x2 PUSH1 0x20 MSTORE PUSH1 0x40 SWAP1 KECCAK256 PUSH1 0x5 ADD SLOAD DUP2 SWAP1 PUSH1 0x1 PUSH1 0xA0 SHL SWAP1 DIV PUSH1 0xFF AND PUSH2 0x755 JUMPI PUSH1 0x40 MLOAD PUSH3 0x461BCD PUSH1 0xE5 SHL DUP2 MSTORE PUSH1 0x4 ADD PUSH2 0x702 SWAP1 PUSH2 0x31F4 JUMP JUMPDEST PUSH1 0x0 DUP3 DUP2 MSTORE PUSH1 0x2 PUSH1 0x20 MSTORE PUSH1 0x40 DUP1 DUP3 KECCAK256 PUSH1 0x5 ADD DUP1 SLOAD PUSH1 0xFF PUSH1 0xA8 SHL NOT AND PUSH1 0x1 PUSH1 0xA8 SHL OR SWAP1 SSTORE MLOAD CALLER SWAP2 DUP5 SWAP2 PUSH32 0xE436BCDDF7C3F20475A5CDFEAED40936B46F491EC050E636F35CFA92161342BA SWAP2 SWAP1 LOG3 POP PUSH2 0x7AB PUSH1 0x1 DUP1 SSTORE JUMP JUMPDEST POP JUMP JUMPDEST PUSH1 0xA SLOAD PUSH1 0x1 PUSH1 0x1 PUSH1 0xA0 SHL SUB AND CALLER EQ PUSH2 0x7D8 JUMPI PUSH1 0x40 MLOAD PUSH3 0x461BCD PUSH1 0xE5 SHL DUP2 MSTORE PUSH1 0x4 ADD PUSH2 0x702 SWAP1 PUSH2 0x31D0 JUMP JUMPDEST PUSH2 0x7E0 PUSH2 0x2948 JUMP JUMPDEST DUP1 ISZERO PUSH2 0x7F3 JUMPI PUSH2 0x7EE PUSH2 0x29A1 JUMP JUMPDEST PUSH2 0x7FB JUMP JUMPDEST PUSH2 0x7FB PUSH2 0x29FB JUMP JUMPDEST PUSH2 0x7AB PUSH1 0x1 DUP1 SSTORE JUMP JUMPDEST PUSH1 0x9 DUP2 DUP2 SLOAD DUP2 LT PUSH2 0x814 JUMPI PUSH1 0x0 DUP1 REVERT JUMPDEST PUSH1 0x0 SWAP2 DUP3 MSTORE PUSH1 0x20 SWAP1 SWAP2 KECCAK256 ADD SLOAD SWAP1 POP DUP2 JUMP JUMPDEST PUSH2 0x82D PUSH2 0x2902 JUMP JUMPDEST PUSH2 0x835 PUSH2 0x2948 JUMP JUMPDEST PUSH1 0x0 DUP2 DUP2 MSTORE PUSH1 0x5 PUSH1 0x20 MSTORE PUSH1 0x40 SWAP1 KECCAK256 PUSH1 0x6 DUP2 ADD SLOAD PUSH1 0xFF AND PUSH2 0x88A JUMPI PUSH1 0x40 MLOAD PUSH3 0x461BCD PUSH1 0xE5 SHL DUP2 MSTORE PUSH1 0x20 PUSH1 0x4 DUP3 ADD MSTORE PUSH1 0x10 PUSH1 0x24 DUP3 ADD MSTORE PUSH16 0x4C697374696E6720696E616374697665 PUSH1 0x80 SHL PUSH1 0x44 DUP3 ADD MSTORE PUSH1 0x64 ADD PUSH2 0x702 JUMP JUMPDEST PUSH1 0x2 DUP2 ADD SLOAD PUSH1 0x1 PUSH1 0x1 PUSH1 0xA0 SHL SUB AND CALLER EQ DUP1 PUSH2 0x8AF JUMPI POP PUSH1 0xA SLOAD PUSH1 0x1 PUSH1 0x1 PUSH1 0xA0 SHL SUB AND CALLER EQ JUMPDEST PUSH2 0x8E9 JUMPI PUSH1 0x40 MLOAD PUSH3 0x461BCD PUSH1 0xE5 SHL DUP2 MSTORE PUSH1 0x20 PUSH1 0x4 DUP3 ADD MSTORE PUSH1 0xB PUSH1 0x24 DUP3 ADD MSTORE PUSH11 0x139BDD08185B1B1BDDD959 PUSH1 0xAA SHL PUSH1 0x44 DUP3 ADD MSTORE PUSH1 0x64 ADD PUSH2 0x702 JUMP JUMPDEST PUSH1 0x6 DUP2 ADD DUP1 SLOAD PUSH1 0xFF NOT AND SWAP1 SSTORE PUSH1 0x0 PUSH1 0x4 DUP3 ADD DUP2 SWAP1 SSTORE PUSH1 0x40 MLOAD CALLER SWAP2 DUP5 SWAP2 PUSH32 0x8E25282255AB31897DF2B0456BB993AC7F84D376861AEFD84901D2D63A7428A2 SWAP2 SWAP1 LOG3 POP PUSH2 0x7AB PUSH1 0x1 DUP1 SSTORE JUMP JUMPDEST PUSH1 0xA SLOAD PUSH1 0x1 PUSH1 0x1 PUSH1 0xA0 SHL SUB AND CALLER EQ PUSH2 0x95D JUMPI PUSH1 0x40 MLOAD PUSH3 0x461BCD PUSH1 0xE5 SHL DUP2 MSTORE PUSH1 0x4 ADD PUSH2 0x702 SWAP1 PUSH2 0x31D0 JUMP JUMPDEST PUSH2 0x965 PUSH2 0x2948 JUMP JUMPDEST PUSH1 0x0 DUP3 GT PUSH2 0x9A0 JUMPI PUSH1 0x40 MLOAD PUSH3 0x461BCD PUSH1 0xE5 SHL DUP2 MSTORE PUSH1 0x20 PUSH1 0x4 DUP3 ADD MSTORE PUSH1 0x8 PUSH1 0x24 DUP3 ADD MSTORE PUSH8 0x57696E646F773D3 PUSH1 0xC4 SHL PUSH1 0x44 DUP3 ADD MSTORE PUSH1 0x64 ADD PUSH2 0x702 JUMP JUMPDEST PUSH2 0x1388 DUP2 GT ISZERO PUSH2 0x9E7 JUMPI PUSH1 0x40 MLOAD PUSH3 0x461BCD PUSH1 0xE5 SHL DUP2 MSTORE PUSH1 0x20 PUSH1 0x4 DUP3 ADD MSTORE PUSH1 0x12 PUSH1 0x24 DUP3 ADD MSTORE PUSH18 0x88CAECD2C2E8D2DEDC40E8DEDE40D0D2CED PUSH1 0x73 SHL PUSH1 0x44 DUP3 ADD MSTORE PUSH1 0x64 ADD PUSH2 0x702 JUMP JUMPDEST PUSH1 0xC DUP3 SWAP1 SSTORE PUSH1 0xD DUP2 SWAP1 SSTORE PUSH1 0x40 DUP1 MLOAD DUP4 DUP2 MSTORE PUSH1 0x20 DUP2 ADD DUP4 SWAP1 MSTORE PUSH32 0xD7DDC163E966ADAEEF708042D878EAA18ADE5DF877818262C96DD6EB79C42B7D SWAP2 ADD PUSH1 0x40 MLOAD DUP1 SWAP2 SUB SWAP1 LOG1 PUSH2 0xA33 PUSH1 0x1 DUP1 SSTORE JUMP JUMPDEST POP POP JUMP JUMPDEST CALLER PUSH1 0x0 SWAP1 DUP2 MSTORE PUSH1 0x4 PUSH1 0x20 MSTORE PUSH1 0x40 DUP2 KECCAK256 SLOAD PUSH1 0xFF AND PUSH1 0x6 DUP2 GT ISZERO PUSH2 0xA5B JUMPI PUSH2 0xA5B PUSH2 0x2FE6 JUMP JUMPDEST SUB PUSH2 0xA78 JUMPI PUSH1 0x40 MLOAD PUSH3 0x461BCD PUSH1 0xE5 SHL DUP2 MSTORE PUSH1 0x4 ADD PUSH2 0x702 SWAP1 PUSH2 0x321D JUMP JUMPDEST PUSH2 0xA80 PUSH2 0x2902 JUMP JUMPDEST PUSH2 0xA88 PUSH2 0x2948 JUMP JUMPDEST PUSH1 0x0 DUP9 DUP2 MSTORE PUSH1 0x2 PUSH1 0x20 MSTORE PUSH1 0x40 SWAP1 KECCAK256 PUSH1 0x5 ADD SLOAD DUP9 SWAP1 PUSH1 0x1 PUSH1 0xA0 SHL SWAP1 DIV PUSH1 0xFF AND PUSH2 0xAC2 JUMPI PUSH1 0x40 MLOAD PUSH3 0x461BCD PUSH1 0xE5 SHL DUP2 MSTORE PUSH1 0x4 ADD PUSH2 0x702 SWAP1 PUSH2 0x31F4 JUMP JUMPDEST PUSH1 0x0 DUP10 DUP2 MSTORE PUSH1 0x2 PUSH1 0x20 MSTORE PUSH1 0x40 SWAP1 KECCAK256 PUSH1 0x5 ADD SLOAD PUSH1 0x1 PUSH1 0xA8 SHL SWAP1 DIV PUSH1 0xFF AND ISZERO PUSH2 0xB1F JUMPI PUSH1 0x40 MLOAD PUSH3 0x461BCD PUSH1 0xE5 SHL DUP2 MSTORE PUSH1 0x20 PUSH1 0x4 DUP3 ADD MSTORE PUSH1 0x11 PUSH1 0x24 DUP3 ADD MSTORE PUSH17 0x10985D18DA081A5CC81C9958D85B1B1959 PUSH1 0x7A SHL PUSH1 0x44 DUP3 ADD MSTORE PUSH1 0x64 ADD PUSH2 0x702 JUMP JUMPDEST DUP6 PUSH2 0xB5D JUMPI PUSH1 0x40 MLOAD PUSH3 0x461BCD PUSH1 0xE5 SHL DUP2 MSTORE PUSH1 0x20 PUSH1 0x4 DUP3 ADD MSTORE PUSH1 0xE PUSH1 0x24 DUP3 ADD MSTORE PUSH14 0x1058DD1BDC881C995C5D5A5C9959 PUSH1 0x92 SHL PUSH1 0x44 DUP3 ADD MSTORE PUSH1 0x64 ADD PUSH2 0x702 JUMP JUMPDEST DUP4 PUSH2 0xB9E JUMPI PUSH1 0x40 MLOAD PUSH3 0x461BCD PUSH1 0xE5 SHL DUP2 MSTORE PUSH1 0x20 PUSH1 0x4 DUP3 ADD MSTORE PUSH1 0x11 PUSH1 0x24 DUP3 ADD MSTORE PUSH17 0x131BD8D85D1A5BDB881C995C5D5A5C9959 PUSH1 0x7A SHL PUSH1 0x44 DUP3 ADD MSTORE PUSH1 0x64 ADD PUSH2 0x702 JUMP JUMPDEST PUSH2 0xBA8 DUP10 DUP10 PUSH2 0x2A34 JUMP JUMPDEST PUSH2 0xBF4 JUMPI PUSH1 0x40 MLOAD PUSH3 0x461BCD PUSH1 0xE5 SHL DUP2 MSTORE PUSH1 0x20 PUSH1 0x4 DUP3 ADD MSTORE PUSH1 0x18 PUSH1 0x24 DUP3 ADD MSTORE PUSH32 0x496E76616C6964207374616765207472616E736974696F6E0000000000000000 PUSH1 0x44 DUP3 ADD MSTORE PUSH1 0x64 ADD PUSH2 0x702 JUMP JUMPDEST CALLER PUSH1 0x0 SWAP1 DUP2 MSTORE PUSH1 0x4 PUSH1 0x20 MSTORE PUSH1 0x40 SWAP1 KECCAK256 SLOAD PUSH1 0xFF AND PUSH1 0x6 DUP2 PUSH1 0x6 DUP2 GT ISZERO PUSH2 0xC1B JUMPI PUSH2 0xC1B PUSH2 0x2FE6 JUMP JUMPDEST EQ DUP1 PUSH2 0xC2C JUMPI POP PUSH2 0xC2C DUP10 DUP3 PUSH2 0x2AD9 JUMP JUMPDEST PUSH2 0xC78 JUMPI PUSH1 0x40 MLOAD PUSH3 0x461BCD PUSH1 0xE5 SHL DUP2 MSTORE PUSH1 0x20 PUSH1 0x4 DUP3 ADD MSTORE PUSH1 0x1A PUSH1 0x24 DUP3 ADD MSTORE PUSH32 0x526F6C65206E6F7420616C6C6F77656420666F72207374616765000000000000 PUSH1 0x44 DUP3 ADD MSTORE PUSH1 0x64 ADD PUSH2 0x702 JUMP JUMPDEST PUSH1 0x3 PUSH1 0x0 DUP12 DUP2 MSTORE PUSH1 0x20 ADD SWAP1 DUP2 MSTORE PUSH1 0x20 ADD PUSH1 0x0 KECCAK256 PUSH1 0x40 MLOAD DUP1 PUSH1 0xC0 ADD PUSH1 0x40 MSTORE DUP1 DUP12 PUSH1 0x3 DUP2 GT ISZERO PUSH2 0xCA8 JUMPI PUSH2 0xCA8 PUSH2 0x2FE6 JUMP JUMPDEST DUP2 MSTORE PUSH1 0x20 ADD DUP11 DUP11 DUP1 DUP1 PUSH1 0x1F ADD PUSH1 0x20 DUP1 SWAP2 DIV MUL PUSH1 0x20 ADD PUSH1 0x40 MLOAD SWAP1 DUP2 ADD PUSH1 0x40 MSTORE DUP1 SWAP4 SWAP3 SWAP2 SWAP1 DUP2 DUP2 MSTORE PUSH1 0x20 ADD DUP4 DUP4 DUP1 DUP3 DUP5 CALLDATACOPY PUSH1 0x0 SWAP3 ADD SWAP2 SWAP1 SWAP2 MSTORE POP POP POP SWAP1 DUP3 MSTORE POP PUSH1 0x40 DUP1 MLOAD PUSH1 0x20 PUSH1 0x1F DUP12 ADD DUP2 SWAP1 DIV DUP2 MUL DUP3 ADD DUP2 ADD SWAP1 SWAP3 MSTORE DUP10 DUP2 MSTORE SWAP2 DUP2 ADD SWAP2 SWAP1 DUP11 SWAP1 DUP11 SWAP1 DUP2 SWAP1 DUP5 ADD DUP4 DUP3 DUP1 DUP3 DUP5 CALLDATACOPY PUSH1 0x0 SWAP3 ADD SWAP2 SWAP1 SWAP2 MSTORE POP POP POP SWAP1 DUP3 MSTORE POP TIMESTAMP PUSH1 0x20 DUP1 DUP4 ADD SWAP2 SWAP1 SWAP2 MSTORE PUSH1 0x40 DUP1 MLOAD PUSH1 0x1F DUP10 ADD DUP4 SWAP1 DIV DUP4 MUL DUP2 ADD DUP4 ADD DUP3 MSTORE DUP9 DUP2 MSTORE SWAP3 ADD SWAP2 SWAP1 DUP9 SWAP1 DUP9 SWAP1 DUP2 SWAP1 DUP5 ADD DUP4 DUP3 DUP1 DUP3 DUP5 CALLDATACOPY PUSH1 0x0 SWAP3 ADD DUP3 SWAP1 MSTORE POP SWAP4 DUP6 MSTORE POP POP CALLER PUSH1 0x20 SWAP4 DUP5 ADD MSTORE POP DUP4 SLOAD PUSH1 0x1 DUP2 DUP2 ADD DUP7 SSTORE SWAP5 DUP3 MSTORE SWAP2 SWAP1 KECCAK256 DUP3 MLOAD PUSH1 0x6 SWAP1 SWAP3 MUL ADD DUP1 SLOAD SWAP3 SWAP4 SWAP1 SWAP3 DUP4 SWAP2 PUSH1 0xFF NOT SWAP1 SWAP2 AND SWAP1 DUP4 PUSH1 0x3 DUP2 GT ISZERO PUSH2 0xDA0 JUMPI PUSH2 0xDA0 PUSH2 0x2FE6 JUMP JUMPDEST MUL OR SWAP1 SSTORE POP PUSH1 0x20 DUP3 ADD MLOAD PUSH1 0x1 DUP3 ADD SWAP1 PUSH2 0xDB9 SWAP1 DUP3 PUSH2 0x32DD JUMP JUMPDEST POP PUSH1 0x40 DUP3 ADD MLOAD PUSH1 0x2 DUP3 ADD SWAP1 PUSH2 0xDCE SWAP1 DUP3 PUSH2 0x32DD JUMP JUMPDEST POP PUSH1 0x60 DUP3 ADD MLOAD PUSH1 0x3 DUP3 ADD SSTORE PUSH1 0x80 DUP3 ADD MLOAD PUSH1 0x4 DUP3 ADD SWAP1 PUSH2 0xDED SWAP1 DUP3 PUSH2 0x32DD JUMP JUMPDEST POP PUSH1 0xA0 SWAP2 SWAP1 SWAP2 ADD MLOAD PUSH1 0x5 SWAP1 SWAP2 ADD DUP1 SLOAD PUSH1 0x1 PUSH1 0x1 PUSH1 0xA0 SHL SUB NOT AND PUSH1 0x1 PUSH1 0x1 PUSH1 0xA0 SHL SUB SWAP1 SWAP3 AND SWAP2 SWAP1 SWAP2 OR SWAP1 SSTORE PUSH1 0x40 MLOAD CALLER SWAP1 DUP12 SWAP1 PUSH32 0x2CEFCEAA731C274ADF2F7BD3B3237D2E06CB4FE59BD62D9EA2055287A132D364 SWAP1 PUSH2 0xE53 SWAP1 DUP14 SWAP1 DUP14 SWAP1 DUP14 SWAP1 DUP14 SWAP1 DUP14 SWAP1 PUSH2 0x33C6 JUMP JUMPDEST PUSH1 0x40 MLOAD DUP1 SWAP2 SUB SWAP1 LOG3 POP POP PUSH2 0xE66 PUSH1 0x1 DUP1 SSTORE JUMP JUMPDEST POP POP POP POP POP POP POP POP JUMP JUMPDEST CALLER PUSH1 0x0 SWAP1 DUP2 MSTORE PUSH1 0x4 PUSH1 0x20 MSTORE PUSH1 0x40 SWAP1 KECCAK256 SLOAD PUSH1 0xFF AND PUSH1 0x5 DUP2 PUSH1 0x6 DUP2 GT ISZERO PUSH2 0xE97 JUMPI PUSH2 0xE97 PUSH2 0x2FE6 JUMP JUMPDEST EQ DUP1 PUSH2 0xEB4 JUMPI POP PUSH1 0x6 DUP2 PUSH1 0x6 DUP2 GT ISZERO PUSH2 0xEB2 JUMPI PUSH2 0xEB2 PUSH2 0x2FE6 JUMP JUMPDEST EQ JUMPDEST PUSH2 0xEF4 JUMPI PUSH1 0x40 MLOAD PUSH3 0x461BCD PUSH1 0xE5 SHL DUP2 MSTORE PUSH1 0x20 PUSH1 0x4 DUP3 ADD MSTORE PUSH1 0x11 PUSH1 0x24 DUP3 ADD MSTORE PUSH17 0x27B7363C9037B930B1B63297B0B236B4B7 PUSH1 0x79 SHL PUSH1 0x44 DUP3 ADD MSTORE PUSH1 0x64 ADD PUSH2 0x702 JUMP JUMPDEST PUSH2 0xEFC PUSH2 0x2902 JUMP JUMPDEST PUSH2 0xF04 PUSH2 0x2948 JUMP JUMPDEST DUP3 PUSH2 0xF45 JUMPI PUSH1 0x40 MLOAD PUSH3 0x461BCD PUSH1 0xE5 SHL DUP2 MSTORE PUSH1 0x20 PUSH1 0x4 DUP3 ADD MSTORE PUSH1 0x11 PUSH1 0x24 DUP3 ADD MSTORE PUSH17 0x496E76616C69642063726F702074797065 PUSH1 0x78 SHL PUSH1 0x44 DUP3 ADD MSTORE PUSH1 0x64 ADD PUSH2 0x702 JUMP JUMPDEST PUSH1 0x0 DUP3 GT PUSH2 0xF7F JUMPI PUSH1 0x40 MLOAD PUSH3 0x461BCD PUSH1 0xE5 SHL DUP2 MSTORE PUSH1 0x20 PUSH1 0x4 DUP3 ADD MSTORE PUSH1 0x7 PUSH1 0x24 DUP3 ADD MSTORE PUSH7 0x50726963653D3 PUSH1 0xCC SHL PUSH1 0x44 DUP3 ADD MSTORE PUSH1 0x64 ADD PUSH2 0x702 JUMP JUMPDEST PUSH1 0x0 DUP4 DUP2 MSTORE PUSH1 0x6 PUSH1 0x20 SWAP1 DUP2 MSTORE PUSH1 0x40 DUP1 DUP4 KECCAK256 DUP2 MLOAD DUP1 DUP4 ADD DUP4 MSTORE TIMESTAMP DUP1 DUP3 MSTORE DUP2 DUP6 ADD DUP9 DUP2 MSTORE DUP4 SLOAD PUSH1 0x1 DUP1 DUP3 ADD DUP7 SSTORE SWAP5 DUP9 MSTORE DUP7 DUP9 KECCAK256 SWAP4 MLOAD PUSH1 0x2 SWAP1 SWAP2 MUL SWAP1 SWAP4 ADD SWAP3 DUP4 SSTORE MLOAD SWAP2 SWAP1 SWAP3 ADD SSTORE DUP7 DUP5 MSTORE PUSH1 0x7 DUP4 MSTORE SWAP3 DUP2 SWAP1 KECCAK256 DUP6 SWAP1 SSTORE DUP1 MLOAD DUP6 DUP2 MSTORE SWAP2 DUP3 ADD SWAP3 SWAP1 SWAP3 MSTORE DUP5 SWAP2 PUSH32 0x9C43BA64E58F42018E29D3B8E3AA7F03EC30366613D0B3A2B07B26E75B5BB817 SWAP2 ADD PUSH1 0x40 MLOAD DUP1 SWAP2 SUB SWAP1 LOG2 PUSH2 0x1013 PUSH1 0x1 DUP1 SSTORE JUMP JUMPDEST POP POP POP JUMP JUMPDEST PUSH1 0xA SLOAD PUSH1 0x1 PUSH1 0x1 PUSH1 0xA0 SHL SUB AND CALLER EQ PUSH2 0x1042 JUMPI PUSH1 0x40 MLOAD PUSH3 0x461BCD PUSH1 0xE5 SHL DUP2 MSTORE PUSH1 0x4 ADD PUSH2 0x702 SWAP1 PUSH2 0x31D0 JUMP JUMPDEST PUSH2 0x104A PUSH2 0x2948 JUMP JUMPDEST PUSH2 0x1052 PUSH2 0x29FB JUMP JUMPDEST PUSH2 0x105B PUSH1 0x1 DUP1 SSTORE JUMP JUMPDEST JUMP JUMPDEST PUSH2 0x1065 PUSH2 0x2902 JUMP JUMPDEST PUSH2 0x106D PUSH2 0x2948 JUMP JUMPDEST PUSH1 0x0 DUP3 DUP2 MSTORE PUSH1 0x5 PUSH1 0x20 MSTORE PUSH1 0x40 SWAP1 KECCAK256 PUSH1 0x6 DUP2 ADD SLOAD PUSH1 0xFF AND PUSH2 0x10C2 JUMPI PUSH1 0x40 MLOAD PUSH3 0x461BCD PUSH1 0xE5 SHL DUP2 MSTORE PUSH1 0x20 PUSH1 0x4 DUP3 ADD MSTORE PUSH1 0x10 PUSH1 0x24 DUP3 ADD MSTORE PUSH16 0x4C697374696E6720696E616374697665 PUSH1 0x80 SHL PUSH1 0x44 DUP3 ADD MSTORE PUSH1 0x64 ADD PUSH2 0x702 JUMP JUMPDEST PUSH1 0x0 DUP3 GT DUP1 ISZERO PUSH2 0x10D6 JUMPI POP DUP1 PUSH1 0x4 ADD SLOAD DUP3 GT ISZERO JUMPDEST PUSH2 0x1115 JUMPI PUSH1 0x40 MLOAD PUSH3 0x461BCD PUSH1 0xE5 SHL DUP2 MSTORE PUSH1 0x20 PUSH1 0x4 DUP3 ADD MSTORE PUSH1 0x10 PUSH1 0x24 DUP3 ADD MSTORE PUSH16 0x496E76616C6964207175616E74697479 PUSH1 0x80 SHL PUSH1 0x44 DUP3 ADD MSTORE PUSH1 0x64 ADD PUSH2 0x702 JUMP JUMPDEST PUSH1 0x1 DUP2 ADD SLOAD PUSH1 0x0 SWAP1 DUP2 MSTORE PUSH1 0x2 PUSH1 0x20 MSTORE PUSH1 0x40 SWAP1 KECCAK256 PUSH1 0x5 DUP2 ADD SLOAD PUSH1 0x1 PUSH1 0xA0 SHL SWAP1 DIV PUSH1 0xFF AND DUP1 ISZERO PUSH2 0x114F JUMPI POP PUSH1 0x5 DUP2 ADD SLOAD PUSH1 0x1 PUSH1 0xA8 SHL SWAP1 DIV PUSH1 0xFF AND ISZERO JUMPDEST PUSH2 0x118F JUMPI PUSH1 0x40 MLOAD PUSH3 0x461BCD PUSH1 0xE5 SHL DUP2 MSTORE PUSH1 0x20 PUSH1 0x4 DUP3 ADD MSTORE PUSH1 0x11 PUSH1 0x24 DUP3 ADD MSTORE PUSH17 0x426174636820756E617661696C61626C65 PUSH1 0x78 SHL PUSH1 0x44 DUP3 ADD MSTORE PUSH1 0x64 ADD PUSH2 0x702 JUMP JUMPDEST PUSH1 0x0 PUSH2 0x11A1 DUP3 PUSH1 0x1 ADD SLOAD PUSH1 0xC SLOAD PUSH2 0x1C0A JUMP JUMPDEST SWAP1 POP DUP1 ISZERO PUSH2 0x1206 JUMPI PUSH2 0x11BA DUP4 PUSH1 0x5 ADD SLOAD DUP3 PUSH1 0xD SLOAD PUSH2 0x2BDF JUMP JUMPDEST PUSH2 0x1206 JUMPI PUSH1 0x40 MLOAD PUSH3 0x461BCD PUSH1 0xE5 SHL DUP2 MSTORE PUSH1 0x20 PUSH1 0x4 DUP3 ADD MSTORE PUSH1 0x17 PUSH1 0x24 DUP3 ADD MSTORE PUSH32 0x5457415020646576696174696F6E20746F6F2068696768000000000000000000 PUSH1 0x44 DUP3 ADD MSTORE PUSH1 0x64 ADD PUSH2 0x702 JUMP JUMPDEST PUSH1 0x0 DUP5 DUP5 PUSH1 0x5 ADD SLOAD PUSH2 0x1218 SWAP2 SWAP1 PUSH2 0x341C JUMP JUMPDEST SWAP1 POP DUP1 CALLVALUE LT ISZERO PUSH2 0x1261 JUMPI PUSH1 0x40 MLOAD PUSH3 0x461BCD PUSH1 0xE5 SHL DUP2 MSTORE PUSH1 0x20 PUSH1 0x4 DUP3 ADD MSTORE PUSH1 0x14 PUSH1 0x24 DUP3 ADD MSTORE PUSH20 0x125B9CDD59999A58DA595B9D081C185E5B595B9D PUSH1 0x62 SHL PUSH1 0x44 DUP3 ADD MSTORE PUSH1 0x64 ADD PUSH2 0x702 JUMP JUMPDEST DUP5 DUP5 PUSH1 0x4 ADD PUSH1 0x0 DUP3 DUP3 SLOAD PUSH2 0x1275 SWAP2 SWAP1 PUSH2 0x3433 JUMP JUMPDEST SWAP1 SWAP2 SSTORE POP POP PUSH1 0x4 DUP5 ADD SLOAD PUSH1 0x0 SUB PUSH2 0x1293 JUMPI PUSH1 0x6 DUP5 ADD DUP1 SLOAD PUSH1 0xFF NOT AND SWAP1 SSTORE JUMPDEST PUSH1 0x2 DUP5 ADD SLOAD PUSH1 0x1 PUSH1 0x1 PUSH1 0xA0 SHL SUB AND PUSH1 0x0 SWAP1 DUP2 MSTORE PUSH1 0x8 PUSH1 0x20 MSTORE PUSH1 0x40 DUP2 KECCAK256 DUP1 SLOAD DUP4 SWAP3 SWAP1 PUSH2 0x12BF SWAP1 DUP5 SWAP1 PUSH2 0x3446 JUMP JUMPDEST SWAP1 SWAP2 SSTORE POP PUSH1 0x0 SWAP1 POP PUSH2 0x12D1 DUP3 CALLVALUE PUSH2 0x3433 JUMP JUMPDEST SWAP1 POP DUP1 ISZERO PUSH2 0x1363 JUMPI PUSH1 0x40 MLOAD PUSH1 0x0 SWAP1 CALLER SWAP1 DUP4 SWAP1 DUP4 DUP2 DUP2 DUP2 DUP6 DUP8 GAS CALL SWAP3 POP POP POP RETURNDATASIZE DUP1 PUSH1 0x0 DUP2 EQ PUSH2 0x131B JUMPI PUSH1 0x40 MLOAD SWAP2 POP PUSH1 0x1F NOT PUSH1 0x3F RETURNDATASIZE ADD AND DUP3 ADD PUSH1 0x40 MSTORE RETURNDATASIZE DUP3 MSTORE RETURNDATASIZE PUSH1 0x0 PUSH1 0x20 DUP5 ADD RETURNDATACOPY PUSH2 0x1320 JUMP JUMPDEST PUSH1 0x60 SWAP2 POP JUMPDEST POP POP SWAP1 POP DUP1 PUSH2 0x1361 JUMPI PUSH1 0x40 MLOAD PUSH3 0x461BCD PUSH1 0xE5 SHL DUP2 MSTORE PUSH1 0x20 PUSH1 0x4 DUP3 ADD MSTORE PUSH1 0xD PUSH1 0x24 DUP3 ADD MSTORE PUSH13 0x1499599D5B990819985A5B1959 PUSH1 0x9A SHL PUSH1 0x44 DUP3 ADD MSTORE PUSH1 0x64 ADD PUSH2 0x702 JUMP JUMPDEST POP JUMPDEST PUSH1 0x40 DUP1 MLOAD DUP8 DUP2 MSTORE PUSH1 0x20 DUP2 ADD DUP5 SWAP1 MSTORE CALLER SWAP2 DUP10 SWAP2 PUSH32 0xDB6CD6881FC0453B2D01F52EB5A16417707659F245732ABC10F847426E3525D SWAP2 ADD PUSH1 0x40 MLOAD DUP1 SWAP2 SUB SWAP1 LOG3 POP POP POP POP POP PUSH2 0xA33 PUSH1 0x1 DUP1 SSTORE JUMP JUMPDEST PUSH1 0xA SLOAD PUSH1 0x1 PUSH1 0x1 PUSH1 0xA0 SHL SUB AND CALLER EQ PUSH2 0x13D8 JUMPI PUSH1 0x40 MLOAD PUSH3 0x461BCD PUSH1 0xE5 SHL DUP2 MSTORE PUSH1 0x4 ADD PUSH2 0x702 SWAP1 PUSH2 0x31D0 JUMP JUMPDEST PUSH2 0x13E0 PUSH2 0x2948 JUMP JUMPDEST PUSH1 0x1 PUSH1 0x1 PUSH1 0xA0 SHL SUB DUP3 AND PUSH2 0x1428 JUMPI PUSH1 0x40 MLOAD PUSH3 0x461BCD PUSH1 0xE5 SHL DUP2 MSTORE PUSH1 0x20 PUSH1 0x4 DUP3 ADD MSTORE PUSH1 0xF PUSH1 0x24 DUP3 ADD MSTORE PUSH15 0x496E76616C69642061646472657373 PUSH1 0x88 SHL PUSH1 0x44 DUP3 ADD MSTORE PUSH1 0x64 ADD PUSH2 0x702 JUMP JUMPDEST PUSH1 0x1 PUSH1 0x1 PUSH1 0xA0 SHL SUB DUP3 AND PUSH1 0x0 SWAP1 DUP2 MSTORE PUSH1 0x4 PUSH1 0x20 MSTORE PUSH1 0x40 SWAP1 KECCAK256 DUP1 SLOAD DUP3 SWAP2 SWAP1 PUSH1 0xFF NOT AND PUSH1 0x1 DUP4 PUSH1 0x6 DUP2 GT ISZERO PUSH2 0x145D JUMPI PUSH2 0x145D PUSH2 0x2FE6 JUMP JUMPDEST MUL OR SWAP1 SSTORE POP DUP2 PUSH1 0x1 PUSH1 0x1 PUSH1 0xA0 SHL SUB AND PUSH32 0xC3F8F61911A1537261F77E2703626E158E299A98E341024ECAA26BBD1D884C64 DUP3 PUSH1 0x40 MLOAD PUSH2 0x149B SWAP2 SWAP1 PUSH2 0x2FFC JUMP JUMPDEST PUSH1 0x40 MLOAD DUP1 SWAP2 SUB SWAP1 LOG2 PUSH2 0xA33 PUSH1 0x1 DUP1 SSTORE JUMP JUMPDEST CALLER PUSH1 0x0 SWAP1 DUP2 MSTORE PUSH1 0x4 PUSH1 0x20 MSTORE PUSH1 0x40 DUP2 KECCAK256 SLOAD PUSH1 0xFF AND PUSH1 0x6 DUP2 GT ISZERO PUSH2 0x14D0 JUMPI PUSH2 0x14D0 PUSH2 0x2FE6 JUMP JUMPDEST SUB PUSH2 0x14ED JUMPI PUSH1 0x40 MLOAD PUSH3 0x461BCD PUSH1 0xE5 SHL DUP2 MSTORE PUSH1 0x4 ADD PUSH2 0x702 SWAP1 PUSH2 0x321D JUMP JUMPDEST PUSH2 0x14F5 PUSH2 0x2902 JUMP JUMPDEST PUSH2 0x14FD PUSH2 0x2948 JUMP JUMPDEST PUSH1 0x0 DUP12 DUP2 MSTORE PUSH1 0x2 PUSH1 0x20 MSTORE PUSH1 0x40 SWAP1 KECCAK256 PUSH1 0x5 ADD SLOAD PUSH1 0x1 PUSH1 0xA0 SHL SWAP1 DIV PUSH1 0xFF AND ISZERO PUSH2 0x155D JUMPI PUSH1 0x40 MLOAD PUSH3 0x461BCD PUSH1 0xE5 SHL DUP2 MSTORE PUSH1 0x20 PUSH1 0x4 DUP3 ADD MSTORE PUSH1 0x14 PUSH1 0x24 DUP3 ADD MSTORE PUSH20 0x426174636820616C726561647920657869737473 PUSH1 0x60 SHL PUSH1 0x44 DUP3 ADD MSTORE PUSH1 0x64 ADD PUSH2 0x702 JUMP JUMPDEST DUP11 PUSH2 0x159D JUMPI PUSH1 0x40 MLOAD PUSH3 0x461BCD PUSH1 0xE5 SHL DUP2 MSTORE PUSH1 0x20 PUSH1 0x4 DUP3 ADD MSTORE PUSH1 0x10 PUSH1 0x24 DUP3 ADD MSTORE PUSH16 0x125B9D985B1A590818985D18DA081251 PUSH1 0x82 SHL PUSH1 0x44 DUP3 ADD MSTORE PUSH1 0x64 ADD PUSH2 0x702 JUMP JUMPDEST DUP10 PUSH2 0x15DE JUMPI PUSH1 0x40 MLOAD PUSH3 0x461BCD PUSH1 0xE5 SHL DUP2 MSTORE PUSH1 0x20 PUSH1 0x4 DUP3 ADD MSTORE PUSH1 0x11 PUSH1 0x24 DUP3 ADD MSTORE PUSH17 0x496E76616C69642063726F702074797065 PUSH1 0x78 SHL PUSH1 0x44 DUP3 ADD MSTORE PUSH1 0x64 ADD PUSH2 0x702 JUMP JUMPDEST PUSH1 0x0 DUP8 GT PUSH2 0x1625 JUMPI PUSH1 0x40 MLOAD PUSH3 0x461BCD PUSH1 0xE5 SHL DUP2 MSTORE PUSH1 0x20 PUSH1 0x4 DUP3 ADD MSTORE PUSH1 0x14 PUSH1 0x24 DUP3 ADD MSTORE PUSH20 0x5175616E74697479206D757374206265203E203 PUSH1 0x64 SHL PUSH1 0x44 DUP3 ADD MSTORE PUSH1 0x64 ADD PUSH2 0x702 JUMP JUMPDEST PUSH1 0x40 MLOAD DUP1 PUSH2 0x100 ADD PUSH1 0x40 MSTORE DUP1 DUP13 DUP2 MSTORE PUSH1 0x20 ADD DUP12 DUP2 MSTORE PUSH1 0x20 ADD DUP11 DUP11 DUP1 DUP1 PUSH1 0x1F ADD PUSH1 0x20 DUP1 SWAP2 DIV MUL PUSH1 0x20 ADD PUSH1 0x40 MLOAD SWAP1 DUP2 ADD PUSH1 0x40 MSTORE DUP1 SWAP4 SWAP3 SWAP2 SWAP1 DUP2 DUP2 MSTORE PUSH1 0x20 ADD DUP4 DUP4 DUP1 DUP3 DUP5 CALLDATACOPY PUSH1 0x0 SWAP3 ADD DUP3 SWAP1 MSTORE POP SWAP4 DUP6 MSTORE POP POP POP PUSH1 0x20 DUP1 DUP4 ADD DUP12 SWAP1 MSTORE TIMESTAMP PUSH1 0x40 DUP1 DUP6 ADD SWAP2 SWAP1 SWAP2 MSTORE CALLER PUSH1 0x60 DUP6 ADD MSTORE PUSH1 0x1 PUSH1 0x80 DUP6 ADD DUP2 SWAP1 MSTORE PUSH1 0xA0 SWAP1 SWAP5 ADD DUP4 SWAP1 MSTORE DUP16 DUP4 MSTORE PUSH1 0x2 DUP1 DUP4 MSTORE SWAP3 DUP2 SWAP1 KECCAK256 DUP6 MLOAD DUP2 SSTORE SWAP2 DUP6 ADD MLOAD SWAP4 DUP3 ADD SWAP4 SWAP1 SWAP4 SSTORE SWAP2 DUP4 ADD MLOAD SWAP1 DUP3 ADD SWAP1 PUSH2 0x16CB SWAP1 DUP3 PUSH2 0x32DD JUMP JUMPDEST POP PUSH1 0x60 DUP3 ADD MLOAD PUSH1 0x3 DUP1 DUP4 ADD SWAP2 SWAP1 SWAP2 SSTORE PUSH1 0x80 DUP4 ADD MLOAD PUSH1 0x4 DUP4 ADD SSTORE PUSH1 0xA0 DUP4 ADD MLOAD PUSH1 0x5 SWAP1 SWAP3 ADD DUP1 SLOAD PUSH1 0xC0 DUP1 DUP7 ADD MLOAD PUSH1 0xE0 SWAP1 SWAP7 ADD MLOAD ISZERO ISZERO PUSH1 0x1 PUSH1 0xA8 SHL MUL PUSH1 0xFF PUSH1 0xA8 SHL NOT SWAP7 ISZERO ISZERO PUSH1 0x1 PUSH1 0xA0 SHL MUL PUSH1 0x1 PUSH1 0x1 PUSH1 0xA8 SHL SUB NOT SWAP1 SWAP4 AND PUSH1 0x1 PUSH1 0x1 PUSH1 0xA0 SHL SUB SWAP1 SWAP7 AND SWAP6 SWAP1 SWAP6 OR SWAP2 SWAP1 SWAP2 OR SWAP5 SWAP1 SWAP5 AND SWAP3 SWAP1 SWAP3 OR SWAP1 SWAP2 SSTORE PUSH1 0x0 DUP14 DUP2 MSTORE PUSH1 0x20 SWAP2 SWAP1 SWAP2 MSTORE PUSH1 0x40 DUP1 DUP3 KECCAK256 DUP2 MLOAD SWAP4 DUP5 ADD SWAP1 SWAP2 MSTORE SWAP2 SWAP1 DUP2 SWAP1 DUP2 MSTORE PUSH1 0x20 ADD DUP9 DUP9 DUP1 DUP1 PUSH1 0x1F ADD PUSH1 0x20 DUP1 SWAP2 DIV MUL PUSH1 0x20 ADD PUSH1 0x40 MLOAD SWAP1 DUP2 ADD PUSH1 0x40 MSTORE DUP1 SWAP4 SWAP3 SWAP2 SWAP1 DUP2 DUP2 MSTORE PUSH1 0x20 ADD DUP4 DUP4 DUP1 DUP3 DUP5 CALLDATACOPY PUSH1 0x0 SWAP3 ADD SWAP2 SWAP1 SWAP2 MSTORE POP POP POP SWAP1 DUP3 MSTORE POP PUSH1 0x40 DUP1 MLOAD PUSH1 0x20 PUSH1 0x1F DUP10 ADD DUP2 SWAP1 DIV DUP2 MUL DUP3 ADD DUP2 ADD SWAP1 SWAP3 MSTORE DUP8 DUP2 MSTORE SWAP2 DUP2 ADD SWAP2 SWAP1 DUP9 SWAP1 DUP9 SWAP1 DUP2 SWAP1 DUP5 ADD DUP4 DUP3 DUP1 DUP3 DUP5 CALLDATACOPY PUSH1 0x0 SWAP3 ADD SWAP2 SWAP1 SWAP2 MSTORE POP POP POP SWAP1 DUP3 MSTORE POP TIMESTAMP PUSH1 0x20 DUP1 DUP4 ADD SWAP2 SWAP1 SWAP2 MSTORE PUSH1 0x40 DUP1 MLOAD PUSH1 0x1F DUP8 ADD DUP4 SWAP1 DIV DUP4 MUL DUP2 ADD DUP4 ADD DUP3 MSTORE DUP7 DUP2 MSTORE SWAP3 ADD SWAP2 SWAP1 DUP7 SWAP1 DUP7 SWAP1 DUP2 SWAP1 DUP5 ADD DUP4 DUP3 DUP1 DUP3 DUP5 CALLDATACOPY PUSH1 0x0 SWAP3 ADD DUP3 SWAP1 MSTORE POP SWAP4 DUP6 MSTORE POP POP CALLER PUSH1 0x20 SWAP4 DUP5 ADD MSTORE POP DUP4 SLOAD PUSH1 0x1 DUP2 DUP2 ADD DUP7 SSTORE SWAP5 DUP3 MSTORE SWAP2 SWAP1 KECCAK256 DUP3 MLOAD PUSH1 0x6 SWAP1 SWAP3 MUL ADD DUP1 SLOAD SWAP3 SWAP4 SWAP1 SWAP3 DUP4 SWAP2 PUSH1 0xFF NOT SWAP1 SWAP2 AND SWAP1 DUP4 PUSH1 0x3 DUP2 GT ISZERO PUSH2 0x1851 JUMPI PUSH2 0x1851 PUSH2 0x2FE6 JUMP JUMPDEST MUL OR SWAP1 SSTORE POP PUSH1 0x20 DUP3 ADD MLOAD PUSH1 0x1 DUP3 ADD SWAP1 PUSH2 0x186A SWAP1 DUP3 PUSH2 0x32DD JUMP JUMPDEST POP PUSH1 0x40 DUP3 ADD MLOAD PUSH1 0x2 DUP3 ADD SWAP1 PUSH2 0x187F SWAP1 DUP3 PUSH2 0x32DD JUMP JUMPDEST POP PUSH1 0x60 DUP3 ADD MLOAD PUSH1 0x3 DUP3 ADD SSTORE PUSH1 0x80 DUP3 ADD MLOAD PUSH1 0x4 DUP3 ADD SWAP1 PUSH2 0x189E SWAP1 DUP3 PUSH2 0x32DD JUMP JUMPDEST POP PUSH1 0xA0 SWAP2 SWAP1 SWAP2 ADD MLOAD PUSH1 0x5 SWAP1 SWAP2 ADD DUP1 SLOAD PUSH1 0x1 PUSH1 0x1 PUSH1 0xA0 SHL SUB NOT AND PUSH1 0x1 PUSH1 0x1 PUSH1 0xA0 SHL SUB SWAP1 SWAP3 AND SWAP2 SWAP1 SWAP2 OR SWAP1 SSTORE PUSH1 0x9 DUP1 SLOAD PUSH1 0x1 DUP2 ADD DUP3 SSTORE PUSH1 0x0 SWAP2 SWAP1 SWAP2 MSTORE PUSH32 0x6E1540171B6C0C960B71A7020D9F60077F6AF931A8BBF590DA0223DACF75C7AF ADD DUP12 SWAP1 SSTORE PUSH1 0x40 MLOAD CALLER SWAP1 DUP13 SWAP1 PUSH32 0x1E548D6C3FB449F78F5B7457156DCFB300CBB65D12A4038B334B6BFBDBA95738 SWAP1 PUSH2 0x1935 SWAP1 DUP14 SWAP1 DUP14 SWAP1 DUP14 SWAP1 PUSH2 0x3459 JUMP JUMPDEST PUSH1 0x40 MLOAD DUP1 SWAP2 SUB SWAP1 LOG3 PUSH2 0x1946 PUSH1 0x1 DUP1 SSTORE JUMP JUMPDEST POP POP POP POP POP POP POP POP POP POP POP JUMP JUMPDEST PUSH1 0xA SLOAD PUSH1 0x1 PUSH1 0x1 PUSH1 0xA0 SHL SUB AND CALLER EQ PUSH2 0x197D JUMPI PUSH1 0x40 MLOAD PUSH3 0x461BCD PUSH1 0xE5 SHL DUP2 MSTORE PUSH1 0x4 ADD PUSH2 0x702 SWAP1 PUSH2 0x31D0 JUMP JUMPDEST PUSH2 0x1985 PUSH2 0x2948 JUMP JUMPDEST PUSH2 0x1052 PUSH2 0x29A1 JUMP JUMPDEST PUSH2 0x1995 PUSH2 0x2902 JUMP JUMPDEST PUSH2 0x199D PUSH2 0x2948 JUMP JUMPDEST CALLER PUSH1 0x0 SWAP1 DUP2 MSTORE PUSH1 0x8 PUSH1 0x20 MSTORE PUSH1 0x40 SWAP1 KECCAK256 SLOAD DUP1 PUSH2 0x19E8 JUMPI PUSH1 0x40 MLOAD PUSH3 0x461BCD PUSH1 0xE5 SHL DUP2 MSTORE PUSH1 0x20 PUSH1 0x4 DUP3 ADD MSTORE PUSH1 0xB PUSH1 0x24 DUP3 ADD MSTORE PUSH11 0x4E6F2070726F6365656473 PUSH1 0xA8 SHL PUSH1 0x44 DUP3 ADD MSTORE PUSH1 0x64 ADD PUSH2 0x702 JUMP JUMPDEST CALLER PUSH1 0x0 DUP2 DUP2 MSTORE PUSH1 0x8 PUSH1 0x20 MSTORE PUSH1 0x40 DUP1 DUP3 KECCAK256 DUP3 SWAP1 SSTORE MLOAD SWAP1 SWAP2 SWAP1 DUP4 SWAP1 DUP4 DUP2 DUP2 DUP2 DUP6 DUP8 GAS CALL SWAP3 POP POP POP RETURNDATASIZE DUP1 PUSH1 0x0 DUP2 EQ PUSH2 0x1A39 JUMPI PUSH1 0x40 MLOAD SWAP2 POP PUSH1 0x1F NOT PUSH1 0x3F RETURNDATASIZE ADD AND DUP3 ADD PUSH1 0x40 MSTORE RETURNDATASIZE DUP3 MSTORE RETURNDATASIZE PUSH1 0x0 PUSH1 0x20 DUP5 ADD RETURNDATACOPY PUSH2 0x1A3E JUMP JUMPDEST PUSH1 0x60 SWAP2 POP JUMPDEST POP POP SWAP1 POP DUP1 PUSH2 0x1A81 JUMPI PUSH1 0x40 MLOAD PUSH3 0x461BCD PUSH1 0xE5 SHL DUP2 MSTORE PUSH1 0x20 PUSH1 0x4 DUP3 ADD MSTORE PUSH1 0xF PUSH1 0x24 DUP3 ADD MSTORE PUSH15 0x15DA5D1A191C985DC819985A5B1959 PUSH1 0x8A SHL PUSH1 0x44 DUP3 ADD MSTORE PUSH1 0x64 ADD PUSH2 0x702 JUMP JUMPDEST PUSH1 0x40 MLOAD DUP3 DUP2 MSTORE CALLER SWAP1 PUSH32 0xF2FB75CC1977A496E94837F859E957F68E26E70DC1B75D9945EE92AE57969BA SWAP1 PUSH1 0x20 ADD PUSH1 0x40 MLOAD DUP1 SWAP2 SUB SWAP1 LOG2 POP POP PUSH2 0x105B PUSH1 0x1 DUP1 SSTORE JUMP JUMPDEST PUSH1 0x2 PUSH1 0x20 DUP2 SWAP1 MSTORE PUSH1 0x0 SWAP2 DUP3 MSTORE PUSH1 0x40 SWAP1 SWAP2 KECCAK256 DUP1 SLOAD PUSH1 0x1 DUP3 ADD SLOAD SWAP3 DUP3 ADD DUP1 SLOAD SWAP2 SWAP4 SWAP3 SWAP2 PUSH2 0x1AEB SWAP1 PUSH2 0x325B JUMP JUMPDEST DUP1 PUSH1 0x1F ADD PUSH1 0x20 DUP1 SWAP2 DIV MUL PUSH1 0x20 ADD PUSH1 0x40 MLOAD SWAP1 DUP2 ADD PUSH1 0x40 MSTORE DUP1 SWAP3 SWAP2 SWAP1 DUP2 DUP2 MSTORE PUSH1 0x20 ADD DUP3 DUP1 SLOAD PUSH2 0x1B17 SWAP1 PUSH2 0x325B JUMP JUMPDEST DUP1 ISZERO PUSH2 0x1B64 JUMPI DUP1 PUSH1 0x1F LT PUSH2 0x1B39 JUMPI PUSH2 0x100 DUP1 DUP4 SLOAD DIV MUL DUP4 MSTORE SWAP2 PUSH1 0x20 ADD SWAP2 PUSH2 0x1B64 JUMP JUMPDEST DUP3 ADD SWAP2 SWAP1 PUSH1 0x0 MSTORE PUSH1 0x20 PUSH1 0x0 KECCAK256 SWAP1 JUMPDEST DUP2 SLOAD DUP2 MSTORE SWAP1 PUSH1 0x1 ADD SWAP1 PUSH1 0x20 ADD DUP1 DUP4 GT PUSH2 0x1B47 JUMPI DUP3 SWAP1 SUB PUSH1 0x1F AND DUP3 ADD SWAP2 JUMPDEST POP POP POP PUSH1 0x3 DUP5 ADD SLOAD PUSH1 0x4 DUP6 ADD SLOAD PUSH1 0x5 SWAP1 SWAP6 ADD SLOAD SWAP4 SWAP5 SWAP1 SWAP4 SWAP1 SWAP3 POP PUSH1 0x1 PUSH1 0x1 PUSH1 0xA0 SHL SUB DUP2 AND SWAP2 POP PUSH1 0xFF PUSH1 0x1 PUSH1 0xA0 SHL DUP3 DIV DUP2 AND SWAP2 PUSH1 0x1 PUSH1 0xA8 SHL SWAP1 DIV AND DUP9 JUMP JUMPDEST PUSH1 0x9 SLOAD PUSH1 0x0 SWAP1 DUP3 LT PUSH2 0x1BE5 JUMPI PUSH1 0x40 MLOAD PUSH3 0x461BCD PUSH1 0xE5 SHL DUP2 MSTORE PUSH1 0x20 PUSH1 0x4 DUP3 ADD MSTORE PUSH1 0xD PUSH1 0x24 DUP3 ADD MSTORE PUSH13 0x4F7574206F6620626F756E6473 PUSH1 0x98 SHL PUSH1 0x44 DUP3 ADD MSTORE PUSH1 0x64 ADD PUSH2 0x702 JUMP JUMPDEST PUSH1 0x9 DUP3 DUP2 SLOAD DUP2 LT PUSH2 0x1BF8 JUMPI PUSH2 0x1BF8 PUSH2 0x347D JUMP JUMPDEST SWAP1 PUSH1 0x0 MSTORE PUSH1 0x20 PUSH1 0x0 KECCAK256 ADD SLOAD SWAP1 POP SWAP2 SWAP1 POP JUMP JUMPDEST PUSH1 0x0 DUP3 DUP2 MSTORE PUSH1 0x6 PUSH1 0x20 MSTORE PUSH1 0x40 DUP2 KECCAK256 DUP1 SLOAD DUP1 DUP4 SUB PUSH2 0x1C2C JUMPI PUSH1 0x0 SWAP3 POP POP POP PUSH2 0x1D84 JUMP JUMPDEST DUP4 PUSH1 0x0 SUB PUSH2 0x1C6B JUMPI DUP2 PUSH2 0x1C40 PUSH1 0x1 DUP4 PUSH2 0x3433 JUMP JUMPDEST DUP2 SLOAD DUP2 LT PUSH2 0x1C50 JUMPI PUSH2 0x1C50 PUSH2 0x347D JUMP JUMPDEST SWAP1 PUSH1 0x0 MSTORE PUSH1 0x20 PUSH1 0x0 KECCAK256 SWAP1 PUSH1 0x2 MUL ADD PUSH1 0x1 ADD SLOAD SWAP3 POP POP POP PUSH2 0x1D84 JUMP JUMPDEST PUSH1 0x0 DUP5 TIMESTAMP GT PUSH2 0x1C7B JUMPI PUSH1 0x0 PUSH2 0x1C85 JUMP JUMPDEST PUSH2 0x1C85 DUP6 TIMESTAMP PUSH2 0x3433 JUMP JUMPDEST SWAP1 POP TIMESTAMP PUSH1 0x0 DUP1 DUP5 JUMPDEST DUP1 ISZERO PUSH2 0x1D2D JUMPI PUSH1 0x1 DUP2 SUB SWAP1 POP PUSH1 0x0 DUP8 DUP3 DUP2 SLOAD DUP2 LT PUSH2 0x1CAD JUMPI PUSH2 0x1CAD PUSH2 0x347D JUMP JUMPDEST SWAP1 PUSH1 0x0 MSTORE PUSH1 0x20 PUSH1 0x0 KECCAK256 SWAP1 PUSH1 0x2 MUL ADD SWAP1 POP PUSH1 0x0 DUP7 DUP3 PUSH1 0x0 ADD SLOAD GT PUSH2 0x1CD0 JUMPI DUP7 PUSH2 0x1CD3 JUMP JUMPDEST DUP2 SLOAD JUMPDEST SWAP1 POP DUP1 DUP7 GT ISZERO PUSH2 0x1D15 JUMPI PUSH1 0x0 PUSH2 0x1CE9 DUP3 DUP9 PUSH2 0x3433 JUMP JUMPDEST SWAP1 POP DUP1 DUP4 PUSH1 0x1 ADD SLOAD PUSH2 0x1CFB SWAP2 SWAP1 PUSH2 0x341C JUMP JUMPDEST PUSH2 0x1D05 SWAP1 DUP8 PUSH2 0x3446 JUMP JUMPDEST SWAP6 POP PUSH2 0x1D11 DUP2 DUP7 PUSH2 0x3446 JUMP JUMPDEST SWAP5 POP POP JUMPDEST DUP2 SLOAD DUP8 LT PUSH2 0x1D24 JUMPI POP POP PUSH2 0x1D2D JUMP JUMPDEST POP SLOAD SWAP4 POP PUSH2 0x1C8D JUMP JUMPDEST POP DUP1 PUSH1 0x0 SUB PUSH2 0x1D71 JUMPI DUP6 PUSH2 0x1D42 PUSH1 0x1 DUP8 PUSH2 0x3433 JUMP JUMPDEST DUP2 SLOAD DUP2 LT PUSH2 0x1D52 JUMPI PUSH2 0x1D52 PUSH2 0x347D JUMP JUMPDEST SWAP1 PUSH1 0x0 MSTORE PUSH1 0x20 PUSH1 0x0 KECCAK256 SWAP1 PUSH1 0x2 MUL ADD PUSH1 0x1 ADD SLOAD SWAP7 POP POP POP POP POP POP POP PUSH2 0x1D84 JUMP JUMPDEST PUSH2 0x1D7B DUP2 DUP4 PUSH2 0x3493 JUMP JUMPDEST SWAP7 POP POP POP POP POP POP POP JUMPDEST SWAP3 SWAP2 POP POP JUMP JUMPDEST PUSH1 0x0 DUP2 DUP2 MSTORE PUSH1 0x2 PUSH1 0x20 MSTORE PUSH1 0x40 SWAP1 KECCAK256 PUSH1 0x5 ADD SLOAD PUSH1 0x60 SWAP1 DUP3 SWAP1 PUSH1 0x1 PUSH1 0xA0 SHL SWAP1 DIV PUSH1 0xFF AND PUSH2 0x1DC7 JUMPI PUSH1 0x40 MLOAD PUSH3 0x461BCD PUSH1 0xE5 SHL DUP2 MSTORE PUSH1 0x4 ADD PUSH2 0x702 SWAP1 PUSH2 0x31F4 JUMP JUMPDEST PUSH1 0x0 DUP4 DUP2 MSTORE PUSH1 0x3 PUSH1 0x20 SWAP1 DUP2 MSTORE PUSH1 0x40 DUP1 DUP4 KECCAK256 DUP1 SLOAD DUP3 MLOAD DUP2 DUP6 MUL DUP2 ADD DUP6 ADD SWAP1 SWAP4 MSTORE DUP1 DUP4 MSTORE SWAP2 SWAP4 SWAP1 SWAP3 DUP5 ADD JUMPDEST DUP3 DUP3 LT ISZERO PUSH2 0x2025 JUMPI PUSH1 0x0 DUP5 DUP2 MSTORE PUSH1 0x20 SWAP1 KECCAK256 PUSH1 0x40 DUP1 MLOAD PUSH1 0xC0 DUP2 ADD SWAP1 SWAP2 MSTORE PUSH1 0x6 DUP5 MUL SWAP1 SWAP2 ADD DUP1 SLOAD DUP3 SWAP1 PUSH1 0xFF AND PUSH1 0x3 DUP2 GT ISZERO PUSH2 0x1E2B JUMPI PUSH2 0x1E2B PUSH2 0x2FE6 JUMP JUMPDEST PUSH1 0x3 DUP2 GT ISZERO PUSH2 0x1E3C JUMPI PUSH2 0x1E3C PUSH2 0x2FE6 JUMP JUMPDEST DUP2 MSTORE PUSH1 0x20 ADD PUSH1 0x1 DUP3 ADD DUP1 SLOAD PUSH2 0x1E50 SWAP1 PUSH2 0x325B JUMP JUMPDEST DUP1 PUSH1 0x1F ADD PUSH1 0x20 DUP1 SWAP2 DIV MUL PUSH1 0x20 ADD PUSH1 0x40 MLOAD SWAP1 DUP2 ADD PUSH1 0x40 MSTORE DUP1 SWAP3 SWAP2 SWAP1 DUP2 DUP2 MSTORE PUSH1 0x20 ADD DUP3 DUP1 SLOAD PUSH2 0x1E7C SWAP1 PUSH2 0x325B JUMP JUMPDEST DUP1 ISZERO PUSH2 0x1EC9 JUMPI DUP1 PUSH1 0x1F LT PUSH2 0x1E9E JUMPI PUSH2 0x100 DUP1 DUP4 SLOAD DIV MUL DUP4 MSTORE SWAP2 PUSH1 0x20 ADD SWAP2 PUSH2 0x1EC9 JUMP JUMPDEST DUP3 ADD SWAP2 SWAP1 PUSH1 0x0 MSTORE PUSH1 0x20 PUSH1 0x0 KECCAK256 SWAP1 JUMPDEST DUP2 SLOAD DUP2 MSTORE SWAP1 PUSH1 0x1 ADD SWAP1 PUSH1 0x20 ADD DUP1 DUP4 GT PUSH2 0x1EAC JUMPI DUP3 SWAP1 SUB PUSH1 0x1F AND DUP3 ADD SWAP2 JUMPDEST POP POP POP POP POP DUP2 MSTORE PUSH1 0x20 ADD PUSH1 0x2 DUP3 ADD DUP1 SLOAD PUSH2 0x1EE2 SWAP1 PUSH2 0x325B JUMP JUMPDEST DUP1 PUSH1 0x1F ADD PUSH1 0x20 DUP1 SWAP2 DIV MUL PUSH1 0x20 ADD PUSH1 0x40 MLOAD SWAP1 DUP2 ADD PUSH1 0x40 MSTORE DUP1 SWAP3 SWAP2 SWAP1 DUP2 DUP2 MSTORE PUSH1 0x20 ADD DUP3 DUP1 SLOAD PUSH2 0x1F0E SWAP1 PUSH2 0x325B JUMP JUMPDEST DUP1 ISZERO PUSH2 0x1F5B JUMPI DUP1 PUSH1 0x1F LT PUSH2 0x1F30 JUMPI PUSH2 0x100 DUP1 DUP4 SLOAD DIV MUL DUP4 MSTORE SWAP2 PUSH1 0x20 ADD SWAP2 PUSH2 0x1F5B JUMP JUMPDEST DUP3 ADD SWAP2 SWAP1 PUSH1 0x0 MSTORE PUSH1 0x20 PUSH1 0x0 KECCAK256 SWAP1 JUMPDEST DUP2 SLOAD DUP2 MSTORE SWAP1 PUSH1 0x1 ADD SWAP1 PUSH1 0x20 ADD DUP1 DUP4 GT PUSH2 0x1F3E JUMPI DUP3 SWAP1 SUB PUSH1 0x1F AND DUP3 ADD SWAP2 JUMPDEST POP POP POP POP POP DUP2 MSTORE PUSH1 0x20 ADD PUSH1 0x3 DUP3 ADD SLOAD DUP2 MSTORE PUSH1 0x20 ADD PUSH1 0x4 DUP3 ADD DUP1 SLOAD PUSH2 0x1F7E SWAP1 PUSH2 0x325B JUMP JUMPDEST DUP1 PUSH1 0x1F ADD PUSH1 0x20 DUP1 SWAP2 DIV MUL PUSH1 0x20 ADD PUSH1 0x40 MLOAD SWAP1 DUP2 ADD PUSH1 0x40 MSTORE DUP1 SWAP3 SWAP2 SWAP1 DUP2 DUP2 MSTORE PUSH1 0x20 ADD DUP3 DUP1 SLOAD PUSH2 0x1FAA SWAP1 PUSH2 0x325B JUMP JUMPDEST DUP1 ISZERO PUSH2 0x1FF7 JUMPI DUP1 PUSH1 0x1F LT PUSH2 0x1FCC JUMPI PUSH2 0x100 DUP1 DUP4 SLOAD DIV MUL DUP4 MSTORE SWAP2 PUSH1 0x20 ADD SWAP2 PUSH2 0x1FF7 JUMP JUMPDEST DUP3 ADD SWAP2 SWAP1 PUSH1 0x0 MSTORE PUSH1 0x20 PUSH1 0x0 KECCAK256 SWAP1 JUMPDEST DUP2 SLOAD DUP2 MSTORE SWAP1 PUSH1 0x1 ADD SWAP1 PUSH1 0x20 ADD DUP1 DUP4 GT PUSH2 0x1FDA JUMPI DUP3 SWAP1 SUB PUSH1 0x1F AND DUP3 ADD SWAP2 JUMPDEST POP POP POP SWAP2 DUP4 MSTORE POP POP PUSH1 0x5 SWAP2 SWAP1 SWAP2 ADD SLOAD PUSH1 0x1 PUSH1 0x1 PUSH1 0xA0 SHL SUB AND PUSH1 0x20 SWAP2 DUP3 ADD MSTORE SWAP1 DUP3 MSTORE PUSH1 0x1 SWAP3 SWAP1 SWAP3 ADD SWAP2 ADD PUSH2 0x1DF0 JUMP JUMPDEST POP POP POP POP SWAP2 POP JUMPDEST POP SWAP2 SWAP1 POP JUMP JUMPDEST PUSH2 0x2075 PUSH1 0x40 DUP1 MLOAD PUSH1 0xC0 DUP2 ADD SWAP1 SWAP2 MSTORE DUP1 PUSH1 0x0 DUP2 MSTORE PUSH1 0x20 ADD PUSH1 0x60 DUP2 MSTORE PUSH1 0x20 ADD PUSH1 0x60 DUP2 MSTORE PUSH1 0x20 ADD PUSH1 0x0 DUP2 MSTORE PUSH1 0x20 ADD PUSH1 0x60 DUP2 MSTORE PUSH1 0x20 ADD PUSH1 0x0 PUSH1 0x1 PUSH1 0x1 PUSH1 0xA0 SHL SUB AND DUP2 MSTORE POP SWAP1 JUMP JUMPDEST PUSH1 0x0 DUP3 DUP2 MSTORE PUSH1 0x2 PUSH1 0x20 MSTORE PUSH1 0x40 SWAP1 KECCAK256 PUSH1 0x5 ADD SLOAD DUP3 SWAP1 PUSH1 0x1 PUSH1 0xA0 SHL SWAP1 DIV PUSH1 0xFF AND PUSH2 0x20AF JUMPI PUSH1 0x40 MLOAD PUSH3 0x461BCD PUSH1 0xE5 SHL DUP2 MSTORE PUSH1 0x4 ADD PUSH2 0x702 SWAP1 PUSH2 0x31F4 JUMP JUMPDEST PUSH1 0x0 DUP4 DUP2 MSTORE PUSH1 0x3 PUSH1 0x20 MSTORE PUSH1 0x40 SWAP1 KECCAK256 SLOAD DUP1 PUSH2 0x20F8 JUMPI PUSH1 0x40 MLOAD PUSH3 0x461BCD PUSH1 0xE5 SHL DUP2 MSTORE PUSH1 0x20 PUSH1 0x4 DUP3 ADD MSTORE PUSH1 0xA PUSH1 0x24 DUP3 ADD MSTORE PUSH10 0x4E6F2075706461746573 PUSH1 0xB0 SHL PUSH1 0x44 DUP3 ADD MSTORE PUSH1 0x64 ADD PUSH2 0x702 JUMP JUMPDEST PUSH1 0x0 DUP5 DUP2 MSTORE PUSH1 0x3 PUSH1 0x20 MSTORE PUSH1 0x40 SWAP1 KECCAK256 PUSH2 0x2111 PUSH1 0x1 DUP4 PUSH2 0x3433 JUMP JUMPDEST DUP2 SLOAD DUP2 LT PUSH2 0x2121 JUMPI PUSH2 0x2121 PUSH2 0x347D JUMP JUMPDEST PUSH1 0x0 SWAP2 DUP3 MSTORE PUSH1 0x20 SWAP1 SWAP2 KECCAK256 PUSH1 0x40 DUP1 MLOAD PUSH1 0xC0 DUP2 ADD SWAP1 SWAP2 MSTORE PUSH1 0x6 SWAP1 SWAP3 MUL ADD DUP1 SLOAD DUP3 SWAP1 PUSH1 0xFF AND PUSH1 0x3 DUP2 GT ISZERO PUSH2 0x2154 JUMPI PUSH2 0x2154 PUSH2 0x2FE6 JUMP JUMPDEST PUSH1 0x3 DUP2 GT ISZERO PUSH2 0x2165 JUMPI PUSH2 0x2165 PUSH2 0x2FE6 JUMP JUMPDEST DUP2 MSTORE PUSH1 0x20 ADD PUSH1 0x1 DUP3 ADD DUP1 SLOAD PUSH2 0x2179 SWAP1 PUSH2 0x325B JUMP JUMPDEST DUP1 PUSH1 0x1F ADD PUSH1 0x20 DUP1 SWAP2 DIV MUL PUSH1 0x20 ADD PUSH1 0x40 MLOAD SWAP1 DUP2 ADD PUSH1 0x40 MSTORE DUP1 SWAP3 SWAP2 SWAP1 DUP2 DUP2 MSTORE PUSH1 0x20 ADD DUP3 DUP1 SLOAD PUSH2 0x21A5 SWAP1 PUSH2 0x325B JUMP JUMPDEST DUP1 ISZERO PUSH2 0x21F2 JUMPI DUP1 PUSH1 0x1F LT PUSH2 0x21C7 JUMPI PUSH2 0x100 DUP1 DUP4 SLOAD DIV MUL DUP4 MSTORE SWAP2 PUSH1 0x20 ADD SWAP2 PUSH2 0x21F2 JUMP JUMPDEST DUP3 ADD SWAP2 SWAP1 PUSH1 0x0 MSTORE PUSH1 0x20 PUSH1 0x0 KECCAK256 SWAP1 JUMPDEST DUP2 SLOAD DUP2 MSTORE SWAP1 PUSH1 0x1 ADD SWAP1 PUSH1 0x20 ADD DUP1 DUP4 GT PUSH2 0x21D5 JUMPI DUP3 SWAP1 SUB PUSH1 0x1F AND DUP3 ADD SWAP2 JUMPDEST POP POP POP POP POP DUP2 MSTORE PUSH1 0x20 ADD PUSH1 0x2 DUP3 ADD DUP1 SLOAD PUSH2 0x220B SWAP1 PUSH2 0x325B JUMP JUMPDEST DUP1 PUSH1 0x1F ADD PUSH1 0x20 DUP1 SWAP2 DIV MUL PUSH1 0x20 ADD PUSH1 0x40 MLOAD SWAP1 DUP2 ADD PUSH1 0x40 MSTORE DUP1 SWAP3 SWAP2 SWAP1 DUP2 DUP2 MSTORE PUSH1 0x20 ADD DUP3 DUP1 SLOAD PUSH2 0x2237 SWAP1 PUSH2 0x325B JUMP JUMPDEST DUP1 ISZERO PUSH2 0x2284 JUMPI DUP1 PUSH1 0x1F LT PUSH2 0x2259 JUMPI PUSH2 0x100 DUP1 DUP4 SLOAD DIV MUL DUP4 MSTORE SWAP2 PUSH1 0x20 ADD SWAP2 PUSH2 0x2284 JUMP JUMPDEST DUP3 ADD SWAP2 SWAP1 PUSH1 0x0 MSTORE PUSH1 0x20 PUSH1 0x0 KECCAK256 SWAP1 JUMPDEST DUP2 SLOAD DUP2 MSTORE SWAP1 PUSH1 0x1 ADD SWAP1 PUSH1 0x20 ADD DUP1 DUP4 GT PUSH2 0x2267 JUMPI DUP3 SWAP1 SUB PUSH1 0x1F AND DUP3 ADD SWAP2 JUMPDEST POP POP POP POP POP DUP2 MSTORE PUSH1 0x20 ADD PUSH1 0x3 DUP3 ADD SLOAD DUP2 MSTORE PUSH1 0x20 ADD PUSH1 0x4 DUP3 ADD DUP1 SLOAD PUSH2 0x22A7 SWAP1 PUSH2 0x325B JUMP JUMPDEST DUP1 PUSH1 0x1F ADD PUSH1 0x20 DUP1 SWAP2 DIV MUL PUSH1 0x20 ADD PUSH1 0x40 MLOAD SWAP1 DUP2 ADD PUSH1 0x40 MSTORE DUP1 SWAP3 SWAP2 SWAP1 DUP2 DUP2 MSTORE PUSH1 0x20 ADD DUP3 DUP1 SLOAD PUSH2 0x22D3 SWAP1 PUSH2 0x325B JUMP JUMPDEST DUP1 ISZERO PUSH2 0x2320 JUMPI DUP1 PUSH1 0x1F LT PUSH2 0x22F5 JUMPI PUSH2 0x100 DUP1 DUP4 SLOAD DIV MUL DUP4 MSTORE SWAP2 PUSH1 0x20 ADD SWAP2 PUSH2 0x2320 JUMP JUMPDEST DUP3 ADD SWAP2 SWAP1 PUSH1 0x0 MSTORE PUSH1 0x20 PUSH1 0x0 KECCAK256 SWAP1 JUMPDEST DUP2 SLOAD DUP2 MSTORE SWAP1 PUSH1 0x1 ADD SWAP1 PUSH1 0x20 ADD DUP1 DUP4 GT PUSH2 0x2303 JUMPI DUP3 SWAP1 SUB PUSH1 0x1F AND DUP3 ADD SWAP2 JUMPDEST POP POP POP SWAP2 DUP4 MSTORE POP POP PUSH1 0x5 SWAP2 SWAP1 SWAP2 ADD SLOAD PUSH1 0x1 PUSH1 0x1 PUSH1 0xA0 SHL SUB AND PUSH1 0x20 SWAP1 SWAP2 ADD MSTORE SWAP5 SWAP4 POP POP POP POP JUMP JUMPDEST PUSH1 0x0 DUP1 CALLER PUSH1 0x0 SWAP1 DUP2 MSTORE PUSH1 0x4 PUSH1 0x20 MSTORE PUSH1 0x40 SWAP1 KECCAK256 SLOAD PUSH1 0xFF AND PUSH1 0x6 DUP2 GT ISZERO PUSH2 0x236D JUMPI PUSH2 0x236D PUSH2 0x2FE6 JUMP JUMPDEST SUB PUSH2 0x238A JUMPI PUSH1 0x40 MLOAD PUSH3 0x461BCD PUSH1 0xE5 SHL DUP2 MSTORE PUSH1 0x4 ADD PUSH2 0x702 SWAP1 PUSH2 0x321D JUMP JUMPDEST PUSH2 0x2392 PUSH2 0x2902 JUMP JUMPDEST PUSH2 0x239A PUSH2 0x2948 JUMP JUMPDEST PUSH1 0x0 DUP5 DUP2 MSTORE PUSH1 0x2 PUSH1 0x20 MSTORE PUSH1 0x40 SWAP1 KECCAK256 PUSH1 0x5 ADD SLOAD DUP5 SWAP1 PUSH1 0x1 PUSH1 0xA0 SHL SWAP1 DIV PUSH1 0xFF AND PUSH2 0x23D4 JUMPI PUSH1 0x40 MLOAD PUSH3 0x461BCD PUSH1 0xE5 SHL DUP2 MSTORE PUSH1 0x4 ADD PUSH2 0x702 SWAP1 PUSH2 0x31F4 JUMP JUMPDEST PUSH1 0x0 DUP6 DUP2 MSTORE PUSH1 0x2 PUSH1 0x20 MSTORE PUSH1 0x40 SWAP1 KECCAK256 PUSH1 0x5 DUP2 ADD SLOAD PUSH1 0x1 PUSH1 0xA8 SHL SWAP1 DIV PUSH1 0xFF AND ISZERO PUSH2 0x2432 JUMPI PUSH1 0x40 MLOAD PUSH3 0x461BCD PUSH1 0xE5 SHL DUP2 MSTORE PUSH1 0x20 PUSH1 0x4 DUP3 ADD MSTORE PUSH1 0x11 PUSH1 0x24 DUP3 ADD MSTORE PUSH17 0x10985D18DA081A5CC81C9958D85B1B1959 PUSH1 0x7A SHL PUSH1 0x44 DUP3 ADD MSTORE PUSH1 0x64 ADD PUSH2 0x702 JUMP JUMPDEST PUSH1 0x0 DUP6 GT DUP1 ISZERO PUSH2 0x2446 JUMPI POP DUP1 PUSH1 0x3 ADD SLOAD DUP6 GT ISZERO JUMPDEST PUSH2 0x2485 JUMPI PUSH1 0x40 MLOAD PUSH3 0x461BCD PUSH1 0xE5 SHL DUP2 MSTORE PUSH1 0x20 PUSH1 0x4 DUP3 ADD MSTORE PUSH1 0x10 PUSH1 0x24 DUP3 ADD MSTORE PUSH16 0x496E76616C6964207175616E74697479 PUSH1 0x80 SHL PUSH1 0x44 DUP3 ADD MSTORE PUSH1 0x64 ADD PUSH2 0x702 JUMP JUMPDEST PUSH1 0x0 DUP5 GT PUSH2 0x24BF JUMPI PUSH1 0x40 MLOAD PUSH3 0x461BCD PUSH1 0xE5 SHL DUP2 MSTORE PUSH1 0x20 PUSH1 0x4 DUP3 ADD MSTORE PUSH1 0x7 PUSH1 0x24 DUP3 ADD MSTORE PUSH7 0x50726963653D3 PUSH1 0xCC SHL PUSH1 0x44 DUP3 ADD MSTORE PUSH1 0x64 ADD PUSH2 0x702 JUMP JUMPDEST CALLER PUSH1 0x0 DUP2 DUP2 MSTORE PUSH1 0x4 PUSH1 0x20 MSTORE PUSH1 0x40 SWAP1 KECCAK256 SLOAD PUSH1 0x5 DUP4 ADD SLOAD PUSH1 0xFF SWAP1 SWAP2 AND SWAP2 PUSH1 0x1 PUSH1 0x1 PUSH1 0xA0 SHL SUB SWAP1 SWAP2 AND EQ DUP1 PUSH2 0x2502 JUMPI POP PUSH1 0x2 DUP2 PUSH1 0x6 DUP2 GT ISZERO PUSH2 0x2500 JUMPI PUSH2 0x2500 PUSH2 0x2FE6 JUMP JUMPDEST EQ JUMPDEST DUP1 PUSH2 0x251E JUMPI POP PUSH1 0x6 DUP2 PUSH1 0x6 DUP2 GT ISZERO PUSH2 0x251C JUMPI PUSH2 0x251C PUSH2 0x2FE6 JUMP JUMPDEST EQ JUMPDEST PUSH2 0x256A JUMPI PUSH1 0x40 MLOAD PUSH3 0x461BCD PUSH1 0xE5 SHL DUP2 MSTORE PUSH1 0x20 PUSH1 0x4 DUP3 ADD MSTORE PUSH1 0x18 PUSH1 0x24 DUP3 ADD MSTORE PUSH32 0x4F6E6C792063726561746F722F6D616E64692F61646D696E0000000000000000 PUSH1 0x44 DUP3 ADD MSTORE PUSH1 0x64 ADD PUSH2 0x702 JUMP JUMPDEST PUSH1 0xB SLOAD PUSH2 0x2578 DUP2 PUSH1 0x1 PUSH2 0x3446 JUMP JUMPDEST PUSH1 0xB SSTORE PUSH1 0x40 DUP1 MLOAD PUSH2 0x100 DUP2 ADD DUP3 MSTORE DUP3 DUP2 MSTORE PUSH1 0x20 DUP1 DUP3 ADD DUP12 DUP2 MSTORE CALLER DUP4 DUP6 ADD DUP2 DUP2 MSTORE PUSH1 0x60 DUP6 ADD DUP14 DUP2 MSTORE PUSH1 0x80 DUP7 ADD DUP15 DUP2 MSTORE PUSH1 0xA0 DUP8 ADD DUP15 DUP2 MSTORE PUSH1 0x1 PUSH1 0xC0 DUP10 ADD DUP2 DUP2 MSTORE TIMESTAMP PUSH1 0xE0 DUP12 ADD SWAP1 DUP2 MSTORE PUSH1 0x0 DUP14 DUP2 MSTORE PUSH1 0x5 DUP1 DUP13 MSTORE SWAP1 DUP14 SWAP1 KECCAK256 SWAP12 MLOAD DUP13 SSTORE SWAP9 MLOAD SWAP3 DUP12 ADD SWAP3 SWAP1 SWAP3 SSTORE SWAP5 MLOAD PUSH1 0x2 DUP11 ADD DUP1 SLOAD PUSH1 0x1 PUSH1 0x1 PUSH1 0xA0 SHL SUB NOT AND PUSH1 0x1 PUSH1 0x1 PUSH1 0xA0 SHL SUB SWAP1 SWAP3 AND SWAP2 SWAP1 SWAP2 OR SWAP1 SSTORE SWAP3 MLOAD PUSH1 0x3 DUP10 ADD SSTORE SWAP1 MLOAD PUSH1 0x4 DUP9 ADD SSTORE MLOAD SWAP4 DUP7 ADD SWAP4 SWAP1 SWAP4 SSTORE MLOAD PUSH1 0x6 DUP6 ADD DUP1 SLOAD PUSH1 0xFF NOT AND SWAP2 ISZERO ISZERO SWAP2 SWAP1 SWAP2 OR SWAP1 SSTORE SWAP1 MLOAD PUSH1 0x7 SWAP1 SWAP4 ADD SWAP3 SWAP1 SWAP3 SSTORE DUP3 MLOAD DUP11 DUP2 MSTORE SWAP1 DUP2 ADD DUP10 SWAP1 MSTORE SWAP1 SWAP2 DUP11 SWAP2 DUP5 SWAP2 PUSH32 0x70A9073E3CA286CE6123FBDA2A3A02D9AB166D67E00D7863763C09F138575220 SWAP2 ADD PUSH1 0x40 MLOAD DUP1 SWAP2 SUB SWAP1 LOG4 SWAP4 POP POP POP POP PUSH2 0x267B PUSH1 0x1 DUP1 SSTORE JUMP JUMPDEST SWAP4 SWAP3 POP POP POP JUMP JUMPDEST PUSH1 0x40 DUP1 MLOAD PUSH2 0x100 DUP2 ADD DUP3 MSTORE PUSH1 0x0 DUP1 DUP3 MSTORE PUSH1 0x20 DUP3 ADD DUP2 SWAP1 MSTORE PUSH1 0x60 SWAP3 DUP3 ADD DUP4 SWAP1 MSTORE SWAP2 DUP2 ADD DUP3 SWAP1 MSTORE PUSH1 0x80 DUP2 ADD DUP3 SWAP1 MSTORE PUSH1 0xA0 DUP2 ADD DUP3 SWAP1 MSTORE PUSH1 0xC0 DUP2 ADD DUP3 SWAP1 MSTORE PUSH1 0xE0 DUP2 ADD SWAP2 SWAP1 SWAP2 MSTORE PUSH1 0x0 DUP3 DUP2 MSTORE PUSH1 0x2 PUSH1 0x20 MSTORE PUSH1 0x40 SWAP1 KECCAK256 PUSH1 0x5 ADD SLOAD DUP3 SWAP1 PUSH1 0x1 PUSH1 0xA0 SHL SWAP1 DIV PUSH1 0xFF AND PUSH2 0x26FE JUMPI PUSH1 0x40 MLOAD PUSH3 0x461BCD PUSH1 0xE5 SHL DUP2 MSTORE PUSH1 0x4 ADD PUSH2 0x702 SWAP1 PUSH2 0x31F4 JUMP JUMPDEST PUSH1 0x2 PUSH1 0x0 DUP5 DUP2 MSTORE PUSH1 0x20 ADD SWAP1 DUP2 MSTORE PUSH1 0x20 ADD PUSH1 0x0 KECCAK256 PUSH1 0x40 MLOAD DUP1 PUSH2 0x100 ADD PUSH1 0x40 MSTORE SWAP1 DUP2 PUSH1 0x0 DUP3 ADD SLOAD DUP2 MSTORE PUSH1 0x20 ADD PUSH1 0x1 DUP3 ADD SLOAD DUP2 MSTORE PUSH1 0x20 ADD PUSH1 0x2 DUP3 ADD DUP1 SLOAD PUSH2 0x2741 SWAP1 PUSH2 0x325B JUMP JUMPDEST DUP1 PUSH1 0x1F ADD PUSH1 0x20 DUP1 SWAP2 DIV MUL PUSH1 0x20 ADD PUSH1 0x40 MLOAD SWAP1 DUP2 ADD PUSH1 0x40 MSTORE DUP1 SWAP3 SWAP2 SWAP1 DUP2 DUP2 MSTORE PUSH1 0x20 ADD DUP3 DUP1 SLOAD PUSH2 0x276D SWAP1 PUSH2 0x325B JUMP JUMPDEST DUP1 ISZERO PUSH2 0x27BA JUMPI DUP1 PUSH1 0x1F LT PUSH2 0x278F JUMPI PUSH2 0x100 DUP1 DUP4 SLOAD DIV MUL DUP4 MSTORE SWAP2 PUSH1 0x20 ADD SWAP2 PUSH2 0x27BA JUMP JUMPDEST DUP3 ADD SWAP2 SWAP1 PUSH1 0x0 MSTORE PUSH1 0x20 PUSH1 0x0 KECCAK256 SWAP1 JUMPDEST DUP2 SLOAD DUP2 MSTORE SWAP1 PUSH1 0x1 ADD SWAP1 PUSH1 0x20 ADD DUP1 DUP4 GT PUSH2 0x279D JUMPI DUP3 SWAP1 SUB PUSH1 0x1F AND DUP3 ADD SWAP2 JUMPDEST POP POP POP SWAP2 DUP4 MSTORE POP POP PUSH1 0x3 DUP3 ADD SLOAD PUSH1 0x20 DUP3 ADD MSTORE PUSH1 0x4 DUP3 ADD SLOAD PUSH1 0x40 DUP3 ADD MSTORE PUSH1 0x5 SWAP1 SWAP2 ADD SLOAD PUSH1 0x1 PUSH1 0x1 PUSH1 0xA0 SHL SUB DUP2 AND PUSH1 0x60 DUP4 ADD MSTORE PUSH1 0xFF PUSH1 0x1 PUSH1 0xA0 SHL DUP3 DIV DUP2 AND ISZERO ISZERO PUSH1 0x80 DUP5 ADD MSTORE PUSH1 0x1 PUSH1 0xA8 SHL SWAP1 SWAP2 DIV AND ISZERO ISZERO PUSH1 0xA0 SWAP1 SWAP2 ADD MSTORE SWAP2 POP POP SWAP2 SWAP1 POP JUMP JUMPDEST PUSH1 0xA SLOAD PUSH1 0x1 PUSH1 0x1 PUSH1 0xA0 SHL SUB AND CALLER EQ PUSH2 0x2840 JUMPI PUSH1 0x40 MLOAD PUSH3 0x461BCD PUSH1 0xE5 SHL DUP2 MSTORE PUSH1 0x4 ADD PUSH2 0x702 SWAP1 PUSH2 0x31D0 JUMP JUMPDEST PUSH2 0x2848 PUSH2 0x2948 JUMP JUMPDEST PUSH1 0x1 PUSH1 0x1 PUSH1 0xA0 SHL SUB DUP2 AND PUSH2 0x2890 JUMPI PUSH1 0x40 MLOAD PUSH3 0x461BCD PUSH1 0xE5 SHL DUP2 MSTORE PUSH1 0x20 PUSH1 0x4 DUP3 ADD MSTORE PUSH1 0xF PUSH1 0x24 DUP3 ADD MSTORE PUSH15 0x496E76616C69642061646472657373 PUSH1 0x88 SHL PUSH1 0x44 DUP3 ADD MSTORE PUSH1 0x64 ADD PUSH2 0x702 JUMP JUMPDEST PUSH1 0xA DUP1 SLOAD PUSH1 0x1 PUSH1 0x1 PUSH1 0xA0 SHL SUB NOT DUP2 AND PUSH1 0x1 PUSH1 0x1 PUSH1 0xA0 SHL SUB DUP5 DUP2 AND SWAP2 DUP3 OR SWAP1 SWAP4 SSTORE PUSH1 0x0 DUP2 DUP2 MSTORE PUSH1 0x4 PUSH1 0x20 MSTORE PUSH1 0x40 DUP1 DUP3 KECCAK256 DUP1 SLOAD PUSH1 0xFF NOT AND PUSH1 0x6 OR SWAP1 SSTORE MLOAD SWAP4 SWAP1 SWAP3 AND SWAP3 SWAP1 SWAP2 DUP4 SWAP2 PUSH32 0x8BE0079C531659141344CD1FD0A4F28419497F9722A3DAAFE3B4186F6B6457E0 SWAP2 SWAP1 LOG3 POP PUSH2 0x7AB PUSH1 0x1 DUP1 SSTORE JUMP JUMPDEST PUSH1 0x0 SLOAD PUSH1 0xFF AND ISZERO PUSH2 0x105B JUMPI PUSH1 0x40 MLOAD PUSH3 0x461BCD PUSH1 0xE5 SHL DUP2 MSTORE PUSH1 0x20 PUSH1 0x4 DUP3 ADD MSTORE PUSH1 0x10 PUSH1 0x24 DUP3 ADD MSTORE PUSH16 0x14185D5CD8589B194E881C185D5CD959 PUSH1 0x82 SHL PUSH1 0x44 DUP3 ADD MSTORE PUSH1 0x64 ADD PUSH2 0x702 JUMP JUMPDEST PUSH1 0x2 PUSH1 0x1 SLOAD SUB PUSH2 0x299A JUMPI PUSH1 0x40 MLOAD PUSH3 0x461BCD PUSH1 0xE5 SHL DUP2 MSTORE PUSH1 0x20 PUSH1 0x4 DUP3 ADD MSTORE PUSH1 0x1F PUSH1 0x24 DUP3 ADD MSTORE PUSH32 0x5265656E7472616E637947756172643A207265656E7472616E742063616C6C00 PUSH1 0x44 DUP3 ADD MSTORE PUSH1 0x64 ADD PUSH2 0x702 JUMP JUMPDEST PUSH1 0x2 PUSH1 0x1 SSTORE JUMP JUMPDEST PUSH2 0x29A9 PUSH2 0x2902 JUMP JUMPDEST PUSH1 0x0 DUP1 SLOAD PUSH1 0xFF NOT AND PUSH1 0x1 OR SWAP1 SSTORE PUSH32 0x62E78CEA01BEE320CD4E420270B5EA74000D11B0C9F74754EBDBFC544B05A258 PUSH2 0x29DE CALLER SWAP1 JUMP JUMPDEST PUSH1 0x40 MLOAD PUSH1 0x1 PUSH1 0x1 PUSH1 0xA0 SHL SUB SWAP1 SWAP2 AND DUP2 MSTORE PUSH1 0x20 ADD PUSH1 0x40 MLOAD DUP1 SWAP2 SUB SWAP1 LOG1 JUMP JUMPDEST PUSH2 0x2A03 PUSH2 0x2C44 JUMP JUMPDEST PUSH1 0x0 DUP1 SLOAD PUSH1 0xFF NOT AND SWAP1 SSTORE PUSH32 0x5DB9EE0A495BF2E6FF9C91A7834C1BA4FDD244A5E8AA4E537BD38AEAE4B073AA CALLER PUSH2 0x29DE JUMP JUMPDEST PUSH1 0x0 DUP3 DUP2 MSTORE PUSH1 0x3 PUSH1 0x20 MSTORE PUSH1 0x40 DUP2 KECCAK256 DUP1 SLOAD DUP3 SUB PUSH2 0x2A67 JUMPI PUSH1 0x0 DUP4 PUSH1 0x3 DUP2 GT ISZERO PUSH2 0x2A5E JUMPI PUSH2 0x2A5E PUSH2 0x2FE6 JUMP JUMPDEST EQ SWAP2 POP POP PUSH2 0x1D84 JUMP JUMPDEST DUP1 SLOAD PUSH1 0x0 SWAP1 DUP3 SWAP1 PUSH2 0x2A7A SWAP1 PUSH1 0x1 SWAP1 PUSH2 0x3433 JUMP JUMPDEST DUP2 SLOAD DUP2 LT PUSH2 0x2A8A JUMPI PUSH2 0x2A8A PUSH2 0x347D JUMP JUMPDEST PUSH1 0x0 SWAP2 DUP3 MSTORE PUSH1 0x20 SWAP1 SWAP2 KECCAK256 PUSH1 0x6 SWAP1 SWAP2 MUL ADD SLOAD PUSH1 0xFF AND SWAP1 POP DUP1 PUSH1 0x3 DUP2 GT ISZERO PUSH2 0x2AB2 JUMPI PUSH2 0x2AB2 PUSH2 0x2FE6 JUMP JUMPDEST PUSH2 0x2ABD SWAP1 PUSH1 0x1 PUSH2 0x3446 JUMP JUMPDEST DUP5 PUSH1 0x3 DUP2 GT ISZERO PUSH2 0x2ACF JUMPI PUSH2 0x2ACF PUSH2 0x2FE6 JUMP JUMPDEST EQ SWAP6 SWAP5 POP POP POP POP POP JUMP JUMPDEST PUSH1 0x0 DUP1 DUP4 PUSH1 0x3 DUP2 GT ISZERO PUSH2 0x2AEE JUMPI PUSH2 0x2AEE PUSH2 0x2FE6 JUMP JUMPDEST EQ DUP1 ISZERO PUSH2 0x2B0C JUMPI POP PUSH1 0x1 DUP3 PUSH1 0x6 DUP2 GT ISZERO PUSH2 0x2B0A JUMPI PUSH2 0x2B0A PUSH2 0x2FE6 JUMP JUMPDEST EQ JUMPDEST ISZERO PUSH2 0x2B19 JUMPI POP PUSH1 0x1 PUSH2 0x1D84 JUMP JUMPDEST PUSH1 0x1 DUP4 PUSH1 0x3 DUP2 GT ISZERO PUSH2 0x2B2D JUMPI PUSH2 0x2B2D PUSH2 0x2FE6 JUMP JUMPDEST EQ DUP1 ISZERO PUSH2 0x2B4B JUMPI POP PUSH1 0x2 DUP3 PUSH1 0x6 DUP2 GT ISZERO PUSH2 0x2B49 JUMPI PUSH2 0x2B49 PUSH2 0x2FE6 JUMP JUMPDEST EQ JUMPDEST ISZERO PUSH2 0x2B58 JUMPI POP PUSH1 0x1 PUSH2 0x1D84 JUMP JUMPDEST PUSH1 0x2 DUP4 PUSH1 0x3 DUP2 GT ISZERO PUSH2 0x2B6C JUMPI PUSH2 0x2B6C PUSH2 0x2FE6 JUMP JUMPDEST EQ DUP1 ISZERO PUSH2 0x2B8A JUMPI POP PUSH1 0x3 DUP3 PUSH1 0x6 DUP2 GT ISZERO PUSH2 0x2B88 JUMPI PUSH2 0x2B88 PUSH2 0x2FE6 JUMP JUMPDEST EQ JUMPDEST ISZERO PUSH2 0x2B97 JUMPI POP PUSH1 0x1 PUSH2 0x1D84 JUMP JUMPDEST PUSH1 0x3 DUP4 PUSH1 0x3 DUP2 GT ISZERO PUSH2 0x2BAB JUMPI PUSH2 0x2BAB PUSH2 0x2FE6 JUMP JUMPDEST EQ DUP1 ISZERO PUSH2 0x2BC9 JUMPI POP PUSH1 0x4 DUP3 PUSH1 0x6 DUP2 GT ISZERO PUSH2 0x2BC7 JUMPI PUSH2 0x2BC7 PUSH2 0x2FE6 JUMP JUMPDEST EQ JUMPDEST ISZERO PUSH2 0x2BD6 JUMPI POP PUSH1 0x1 PUSH2 0x1D84 JUMP JUMPDEST POP PUSH1 0x0 SWAP3 SWAP2 POP POP JUMP JUMPDEST PUSH1 0x0 DUP1 PUSH2 0x2710 PUSH2 0x2BEF DUP5 DUP3 PUSH2 0x3433 JUMP JUMPDEST PUSH2 0x2BF9 SWAP1 DUP7 PUSH2 0x341C JUMP JUMPDEST PUSH2 0x2C03 SWAP2 SWAP1 PUSH2 0x3493 JUMP JUMPDEST SWAP1 POP PUSH1 0x0 PUSH2 0x2710 PUSH2 0x2C14 DUP6 DUP3 PUSH2 0x3446 JUMP JUMPDEST PUSH2 0x2C1E SWAP1 DUP8 PUSH2 0x341C JUMP JUMPDEST PUSH2 0x2C28 SWAP2 SWAP1 PUSH2 0x3493 JUMP JUMPDEST SWAP1 POP DUP2 DUP7 LT ISZERO DUP1 ISZERO PUSH2 0x2C3A JUMPI POP DUP1 DUP7 GT ISZERO JUMPDEST SWAP7 SWAP6 POP POP POP POP POP POP JUMP JUMPDEST PUSH1 0x0 SLOAD PUSH1 0xFF AND PUSH2 0x105B JUMPI PUSH1 0x40 MLOAD PUSH3 0x461BCD PUSH1 0xE5 SHL DUP2 MSTORE PUSH1 0x20 PUSH1 0x4 DUP3 ADD MSTORE PUSH1 0x14 PUSH1 0x24 DUP3 ADD MSTORE PUSH20 0x14185D5CD8589B194E881B9BDD081C185D5CD959 PUSH1 0x62 SHL PUSH1 0x44 DUP3 ADD MSTORE PUSH1 0x64 ADD PUSH2 0x702 JUMP JUMPDEST PUSH1 0x0 PUSH1 0x20 DUP3 DUP5 SUB SLT ISZERO PUSH2 0x2C9F JUMPI PUSH1 0x0 DUP1 REVERT JUMPDEST POP CALLDATALOAD SWAP2 SWAP1 POP JUMP JUMPDEST PUSH1 0x0 PUSH1 0x20 DUP3 DUP5 SUB SLT ISZERO PUSH2 0x2CB8 JUMPI PUSH1 0x0 DUP1 REVERT JUMPDEST DUP2 CALLDATALOAD DUP1 ISZERO ISZERO DUP2 EQ PUSH2 0x267B JUMPI PUSH1 0x0 DUP1 REVERT JUMPDEST PUSH1 0x0 DUP1 PUSH1 0x40 DUP4 DUP6 SUB SLT ISZERO PUSH2 0x2CDB JUMPI PUSH1 0x0 DUP1 REVERT JUMPDEST POP POP DUP1 CALLDATALOAD SWAP3 PUSH1 0x20 SWAP1 SWAP2 ADD CALLDATALOAD SWAP2 POP JUMP JUMPDEST PUSH1 0x0 DUP1 DUP4 PUSH1 0x1F DUP5 ADD SLT PUSH2 0x2CFC JUMPI PUSH1 0x0 DUP1 REVERT JUMPDEST POP DUP2 CALLDATALOAD PUSH8 0xFFFFFFFFFFFFFFFF DUP2 GT ISZERO PUSH2 0x2D14 JUMPI PUSH1 0x0 DUP1 REVERT JUMPDEST PUSH1 0x20 DUP4 ADD SWAP2 POP DUP4 PUSH1 0x20 DUP3 DUP6 ADD ADD GT ISZERO PUSH2 0x2D2C JUMPI PUSH1 0x0 DUP1 REVERT JUMPDEST SWAP3 POP SWAP3 SWAP1 POP JUMP JUMPDEST PUSH1 0x0 DUP1 PUSH1 0x0 DUP1 PUSH1 0x0 DUP1 PUSH1 0x0 DUP1 PUSH1 0xA0 DUP10 DUP12 SUB SLT ISZERO PUSH2 0x2D4F JUMPI PUSH1 0x0 DUP1 REVERT JUMPDEST DUP9 CALLDATALOAD SWAP8 POP PUSH1 0x20 DUP10 ADD CALLDATALOAD PUSH1 0x4 DUP2 LT PUSH2 0x2D65 JUMPI PUSH1 0x0 DUP1 REVERT JUMPDEST SWAP7 POP PUSH1 0x40 DUP10 ADD CALLDATALOAD PUSH8 0xFFFFFFFFFFFFFFFF DUP1 DUP3 GT ISZERO PUSH2 0x2D82 JUMPI PUSH1 0x0 DUP1 REVERT JUMPDEST PUSH2 0x2D8E DUP13 DUP4 DUP14 ADD PUSH2 0x2CEA JUMP JUMPDEST SWAP1 SWAP9 POP SWAP7 POP PUSH1 0x60 DUP12 ADD CALLDATALOAD SWAP2 POP DUP1 DUP3 GT ISZERO PUSH2 0x2DA7 JUMPI PUSH1 0x0 DUP1 REVERT JUMPDEST PUSH2 0x2DB3 DUP13 DUP4 DUP14 ADD PUSH2 0x2CEA JUMP JUMPDEST SWAP1 SWAP7 POP SWAP5 POP PUSH1 0x80 DUP12 ADD CALLDATALOAD SWAP2 POP DUP1 DUP3 GT ISZERO PUSH2 0x2DCC JUMPI PUSH1 0x0 DUP1 REVERT JUMPDEST POP PUSH2 0x2DD9 DUP12 DUP3 DUP13 ADD PUSH2 0x2CEA JUMP JUMPDEST SWAP10 SWAP13 SWAP9 SWAP12 POP SWAP7 SWAP10 POP SWAP5 SWAP8 SWAP4 SWAP7 SWAP3 SWAP6 SWAP5 POP POP POP JUMP JUMPDEST DUP1 CALLDATALOAD PUSH1 0x1 PUSH1 0x1 PUSH1 0xA0 SHL SUB DUP2 AND DUP2 EQ PUSH2 0x2E04 JUMPI PUSH1 0x0 DUP1 REVERT JUMPDEST SWAP2 SWAP1 POP JUMP JUMPDEST PUSH1 0x0 DUP1 PUSH1 0x40 DUP4 DUP6 SUB SLT ISZERO PUSH2 0x2E1C JUMPI PUSH1 0x0 DUP1 REVERT JUMPDEST PUSH2 0x2E25 DUP4 PUSH2 0x2DED JUMP JUMPDEST SWAP2 POP PUSH1 0x20 DUP4 ADD CALLDATALOAD PUSH1 0x7 DUP2 LT PUSH2 0x2E39 JUMPI PUSH1 0x0 DUP1 REVERT JUMPDEST DUP1 SWAP2 POP POP SWAP3 POP SWAP3 SWAP1 POP JUMP JUMPDEST PUSH1 0x0 DUP1 PUSH1 0x0 DUP1 PUSH1 0x0 DUP1 PUSH1 0x0 DUP1 PUSH1 0x0 DUP1 PUSH1 0x0 PUSH1 0xE0 DUP13 DUP15 SUB SLT ISZERO PUSH2 0x2E65 JUMPI PUSH1 0x0 DUP1 REVERT JUMPDEST DUP12 CALLDATALOAD SWAP11 POP PUSH1 0x20 DUP13 ADD CALLDATALOAD SWAP10 POP PUSH8 0xFFFFFFFFFFFFFFFF DUP1 PUSH1 0x40 DUP15 ADD CALLDATALOAD GT ISZERO PUSH2 0x2E8A JUMPI PUSH1 0x0 DUP1 REVERT JUMPDEST PUSH2 0x2E9A DUP15 PUSH1 0x40 DUP16 ADD CALLDATALOAD DUP16 ADD PUSH2 0x2CEA JUMP JUMPDEST SWAP1 SWAP11 POP SWAP9 POP PUSH1 0x60 DUP14 ADD CALLDATALOAD SWAP8 POP PUSH1 0x80 DUP14 ADD CALLDATALOAD DUP2 LT ISZERO PUSH2 0x2EB7 JUMPI PUSH1 0x0 DUP1 REVERT JUMPDEST PUSH2 0x2EC7 DUP15 PUSH1 0x80 DUP16 ADD CALLDATALOAD DUP16 ADD PUSH2 0x2CEA JUMP JUMPDEST SWAP1 SWAP8 POP SWAP6 POP PUSH1 0xA0 DUP14 ADD CALLDATALOAD DUP2 LT ISZERO PUSH2 0x2EDD JUMPI PUSH1 0x0 DUP1 REVERT JUMPDEST PUSH2 0x2EED DUP15 PUSH1 0xA0 DUP16 ADD CALLDATALOAD DUP16 ADD PUSH2 0x2CEA JUMP JUMPDEST SWAP1 SWAP6 POP SWAP4 POP PUSH1 0xC0 DUP14 ADD CALLDATALOAD DUP2 LT ISZERO PUSH2 0x2F03 JUMPI PUSH1 0x0 DUP1 REVERT JUMPDEST POP PUSH2 0x2F14 DUP14 PUSH1 0xC0 DUP15 ADD CALLDATALOAD DUP15 ADD PUSH2 0x2CEA JUMP JUMPDEST DUP2 SWAP4 POP DUP1 SWAP3 POP POP POP SWAP3 SWAP6 SWAP9 SWAP12 POP SWAP3 SWAP6 SWAP9 SWAP12 SWAP1 SWAP4 SWAP7 SWAP10 POP JUMP JUMPDEST PUSH1 0x0 DUP2 MLOAD DUP1 DUP5 MSTORE PUSH1 0x0 JUMPDEST DUP2 DUP2 LT ISZERO PUSH2 0x2F52 JUMPI PUSH1 0x20 DUP2 DUP6 ADD DUP2 ADD MLOAD DUP7 DUP4 ADD DUP3 ADD MSTORE ADD PUSH2 0x2F36 JUMP JUMPDEST POP PUSH1 0x0 PUSH1 0x20 DUP3 DUP7 ADD ADD MSTORE PUSH1 0x20 PUSH1 0x1F NOT PUSH1 0x1F DUP4 ADD AND DUP6 ADD ADD SWAP2 POP POP SWAP3 SWAP2 POP POP JUMP JUMPDEST PUSH1 0x0 PUSH2 0x100 DUP11 DUP4 MSTORE DUP10 PUSH1 0x20 DUP5 ADD MSTORE DUP1 PUSH1 0x40 DUP5 ADD MSTORE PUSH2 0x2F92 DUP2 DUP5 ADD DUP11 PUSH2 0x2F2C JUMP JUMPDEST PUSH1 0x60 DUP5 ADD SWAP9 SWAP1 SWAP9 MSTORE POP POP PUSH1 0x80 DUP2 ADD SWAP5 SWAP1 SWAP5 MSTORE PUSH1 0x1 PUSH1 0x1 PUSH1 0xA0 SHL SUB SWAP3 SWAP1 SWAP3 AND PUSH1 0xA0 DUP5 ADD MSTORE ISZERO ISZERO PUSH1 0xC0 DUP4 ADD MSTORE ISZERO ISZERO PUSH1 0xE0 SWAP1 SWAP2 ADD MSTORE SWAP4 SWAP3 POP POP POP JUMP JUMPDEST PUSH1 0x0 PUSH1 0x20 DUP3 DUP5 SUB SLT ISZERO PUSH2 0x2FDD JUMPI PUSH1 0x0 DUP1 REVERT JUMPDEST PUSH2 0x267B DUP3 PUSH2 0x2DED JUMP JUMPDEST PUSH4 0x4E487B71 PUSH1 0xE0 SHL PUSH1 0x0 MSTORE PUSH1 0x21 PUSH1 0x4 MSTORE PUSH1 0x24 PUSH1 0x0 REVERT JUMPDEST PUSH1 0x20 DUP2 ADD PUSH1 0x7 DUP4 LT PUSH2 0x3010 JUMPI PUSH2 0x3010 PUSH2 0x2FE6 JUMP JUMPDEST SWAP2 SWAP1 MSTORE SWAP1 JUMP JUMPDEST PUSH1 0x4 DUP2 LT PUSH2 0x3026 JUMPI PUSH2 0x3026 PUSH2 0x2FE6 JUMP JUMPDEST SWAP1 MSTORE JUMP JUMPDEST PUSH2 0x3035 DUP3 DUP3 MLOAD PUSH2 0x3016 JUMP JUMPDEST PUSH1 0x0 PUSH1 0x20 DUP3 ADD MLOAD PUSH1 0xC0 PUSH1 0x20 DUP6 ADD MSTORE PUSH2 0x3050 PUSH1 0xC0 DUP6 ADD DUP3 PUSH2 0x2F2C JUMP JUMPDEST SWAP1 POP PUSH1 0x40 DUP4 ADD MLOAD DUP5 DUP3 SUB PUSH1 0x40 DUP7 ADD MSTORE PUSH2 0x3069 DUP3 DUP3 PUSH2 0x2F2C JUMP JUMPDEST SWAP2 POP POP PUSH1 0x60 DUP4 ADD MLOAD PUSH1 0x60 DUP6 ADD MSTORE PUSH1 0x80 DUP4 ADD MLOAD DUP5 DUP3 SUB PUSH1 0x80 DUP7 ADD MSTORE PUSH2 0x308D DUP3 DUP3 PUSH2 0x2F2C JUMP JUMPDEST PUSH1 0xA0 SWAP5 DUP6 ADD MLOAD PUSH1 0x1 PUSH1 0x1 PUSH1 0xA0 SHL SUB AND SWAP6 SWAP1 SWAP5 ADD SWAP5 SWAP1 SWAP5 MSTORE POP SWAP1 SWAP3 SWAP2 POP POP JUMP JUMPDEST PUSH1 0x0 PUSH1 0x20 DUP1 DUP4 ADD DUP2 DUP5 MSTORE DUP1 DUP6 MLOAD DUP1 DUP4 MSTORE PUSH1 0x40 DUP7 ADD SWAP2 POP PUSH1 0x40 DUP2 PUSH1 0x5 SHL DUP8 ADD ADD SWAP3 POP DUP4 DUP8 ADD PUSH1 0x0 JUMPDEST DUP3 DUP2 LT ISZERO PUSH2 0x3101 JUMPI PUSH1 0x3F NOT DUP9 DUP7 SUB ADD DUP5 MSTORE PUSH2 0x30EF DUP6 DUP4 MLOAD PUSH2 0x302A JUMP JUMPDEST SWAP5 POP SWAP3 DUP6 ADD SWAP3 SWAP1 DUP6 ADD SWAP1 PUSH1 0x1 ADD PUSH2 0x30D3 JUMP JUMPDEST POP SWAP3 SWAP8 SWAP7 POP POP POP POP POP POP POP JUMP JUMPDEST PUSH1 0x20 DUP2 MSTORE PUSH1 0x0 PUSH2 0x267B PUSH1 0x20 DUP4 ADD DUP5 PUSH2 0x302A JUMP JUMPDEST PUSH1 0x0 DUP1 PUSH1 0x0 PUSH1 0x60 DUP5 DUP7 SUB SLT ISZERO PUSH2 0x3136 JUMPI PUSH1 0x0 DUP1 REVERT JUMPDEST POP POP DUP2 CALLDATALOAD SWAP4 PUSH1 0x20 DUP4 ADD CALLDATALOAD SWAP4 POP PUSH1 0x40 SWAP1 SWAP3 ADD CALLDATALOAD SWAP2 SWAP1 POP JUMP JUMPDEST PUSH1 0x20 DUP2 MSTORE DUP2 MLOAD PUSH1 0x20 DUP3 ADD MSTORE PUSH1 0x20 DUP3 ADD MLOAD PUSH1 0x40 DUP3 ADD MSTORE PUSH1 0x0 PUSH1 0x40 DUP4 ADD MLOAD PUSH2 0x100 DUP1 PUSH1 0x60 DUP6 ADD MSTORE PUSH2 0x3180 PUSH2 0x120 DUP6 ADD DUP4 PUSH2 0x2F2C JUMP JUMPDEST SWAP2 POP PUSH1 0x60 DUP6 ADD MLOAD PUSH1 0x80 DUP6 ADD MSTORE PUSH1 0x80 DUP6 ADD MLOAD PUSH1 0xA0 DUP6 ADD MSTORE PUSH1 0x1 DUP1 PUSH1 0xA0 SHL SUB PUSH1 0xA0 DUP7 ADD MLOAD AND PUSH1 0xC0 DUP6 ADD MSTORE PUSH1 0xC0 DUP6 ADD MLOAD ISZERO ISZERO PUSH1 0xE0 DUP6 ADD MSTORE PUSH1 0xE0 DUP6 ADD MLOAD PUSH2 0x31C6 DUP3 DUP7 ADD DUP3 ISZERO ISZERO SWAP1 MSTORE JUMP JUMPDEST POP SWAP1 SWAP5 SWAP4 POP POP POP POP JUMP JUMPDEST PUSH1 0x20 DUP1 DUP3 MSTORE PUSH1 0xA SWAP1 DUP3 ADD MSTORE PUSH10 0x27B7363C9037BBB732B9 PUSH1 0xB1 SHL PUSH1 0x40 DUP3 ADD MSTORE PUSH1 0x60 ADD SWAP1 JUMP JUMPDEST PUSH1 0x20 DUP1 DUP3 MSTORE PUSH1 0xF SWAP1 DUP3 ADD MSTORE PUSH15 0x10985D18DA081B9BDD08199BDD5B99 PUSH1 0x8A SHL PUSH1 0x40 DUP3 ADD MSTORE PUSH1 0x60 ADD SWAP1 JUMP JUMPDEST PUSH1 0x20 DUP1 DUP3 MSTORE PUSH1 0xE SWAP1 DUP3 ADD MSTORE PUSH14 0x139BDD08185D5D1A1BDC9A5E9959 PUSH1 0x92 SHL PUSH1 0x40 DUP3 ADD MSTORE PUSH1 0x60 ADD SWAP1 JUMP JUMPDEST PUSH4 0x4E487B71 PUSH1 0xE0 SHL PUSH1 0x0 MSTORE PUSH1 0x41 PUSH1 0x4 MSTORE PUSH1 0x24 PUSH1 0x0 REVERT JUMPDEST PUSH1 0x1 DUP2 DUP2 SHR SWAP1 DUP3 AND DUP1 PUSH2 0x326F JUMPI PUSH1 0x7F DUP3 AND SWAP2 POP JUMPDEST PUSH1 0x20 DUP3 LT DUP2 SUB PUSH2 0x202C JUMPI PUSH4 0x4E487B71 PUSH1 0xE0 SHL PUSH1 0x0 MSTORE PUSH1 0x22 PUSH1 0x4 MSTORE PUSH1 0x24 PUSH1 0x0 REVERT JUMPDEST PUSH1 0x1F DUP3 GT ISZERO PUSH2 0x1013 JUMPI PUSH1 0x0 DUP2 DUP2 MSTORE PUSH1 0x20 DUP2 KECCAK256 PUSH1 0x1F DUP6 ADD PUSH1 0x5 SHR DUP2 ADD PUSH1 0x20 DUP7 LT ISZERO PUSH2 0x32B6 JUMPI POP DUP1 JUMPDEST PUSH1 0x1F DUP6 ADD PUSH1 0x5 SHR DUP3 ADD SWAP2 POP JUMPDEST DUP2 DUP2 LT ISZERO PUSH2 0x32D5 JUMPI DUP3 DUP2 SSTORE PUSH1 0x1 ADD PUSH2 0x32C2 JUMP JUMPDEST POP POP POP POP POP POP JUMP JUMPDEST DUP2 MLOAD PUSH8 0xFFFFFFFFFFFFFFFF DUP2 GT ISZERO PUSH2 0x32F7 JUMPI PUSH2 0x32F7 PUSH2 0x3245 JUMP JUMPDEST PUSH2 0x330B DUP2 PUSH2 0x3305 DUP5 SLOAD PUSH2 0x325B JUMP JUMPDEST DUP5 PUSH2 0x328F JUMP JUMPDEST PUSH1 0x20 DUP1 PUSH1 0x1F DUP4 GT PUSH1 0x1 DUP2 EQ PUSH2 0x3340 JUMPI PUSH1 0x0 DUP5 ISZERO PUSH2 0x3328 JUMPI POP DUP6 DUP4 ADD MLOAD JUMPDEST PUSH1 0x0 NOT PUSH1 0x3 DUP7 SWAP1 SHL SHR NOT AND PUSH1 0x1 DUP6 SWAP1 SHL OR DUP6 SSTORE PUSH2 0x32D5 JUMP JUMPDEST PUSH1 0x0 DUP6 DUP2 MSTORE PUSH1 0x20 DUP2 KECCAK256 PUSH1 0x1F NOT DUP7 AND SWAP2 JUMPDEST DUP3 DUP2 LT ISZERO PUSH2 0x336F JUMPI DUP9 DUP7 ADD MLOAD DUP3 SSTORE SWAP5 DUP5 ADD SWAP5 PUSH1 0x1 SWAP1 SWAP2 ADD SWAP1 DUP5 ADD PUSH2 0x3350 JUMP JUMPDEST POP DUP6 DUP3 LT ISZERO PUSH2 0x338D JUMPI DUP8 DUP6 ADD MLOAD PUSH1 0x0 NOT PUSH1 0x3 DUP9 SWAP1 SHL PUSH1 0xF8 AND SHR NOT AND DUP2 SSTORE JUMPDEST POP POP POP POP POP PUSH1 0x1 SWAP1 DUP2 SHL ADD SWAP1 SSTORE POP JUMP JUMPDEST DUP2 DUP4 MSTORE DUP2 DUP2 PUSH1 0x20 DUP6 ADD CALLDATACOPY POP PUSH1 0x0 DUP3 DUP3 ADD PUSH1 0x20 SWAP1 DUP2 ADD SWAP2 SWAP1 SWAP2 MSTORE PUSH1 0x1F SWAP1 SWAP2 ADD PUSH1 0x1F NOT AND SWAP1 SWAP2 ADD ADD SWAP1 JUMP JUMPDEST PUSH2 0x33D0 DUP2 DUP8 PUSH2 0x3016 JUMP JUMPDEST PUSH1 0x60 PUSH1 0x20 DUP3 ADD MSTORE PUSH1 0x0 PUSH2 0x33E7 PUSH1 0x60 DUP4 ADD DUP7 DUP9 PUSH2 0x339D JUMP JUMPDEST DUP3 DUP2 SUB PUSH1 0x40 DUP5 ADD MSTORE PUSH2 0x33FA DUP2 DUP6 DUP8 PUSH2 0x339D JUMP JUMPDEST SWAP9 SWAP8 POP POP POP POP POP POP POP POP JUMP JUMPDEST PUSH4 0x4E487B71 PUSH1 0xE0 SHL PUSH1 0x0 MSTORE PUSH1 0x11 PUSH1 0x4 MSTORE PUSH1 0x24 PUSH1 0x0 REVERT JUMPDEST DUP1 DUP3 MUL DUP2 ISZERO DUP3 DUP3 DIV DUP5 EQ OR PUSH2 0x1D84 JUMPI PUSH2 0x1D84 PUSH2 0x3406 JUMP JUMPDEST DUP2 DUP2 SUB DUP2 DUP2 GT ISZERO PUSH2 0x1D84 JUMPI PUSH2 0x1D84 PUSH2 0x3406 JUMP JUMPDEST DUP1 DUP3 ADD DUP1 DUP3 GT ISZERO PUSH2 0x1D84 JUMPI PUSH2 0x1D84 PUSH2 0x3406 JUMP JUMPDEST PUSH1 0x40 DUP2 MSTORE PUSH1 0x0 PUSH2 0x346D PUSH1 0x40 DUP4 ADD DUP6 DUP8 PUSH2 0x339D JUMP JUMPDEST SWAP1 POP DUP3 PUSH1 0x20 DUP4 ADD MSTORE SWAP5 SWAP4 POP POP POP POP JUMP JUMPDEST PUSH4 0x4E487B71 PUSH1 0xE0 SHL PUSH1 0x0 MSTORE PUSH1 0x32 PUSH1 0x4 MSTORE PUSH1 0x24 PUSH1 0x0 REVERT JUMPDEST PUSH1 0x0 DUP3 PUSH2 0x34B0 JUMPI PUSH4 0x4E487B71 PUSH1 0xE0 SHL PUSH1 0x0 MSTORE PUSH1 0x12 PUSH1 0x4 MSTORE PUSH1 0x24 PUSH1 0x0 REVERT JUMPDEST POP DIV SWAP1 JUMP INVALID LOG2 PUSH5 0x6970667358 0x22 SLT KECCAK256 0xBB SWAP1 0xC9 0xEE 0xAA 0x2D MULMOD CHAINID 0xC8 0xBC 0x2A 0x49 ADD KECCAK256 0x4A 0xEE OR SAR 0xD SSTORE 0x29 0xC1 DUP1 0x4F PUSH4 0x6325CAF3 0xB5 MLOAD 0xD3 PUSH5 0x736F6C6343 STOP ADDMOD SGT STOP CALLER "},"methodIdentifiers":{"allBatchIds(uint256)":"290b17ec","buyFromListing(uint256,uint256)":"4e8cdd9c","cancelListing(uint256)":"305a67a8","createBatch(bytes32,bytes32,string,uint256,string,string,string)":"6cccf52d","createListing(bytes32,uint256,uint256)":"b68210a9","cropBatches(bytes32)":"906ddff1","getBatch(bytes32)":"ed42136f","getBatchIdByIndex(uint256)":"a0b6041d","getBatchUpdates(bytes32)":"a9437275","getLatestUpdate(bytes32)":"ab005011","getPriceObservationCount(bytes32)":"507e2224","getTotalBatches()":"e561dddc","getTwapPrice(bytes32,uint256)":"a2173df4","latestOraclePrice(bytes32)":"aef9f813","listings(uint256)":"de74e57b","maxPriceDeviationBps()":"79baa1a2","nextListingId()":"aaccf1ec","owner()":"8da5cb5b","pause()":"8456cb59","paused()":"5c975abb","pendingWithdrawals(address)":"f3f43703","recallBatch(bytes32)":"0c13e6db","recordSpotPrice(bytes32,uint256)":"3aac0544","roles(address)":"99374642","setPaused(bool)":"16c38b3c","setRole(address,uint8)":"571c3e60","setTwapConfig(uint256,uint256)":"332e2ac0","transferOwnership(address)":"f2fde38b","twapWindow()":"8107e133","unpause()":"3f4ba83a","updateBatch(bytes32,uint8,string,string,string)":"36214a1c","withdrawProceeds()":"9038e693"}}}}}