{"contracts/Verifier.sol":{"Groth16Verifier":{"abi":[{"inputs":[{"internalType":"uint256[2]","name":"_pA","type":"uint256[2]"},{"internalType":"uint256[2][2]","name":"_pB","type":"uint256[2][2]"},{"internalType":"uint256[2]","name":"_pC","type":"uint256[2]"},{"internalType":"uint256[]","name":"_pubSignals","type":"uint256[]"}],"name":"verifyProof","outputs":[{"internalType":"bool","name":"","type":"bool"}],"stateMutability":"view","type":"function"}],"evm":{"bytecode":{"linkReferences":{},"object":"608060405234801561001057600080fd5b506104b0806100206000396000f3fe608060405234801561001057600080fd5b506004361061002b5760003560e01c8063c32e370e14610030575b600080fd5b61004361003e3660046103ca565b610057565b604051901515815260200160405180910390f35b6000610390565b600060808501600086017f0ff020a416d6fb4c3cf3226387de0de4982896a8dc9035ded4f5e1da8620236a81527f2fc9671616ea7962611309ede70e3ca790b1b688026778205456ed7c3a8665f9602082015250823581527f30644e72e131a029b85045b68181585d97816a916871ca8d3c208c16d87cfd4760208401357f30644e72e131a029b85045b68181585d97816a916871ca8d3c208c16d87cfd4703066020820152833560408201526020840135606082015260408401356080820152606084013560a08201527f2d4d9aa7e302d9df41749d5507949d05dbea33fbb16c643b22f599a2be6df2e260c08201527f14bedd503c37ceb061d8ec60209fe345ce89830a19230301f076caff004d192660e08201527f0967032fcbf776d1afc985f88877f182d38480a653f2decaa9794cbc3bf3060c6101008201527f0e187847ad4c798374d0d6732bf501847dd68bc0e071241e0213bc7fc13db7ab6101208201527f304cfbd1e08a704a99f5e847d93f8c3caafddec46b7a0d379da69a4d112346a76101408201527f1739c1b1a457a8c7313123d24d2f9192f896b7c63eea05a9d57f06547ad0cec8610160820152600086015161018082015260206000018601516101a08201527f198e9393920d483a7260bfb731fb5d25f1aa493335a9e71297e485b7aef312c26101c08201527f1800deef121f1e76426a00665e5c4479674322d4f75edadd46debd5cd992f6ed6101e08201527f090689d0585ff075ec9e99ad690c3395bc4b313370b38ef355acdadcd122975b6102008201527f12c85ea5db8c6deb4aab71808dcb408fe3d1e7690c43d37b4ce6cc0166fa7daa610220820152843561024082015260208501356102608201527f21c515e6dc79e3bff0a086c5a4d5d53fadeadb4c9dbd20985ba0ea5ea245e87c6102808201527f1d3157dc231639513b308024329fcf340c9fae8abdf1e2a0332ef3785143d5d46102a08201527f2cc4be9ea0a0f206719d30d3b55243efe3b0827134a712fcb8b1d28725ca7f3b6102c08201527f1293109f58a8128b3dfd574ef8df70f5c7f664339fc5250a5e996fc00e8fb4376102e08201526020816103008360086107d05a03fa90511695945050505050565b60405161038081016040526103a78186888a61005e565b90508060005260206000f35b80604081018310156103c457600080fd5b92915050565b600080600080600061012086880312156103e357600080fd5b6103ed87876103b3565b945060c086018781111561040057600080fd5b60408701945061041088826103b3565b93505061010086013567ffffffffffffffff8082111561042f57600080fd5b818801915088601f83011261044357600080fd5b81358181111561045257600080fd5b8960208260051b850101111561046757600080fd5b969995985093965060200194939250505056fea2646970667358221220322a4004adcd10a570498ab9ea179b5dca8305a2cd1b25a43dff1cf1b6f3e65d64736f6c63430008130033","opcodes":"PUSH1 0x80 PUSH1 0x40 MSTORE CALLVALUE DUP1 ISZERO PUSH2 0x10 JUMPI PUSH1 0x0 DUP1 REVERT JUMPDEST POP PUSH2 0x4B0 DUP1 PUSH2 0x20 PUSH1 0x0 CODECOPY PUSH1 0x0 RETURN INVALID PUSH1 0x80 PUSH1 0x40 MSTORE CALLVALUE DUP1 ISZERO PUSH2 0x10 JUMPI PUSH1 0x0 DUP1 REVERT JUMPDEST POP PUSH1 0x4 CALLDATASIZE LT PUSH2 0x2B JUMPI PUSH1 0x0 CALLDATALOAD PUSH1 0xE0 SHR DUP1 PUSH4 0xC32E370E EQ PUSH2 0x30 JUMPI JUMPDEST PUSH1 0x0 DUP1 REVERT JUMPDEST PUSH2 0x43 PUSH2 0x3E CALLDATASIZE PUSH1 0x4 PUSH2 0x3CA JUMP JUMPDEST PUSH2 0x57 JUMP JUMPDEST PUSH1 0x40 MLOAD SWAP1 ISZERO ISZERO DUP2 MSTORE PUSH1 0x20 ADD PUSH1 0x40 MLOAD DUP1 SWAP2 SUB SWAP1 RETURN JUMPDEST PUSH1 0x0 PUSH2 0x390 JUMP JUMPDEST PUSH1 0x0 PUSH1 0x80 DUP6 ADD PUSH1 0x0 DUP7 ADD PUSH32 0xFF020A416D6FB4C3CF3226387DE0DE4982896A8DC9035DED4F5E1DA8620236A DUP2 MSTORE PUSH32 0x2FC9671616EA7962611309EDE70E3CA790B1B688026778205456ED7C3A8665F9 PUSH1 0x20 DUP3 ADD MSTORE POP DUP3 CALLDATALOAD DUP2 MSTORE PUSH32 0x30644E72E131A029B85045B68181585D97816A916871CA8D3C208C16D87CFD47 PUSH1 0x20 DUP5 ADD CALLDATALOAD PUSH32 0x30644E72E131A029B85045B68181585D97816A916871CA8D3C208C16D87CFD47 SUB MOD PUSH1 0x20 DUP3 ADD MSTORE DUP4 CALLDATALOAD PUSH1 0x40 DUP3 ADD MSTORE PUSH1 0x20 DUP5 ADD CALLDATALOAD PUSH1 0x60 DUP3 ADD MSTORE PUSH1 0x40 DUP5 ADD CALLDATALOAD PUSH1 0x80 DUP3 ADD MSTORE PUSH1 0x60 DUP5 ADD CALLDATALOAD PUSH1 0xA0 DUP3 ADD MSTORE PUSH32 0x2D4D9AA7E302D9DF41749D5507949D05DBEA33FBB16C643B22F599A2BE6DF2E2 PUSH1 0xC0 DUP3 ADD MSTORE PUSH32 0x14BEDD503C37CEB061D8EC60209FE345CE89830A19230301F076CAFF004D1926 PUSH1 0xE0 DUP3 ADD MSTORE PUSH32 0x967032FCBF776D1AFC985F88877F182D38480A653F2DECAA9794CBC3BF3060C PUSH2 0x100 DUP3 ADD MSTORE PUSH32 0xE187847AD4C798374D0D6732BF501847DD68BC0E071241E0213BC7FC13DB7AB PUSH2 0x120 DUP3 ADD MSTORE PUSH32 0x304CFBD1E08A704A99F5E847D93F8C3CAAFDDEC46B7A0D379DA69A4D112346A7 PUSH2 0x140 DUP3 ADD MSTORE PUSH32 0x1739C1B1A457A8C7313123D24D2F9192F896B7C63EEA05A9D57F06547AD0CEC8 PUSH2 0x160 DUP3 ADD MSTORE PUSH1 0x0 DUP7 ADD MLOAD PUSH2 0x180 DUP3 ADD MSTORE PUSH1 0x20 PUSH1 0x0 ADD DUP7 ADD MLOAD PUSH2 0x1A0 DUP3 ADD MSTORE PUSH32 0x198E9393920D483A7260BFB731FB5D25F1AA493335A9E71297E485B7AEF312C2 PUSH2 0x1C0 DUP3 ADD MSTORE PUSH32 0x1800DEEF121F1E76426A00665E5C4479674322D4F75EDADD46DEBD5CD992F6ED PUSH2 0x1E0 DUP3 ADD MSTORE PUSH32 0x90689D0585FF075EC9E99AD690C3395BC4B313370B38EF355ACDADCD122975B PUSH2 0x200 DUP3 ADD MSTORE PUSH32 0x12C85EA5DB8C6DEB4AAB71808DCB408FE3D1E7690C43D37B4CE6CC0166FA7DAA PUSH2 0x220 DUP3 ADD MSTORE DUP5 CALLDATALOAD PUSH2 0x240 DUP3 ADD MSTORE PUSH1 0x20 DUP6 ADD CALLDATALOAD PUSH2 0x260 DUP3 ADD MSTORE PUSH32 0x21C515E6DC79E3BFF0A086C5A4D5D53FADEADB4C9DBD20985BA0EA5EA245E87C PUSH2 0x280 DUP3 ADD MSTORE PUSH32 0x1D3157DC231639513B308024329FCF340C9FAE8ABDF1E2A0332EF3785143D5D4 PUSH2 0x2A0 DUP3 ADD MSTORE PUSH32 0x2CC4BE9EA0A0F206719D30D3B55243EFE3B0827134A712FCB8B1D28725CA7F3B PUSH2 0x2C0 DUP3 ADD MSTORE PUSH32 0x1293109F58A8128B3DFD574EF8DF70F5C7F664339FC5250A5E996FC00E8FB437 PUSH2 0x2E0 DUP3 ADD MSTORE PUSH1 0x20 DUP2 PUSH2 0x300 DUP4 PUSH1 0x8 PUSH2 0x7D0 GAS SUB STATICCALL SWAP1 MLOAD AND SWAP6 SWAP5 POP POP POP POP POP JUMP JUMPDEST PUSH1 0x40 MLOAD PUSH2 0x380 DUP2 ADD PUSH1 0x40 MSTORE PUSH2 0x3A7 DUP2 DUP7 DUP9 DUP11 PUSH2 0x5E JUMP JUMPDEST SWAP1 POP DUP1 PUSH1 0x0 MSTORE PUSH1 0x20 PUSH1 0x0 RETURN JUMPDEST DUP1 PUSH1 0x40 DUP2 ADD DUP4 LT ISZERO PUSH2 0x3C4 JUMPI PUSH1 0x0 DUP1 REVERT JUMPDEST SWAP3 SWAP2 POP POP JUMP JUMPDEST PUSH1 0x0 DUP1 PUSH1 0x0 DUP1 PUSH1 0x0 PUSH2 0x120 DUP7 DUP9 SUB SLT ISZERO PUSH2 0x3E3 JUMPI PUSH1 0x0 DUP1 REVERT JUMPDEST PUSH2 0x3ED DUP8 DUP8 PUSH2 0x3B3 JUMP JUMPDEST SWAP5 POP PUSH1 0xC0 DUP7 ADD DUP8 DUP2 GT ISZERO PUSH2 0x400 JUMPI PUSH1 0x0 DUP1 REVERT JUMPDEST PUSH1 0x40 DUP8 ADD SWAP5 POP PUSH2 0x410 DUP9 DUP3 PUSH2 0x3B3 JUMP JUMPDEST SWAP4 POP POP PUSH2 0x100 DUP7 ADD CALLDATALOAD PUSH8 0xFFFFFFFFFFFFFFFF DUP1 DUP3 GT ISZERO PUSH2 0x42F JUMPI PUSH1 0x0 DUP1 REVERT JUMPDEST DUP2 DUP9 ADD SWAP2 POP DUP9 PUSH1 0x1F DUP4 ADD SLT PUSH2 0x443 JUMPI PUSH1 0x0 DUP1 REVERT JUMPDEST DUP2 CALLDATALOAD DUP2 DUP2 GT ISZERO PUSH2 0x452 JUMPI PUSH1 0x0 DUP1 REVERT JUMPDEST DUP10 PUSH1 0x20 DUP3 PUSH1 0x5 SHL DUP6 ADD ADD GT ISZERO PUSH2 0x467 JUMPI PUSH1 0x0 DUP1 REVERT JUMPDEST SWAP7 SWAP10 SWAP6 SWAP9 POP SWAP4 SWAP7 POP PUSH1 0x20 ADD SWAP5 SWAP4 SWAP3 POP POP POP JUMP INVALID LOG2 PUSH5 0x6970667358 0x22 SLT KECCAK256 ORIGIN 0x2A BLOCKHASH DIV 0xAD 0xCD LT 0xA5 PUSH17 0x498AB9EA179B5DCA8305A2CD1B25A43DFF SHR CALL 0xB6 RETURN 0xE6 0x5D PUSH5 0x736F6C6343 STOP ADDMOD SGT STOP CALLER "},"methodIdentifiers":{"verifyProof(uint256[2],uint256[2][2],uint256[2],uint256[])":"c32e370e"}}}}}