{"contracts/test/ReentrancyAttacker.sol":{"ReentrancyAttacker":{"abi":[{"inputs":[{"internalType":"address","name":"_target","type":"address"}],"stateMutability":"nonpayable","type":"constructor"},{"inputs":[],"name":"attackInProgress","outputs":[{"internalType":"bool","name":"","type":"bool"}],"stateMutability":"view","type":"function"},{"inputs":[],"name":"depositToTarget","outputs":[],"stateMutability":"payable","type":"function"},{"inputs":[{"internalType":"uint256","name":"_withdrawAmount","type":"uint256"},{"internalType":"uint256","name":"_maxReentries","type":"uint256"}],"name":"initiateAttack","outputs":[],"stateMutability":"nonpayable","type":"function"},{"inputs":[],"name":"maxReentries","outputs":[{"internalType":"uint256","name":"","type":"uint256"}],"stateMutability":"view","type":"function"},{"inputs":[],"name":"reentryBlocked","outputs":[{"internalType":"bool","name":"","type":"bool"}],"stateMutability":"view","type":"function"},{"inputs":[],"name":"reentryCount","outputs":[{"internalType":"uint256","name":"","type":"uint256"}],"stateMutability":"view","type":"function"},{"inputs":[],"name":"target","outputs":[{"internalType":"contract CropChain","name":"","type":"address"}],"stateMutability":"view","type":"function"},{"inputs":[],"name":"withdrawAmount","outputs":[{"internalType":"uint256","name":"","type":"uint256"}],"stateMutability":"view","type":"function"},{"stateMutability":"payable","type":"receive"}],"evm":{"bytecode":{"linkReferences":{},"object":"60a060405234801561001057600080fd5b5060405161051c38038061051c83398101604081905261002f91610040565b6001600160a01b0316608052610070565b60006020828403121561005257600080fd5b81516001600160a01b038116811461006957600080fd5b9392505050565b60805161047d61009f6000396000818160d301528181610223015281816102db015261038a015261047d6000f3fe60806040526004361061007f5760003560e01c806353b381691161004e57806353b38169146101d957806364bf5dcb146101ef578063818c8c7c146101f7578063d4b839921461021157600080fd5b8063043d7fcd1461014b57806332db89f21461016b578063352bb4ba1461019f578063534844a2146101c357600080fd5b366101465760035460ff16158061009a575060015460025410155b156100a157005b6001600260008282546100b491906103fe565b90915550506000546040516305430f9560e11b815260048101919091527f00000000000000000000000000000000000000000000000000000000000000006001600160a01b031690630a861f2a90602401600060405180830381600087803b15801561011f57600080fd5b505af1925050508015610130575060015b610144576003805461ff0019166101001790555b005b600080fd5b34801561015757600080fd5b50610144610166366004610425565b61025d565b34801561017757600080fd5b5060035461018a90610100900460ff1681565b60405190151581526020015b60405180910390f35b3480156101ab57600080fd5b506101b560015481565b604051908152602001610196565b3480156101cf57600080fd5b506101b560005481565b3480156101e557600080fd5b506101b560025481565b61014461034d565b34801561020357600080fd5b5060035461018a9060ff1681565b34801561021d57600080fd5b506102457f000000000000000000000000000000000000000000000000000000000000000081565b6040516001600160a01b039091168152602001610196565b600082116102a75760405162461bcd60e51b81526020600482015260126024820152710416d6f756e74206d757374206265203e20360741b60448201526064015b60405180910390fd5b600082815560018281556002919091556003805461ffff191690911790556040516305430f9560e11b8152600481018390527f00000000000000000000000000000000000000000000000000000000000000006001600160a01b031690630a861f2a90602401600060405180830381600087803b15801561032757600080fd5b505af115801561033b573d6000803e3d6000fd5b50506003805460ff1916905550505050565b600034116103885760405162461bcd60e51b81526020600482015260086024820152674e6f2076616c756560c01b604482015260640161029e565b7f00000000000000000000000000000000000000000000000000000000000000006001600160a01b031663ca593c59346040518263ffffffff1660e01b81526004016000604051808303818588803b1580156103e357600080fd5b505af11580156103f7573d6000803e3d6000fd5b5050505050565b8082018082111561041f57634e487b7160e01b600052601160045260246000fd5b92915050565b6000806040838503121561043857600080fd5b5050803592602090910135915056fea264697066735822122083c5127b8011825ebef62573703ae6dd9f8d82f86cc6343c7f6905274916c6c264736f6c63430008130033","opcodes":"PUSH1 0xA0 PUSH1 0x40 MSTORE CALLVALUE DUP1 ISZERO PUSH2 0x10 JUMPI PUSH1 0x0 DUP1 REVERT JUMPDEST POP PUSH1 0x40 MLOAD PUSH2 0x51C CODESIZE SUB DUP1 PUSH2 0x51C DUP4 CODECOPY DUP2 ADD PUSH1 0x40 DUP2 SWAP1 MSTORE PUSH2 0x2F SWAP2 PUSH2 0x40 JUMP JUMPDEST PUSH1 0x1 PUSH1 0x1 PUSH1 0xA0 SHL SUB AND PUSH1 0x80 MSTORE PUSH2 0x70 JUMP JUMPDEST PUSH1 0x0 PUSH1 0x20 DUP3 DUP5 SUB SLT ISZERO PUSH2 0x52 JUMPI PUSH1 0x0 DUP1 REVERT JUMPDEST DUP2 MLOAD PUSH1 0x1 PUSH1 0x1 PUSH1 0xA0 SHL SUB DUP2 AND DUP2 EQ PUSH2 0x69 JUMPI PUSH1 0x0 DUP1 REVERT JUMPDEST SWAP4 SWAP3 POP POP POP JUMP JUMPDEST PUSH1 0x80 MLOAD PUSH2 0x47D PUSH2 0x9F PUSH1 0x0 CODECOPY PUSH1 0x0 DUP2 DUP2 PUSH1 0xD3 ADD MSTORE DUP2 DUP2 PUSH2 0x223 ADD MSTORE DUP2 DUP2 PUSH2 0x2DB ADD MSTORE PUSH2 0x38A ADD MSTORE PUSH2 0x47D PUSH1 0x0 RETURN INVALID PUSH1 0x80 PUSH1 0x40 MSTORE PUSH1 0x4 CALLDATASIZE LT PUSH2 0x7F JUMPI PUSH1 0x0 CALLDATALOAD PUSH1 0xE0 SHR DUP1 PUSH4 0x53B38169 GT PUSH2 0x4E JUMPI DUP1 PUSH4 0x53B38169 EQ PUSH2 0x1D9 JUMPI DUP1 PUSH4 0x64BF5DCB EQ PUSH2 0x1EF JUMPI DUP1 PUSH4 0x818C8C7C EQ PUSH2 0x1F7 JUMPI DUP1 PUSH4 0xD4B83992 EQ PUSH2 0x211 JUMPI PUSH1 0x0 DUP1 REVERT JUMPDEST DUP1 PUSH4 0x43D7FCD EQ PUSH2 0x14B JUMPI DUP1 PUSH4 0x32DB89F2 EQ PUSH2 0x16B JUMPI DUP1 PUSH4 0x352BB4BA EQ PUSH2 0x19F JUMPI DUP1 PUSH4 0x534844A2 EQ PUSH2 0x1C3 JUMPI PUSH1 0x0 DUP1 REVERT JUMPDEST CALLDATASIZE PUSH2 0x146 JUMPI PUSH1 0x3 SLOAD PUSH1 0xFF AND ISZERO DUP1 PUSH2 0x9A JUMPI POP PUSH1 0x1 SLOAD PUSH1 0x2 SLOAD LT ISZERO JUMPDEST ISZERO PUSH2 0xA1 JUMPI STOP JUMPDEST PUSH1 0x1 PUSH1 0x2 PUSH1 0x0 DUP3 DUP3 SLOAD PUSH2 0xB4 SWAP2 SWAP1 PUSH2 0x3FE JUMP JUMPDEST SWAP1 SWAP2 SSTORE POP POP PUSH1 0x0 SLOAD PUSH1 0x40 MLOAD PUSH4 0x5430F95 PUSH1 0xE1 SHL DUP2 MSTORE PUSH1 0x4 DUP2 ADD SWAP2 SWAP1 SWAP2 MSTORE PUSH32 0x0 PUSH1 0x1 PUSH1 0x1 PUSH1 0xA0 SHL SUB AND SWAP1 PUSH4 0xA861F2A SWAP1 PUSH1 0x24 ADD PUSH1 0x0 PUSH1 0x40 MLOAD DUP1 DUP4 SUB DUP2 PUSH1 0x0 DUP8 DUP1 EXTCODESIZE ISZERO DUP1 ISZERO PUSH2 0x11F JUMPI PUSH1 0x0 DUP1 REVERT JUMPDEST POP GAS CALL SWAP3 POP POP POP DUP1 ISZERO PUSH2 0x130 JUMPI POP PUSH1 0x1 JUMPDEST PUSH2 0x144 JUMPI PUSH1 0x3 DUP1 SLOAD PUSH2 0xFF00 NOT AND PUSH2 0x100 OR SWAP1 SSTORE JUMPDEST STOP JUMPDEST PUSH1 0x0 DUP1 REVERT JUMPDEST CALLVALUE DUP1 ISZERO PUSH2 0x157 JUMPI PUSH1 0x0 DUP1 REVERT JUMPDEST POP PUSH2 0x144 PUSH2 0x166 CALLDATASIZE PUSH1 0x4 PUSH2 0x425 JUMP JUMPDEST PUSH2 0x25D JUMP JUMPDEST CALLVALUE DUP1 ISZERO PUSH2 0x177 JUMPI PUSH1 0x0 DUP1 REVERT JUMPDEST POP PUSH1 0x3 SLOAD PUSH2 0x18A SWAP1 PUSH2 0x100 SWAP1 DIV PUSH1 0xFF AND DUP2 JUMP JUMPDEST PUSH1 0x40 MLOAD SWAP1 ISZERO ISZERO DUP2 MSTORE PUSH1 0x20 ADD JUMPDEST PUSH1 0x40 MLOAD DUP1 SWAP2 SUB SWAP1 RETURN JUMPDEST CALLVALUE DUP1 ISZERO PUSH2 0x1AB JUMPI PUSH1 0x0 DUP1 REVERT JUMPDEST POP PUSH2 0x1B5 PUSH1 0x1 SLOAD DUP2 JUMP JUMPDEST PUSH1 0x40 MLOAD SWAP1 DUP2 MSTORE PUSH1 0x20 ADD PUSH2 0x196 JUMP JUMPDEST CALLVALUE DUP1 ISZERO PUSH2 0x1CF JUMPI PUSH1 0x0 DUP1 REVERT JUMPDEST POP PUSH2 0x1B5 PUSH1 0x0 SLOAD DUP2 JUMP JUMPDEST CALLVALUE DUP1 ISZERO PUSH2 0x1E5 JUMPI PUSH1 0x0 DUP1 REVERT JUMPDEST POP PUSH2 0x1B5 PUSH1 0x2 SLOAD DUP2 JUMP JUMPDEST PUSH2 0x144 PUSH2 0x34D JUMP JUMPDEST CALLVALUE DUP1 ISZERO PUSH2 0x203 JUMPI PUSH1 0x0 DUP1 REVERT JUMPDEST POP PUSH1 0x3 SLOAD PUSH2 0x18A SWAP1 PUSH1 0xFF AND DUP2 JUMP JUMPDEST CALLVALUE DUP1 ISZERO PUSH2 0x21D JUMPI PUSH1 0x0 DUP1 REVERT JUMPDEST POP PUSH2 0x245 PUSH32 0x0 DUP2 JUMP JUMPDEST PUSH1 0x40 MLOAD PUSH1 0x1 PUSH1 0x1 PUSH1 0xA0 SHL SUB SWAP1 SWAP2 AND DUP2 MSTORE PUSH1 0x20 ADD PUSH2 0x196 JUMP JUMPDEST PUSH1 0x0 DUP3 GT PUSH2 0x2A7 JUMPI PUSH1 0x40 MLOAD PUSH3 0x461BCD PUSH1 0xE5 SHL DUP2 MSTORE PUSH1 0x20 PUSH1 0x4 DUP3 ADD MSTORE PUSH1 0x12 PUSH1 0x24 DUP3 ADD MSTORE PUSH18 0x416D6F756E74206D757374206265203E203 PUSH1 0x74 SHL PUSH1 0x44 DUP3 ADD MSTORE PUSH1 0x64 ADD JUMPDEST PUSH1 0x40 MLOAD DUP1 SWAP2 SUB SWAP1 REVERT JUMPDEST PUSH1 0x0 DUP3 DUP2 SSTORE PUSH1 0x1 DUP3 DUP2 SSTORE PUSH1 0x2 SWAP2 SWAP1 SWAP2 SSTORE PUSH1 0x3 DUP1 SLOAD PUSH2 0xFFFF NOT AND SWAP1 SWAP2 OR SWAP1 SSTORE PUSH1 0x40 MLOAD PUSH4 0x5430F95 PUSH1 0xE1 SHL DUP2 MSTORE PUSH1 0x4 DUP2 ADD DUP4 SWAP1 MSTORE PUSH32 0x0 PUSH1 0x1 PUSH1 0x1 PUSH1 0xA0 SHL SUB AND SWAP1 PUSH4 0xA861F2A SWAP1 PUSH1 0x24 ADD PUSH1 0x0 PUSH1 0x40 MLOAD DUP1 DUP4 SUB DUP2 PUSH1 0x0 DUP8 DUP1 EXTCODESIZE ISZERO DUP1 ISZERO PUSH2 0x327 JUMPI PUSH1 0x0 DUP1 REVERT JUMPDEST POP GAS CALL ISZERO DUP1 ISZERO PUSH2 0x33B JUMPI RETURNDATASIZE PUSH1 0x0 DUP1 RETURNDATACOPY RETURNDATASIZE PUSH1 0x0 REVERT JUMPDEST POP POP PUSH1 0x3 DUP1 SLOAD PUSH1 0xFF NOT AND SWAP1 SSTORE POP POP POP POP JUMP JUMPDEST PUSH1 0x0 CALLVALUE GT PUSH2 0x388 JUMPI PUSH1 0x40 MLOAD PUSH3 0x461BCD PUSH1 0xE5 SHL DUP2 MSTORE PUSH1 0x20 PUSH1 0x4 DUP3 ADD MSTORE PUSH1 0x8 PUSH1 0x24 DUP3 ADD MSTORE PUSH8 0x4E6F2076616C7565 PUSH1 0xC0 SHL PUSH1 0x44 DUP3 ADD MSTORE PUSH1 0x64 ADD PUSH2 0x29E JUMP JUMPDEST PUSH32 0x0 PUSH1 0x1 PUSH1 0x1 PUSH1 0xA0 SHL SUB AND PUSH4 0xCA593C59 CALLVALUE PUSH1 0x40 MLOAD DUP3 PUSH4 0xFFFFFFFF AND PUSH1 0xE0 SHL DUP2 MSTORE PUSH1 0x4 ADD PUSH1 0x0 PUSH1 0x40 MLOAD DUP1 DUP4 SUB DUP2 DUP6 DUP9 DUP1 EXTCODESIZE ISZERO DUP1 ISZERO PUSH2 0x3E3 JUMPI PUSH1 0x0 DUP1 REVERT JUMPDEST POP GAS CALL ISZERO DUP1 ISZERO PUSH2 0x3F7 JUMPI RETURNDATASIZE PUSH1 0x0 DUP1 RETURNDATACOPY RETURNDATASIZE PUSH1 0x0 REVERT JUMPDEST POP POP POP POP POP JUMP JUMPDEST DUP1 DUP3 ADD DUP1 DUP3 GT ISZERO PUSH2 0x41F JUMPI PUSH4 0x4E487B71 PUSH1 0xE0 SHL PUSH1 0x0 MSTORE PUSH1 0x11 PUSH1 0x4 MSTORE PUSH1 0x24 PUSH1 0x0 REVERT JUMPDEST SWAP3 SWAP2 POP POP JUMP JUMPDEST PUSH1 0x0 DUP1 PUSH1 0x40 DUP4 DUP6 SUB SLT ISZERO PUSH2 0x438 JUMPI PUSH1 0x0 DUP1 REVERT JUMPDEST POP POP DUP1 CALLDATALOAD SWAP3 PUSH1 0x20 SWAP1 SWAP2 ADD CALLDATALOAD SWAP2 POP JUMP INVALID LOG2 PUSH5 0x6970667358 0x22 SLT KECCAK256 DUP4 0xC5 SLT PUSH28 0x8011825EBEF62573703AE6DD9F8D82F86CC6343C7F6905274916C6C2 PUSH5 0x736F6C6343 STOP ADDMOD SGT STOP CALLER "},"methodIdentifiers":{"attackInProgress()":"818c8c7c","depositToTarget()":"64bf5dcb","initiateAttack(uint256,uint256)":"043d7fcd","maxReentries()":"352bb4ba","reentryBlocked()":"32db89f2","reentryCount()":"53b38169","target()":"d4b83992","withdrawAmount()":"534844a2"}}}}}