{"contracts/CropChain.sol":{"CropChain":{"abi":[{"inputs":[],"stateMutability":"nonpayable","type":"constructor"},{"anonymous":false,"inputs":[{"indexed":true,"internalType":"string","name":"batchId","type":"string"},{"indexed":false,"internalType":"string","name":"ipfsCID","type":"string"},{"indexed":false,"internalType":"uint256","name":"quantity","type":"uint256"},{"indexed":true,"internalType":"address","name":"creator","type":"address"}],"name":"BatchCreated","type":"event"},{"anonymous":false,"inputs":[{"indexed":true,"internalType":"string","name":"batchId","type":"string"},{"indexed":true,"internalType":"address","name":"triggeredBy","type":"address"}],"name":"BatchRecalled","type":"event"},{"anonymous":false,"inputs":[{"indexed":true,"internalType":"string","name":"batchId","type":"string"},{"indexed":false,"internalType":"enum CropChain.Stage","name":"stage","type":"uint8"},{"indexed":false,"internalType":"string","name":"actorName","type":"string"},{"indexed":false,"internalType":"string","name":"location","type":"string"},{"indexed":true,"internalType":"address","name":"updatedBy","type":"address"}],"name":"BatchUpdated","type":"event"},{"anonymous":false,"inputs":[{"indexed":true,"internalType":"address","name":"previousOwner","type":"address"},{"indexed":true,"internalType":"address","name":"newOwner","type":"address"}],"name":"OwnershipTransferred","type":"event"},{"anonymous":false,"inputs":[{"indexed":true,"internalType":"address","name":"account","type":"address"},{"indexed":false,"internalType":"bool","name":"isPaused","type":"bool"}],"name":"Paused","type":"event"},{"anonymous":false,"inputs":[{"indexed":true,"internalType":"address","name":"user","type":"address"},{"indexed":false,"internalType":"enum CropChain.ActorRole","name":"role","type":"uint8"}],"name":"RoleUpdated","type":"event"},{"inputs":[{"internalType":"uint256","name":"","type":"uint256"}],"name":"allBatchIds","outputs":[{"internalType":"string","name":"","type":"string"}],"stateMutability":"view","type":"function"},{"inputs":[{"internalType":"string","name":"","type":"string"},{"internalType":"uint256","name":"","type":"uint256"}],"name":"batchUpdates","outputs":[{"internalType":"enum CropChain.Stage","name":"stage","type":"uint8"},{"internalType":"string","name":"actorName","type":"string"},{"internalType":"string","name":"location","type":"string"},{"internalType":"uint256","name":"timestamp","type":"uint256"},{"internalType":"string","name":"notes","type":"string"},{"internalType":"address","name":"updatedBy","type":"address"}],"stateMutability":"view","type":"function"},{"inputs":[{"internalType":"string","name":"_batchId","type":"string"},{"internalType":"string","name":"_ipfsCID","type":"string"},{"internalType":"string","name":"_farmerName","type":"string"},{"internalType":"string","name":"_cropType","type":"string"},{"internalType":"string","name":"_origin","type":"string"},{"internalType":"uint256","name":"_quantity","type":"uint256"}],"name":"createBatch","outputs":[],"stateMutability":"nonpayable","type":"function"},{"inputs":[{"internalType":"string","name":"","type":"string"}],"name":"cropBatches","outputs":[{"internalType":"string","name":"batchId","type":"string"},{"internalType":"string","name":"ipfsCID","type":"string"},{"internalType":"string","name":"farmerName","type":"string"},{"internalType":"string","name":"cropType","type":"string"},{"internalType":"string","name":"origin","type":"string"},{"internalType":"uint256","name":"quantity","type":"uint256"},{"internalType":"uint256","name":"createdAt","type":"uint256"},{"internalType":"address","name":"creator","type":"address"},{"internalType":"bool","name":"exists","type":"bool"},{"internalType":"bool","name":"isRecalled","type":"bool"}],"stateMutability":"view","type":"function"},{"inputs":[{"internalType":"string","name":"_batchId","type":"string"}],"name":"getBatch","outputs":[{"components":[{"internalType":"string","name":"batchId","type":"string"},{"internalType":"string","name":"ipfsCID","type":"string"},{"internalType":"string","name":"farmerName","type":"string"},{"internalType":"string","name":"cropType","type":"string"},{"internalType":"string","name":"origin","type":"string"},{"internalType":"uint256","name":"quantity","type":"uint256"},{"internalType":"uint256","name":"createdAt","type":"uint256"},{"internalType":"address","name":"creator","type":"address"},{"internalType":"bool","name":"exists","type":"bool"},{"internalType":"bool","name":"isRecalled","type":"bool"}],"internalType":"struct CropChain.CropBatch","name":"","type":"tuple"}],"stateMutability":"view","type":"function"},{"inputs":[{"internalType":"uint256","name":"_index","type":"uint256"}],"name":"getBatchIdByIndex","outputs":[{"internalType":"string","name":"","type":"string"}],"stateMutability":"view","type":"function"},{"inputs":[{"internalType":"string","name":"_batchId","type":"string"}],"name":"getBatchUpdates","outputs":[{"components":[{"internalType":"enum CropChain.Stage","name":"stage","type":"uint8"},{"internalType":"string","name":"actorName","type":"string"},{"internalType":"string","name":"location","type":"string"},{"internalType":"uint256","name":"timestamp","type":"uint256"},{"internalType":"string","name":"notes","type":"string"},{"internalType":"address","name":"updatedBy","type":"address"}],"internalType":"struct CropChain.SupplyChainUpdate[]","name":"","type":"tuple[]"}],"stateMutability":"view","type":"function"},{"inputs":[{"internalType":"string","name":"_batchId","type":"string"}],"name":"getLatestUpdate","outputs":[{"components":[{"internalType":"enum CropChain.Stage","name":"stage","type":"uint8"},{"internalType":"string","name":"actorName","type":"string"},{"internalType":"string","name":"location","type":"string"},{"internalType":"uint256","name":"timestamp","type":"uint256"},{"internalType":"string","name":"notes","type":"string"},{"internalType":"address","name":"updatedBy","type":"address"}],"internalType":"struct CropChain.SupplyChainUpdate","name":"","type":"tuple"}],"stateMutability":"view","type":"function"},{"inputs":[],"name":"getTotalBatches","outputs":[{"internalType":"uint256","name":"","type":"uint256"}],"stateMutability":"view","type":"function"},{"inputs":[],"name":"owner","outputs":[{"internalType":"address","name":"","type":"address"}],"stateMutability":"view","type":"function"},{"inputs":[],"name":"paused","outputs":[{"internalType":"bool","name":"","type":"bool"}],"stateMutability":"view","type":"function"},{"inputs":[{"internalType":"string","name":"_batchId","type":"string"}],"name":"recallBatch","outputs":[],"stateMutability":"nonpayable","type":"function"},{"inputs":[{"internalType":"address","name":"","type":"address"}],"name":"roles","outputs":[{"internalType":"enum CropChain.ActorRole","name":"","type":"uint8"}],"stateMutability":"view","type":"function"},{"inputs":[{"internalType":"bool","name":"_paused","type":"bool"}],"name":"setPaused","outputs":[],"stateMutability":"nonpayable","type":"function"},{"inputs":[{"internalType":"address","name":"_user","type":"address"},{"internalType":"enum CropChain.ActorRole","name":"_role","type":"uint8"}],"name":"setRole","outputs":[],"stateMutability":"nonpayable","type":"function"},{"inputs":[{"internalType":"address","name":"_newOwner","type":"address"}],"name":"transferOwnership","outputs":[],"stateMutability":"nonpayable","type":"function"},{"inputs":[{"internalType":"string","name":"_batchId","type":"string"},{"internalType":"enum CropChain.Stage","name":"_stage","type":"uint8"},{"internalType":"string","name":"_actorName","type":"string"},{"internalType":"string","name":"_location","type":"string"},{"internalType":"string","name":"_notes","type":"string"}],"name":"updateBatch","outputs":[],"stateMutability":"nonpayable","type":"function"}],"evm":{"bytecode":{"linkReferences":{},"object":"60806040526004805460ff60a01b1916905534801561001d57600080fd5b5060048054336001600160a01b031990911681179091556000908152600260205260409020805460ff19166005179055612c9b8061005c6000396000f3fe608060405234801561001057600080fd5b506004361061010b5760003560e01c806388675465116100a2578063c9c9f36e11610071578063c9c9f36e14610294578063cc023aa6146102a7578063e561dddc146102ba578063f2fde38b146102cb578063f9ca4274146102de57600080fd5b806388675465146101fd5780638da5cb5b146102265780639937464214610251578063a0b6041d1461028157600080fd5b806352969187116100de578063529691871461018e578063571c3e60146101a15780635c975abb146101b45780637301e5a8146101d857600080fd5b806316c38b3c14610110578063290b17ec14610125578063372eeca61461014e5780633d8383b51461016e575b600080fd5b61012361011e3660046122fa565b6102fe565b005b610138610133366004612323565b61038b565b604051610145919061238c565b60405180910390f35b61016161015c366004612442565b610437565b604051610145919061252b565b61018161017c366004612442565b6107af565b604051610145919061253e565b61012361019c366004612442565b610a7b565b6101236101af3660046125bc565b610b70565b6004546101c890600160a01b900460ff1681565b6040519015158152602001610145565b6101eb6101e63660046125f7565b610c61565b6040516101459695949392919061263c565b61021061020b366004612442565b610e6b565b6040516101459a999897969594939291906126a4565b600454610239906001600160a01b031681565b6040516001600160a01b039091168152602001610145565b61027461025f366004612745565b60026020526000908152604090205460ff1681565b6040516101459190612760565b61013861028f366004612323565b61117f565b6101236102a236600461277a565b611270565b6101236102b5366004612854565b611814565b600354604051908152602001610145565b6101236102d9366004612745565b611bfd565b6102f16102ec366004612442565b611cdb565b604051610145919061291a565b6004546001600160a01b031633146103315760405162461bcd60e51b815260040161032890612a09565b60405180910390fd5b60048054821515600160a01b0260ff60a01b1990911617905560405133907fe8699cf681560fd07de85543bd994263f4557bdc5179dd702f256d15fd083e1d9061038090841515815260200190565b60405180910390a250565b6003818154811061039b57600080fd5b9060005260206000200160009150905080546103b690612a2d565b80601f01602080910402602001604051908101604052809291908181526020018280546103e290612a2d565b801561042f5780601f106104045761010080835404028352916020019161042f565b820191906000526020600020905b81548152906001019060200180831161041257829003601f168201915b505050505081565b61047a6040805160c0810190915280600081526020016060815260200160608152602001600081526020016060815260200160006001600160a01b031681525090565b8160008160405161048b9190612a61565b9081526040519081900360200190206007015460ff600160a01b909104166104c55760405162461bcd60e51b815260040161032890612a7d565b60006001846040516104d79190612a61565b9081526020016040518091039020805480602002602001604051908101604052809291908181526020016000905b8282101561073a576000848152602090206040805160c08101909152600684029091018054829060ff1660038111156105405761054061247f565b60038111156105515761055161247f565b815260200160018201805461056590612a2d565b80601f016020809104026020016040519081016040528092919081815260200182805461059190612a2d565b80156105de5780601f106105b3576101008083540402835291602001916105de565b820191906000526020600020905b8154815290600101906020018083116105c157829003601f168201915b505050505081526020016002820180546105f790612a2d565b80601f016020809104026020016040519081016040528092919081815260200182805461062390612a2d565b80156106705780601f1061064557610100808354040283529160200191610670565b820191906000526020600020905b81548152906001019060200180831161065357829003601f168201915b505050505081526020016003820154815260200160048201805461069390612a2d565b80601f01602080910402602001604051908101604052809291908181526020018280546106bf90612a2d565b801561070c5780601f106106e15761010080835404028352916020019161070c565b820191906000526020600020905b8154815290600101906020018083116106ef57829003601f168201915b5050509183525050600591909101546001600160a01b03166020918201529082526001929092019101610505565b505050509050600081511161077e5760405162461bcd60e51b815260206004820152600a6024820152694e6f207570646174657360b01b6044820152606401610328565b806001825161078d9190612abc565b8151811061079d5761079d612acf565b60200260200101519250505b50919050565b6060816000816040516107c29190612a61565b9081526040519081900360200190206007015460ff600160a01b909104166107fc5760405162461bcd60e51b815260040161032890612a7d565b60018360405161080c9190612a61565b9081526020016040518091039020805480602002602001604051908101604052809291908181526020016000905b82821015610a6f576000848152602090206040805160c08101909152600684029091018054829060ff1660038111156108755761087561247f565b60038111156108865761088661247f565b815260200160018201805461089a90612a2d565b80601f01602080910402602001604051908101604052809291908181526020018280546108c690612a2d565b80156109135780601f106108e857610100808354040283529160200191610913565b820191906000526020600020905b8154815290600101906020018083116108f657829003601f168201915b5050505050815260200160028201805461092c90612a2d565b80601f016020809104026020016040519081016040528092919081815260200182805461095890612a2d565b80156109a55780601f1061097a576101008083540402835291602001916109a5565b820191906000526020600020905b81548152906001019060200180831161098857829003601f168201915b50505050508152602001600382015481526020016004820180546109c890612a2d565b80601f01602080910402602001604051908101604052809291908181526020018280546109f490612a2d565b8015610a415780601f10610a1657610100808354040283529160200191610a41565b820191906000526020600020905b815481529060010190602001808311610a2457829003601f168201915b5050509183525050600591909101546001600160a01b0316602091820152908252600192909201910161083a565b50505050915050919050565b6004546001600160a01b03163314610aa55760405162461bcd60e51b815260040161032890612a09565b80600081604051610ab69190612a61565b9081526040519081900360200190206007015460ff600160a01b90910416610af05760405162461bcd60e51b815260040161032890612a7d565b6001600083604051610b029190612a61565b9081526040519081900360200181206007018054921515600160a81b0260ff60a81b19909316929092179091553390610b3c908490612a61565b604051908190038120907f423ae59b8825a6f0d6872201b0102d5bc3ff543cca72ddf16d2e4d698fc9898b90600090a35050565b6004546001600160a01b03163314610b9a5760405162461bcd60e51b815260040161032890612a09565b6001600160a01b038216610be25760405162461bcd60e51b815260206004820152600f60248201526e496e76616c6964206164647265737360881b6044820152606401610328565b6001600160a01b0382166000908152600260205260409020805482919060ff19166001836005811115610c1757610c1761247f565b0217905550816001600160a01b03167fc3f8f61911a1537261f77e2703626e158e299a98e341024ecaa26bbd1d884c6482604051610c559190612760565b60405180910390a25050565b81516020818401810180516001825292820191850191909120919052805482908110610c8c57600080fd5b60009182526020909120600690910201805460018201805460ff9092169450919250610cb790612a2d565b80601f0160208091040260200160405190810160405280929190818152602001828054610ce390612a2d565b8015610d305780601f10610d0557610100808354040283529160200191610d30565b820191906000526020600020905b815481529060010190602001808311610d1357829003601f168201915b505050505090806002018054610d4590612a2d565b80601f0160208091040260200160405190810160405280929190818152602001828054610d7190612a2d565b8015610dbe5780601f10610d9357610100808354040283529160200191610dbe565b820191906000526020600020905b815481529060010190602001808311610da157829003601f168201915b505050505090806003015490806004018054610dd990612a2d565b80601f0160208091040260200160405190810160405280929190818152602001828054610e0590612a2d565b8015610e525780601f10610e2757610100808354040283529160200191610e52565b820191906000526020600020905b815481529060010190602001808311610e3557829003601f168201915b505050600590930154919250506001600160a01b031686565b8051602081830181018051600082529282019190930120915280548190610e9190612a2d565b80601f0160208091040260200160405190810160405280929190818152602001828054610ebd90612a2d565b8015610f0a5780601f10610edf57610100808354040283529160200191610f0a565b820191906000526020600020905b815481529060010190602001808311610eed57829003601f168201915b505050505090806001018054610f1f90612a2d565b80601f0160208091040260200160405190810160405280929190818152602001828054610f4b90612a2d565b8015610f985780601f10610f6d57610100808354040283529160200191610f98565b820191906000526020600020905b815481529060010190602001808311610f7b57829003601f168201915b505050505090806002018054610fad90612a2d565b80601f0160208091040260200160405190810160405280929190818152602001828054610fd990612a2d565b80156110265780601f10610ffb57610100808354040283529160200191611026565b820191906000526020600020905b81548152906001019060200180831161100957829003601f168201915b50505050509080600301805461103b90612a2d565b80601f016020809104026020016040519081016040528092919081815260200182805461106790612a2d565b80156110b45780601f10611089576101008083540402835291602001916110b4565b820191906000526020600020905b81548152906001019060200180831161109757829003601f168201915b5050505050908060040180546110c990612a2d565b80601f01602080910402602001604051908101604052809291908181526020018280546110f590612a2d565b80156111425780601f1061111757610100808354040283529160200191611142565b820191906000526020600020905b81548152906001019060200180831161112557829003601f168201915b50505060058401546006850154600790950154939490939092506001600160a01b038116915060ff600160a01b8204811691600160a81b9004168a565b60035460609082106111c35760405162461bcd60e51b815260206004820152600d60248201526c4f7574206f6620626f756e647360981b6044820152606401610328565b600382815481106111d6576111d6612acf565b9060005260206000200180546111eb90612a2d565b80601f016020809104026020016040519081016040528092919081815260200182805461121790612a2d565b80156112645780601f1061123957610100808354040283529160200191611264565b820191906000526020600020905b81548152906001019060200180831161124757829003601f168201915b50505050509050919050565b3360009081526002602052604081205460ff1660058111156112945761129461247f565b036112d25760405162461bcd60e51b815260206004820152600e60248201526d139bdd08185d5d1a1bdc9a5e995960921b6044820152606401610328565b600454600160a01b900460ff161561131e5760405162461bcd60e51b815260206004820152600f60248201526e10dbdb9d1c9858dd081c185d5cd959608a1b6044820152606401610328565b60008660405161132e9190612a61565b9081526040519081900360200190206007015460ff600160a01b90910416156113905760405162461bcd60e51b8152602060048201526014602482015273426174636820616c72656164792065786973747360601b6044820152606401610328565b60008651116113e15760405162461bcd60e51b815260206004820152601860248201527f42617463682049442063616e6e6f7420626520656d70747900000000000000006044820152606401610328565b60008451116114325760405162461bcd60e51b815260206004820152601b60248201527f4661726d6572206e616d652063616e6e6f7420626520656d70747900000000006044820152606401610328565b600081116114825760405162461bcd60e51b815260206004820152601f60248201527f5175616e74697479206d7573742062652067726561746572207468616e2030006044820152606401610328565b60013360009081526002602052604090205460ff1660058111156114a8576114a861247f565b14806114d7575060053360009081526002602052604090205460ff1660058111156114d5576114d561247f565b145b6115235760405162461bcd60e51b815260206004820152601f60248201527f4f6e6c79206661726d6572732063616e206372656174652062617463686573006044820152606401610328565b604051806101400160405280878152602001868152602001858152602001848152602001838152602001828152602001428152602001336001600160a01b03168152602001600115158152602001600015158152506000876040516115889190612a61565b908152604051908190036020019020815181906115a59082612b34565b50602082015160018201906115ba9082612b34565b50604082015160028201906115cf9082612b34565b50606082015160038201906115e49082612b34565b50608082015160048201906115f99082612b34565b5060a0820151600582015560c0820151600682015560e082015160079091018054610100840151610120909401511515600160a81b0260ff60a81b19941515600160a01b026001600160a81b03199092166001600160a01b03909416939093171792909216179055604051600190611672908890612a61565b90815260408051918290036020908101832060c08401835260008085528285018990528484018790524260608601528351808501909452600f84526e125b9a5d1a585b081a185c9d995cdd608a1b8484015260808501939093523360a085015280546001808201835591845291909220835160069092020180549092839160ff1916908360038111156117075761170761247f565b0217905550602082015160018201906117209082612b34565b50604082015160028201906117359082612b34565b5060608201516003820155608082015160048201906117549082612b34565b5060a09190910151600590910180546001600160a01b0319166001600160a01b03909216919091179055600380546001810182556000919091527fc2575a0e9e593c00f959f8c92f12db2869c3395a3b0502d05e2516446f71f85b016117ba8782612b34565b5060405133906117cb908890612a61565b60405180910390207f36fddeca3b99d4655e76ff3eb699cbff3f16f4a5123824cdaa040880ab7e78ef8784604051611804929190612bf4565b60405180910390a3505050505050565b3360009081526002602052604081205460ff1660058111156118385761183861247f565b036118765760405162461bcd60e51b815260206004820152600e60248201526d139bdd08185d5d1a1bdc9a5e995960921b6044820152606401610328565b846000816040516118879190612a61565b9081526040519081900360200190206007015460ff600160a01b909104166118c15760405162461bcd60e51b815260040161032890612a7d565b6000866040516118d19190612a61565b9081526040519081900360200190206007015460ff600160a81b90910416156119305760405162461bcd60e51b815260206004820152601160248201527010985d18da081a5cc81c9958d85b1b1959607a1b6044820152606401610328565b60008451116119815760405162461bcd60e51b815260206004820152601a60248201527f4163746f72206e616d652063616e6e6f7420626520656d7074790000000000006044820152606401610328565b60008351116119d25760405162461bcd60e51b815260206004820152601860248201527f4c6f636174696f6e2063616e6e6f7420626520656d70747900000000000000006044820152606401610328565b336000908152600260205260409020546119f090869060ff166120e0565b611a475760405162461bcd60e51b815260206004820152602260248201527f526f6c65206e6f7420617574686f72697a656420666f72207468697320737461604482015261676560f01b6064820152608401610328565b611a518686612209565b611a9d5760405162461bcd60e51b815260206004820152601860248201527f496e76616c6964207374616765207472616e736974696f6e00000000000000006044820152606401610328565b600186604051611aad9190612a61565b90815260200160405180910390206040518060c00160405280876003811115611ad857611ad861247f565b8152602080820188905260408201879052426060830152608082018690523360a09092019190915282546001818101855560009485529190932082516006909402018054929390929091839160ff191690836003811115611b3b57611b3b61247f565b021790555060208201516001820190611b549082612b34565b5060408201516002820190611b699082612b34565b506060820151600382015560808201516004820190611b889082612b34565b5060a09190910151600590910180546001600160a01b0319166001600160a01b039092169190911790556040513390611bc2908890612a61565b60405180910390207f0bb321f4ea03679389ab54a11d18cb18c606a6ff2cef6b8ce6f77f35ecfaf69687878760405161180493929190612c16565b6004546001600160a01b03163314611c275760405162461bcd60e51b815260040161032890612a09565b6001600160a01b038116611c6f5760405162461bcd60e51b815260206004820152600f60248201526e496e76616c6964206164647265737360881b6044820152606401610328565b600480546001600160a01b031981166001600160a01b03848116918217909355600081815260026020526040808220805460ff19166005179055519390921692909183917f8be0079c531659141344cd1fd0a4f28419497f9722a3daafe3b4186f6b6457e09190a35050565b611d3e6040518061014001604052806060815260200160608152602001606081526020016060815260200160608152602001600081526020016000815260200160006001600160a01b031681526020016000151581526020016000151581525090565b81600081604051611d4f9190612a61565b9081526040519081900360200190206007015460ff600160a01b90910416611d895760405162461bcd60e51b815260040161032890612a7d565b600083604051611d999190612a61565b908152602001604051809103902060405180610140016040529081600082018054611dc390612a2d565b80601f0160208091040260200160405190810160405280929190818152602001828054611def90612a2d565b8015611e3c5780601f10611e1157610100808354040283529160200191611e3c565b820191906000526020600020905b815481529060010190602001808311611e1f57829003601f168201915b50505050508152602001600182018054611e5590612a2d565b80601f0160208091040260200160405190810160405280929190818152602001828054611e8190612a2d565b8015611ece5780601f10611ea357610100808354040283529160200191611ece565b820191906000526020600020905b815481529060010190602001808311611eb157829003601f168201915b50505050508152602001600282018054611ee790612a2d565b80601f0160208091040260200160405190810160405280929190818152602001828054611f1390612a2d565b8015611f605780601f10611f3557610100808354040283529160200191611f60565b820191906000526020600020905b815481529060010190602001808311611f4357829003601f168201915b50505050508152602001600382018054611f7990612a2d565b80601f0160208091040260200160405190810160405280929190818152602001828054611fa590612a2d565b8015611ff25780601f10611fc757610100808354040283529160200191611ff2565b820191906000526020600020905b815481529060010190602001808311611fd557829003601f168201915b5050505050815260200160048201805461200b90612a2d565b80601f016020809104026020016040519081016040528092919081815260200182805461203790612a2d565b80156120845780601f1061205957610100808354040283529160200191612084565b820191906000526020600020905b81548152906001019060200180831161206757829003601f168201915b505050918352505060058201546020820152600682015460408201526007909101546001600160a01b038116606083015260ff600160a01b8204811615156080840152600160a81b90910416151560a090910152915050919050565b600060058260058111156120f6576120f661247f565b0361210357506001612203565b60008360038111156121175761211761247f565b148015612135575060018260058111156121335761213361247f565b145b1561214257506001612203565b60018360038111156121565761215661247f565b148015612174575060028260058111156121725761217261247f565b145b1561218157506001612203565b60028360038111156121955761219561247f565b1480156121b3575060038260058111156121b1576121b161247f565b145b156121c057506001612203565b60038360038111156121d4576121d461247f565b1480156121f2575060048260058111156121f0576121f061247f565b145b156121ff57506001612203565b5060005b92915050565b60008060018460405161221c9190612a61565b908152604051908190036020019020805490915060000361225457600083600381111561224b5761224b61247f565b14915050612203565b8054600090829061226790600190612abc565b8154811061227757612277612acf565b600091825260209091206006909102015460ff16905083600381111561229f5761229f61247f565b8160038111156122b1576122b161247f565b036122c157600192505050612203565b8060038111156122d3576122d361247f565b6122de906001612c52565b8460038111156122f0576122f061247f565b1495945050505050565b60006020828403121561230c57600080fd5b8135801515811461231c57600080fd5b9392505050565b60006020828403121561233557600080fd5b5035919050565b60005b8381101561235757818101518382015260200161233f565b50506000910152565b6000815180845261237881602086016020860161233c565b601f01601f19169290920160200192915050565b60208152600061231c6020830184612360565b634e487b7160e01b600052604160045260246000fd5b600082601f8301126123c657600080fd5b813567ffffffffffffffff808211156123e1576123e161239f565b604051601f8301601f19908116603f011681019082821181831017156124095761240961239f565b8160405283815286602085880101111561242257600080fd5b836020870160208301376000602085830101528094505050505092915050565b60006020828403121561245457600080fd5b813567ffffffffffffffff81111561246b57600080fd5b612477848285016123b5565b949350505050565b634e487b7160e01b600052602160045260246000fd5b600481106124a5576124a561247f565b9052565b6124b4828251612495565b6000602082015160c060208501526124cf60c0850182612360565b9050604083015184820360408601526124e88282612360565b915050606083015160608501526080830151848203608086015261250c8282612360565b60a0948501516001600160a01b03169590940194909452509092915050565b60208152600061231c60208301846124a9565b6000602080830181845280855180835260408601915060408160051b870101925083870160005b8281101561259357603f198886030184526125818583516124a9565b94509285019290850190600101612565565b5092979650505050505050565b80356001600160a01b03811681146125b757600080fd5b919050565b600080604083850312156125cf57600080fd5b6125d8836125a0565b91506020830135600681106125ec57600080fd5b809150509250929050565b6000806040838503121561260a57600080fd5b823567ffffffffffffffff81111561262157600080fd5b61262d858286016123b5565b95602094909401359450505050565b6126468188612495565b60c06020820152600061265c60c0830188612360565b828103604084015261266e8188612360565b905085606084015282810360808401526126888186612360565b91505060018060a01b03831660a0830152979650505050505050565b60006101408083526126b88184018e612360565b905082810360208401526126cc818d612360565b905082810360408401526126e0818c612360565b905082810360608401526126f4818b612360565b90508281036080840152612708818a612360565b60a0840198909852505060c08101949094526001600160a01b039290921660e0840152151561010083015215156101209091015295945050505050565b60006020828403121561275757600080fd5b61231c826125a0565b60208101600683106127745761277461247f565b91905290565b60008060008060008060c0878903121561279357600080fd5b863567ffffffffffffffff808211156127ab57600080fd5b6127b78a838b016123b5565b975060208901359150808211156127cd57600080fd5b6127d98a838b016123b5565b965060408901359150808211156127ef57600080fd5b6127fb8a838b016123b5565b9550606089013591508082111561281157600080fd5b61281d8a838b016123b5565b9450608089013591508082111561283357600080fd5b5061284089828a016123b5565b92505060a087013590509295509295509295565b600080600080600060a0868803121561286c57600080fd5b853567ffffffffffffffff8082111561288457600080fd5b61289089838a016123b5565b965060208801359150600482106128a657600080fd5b909450604087013590808211156128bc57600080fd5b6128c889838a016123b5565b945060608801359150808211156128de57600080fd5b6128ea89838a016123b5565b9350608088013591508082111561290057600080fd5b5061290d888289016123b5565b9150509295509295909350565b6020815260008251610140806020850152612939610160850183612360565b91506020850151601f19808685030160408701526129578483612360565b935060408701519150808685030160608701526129748483612360565b935060608701519150808685030160808701526129918483612360565b935060808701519150808685030160a0870152506129af8382612360565b92505060a085015160c085015260c085015160e085015260e08501516101006129e2818701836001600160a01b03169052565b86015190506101206129f78682018315159052565b90950151151593019290925250919050565b6020808252600a908201526927b7363c9037bbb732b960b11b604082015260600190565b600181811c90821680612a4157607f821691505b6020821081036107a957634e487b7160e01b600052602260045260246000fd5b60008251612a7381846020870161233c565b9190910192915050565b6020808252600f908201526e10985d18da081b9bdd08199bdd5b99608a1b604082015260600190565b634e487b7160e01b600052601160045260246000fd5b8181038181111561220357612203612aa6565b634e487b7160e01b600052603260045260246000fd5b601f821115612b2f57600081815260208120601f850160051c81016020861015612b0c5750805b601f850160051c820191505b81811015612b2b57828155600101612b18565b5050505b505050565b815167ffffffffffffffff811115612b4e57612b4e61239f565b612b6281612b5c8454612a2d565b84612ae5565b602080601f831160018114612b975760008415612b7f5750858301515b600019600386901b1c1916600185901b178555612b2b565b600085815260208120601f198616915b82811015612bc657888601518255948401946001909101908401612ba7565b5085821015612be45787850151600019600388901b60f8161c191681555b5050505050600190811b01905550565b604081526000612c076040830185612360565b90508260208301529392505050565b612c208185612495565b606060208201526000612c366060830185612360565b8281036040840152612c488185612360565b9695505050505050565b8082018082111561220357612203612aa656fea26469706673582212203a6c9d459cca1fa8de0fe21a2556bc4dafcdbd18ce9d4044e87433a91b733c1564736f6c63430008130033","opcodes":"PUSH1 0x80 PUSH1 0x40 MSTORE PUSH1 0x4 DUP1 SLOAD PUSH1 0xFF PUSH1 0xA0 SHL NOT AND SWAP1 SSTORE CALLVALUE DUP1 ISZERO PUSH2 0x1D JUMPI PUSH1 0x0 DUP1 REVERT JUMPDEST POP PUSH1 0x4 DUP1 SLOAD CALLER PUSH1 0x1 PUSH1 0x1 PUSH1 0xA0 SHL SUB NOT SWAP1 SWAP2 AND DUP2 OR SWAP1 SWAP2 SSTORE PUSH1 0x0 SWAP1 DUP2 MSTORE PUSH1 0x2 PUSH1 0x20 MSTORE PUSH1 0x40 SWAP1 KECCAK256 DUP1 SLOAD PUSH1 0xFF NOT AND PUSH1 0x5 OR SWAP1 SSTORE PUSH2 0x2C9B DUP1 PUSH2 0x5C PUSH1 0x0 CODECOPY PUSH1 0x0 RETURN INVALID PUSH1 0x80 PUSH1 0x40 MSTORE CALLVALUE DUP1 ISZERO PUSH2 0x10 JUMPI PUSH1 0x0 DUP1 REVERT JUMPDEST POP PUSH1 0x4 CALLDATASIZE LT PUSH2 0x10B JUMPI PUSH1 0x0 CALLDATALOAD PUSH1 0xE0 SHR DUP1 PUSH4 0x88675465 GT PUSH2 0xA2 JUMPI DUP1 PUSH4 0xC9C9F36E GT PUSH2 0x71 JUMPI DUP1 PUSH4 0xC9C9F36E EQ PUSH2 0x294 JUMPI DUP1 PUSH4 0xCC023AA6 EQ PUSH2 0x2A7 JUMPI DUP1 PUSH4 0xE561DDDC EQ PUSH2 0x2BA JUMPI DUP1 PUSH4 0xF2FDE38B EQ PUSH2 0x2CB JUMPI DUP1 PUSH4 0xF9CA4274 EQ PUSH2 0x2DE JUMPI PUSH1 0x0 DUP1 REVERT JUMPDEST DUP1 PUSH4 0x88675465 EQ PUSH2 0x1FD JUMPI DUP1 PUSH4 0x8DA5CB5B EQ PUSH2 0x226 JUMPI DUP1 PUSH4 0x99374642 EQ PUSH2 0x251 JUMPI DUP1 PUSH4 0xA0B6041D EQ PUSH2 0x281 JUMPI PUSH1 0x0 DUP1 REVERT JUMPDEST DUP1 PUSH4 0x52969187 GT PUSH2 0xDE JUMPI DUP1 PUSH4 0x52969187 EQ PUSH2 0x18E JUMPI DUP1 PUSH4 0x571C3E60 EQ PUSH2 0x1A1 JUMPI DUP1 PUSH4 0x5C975ABB EQ PUSH2 0x1B4 JUMPI DUP1 PUSH4 0x7301E5A8 EQ PUSH2 0x1D8 JUMPI PUSH1 0x0 DUP1 REVERT JUMPDEST DUP1 PUSH4 0x16C38B3C EQ PUSH2 0x110 JUMPI DUP1 PUSH4 0x290B17EC EQ PUSH2 0x125 JUMPI DUP1 PUSH4 0x372EECA6 EQ PUSH2 0x14E JUMPI DUP1 PUSH4 0x3D8383B5 EQ PUSH2 0x16E JUMPI JUMPDEST PUSH1 0x0 DUP1 REVERT JUMPDEST PUSH2 0x123 PUSH2 0x11E CALLDATASIZE PUSH1 0x4 PUSH2 0x22FA JUMP JUMPDEST PUSH2 0x2FE JUMP JUMPDEST STOP JUMPDEST PUSH2 0x138 PUSH2 0x133 CALLDATASIZE PUSH1 0x4 PUSH2 0x2323 JUMP JUMPDEST PUSH2 0x38B JUMP JUMPDEST PUSH1 0x40 MLOAD PUSH2 0x145 SWAP2 SWAP1 PUSH2 0x238C JUMP JUMPDEST PUSH1 0x40 MLOAD DUP1 SWAP2 SUB SWAP1 RETURN JUMPDEST PUSH2 0x161 PUSH2 0x15C CALLDATASIZE PUSH1 0x4 PUSH2 0x2442 JUMP JUMPDEST PUSH2 0x437 JUMP JUMPDEST PUSH1 0x40 MLOAD PUSH2 0x145 SWAP2 SWAP1 PUSH2 0x252B JUMP JUMPDEST PUSH2 0x181 PUSH2 0x17C CALLDATASIZE PUSH1 0x4 PUSH2 0x2442 JUMP JUMPDEST PUSH2 0x7AF JUMP JUMPDEST PUSH1 0x40 MLOAD PUSH2 0x145 SWAP2 SWAP1 PUSH2 0x253E JUMP JUMPDEST PUSH2 0x123 PUSH2 0x19C CALLDATASIZE PUSH1 0x4 PUSH2 0x2442 JUMP JUMPDEST PUSH2 0xA7B JUMP JUMPDEST PUSH2 0x123 PUSH2 0x1AF CALLDATASIZE PUSH1 0x4 PUSH2 0x25BC JUMP JUMPDEST PUSH2 0xB70 JUMP JUMPDEST PUSH1 0x4 SLOAD PUSH2 0x1C8 SWAP1 PUSH1 0x1 PUSH1 0xA0 SHL SWAP1 DIV PUSH1 0xFF AND DUP2 JUMP JUMPDEST PUSH1 0x40 MLOAD SWAP1 ISZERO ISZERO DUP2 MSTORE PUSH1 0x20 ADD PUSH2 0x145 JUMP JUMPDEST PUSH2 0x1EB PUSH2 0x1E6 CALLDATASIZE PUSH1 0x4 PUSH2 0x25F7 JUMP JUMPDEST PUSH2 0xC61 JUMP JUMPDEST PUSH1 0x40 MLOAD PUSH2 0x145 SWAP7 SWAP6 SWAP5 SWAP4 SWAP3 SWAP2 SWAP1 PUSH2 0x263C JUMP JUMPDEST PUSH2 0x210 PUSH2 0x20B CALLDATASIZE PUSH1 0x4 PUSH2 0x2442 JUMP JUMPDEST PUSH2 0xE6B JUMP JUMPDEST PUSH1 0x40 MLOAD PUSH2 0x145 SWAP11 SWAP10 SWAP9 SWAP8 SWAP7 SWAP6 SWAP5 SWAP4 SWAP3 SWAP2 SWAP1 PUSH2 0x26A4 JUMP JUMPDEST PUSH1 0x4 SLOAD PUSH2 0x239 SWAP1 PUSH1 0x1 PUSH1 0x1 PUSH1 0xA0 SHL SUB AND DUP2 JUMP JUMPDEST PUSH1 0x40 MLOAD PUSH1 0x1 PUSH1 0x1 PUSH1 0xA0 SHL SUB SWAP1 SWAP2 AND DUP2 MSTORE PUSH1 0x20 ADD PUSH2 0x145 JUMP JUMPDEST PUSH2 0x274 PUSH2 0x25F CALLDATASIZE PUSH1 0x4 PUSH2 0x2745 JUMP JUMPDEST PUSH1 0x2 PUSH1 0x20 MSTORE PUSH1 0x0 SWAP1 DUP2 MSTORE PUSH1 0x40 SWAP1 KECCAK256 SLOAD PUSH1 0xFF AND DUP2 JUMP JUMPDEST PUSH1 0x40 MLOAD PUSH2 0x145 SWAP2 SWAP1 PUSH2 0x2760 JUMP JUMPDEST PUSH2 0x138 PUSH2 0x28F CALLDATASIZE PUSH1 0x4 PUSH2 0x2323 JUMP JUMPDEST PUSH2 0x117F JUMP JUMPDEST PUSH2 0x123 PUSH2 0x2A2 CALLDATASIZE PUSH1 0x4 PUSH2 0x277A JUMP JUMPDEST PUSH2 0x1270 JUMP JUMPDEST PUSH2 0x123 PUSH2 0x2B5 CALLDATASIZE PUSH1 0x4 PUSH2 0x2854 JUMP JUMPDEST PUSH2 0x1814 JUMP JUMPDEST PUSH1 0x3 SLOAD PUSH1 0x40 MLOAD SWAP1 DUP2 MSTORE PUSH1 0x20 ADD PUSH2 0x145 JUMP JUMPDEST PUSH2 0x123 PUSH2 0x2D9 CALLDATASIZE PUSH1 0x4 PUSH2 0x2745 JUMP JUMPDEST PUSH2 0x1BFD JUMP JUMPDEST PUSH2 0x2F1 PUSH2 0x2EC CALLDATASIZE PUSH1 0x4 PUSH2 0x2442 JUMP JUMPDEST PUSH2 0x1CDB JUMP JUMPDEST PUSH1 0x40 MLOAD PUSH2 0x145 SWAP2 SWAP1 PUSH2 0x291A JUMP JUMPDEST PUSH1 0x4 SLOAD PUSH1 0x1 PUSH1 0x1 PUSH1 0xA0 SHL SUB AND CALLER EQ PUSH2 0x331 JUMPI PUSH1 0x40 MLOAD PUSH3 0x461BCD PUSH1 0xE5 SHL DUP2 MSTORE PUSH1 0x4 ADD PUSH2 0x328 SWAP1 PUSH2 0x2A09 JUMP JUMPDEST PUSH1 0x40 MLOAD DUP1 SWAP2 SUB SWAP1 REVERT JUMPDEST PUSH1 0x4 DUP1 SLOAD DUP3 ISZERO ISZERO PUSH1 0x1 PUSH1 0xA0 SHL MUL PUSH1 0xFF PUSH1 0xA0 SHL NOT SWAP1 SWAP2 AND OR SWAP1 SSTORE PUSH1 0x40 MLOAD CALLER SWAP1 PUSH32 0xE8699CF681560FD07DE85543BD994263F4557BDC5179DD702F256D15FD083E1D SWAP1 PUSH2 0x380 SWAP1 DUP5 ISZERO ISZERO DUP2 MSTORE PUSH1 0x20 ADD SWAP1 JUMP JUMPDEST PUSH1 0x40 MLOAD DUP1 SWAP2 SUB SWAP1 LOG2 POP JUMP JUMPDEST PUSH1 0x3 DUP2 DUP2 SLOAD DUP2 LT PUSH2 0x39B JUMPI PUSH1 0x0 DUP1 REVERT JUMPDEST SWAP1 PUSH1 0x0 MSTORE PUSH1 0x20 PUSH1 0x0 KECCAK256 ADD PUSH1 0x0 SWAP2 POP SWAP1 POP DUP1 SLOAD PUSH2 0x3B6 SWAP1 PUSH2 0x2A2D JUMP JUMPDEST DUP1 PUSH1 0x1F ADD PUSH1 0x20 DUP1 SWAP2 DIV MUL PUSH1 0x20 ADD PUSH1 0x40 MLOAD SWAP1 DUP2 ADD PUSH1 0x40 MSTORE DUP1 SWAP3 SWAP2 SWAP1 DUP2 DUP2 MSTORE PUSH1 0x20 ADD DUP3 DUP1 SLOAD PUSH2 0x3E2 SWAP1 PUSH2 0x2A2D JUMP JUMPDEST DUP1 ISZERO PUSH2 0x42F JUMPI DUP1 PUSH1 0x1F LT PUSH2 0x404 JUMPI PUSH2 0x100 DUP1 DUP4 SLOAD DIV MUL DUP4 MSTORE SWAP2 PUSH1 0x20 ADD SWAP2 PUSH2 0x42F JUMP JUMPDEST DUP3 ADD SWAP2 SWAP1 PUSH1 0x0 MSTORE PUSH1 0x20 PUSH1 0x0 KECCAK256 SWAP1 JUMPDEST DUP2 SLOAD DUP2 MSTORE SWAP1 PUSH1 0x1 ADD SWAP1 PUSH1 0x20 ADD DUP1 DUP4 GT PUSH2 0x412 JUMPI DUP3 SWAP1 SUB PUSH1 0x1F AND DUP3 ADD SWAP2 JUMPDEST POP POP POP POP POP DUP2 JUMP JUMPDEST PUSH2 0x47A PUSH1 0x40 DUP1 MLOAD PUSH1 0xC0 DUP2 ADD SWAP1 SWAP2 MSTORE DUP1 PUSH1 0x0 DUP2 MSTORE PUSH1 0x20 ADD PUSH1 0x60 DUP2 MSTORE PUSH1 0x20 ADD PUSH1 0x60 DUP2 MSTORE PUSH1 0x20 ADD PUSH1 0x0 DUP2 MSTORE PUSH1 0x20 ADD PUSH1 0x60 DUP2 MSTORE PUSH1 0x20 ADD PUSH1 0x0 PUSH1 0x1 PUSH1 0x1 PUSH1 0xA0 SHL SUB AND DUP2 MSTORE POP SWAP1 JUMP JUMPDEST DUP2 PUSH1 0x0 DUP2 PUSH1 0x40 MLOAD PUSH2 0x48B SWAP2 SWAP1 PUSH2 0x2A61 JUMP JUMPDEST SWAP1 DUP2 MSTORE PUSH1 0x40 MLOAD SWAP1 DUP2 SWAP1 SUB PUSH1 0x20 ADD SWAP1 KECCAK256 PUSH1 0x7 ADD SLOAD PUSH1 0xFF PUSH1 0x1 PUSH1 0xA0 SHL SWAP1 SWAP2 DIV AND PUSH2 0x4C5 JUMPI PUSH1 0x40 MLOAD PUSH3 0x461BCD PUSH1 0xE5 SHL DUP2 MSTORE PUSH1 0x4 ADD PUSH2 0x328 SWAP1 PUSH2 0x2A7D JUMP JUMPDEST PUSH1 0x0 PUSH1 0x1 DUP5 PUSH1 0x40 MLOAD PUSH2 0x4D7 SWAP2 SWAP1 PUSH2 0x2A61 JUMP JUMPDEST SWAP1 DUP2 MSTORE PUSH1 0x20 ADD PUSH1 0x40 MLOAD DUP1 SWAP2 SUB SWAP1 KECCAK256 DUP1 SLOAD DUP1 PUSH1 0x20 MUL PUSH1 0x20 ADD PUSH1 0x40 MLOAD SWAP1 DUP2 ADD PUSH1 0x40 MSTORE DUP1 SWAP3 SWAP2 SWAP1 DUP2 DUP2 MSTORE PUSH1 0x20 ADD PUSH1 0x0 SWAP1 JUMPDEST DUP3 DUP3 LT ISZERO PUSH2 0x73A JUMPI PUSH1 0x0 DUP5 DUP2 MSTORE PUSH1 0x20 SWAP1 KECCAK256 PUSH1 0x40 DUP1 MLOAD PUSH1 0xC0 DUP2 ADD SWAP1 SWAP2 MSTORE PUSH1 0x6 DUP5 MUL SWAP1 SWAP2 ADD DUP1 SLOAD DUP3 SWAP1 PUSH1 0xFF AND PUSH1 0x3 DUP2 GT ISZERO PUSH2 0x540 JUMPI PUSH2 0x540 PUSH2 0x247F JUMP JUMPDEST PUSH1 0x3 DUP2 GT ISZERO PUSH2 0x551 JUMPI PUSH2 0x551 PUSH2 0x247F JUMP JUMPDEST DUP2 MSTORE PUSH1 0x20 ADD PUSH1 0x1 DUP3 ADD DUP1 SLOAD PUSH2 0x565 SWAP1 PUSH2 0x2A2D JUMP JUMPDEST DUP1 PUSH1 0x1F ADD PUSH1 0x20 DUP1 SWAP2 DIV MUL PUSH1 0x20 ADD PUSH1 0x40 MLOAD SWAP1 DUP2 ADD PUSH1 0x40 MSTORE DUP1 SWAP3 SWAP2 SWAP1 DUP2 DUP2 MSTORE PUSH1 0x20 ADD DUP3 DUP1 SLOAD PUSH2 0x591 SWAP1 PUSH2 0x2A2D JUMP JUMPDEST DUP1 ISZERO PUSH2 0x5DE JUMPI DUP1 PUSH1 0x1F LT PUSH2 0x5B3 JUMPI PUSH2 0x100 DUP1 DUP4 SLOAD DIV MUL DUP4 MSTORE SWAP2 PUSH1 0x20 ADD SWAP2 PUSH2 0x5DE JUMP JUMPDEST DUP3 ADD SWAP2 SWAP1 PUSH1 0x0 MSTORE PUSH1 0x20 PUSH1 0x0 KECCAK256 SWAP1 JUMPDEST DUP2 SLOAD DUP2 MSTORE SWAP1 PUSH1 0x1 ADD SWAP1 PUSH1 0x20 ADD DUP1 DUP4 GT PUSH2 0x5C1 JUMPI DUP3 SWAP1 SUB PUSH1 0x1F AND DUP3 ADD SWAP2 JUMPDEST POP POP POP POP POP DUP2 MSTORE PUSH1 0x20 ADD PUSH1 0x2 DUP3 ADD DUP1 SLOAD PUSH2 0x5F7 SWAP1 PUSH2 0x2A2D JUMP JUMPDEST DUP1 PUSH1 0x1F ADD PUSH1 0x20 DUP1 SWAP2 DIV MUL PUSH1 0x20 ADD PUSH1 0x40 MLOAD SWAP1 DUP2 ADD PUSH1 0x40 MSTORE DUP1 SWAP3 SWAP2 SWAP1 DUP2 DUP2 MSTORE PUSH1 0x20 ADD DUP3 DUP1 SLOAD PUSH2 0x623 SWAP1 PUSH2 0x2A2D JUMP JUMPDEST DUP1 ISZERO PUSH2 0x670 JUMPI DUP1 PUSH1 0x1F LT PUSH2 0x645 JUMPI PUSH2 0x100 DUP1 DUP4 SLOAD DIV MUL DUP4 MSTORE SWAP2 PUSH1 0x20 ADD SWAP2 PUSH2 0x670 JUMP JUMPDEST DUP3 ADD SWAP2 SWAP1 PUSH1 0x0 MSTORE PUSH1 0x20 PUSH1 0x0 KECCAK256 SWAP1 JUMPDEST DUP2 SLOAD DUP2 MSTORE SWAP1 PUSH1 0x1 ADD SWAP1 PUSH1 0x20 ADD DUP1 DUP4 GT PUSH2 0x653 JUMPI DUP3 SWAP1 SUB PUSH1 0x1F AND DUP3 ADD SWAP2 JUMPDEST POP POP POP POP POP DUP2 MSTORE PUSH1 0x20 ADD PUSH1 0x3 DUP3 ADD SLOAD DUP2 MSTORE PUSH1 0x20 ADD PUSH1 0x4 DUP3 ADD DUP1 SLOAD PUSH2 0x693 SWAP1 PUSH2 0x2A2D JUMP JUMPDEST DUP1 PUSH1 0x1F ADD PUSH1 0x20 DUP1 SWAP2 DIV MUL PUSH1 0x20 ADD PUSH1 0x40 MLOAD SWAP1 DUP2 ADD PUSH1 0x40 MSTORE DUP1 SWAP3 SWAP2 SWAP1 DUP2 DUP2 MSTORE PUSH1 0x20 ADD DUP3 DUP1 SLOAD PUSH2 0x6BF SWAP1 PUSH2 0x2A2D JUMP JUMPDEST DUP1 ISZERO PUSH2 0x70C JUMPI DUP1 PUSH1 0x1F LT PUSH2 0x6E1 JUMPI PUSH2 0x100 DUP1 DUP4 SLOAD DIV MUL DUP4 MSTORE SWAP2 PUSH1 0x20 ADD SWAP2 PUSH2 0x70C JUMP JUMPDEST DUP3 ADD SWAP2 SWAP1 PUSH1 0x0 MSTORE PUSH1 0x20 PUSH1 0x0 KECCAK256 SWAP1 JUMPDEST DUP2 SLOAD DUP2 MSTORE SWAP1 PUSH1 0x1 ADD SWAP1 PUSH1 0x20 ADD DUP1 DUP4 GT PUSH2 0x6EF JUMPI DUP3 SWAP1 SUB PUSH1 0x1F AND DUP3 ADD SWAP2 JUMPDEST POP POP POP SWAP2 DUP4 MSTORE POP POP PUSH1 0x5 SWAP2 SWAP1 SWAP2 ADD SLOAD PUSH1 0x1 PUSH1 0x1 PUSH1 0xA0 SHL SUB AND PUSH1 0x20 SWAP2 DUP3 ADD MSTORE SWAP1 DUP3 MSTORE PUSH1 0x1 SWAP3 SWAP1 SWAP3 ADD SWAP2 ADD PUSH2 0x505 JUMP JUMPDEST POP POP POP POP SWAP1 POP PUSH1 0x0 DUP2 MLOAD GT PUSH2 0x77E JUMPI PUSH1 0x40 MLOAD PUSH3 0x461BCD PUSH1 0xE5 SHL DUP2 MSTORE PUSH1 0x20 PUSH1 0x4 DUP3 ADD MSTORE PUSH1 0xA PUSH1 0x24 DUP3 ADD MSTORE PUSH10 0x4E6F2075706461746573 PUSH1 0xB0 SHL PUSH1 0x44 DUP3 ADD MSTORE PUSH1 0x64 ADD PUSH2 0x328 JUMP JUMPDEST DUP1 PUSH1 0x1 DUP3 MLOAD PUSH2 0x78D SWAP2 SWAP1 PUSH2 0x2ABC JUMP JUMPDEST DUP2 MLOAD DUP2 LT PUSH2 0x79D JUMPI PUSH2 0x79D PUSH2 0x2ACF JUMP JUMPDEST PUSH1 0x20 MUL PUSH1 0x20 ADD ADD MLOAD SWAP3 POP POP JUMPDEST POP SWAP2 SWAP1 POP JUMP JUMPDEST PUSH1 0x60 DUP2 PUSH1 0x0 DUP2 PUSH1 0x40 MLOAD PUSH2 0x7C2 SWAP2 SWAP1 PUSH2 0x2A61 JUMP JUMPDEST SWAP1 DUP2 MSTORE PUSH1 0x40 MLOAD SWAP1 DUP2 SWAP1 SUB PUSH1 0x20 ADD SWAP1 KECCAK256 PUSH1 0x7 ADD SLOAD PUSH1 0xFF PUSH1 0x1 PUSH1 0xA0 SHL SWAP1 SWAP2 DIV AND PUSH2 0x7FC JUMPI PUSH1 0x40 MLOAD PUSH3 0x461BCD PUSH1 0xE5 SHL DUP2 MSTORE PUSH1 0x4 ADD PUSH2 0x328 SWAP1 PUSH2 0x2A7D JUMP JUMPDEST PUSH1 0x1 DUP4 PUSH1 0x40 MLOAD PUSH2 0x80C SWAP2 SWAP1 PUSH2 0x2A61 JUMP JUMPDEST SWAP1 DUP2 MSTORE PUSH1 0x20 ADD PUSH1 0x40 MLOAD DUP1 SWAP2 SUB SWAP1 KECCAK256 DUP1 SLOAD DUP1 PUSH1 0x20 MUL PUSH1 0x20 ADD PUSH1 0x40 MLOAD SWAP1 DUP2 ADD PUSH1 0x40 MSTORE DUP1 SWAP3 SWAP2 SWAP1 DUP2 DUP2 MSTORE PUSH1 0x20 ADD PUSH1 0x0 SWAP1 JUMPDEST DUP3 DUP3 LT ISZERO PUSH2 0xA6F JUMPI PUSH1 0x0 DUP5 DUP2 MSTORE PUSH1 0x20 SWAP1 KECCAK256 PUSH1 0x40 DUP1 MLOAD PUSH1 0xC0 DUP2 ADD SWAP1 SWAP2 MSTORE PUSH1 0x6 DUP5 MUL SWAP1 SWAP2 ADD DUP1 SLOAD DUP3 SWAP1 PUSH1 0xFF AND PUSH1 0x3 DUP2 GT ISZERO PUSH2 0x875 JUMPI PUSH2 0x875 PUSH2 0x247F JUMP JUMPDEST PUSH1 0x3 DUP2 GT ISZERO PUSH2 0x886 JUMPI PUSH2 0x886 PUSH2 0x247F JUMP JUMPDEST DUP2 MSTORE PUSH1 0x20 ADD PUSH1 0x1 DUP3 ADD DUP1 SLOAD PUSH2 0x89A SWAP1 PUSH2 0x2A2D JUMP JUMPDEST DUP1 PUSH1 0x1F ADD PUSH1 0x20 DUP1 SWAP2 DIV MUL PUSH1 0x20 ADD PUSH1 0x40 MLOAD SWAP1 DUP2 ADD PUSH1 0x40 MSTORE DUP1 SWAP3 SWAP2 SWAP1 DUP2 DUP2 MSTORE PUSH1 0x20 ADD DUP3 DUP1 SLOAD PUSH2 0x8C6 SWAP1 PUSH2 0x2A2D JUMP JUMPDEST DUP1 ISZERO PUSH2 0x913 JUMPI DUP1 PUSH1 0x1F LT PUSH2 0x8E8 JUMPI PUSH2 0x100 DUP1 DUP4 SLOAD DIV MUL DUP4 MSTORE SWAP2 PUSH1 0x20 ADD SWAP2 PUSH2 0x913 JUMP JUMPDEST DUP3 ADD SWAP2 SWAP1 PUSH1 0x0 MSTORE PUSH1 0x20 PUSH1 0x0 KECCAK256 SWAP1 JUMPDEST DUP2 SLOAD DUP2 MSTORE SWAP1 PUSH1 0x1 ADD SWAP1 PUSH1 0x20 ADD DUP1 DUP4 GT PUSH2 0x8F6 JUMPI DUP3 SWAP1 SUB PUSH1 0x1F AND DUP3 ADD SWAP2 JUMPDEST POP POP POP POP POP DUP2 MSTORE PUSH1 0x20 ADD PUSH1 0x2 DUP3 ADD DUP1 SLOAD PUSH2 0x92C SWAP1 PUSH2 0x2A2D JUMP JUMPDEST DUP1 PUSH1 0x1F ADD PUSH1 0x20 DUP1 SWAP2 DIV MUL PUSH1 0x20 ADD PUSH1 0x40 MLOAD SWAP1 DUP2 ADD PUSH1 0x40 MSTORE DUP1 SWAP3 SWAP2 SWAP1 DUP2 DUP2 MSTORE PUSH1 0x20 ADD DUP3 DUP1 SLOAD PUSH2 0x958 SWAP1 PUSH2 0x2A2D JUMP JUMPDEST DUP1 ISZERO PUSH2 0x9A5 JUMPI DUP1 PUSH1 0x1F LT PUSH2 0x97A JUMPI PUSH2 0x100 DUP1 DUP4 SLOAD DIV MUL DUP4 MSTORE SWAP2 PUSH1 0x20 ADD SWAP2 PUSH2 0x9A5 JUMP JUMPDEST DUP3 ADD SWAP2 SWAP1 PUSH1 0x0 MSTORE PUSH1 0x20 PUSH1 0x0 KECCAK256 SWAP1 JUMPDEST DUP2 SLOAD DUP2 MSTORE SWAP1 PUSH1 0x1 ADD SWAP1 PUSH1 0x20 ADD DUP1 DUP4 GT PUSH2 0x988 JUMPI DUP3 SWAP1 SUB PUSH1 0x1F AND DUP3 ADD SWAP2 JUMPDEST POP POP POP POP POP DUP2 MSTORE PUSH1 0x20 ADD PUSH1 0x3 DUP3 ADD SLOAD DUP2 MSTORE PUSH1 0x20 ADD PUSH1 0x4 DUP3 ADD DUP1 SLOAD PUSH2 0x9C8 SWAP1 PUSH2 0x2A2D JUMP JUMPDEST DUP1 PUSH1 0x1F ADD PUSH1 0x20 DUP1 SWAP2 DIV MUL PUSH1 0x20 ADD PUSH1 0x40 MLOAD SWAP1 DUP2 ADD PUSH1 0x40 MSTORE DUP1 SWAP3 SWAP2 SWAP1 DUP2 DUP2 MSTORE PUSH1 0x20 ADD DUP3 DUP1 SLOAD PUSH2 0x9F4 SWAP1 PUSH2 0x2A2D JUMP JUMPDEST DUP1 ISZERO PUSH2 0xA41 JUMPI DUP1 PUSH1 0x1F LT PUSH2 0xA16 JUMPI PUSH2 0x100 DUP1 DUP4 SLOAD DIV MUL DUP4 MSTORE SWAP2 PUSH1 0x20 ADD SWAP2 PUSH2 0xA41 JUMP JUMPDEST DUP3 ADD SWAP2 SWAP1 PUSH1 0x0 MSTORE PUSH1 0x20 PUSH1 0x0 KECCAK256 SWAP1 JUMPDEST DUP2 SLOAD DUP2 MSTORE SWAP1 PUSH1 0x1 ADD SWAP1 PUSH1 0x20 ADD DUP1 DUP4 GT PUSH2 0xA24 JUMPI DUP3 SWAP1 SUB PUSH1 0x1F AND DUP3 ADD SWAP2 JUMPDEST POP POP POP SWAP2 DUP4 MSTORE POP POP PUSH1 0x5 SWAP2 SWAP1 SWAP2 ADD SLOAD PUSH1 0x1 PUSH1 0x1 PUSH1 0xA0 SHL SUB AND PUSH1 0x20 SWAP2 DUP3 ADD MSTORE SWAP1 DUP3 MSTORE PUSH1 0x1 SWAP3 SWAP1 SWAP3 ADD SWAP2 ADD PUSH2 0x83A JUMP JUMPDEST POP POP POP POP SWAP2 POP POP SWAP2 SWAP1 POP JUMP JUMPDEST PUSH1 0x4 SLOAD PUSH1 0x1 PUSH1 0x1 PUSH1 0xA0 SHL SUB AND CALLER EQ PUSH2 0xAA5 JUMPI PUSH1 0x40 MLOAD PUSH3 0x461BCD PUSH1 0xE5 SHL DUP2 MSTORE PUSH1 0x4 ADD PUSH2 0x328 SWAP1 PUSH2 0x2A09 JUMP JUMPDEST DUP1 PUSH1 0x0 DUP2 PUSH1 0x40 MLOAD PUSH2 0xAB6 SWAP2 SWAP1 PUSH2 0x2A61 JUMP JUMPDEST SWAP1 DUP2 MSTORE PUSH1 0x40 MLOAD SWAP1 DUP2 SWAP1 SUB PUSH1 0x20 ADD SWAP1 KECCAK256 PUSH1 0x7 ADD SLOAD PUSH1 0xFF PUSH1 0x1 PUSH1 0xA0 SHL SWAP1 SWAP2 DIV AND PUSH2 0xAF0 JUMPI PUSH1 0x40 MLOAD PUSH3 0x461BCD PUSH1 0xE5 SHL DUP2 MSTORE PUSH1 0x4 ADD PUSH2 0x328 SWAP1 PUSH2 0x2A7D JUMP JUMPDEST PUSH1 0x1 PUSH1 0x0 DUP4 PUSH1 0x40 MLOAD PUSH2 0xB02 SWAP2 SWAP1 PUSH2 0x2A61 JUMP JUMPDEST SWAP1 DUP2 MSTORE PUSH1 0x40 MLOAD SWAP1 DUP2 SWAP1 SUB PUSH1 0x20 ADD DUP2 KECCAK256 PUSH1 0x7 ADD DUP1 SLOAD SWAP3 ISZERO ISZERO PUSH1 0x1 PUSH1 0xA8 SHL MUL PUSH1 0xFF PUSH1 0xA8 SHL NOT SWAP1 SWAP4 AND SWAP3 SWAP1 SWAP3 OR SWAP1 SWAP2 SSTORE CALLER SWAP1 PUSH2 0xB3C SWAP1 DUP5 SWAP1 PUSH2 0x2A61 JUMP JUMPDEST PUSH1 0x40 MLOAD SWAP1 DUP2 SWAP1 SUB DUP2 KECCAK256 SWAP1 PUSH32 0x423AE59B8825A6F0D6872201B0102D5BC3FF543CCA72DDF16D2E4D698FC9898B SWAP1 PUSH1 0x0 SWAP1 LOG3 POP POP JUMP JUMPDEST PUSH1 0x4 SLOAD PUSH1 0x1 PUSH1 0x1 PUSH1 0xA0 SHL SUB AND CALLER EQ PUSH2 0xB9A JUMPI PUSH1 0x40 MLOAD PUSH3 0x461BCD PUSH1 0xE5 SHL DUP2 MSTORE PUSH1 0x4 ADD PUSH2 0x328 SWAP1 PUSH2 0x2A09 JUMP JUMPDEST PUSH1 0x1 PUSH1 0x1 PUSH1 0xA0 SHL SUB DUP3 AND PUSH2 0xBE2 JUMPI PUSH1 0x40 MLOAD PUSH3 0x461BCD PUSH1 0xE5 SHL DUP2 MSTORE PUSH1 0x20 PUSH1 0x4 DUP3 ADD MSTORE PUSH1 0xF PUSH1 0x24 DUP3 ADD MSTORE PUSH15 0x496E76616C69642061646472657373 PUSH1 0x88 SHL PUSH1 0x44 DUP3 ADD MSTORE PUSH1 0x64 ADD PUSH2 0x328 JUMP JUMPDEST PUSH1 0x1 PUSH1 0x1 PUSH1 0xA0 SHL SUB DUP3 AND PUSH1 0x0 SWAP1 DUP2 MSTORE PUSH1 0x2 PUSH1 0x20 MSTORE PUSH1 0x40 SWAP1 KECCAK256 DUP1 SLOAD DUP3 SWAP2 SWAP1 PUSH1 0xFF NOT AND PUSH1 0x1 DUP4 PUSH1 0x5 DUP2 GT ISZERO PUSH2 0xC17 JUMPI PUSH2 0xC17 PUSH2 0x247F JUMP JUMPDEST MUL OR SWAP1 SSTORE POP DUP2 PUSH1 0x1 PUSH1 0x1 PUSH1 0xA0 SHL SUB AND PUSH32 0xC3F8F61911A1537261F77E2703626E158E299A98E341024ECAA26BBD1D884C64 DUP3 PUSH1 0x40 MLOAD PUSH2 0xC55 SWAP2 SWAP1 PUSH2 0x2760 JUMP JUMPDEST PUSH1 0x40 MLOAD DUP1 SWAP2 SUB SWAP1 LOG2 POP POP JUMP JUMPDEST DUP2 MLOAD PUSH1 0x20 DUP2 DUP5 ADD DUP2 ADD DUP1 MLOAD PUSH1 0x1 DUP3 MSTORE SWAP3 DUP3 ADD SWAP2 DUP6 ADD SWAP2 SWAP1 SWAP2 KECCAK256 SWAP2 SWAP1 MSTORE DUP1 SLOAD DUP3 SWAP1 DUP2 LT PUSH2 0xC8C JUMPI PUSH1 0x0 DUP1 REVERT JUMPDEST PUSH1 0x0 SWAP2 DUP3 MSTORE PUSH1 0x20 SWAP1 SWAP2 KECCAK256 PUSH1 0x6 SWAP1 SWAP2 MUL ADD DUP1 SLOAD PUSH1 0x1 DUP3 ADD DUP1 SLOAD PUSH1 0xFF SWAP1 SWAP3 AND SWAP5 POP SWAP2 SWAP3 POP PUSH2 0xCB7 SWAP1 PUSH2 0x2A2D JUMP JUMPDEST DUP1 PUSH1 0x1F ADD PUSH1 0x20 DUP1 SWAP2 DIV MUL PUSH1 0x20 ADD PUSH1 0x40 MLOAD SWAP1 DUP2 ADD PUSH1 0x40 MSTORE DUP1 SWAP3 SWAP2 SWAP1 DUP2 DUP2 MSTORE PUSH1 0x20 ADD DUP3 DUP1 SLOAD PUSH2 0xCE3 SWAP1 PUSH2 0x2A2D JUMP JUMPDEST DUP1 ISZERO PUSH2 0xD30 JUMPI DUP1 PUSH1 0x1F LT PUSH2 0xD05 JUMPI PUSH2 0x100 DUP1 DUP4 SLOAD DIV MUL DUP4 MSTORE SWAP2 PUSH1 0x20 ADD SWAP2 PUSH2 0xD30 JUMP JUMPDEST DUP3 ADD SWAP2 SWAP1 PUSH1 0x0 MSTORE PUSH1 0x20 PUSH1 0x0 KECCAK256 SWAP1 JUMPDEST DUP2 SLOAD DUP2 MSTORE SWAP1 PUSH1 0x1 ADD SWAP1 PUSH1 0x20 ADD DUP1 DUP4 GT PUSH2 0xD13 JUMPI DUP3 SWAP1 SUB PUSH1 0x1F AND DUP3 ADD SWAP2 JUMPDEST POP POP POP POP POP SWAP1 DUP1 PUSH1 0x2 ADD DUP1 SLOAD PUSH2 0xD45 SWAP1 PUSH2 0x2A2D JUMP JUMPDEST DUP1 PUSH1 0x1F ADD PUSH1 0x20 DUP1 SWAP2 DIV MUL PUSH1 0x20 ADD PUSH1 0x40 MLOAD SWAP1 DUP2 ADD PUSH1 0x40 MSTORE DUP1 SWAP3 SWAP2 SWAP1 DUP2 DUP2 MSTORE PUSH1 0x20 ADD DUP3 DUP1 SLOAD PUSH2 0xD71 SWAP1 PUSH2 0x2A2D JUMP JUMPDEST DUP1 ISZERO PUSH2 0xDBE JUMPI DUP1 PUSH1 0x1F LT PUSH2 0xD93 JUMPI PUSH2 0x100 DUP1 DUP4 SLOAD DIV MUL DUP4 MSTORE SWAP2 PUSH1 0x20 ADD SWAP2 PUSH2 0xDBE JUMP JUMPDEST DUP3 ADD SWAP2 SWAP1 PUSH1 0x0 MSTORE PUSH1 0x20 PUSH1 0x0 KECCAK256 SWAP1 JUMPDEST DUP2 SLOAD DUP2 MSTORE SWAP1 PUSH1 0x1 ADD SWAP1 PUSH1 0x20 ADD DUP1 DUP4 GT PUSH2 0xDA1 JUMPI DUP3 SWAP1 SUB PUSH1 0x1F AND DUP3 ADD SWAP2 JUMPDEST POP POP POP POP POP SWAP1 DUP1 PUSH1 0x3 ADD SLOAD SWAP1 DUP1 PUSH1 0x4 ADD DUP1 SLOAD PUSH2 0xDD9 SWAP1 PUSH2 0x2A2D JUMP JUMPDEST DUP1 PUSH1 0x1F ADD PUSH1 0x20 DUP1 SWAP2 DIV MUL PUSH1 0x20 ADD PUSH1 0x40 MLOAD SWAP1 DUP2 ADD PUSH1 0x40 MSTORE DUP1 SWAP3 SWAP2 SWAP1 DUP2 DUP2 MSTORE PUSH1 0x20 ADD DUP3 DUP1 SLOAD PUSH2 0xE05 SWAP1 PUSH2 0x2A2D JUMP JUMPDEST DUP1 ISZERO PUSH2 0xE52 JUMPI DUP1 PUSH1 0x1F LT PUSH2 0xE27 JUMPI PUSH2 0x100 DUP1 DUP4 SLOAD DIV MUL DUP4 MSTORE SWAP2 PUSH1 0x20 ADD SWAP2 PUSH2 0xE52 JUMP JUMPDEST DUP3 ADD SWAP2 SWAP1 PUSH1 0x0 MSTORE PUSH1 0x20 PUSH1 0x0 KECCAK256 SWAP1 JUMPDEST DUP2 SLOAD DUP2 MSTORE SWAP1 PUSH1 0x1 ADD SWAP1 PUSH1 0x20 ADD DUP1 DUP4 GT PUSH2 0xE35 JUMPI DUP3 SWAP1 SUB PUSH1 0x1F AND DUP3 ADD SWAP2 JUMPDEST POP POP POP PUSH1 0x5 SWAP1 SWAP4 ADD SLOAD SWAP2 SWAP3 POP POP PUSH1 0x1 PUSH1 0x1 PUSH1 0xA0 SHL SUB AND DUP7 JUMP JUMPDEST DUP1 MLOAD PUSH1 0x20 DUP2 DUP4 ADD DUP2 ADD DUP1 MLOAD PUSH1 0x0 DUP3 MSTORE SWAP3 DUP3 ADD SWAP2 SWAP1 SWAP4 ADD KECCAK256 SWAP2 MSTORE DUP1 SLOAD DUP2 SWAP1 PUSH2 0xE91 SWAP1 PUSH2 0x2A2D JUMP JUMPDEST DUP1 PUSH1 0x1F ADD PUSH1 0x20 DUP1 SWAP2 DIV MUL PUSH1 0x20 ADD PUSH1 0x40 MLOAD SWAP1 DUP2 ADD PUSH1 0x40 MSTORE DUP1 SWAP3 SWAP2 SWAP1 DUP2 DUP2 MSTORE PUSH1 0x20 ADD DUP3 DUP1 SLOAD PUSH2 0xEBD SWAP1 PUSH2 0x2A2D JUMP JUMPDEST DUP1 ISZERO PUSH2 0xF0A JUMPI DUP1 PUSH1 0x1F LT PUSH2 0xEDF JUMPI PUSH2 0x100 DUP1 DUP4 SLOAD DIV MUL DUP4 MSTORE SWAP2 PUSH1 0x20 ADD SWAP2 PUSH2 0xF0A JUMP JUMPDEST DUP3 ADD SWAP2 SWAP1 PUSH1 0x0 MSTORE PUSH1 0x20 PUSH1 0x0 KECCAK256 SWAP1 JUMPDEST DUP2 SLOAD DUP2 MSTORE SWAP1 PUSH1 0x1 ADD SWAP1 PUSH1 0x20 ADD DUP1 DUP4 GT PUSH2 0xEED JUMPI DUP3 SWAP1 SUB PUSH1 0x1F AND DUP3 ADD SWAP2 JUMPDEST POP POP POP POP POP SWAP1 DUP1 PUSH1 0x1 ADD DUP1 SLOAD PUSH2 0xF1F SWAP1 PUSH2 0x2A2D JUMP JUMPDEST DUP1 PUSH1 0x1F ADD PUSH1 0x20 DUP1 SWAP2 DIV MUL PUSH1 0x20 ADD PUSH1 0x40 MLOAD SWAP1 DUP2 ADD PUSH1 0x40 MSTORE DUP1 SWAP3 SWAP2 SWAP1 DUP2 DUP2 MSTORE PUSH1 0x20 ADD DUP3 DUP1 SLOAD PUSH2 0xF4B SWAP1 PUSH2 0x2A2D JUMP JUMPDEST DUP1 ISZERO PUSH2 0xF98 JUMPI DUP1 PUSH1 0x1F LT PUSH2 0xF6D JUMPI PUSH2 0x100 DUP1 DUP4 SLOAD DIV MUL DUP4 MSTORE SWAP2 PUSH1 0x20 ADD SWAP2 PUSH2 0xF98 JUMP JUMPDEST DUP3 ADD SWAP2 SWAP1 PUSH1 0x0 MSTORE PUSH1 0x20 PUSH1 0x0 KECCAK256 SWAP1 JUMPDEST DUP2 SLOAD DUP2 MSTORE SWAP1 PUSH1 0x1 ADD SWAP1 PUSH1 0x20 ADD DUP1 DUP4 GT PUSH2 0xF7B JUMPI DUP3 SWAP1 SUB PUSH1 0x1F AND DUP3 ADD SWAP2 JUMPDEST POP POP POP POP POP SWAP1 DUP1 PUSH1 0x2 ADD DUP1 SLOAD PUSH2 0xFAD SWAP1 PUSH2 0x2A2D JUMP JUMPDEST DUP1 PUSH1 0x1F ADD PUSH1 0x20 DUP1 SWAP2 DIV MUL PUSH1 0x20 ADD PUSH1 0x40 MLOAD SWAP1 DUP2 ADD PUSH1 0x40 MSTORE DUP1 SWAP3 SWAP2 SWAP1 DUP2 DUP2 MSTORE PUSH1 0x20 ADD DUP3 DUP1 SLOAD PUSH2 0xFD9 SWAP1 PUSH2 0x2A2D JUMP JUMPDEST DUP1 ISZERO PUSH2 0x1026 JUMPI DUP1 PUSH1 0x1F LT PUSH2 0xFFB JUMPI PUSH2 0x100 DUP1 DUP4 SLOAD DIV MUL DUP4 MSTORE SWAP2 PUSH1 0x20 ADD SWAP2 PUSH2 0x1026 JUMP JUMPDEST DUP3 ADD SWAP2 SWAP1 PUSH1 0x0 MSTORE PUSH1 0x20 PUSH1 0x0 KECCAK256 SWAP1 JUMPDEST DUP2 SLOAD DUP2 MSTORE SWAP1 PUSH1 0x1 ADD SWAP1 PUSH1 0x20 ADD DUP1 DUP4 GT PUSH2 0x1009 JUMPI DUP3 SWAP1 SUB PUSH1 0x1F AND DUP3 ADD SWAP2 JUMPDEST POP POP POP POP POP SWAP1 DUP1 PUSH1 0x3 ADD DUP1 SLOAD PUSH2 0x103B SWAP1 PUSH2 0x2A2D JUMP JUMPDEST DUP1 PUSH1 0x1F ADD PUSH1 0x20 DUP1 SWAP2 DIV MUL PUSH1 0x20 ADD PUSH1 0x40 MLOAD SWAP1 DUP2 ADD PUSH1 0x40 MSTORE DUP1 SWAP3 SWAP2 SWAP1 DUP2 DUP2 MSTORE PUSH1 0x20 ADD DUP3 DUP1 SLOAD PUSH2 0x1067 SWAP1 PUSH2 0x2A2D JUMP JUMPDEST DUP1 ISZERO PUSH2 0x10B4 JUMPI DUP1 PUSH1 0x1F LT PUSH2 0x1089 JUMPI PUSH2 0x100 DUP1 DUP4 SLOAD DIV MUL DUP4 MSTORE SWAP2 PUSH1 0x20 ADD SWAP2 PUSH2 0x10B4 JUMP JUMPDEST DUP3 ADD SWAP2 SWAP1 PUSH1 0x0 MSTORE PUSH1 0x20 PUSH1 0x0 KECCAK256 SWAP1 JUMPDEST DUP2 SLOAD DUP2 MSTORE SWAP1 PUSH1 0x1 ADD SWAP1 PUSH1 0x20 ADD DUP1 DUP4 GT PUSH2 0x1097 JUMPI DUP3 SWAP1 SUB PUSH1 0x1F AND DUP3 ADD SWAP2 JUMPDEST POP POP POP POP POP SWAP1 DUP1 PUSH1 0x4 ADD DUP1 SLOAD PUSH2 0x10C9 SWAP1 PUSH2 0x2A2D JUMP JUMPDEST DUP1 PUSH1 0x1F ADD PUSH1 0x20 DUP1 SWAP2 DIV MUL PUSH1 0x20 ADD PUSH1 0x40 MLOAD SWAP1 DUP2 ADD PUSH1 0x40 MSTORE DUP1 SWAP3 SWAP2 SWAP1 DUP2 DUP2 MSTORE PUSH1 0x20 ADD DUP3 DUP1 SLOAD PUSH2 0x10F5 SWAP1 PUSH2 0x2A2D JUMP JUMPDEST DUP1 ISZERO PUSH2 0x1142 JUMPI DUP1 PUSH1 0x1F LT PUSH2 0x1117 JUMPI PUSH2 0x100 DUP1 DUP4 SLOAD DIV MUL DUP4 MSTORE SWAP2 PUSH1 0x20 ADD SWAP2 PUSH2 0x1142 JUMP JUMPDEST DUP3 ADD SWAP2 SWAP1 PUSH1 0x0 MSTORE PUSH1 0x20 PUSH1 0x0 KECCAK256 SWAP1 JUMPDEST DUP2 SLOAD DUP2 MSTORE SWAP1 PUSH1 0x1 ADD SWAP1 PUSH1 0x20 ADD DUP1 DUP4 GT PUSH2 0x1125 JUMPI DUP3 SWAP1 SUB PUSH1 0x1F AND DUP3 ADD SWAP2 JUMPDEST POP POP POP PUSH1 0x5 DUP5 ADD SLOAD PUSH1 0x6 DUP6 ADD SLOAD PUSH1 0x7 SWAP1 SWAP6 ADD SLOAD SWAP4 SWAP5 SWAP1 SWAP4 SWAP1 SWAP3 POP PUSH1 0x1 PUSH1 0x1 PUSH1 0xA0 SHL SUB DUP2 AND SWAP2 POP PUSH1 0xFF PUSH1 0x1 PUSH1 0xA0 SHL DUP3 DIV DUP2 AND SWAP2 PUSH1 0x1 PUSH1 0xA8 SHL SWAP1 DIV AND DUP11 JUMP JUMPDEST PUSH1 0x3 SLOAD PUSH1 0x60 SWAP1 DUP3 LT PUSH2 0x11C3 JUMPI PUSH1 0x40 MLOAD PUSH3 0x461BCD PUSH1 0xE5 SHL DUP2 MSTORE PUSH1 0x20 PUSH1 0x4 DUP3 ADD MSTORE PUSH1 0xD PUSH1 0x24 DUP3 ADD MSTORE PUSH13 0x4F7574206F6620626F756E6473 PUSH1 0x98 SHL PUSH1 0x44 DUP3 ADD MSTORE PUSH1 0x64 ADD PUSH2 0x328 JUMP JUMPDEST PUSH1 0x3 DUP3 DUP2 SLOAD DUP2 LT PUSH2 0x11D6 JUMPI PUSH2 0x11D6 PUSH2 0x2ACF JUMP JUMPDEST SWAP1 PUSH1 0x0 MSTORE PUSH1 0x20 PUSH1 0x0 KECCAK256 ADD DUP1 SLOAD PUSH2 0x11EB SWAP1 PUSH2 0x2A2D JUMP JUMPDEST DUP1 PUSH1 0x1F ADD PUSH1 0x20 DUP1 SWAP2 DIV MUL PUSH1 0x20 ADD PUSH1 0x40 MLOAD SWAP1 DUP2 ADD PUSH1 0x40 MSTORE DUP1 SWAP3 SWAP2 SWAP1 DUP2 DUP2 MSTORE PUSH1 0x20 ADD DUP3 DUP1 SLOAD PUSH2 0x1217 SWAP1 PUSH2 0x2A2D JUMP JUMPDEST DUP1 ISZERO PUSH2 0x1264 JUMPI DUP1 PUSH1 0x1F LT PUSH2 0x1239 JUMPI PUSH2 0x100 DUP1 DUP4 SLOAD DIV MUL DUP4 MSTORE SWAP2 PUSH1 0x20 ADD SWAP2 PUSH2 0x1264 JUMP JUMPDEST DUP3 ADD SWAP2 SWAP1 PUSH1 0x0 MSTORE PUSH1 0x20 PUSH1 0x0 KECCAK256 SWAP1 JUMPDEST DUP2 SLOAD DUP2 MSTORE SWAP1 PUSH1 0x1 ADD SWAP1 PUSH1 0x20 ADD DUP1 DUP4 GT PUSH2 0x1247 JUMPI DUP3 SWAP1 SUB PUSH1 0x1F AND DUP3 ADD SWAP2 JUMPDEST POP POP POP POP POP SWAP1 POP SWAP2 SWAP1 POP JUMP JUMPDEST CALLER PUSH1 0x0 SWAP1 DUP2 MSTORE PUSH1 0x2 PUSH1 0x20 MSTORE PUSH1 0x40 DUP2 KECCAK256 SLOAD PUSH1 0xFF AND PUSH1 0x5 DUP2 GT ISZERO PUSH2 0x1294 JUMPI PUSH2 0x1294 PUSH2 0x247F JUMP JUMPDEST SUB PUSH2 0x12D2 JUMPI PUSH1 0x40 MLOAD PUSH3 0x461BCD PUSH1 0xE5 SHL DUP2 MSTORE PUSH1 0x20 PUSH1 0x4 DUP3 ADD MSTORE PUSH1 0xE PUSH1 0x24 DUP3 ADD MSTORE PUSH14 0x139BDD08185D5D1A1BDC9A5E9959 PUSH1 0x92 SHL PUSH1 0x44 DUP3 ADD MSTORE PUSH1 0x64 ADD PUSH2 0x328 JUMP JUMPDEST PUSH1 0x4 SLOAD PUSH1 0x1 PUSH1 0xA0 SHL SWAP1 DIV PUSH1 0xFF AND ISZERO PUSH2 0x131E JUMPI PUSH1 0x40 MLOAD PUSH3 0x461BCD PUSH1 0xE5 SHL DUP2 MSTORE PUSH1 0x20 PUSH1 0x4 DUP3 ADD MSTORE PUSH1 0xF PUSH1 0x24 DUP3 ADD MSTORE PUSH15 0x10DBDB9D1C9858DD081C185D5CD959 PUSH1 0x8A SHL PUSH1 0x44 DUP3 ADD MSTORE PUSH1 0x64 ADD PUSH2 0x328 JUMP JUMPDEST PUSH1 0x0 DUP7 PUSH1 0x40 MLOAD PUSH2 0x132E SWAP2 SWAP1 PUSH2 0x2A61 JUMP JUMPDEST SWAP1 DUP2 MSTORE PUSH1 0x40 MLOAD SWAP1 DUP2 SWAP1 SUB PUSH1 0x20 ADD SWAP1 KECCAK256 PUSH1 0x7 ADD SLOAD PUSH1 0xFF PUSH1 0x1 PUSH1 0xA0 SHL SWAP1 SWAP2 DIV AND ISZERO PUSH2 0x1390 JUMPI PUSH1 0x40 MLOAD PUSH3 0x461BCD PUSH1 0xE5 SHL DUP2 MSTORE PUSH1 0x20 PUSH1 0x4 DUP3 ADD MSTORE PUSH1 0x14 PUSH1 0x24 DUP3 ADD MSTORE PUSH20 0x426174636820616C726561647920657869737473 PUSH1 0x60 SHL PUSH1 0x44 DUP3 ADD MSTORE PUSH1 0x64 ADD PUSH2 0x328 JUMP JUMPDEST PUSH1 0x0 DUP7 MLOAD GT PUSH2 0x13E1 JUMPI PUSH1 0x40 MLOAD PUSH3 0x461BCD PUSH1 0xE5 SHL DUP2 MSTORE PUSH1 0x20 PUSH1 0x4 DUP3 ADD MSTORE PUSH1 0x18 PUSH1 0x24 DUP3 ADD MSTORE PUSH32 0x42617463682049442063616E6E6F7420626520656D7074790000000000000000 PUSH1 0x44 DUP3 ADD MSTORE PUSH1 0x64 ADD PUSH2 0x328 JUMP JUMPDEST PUSH1 0x0 DUP5 MLOAD GT PUSH2 0x1432 JUMPI PUSH1 0x40 MLOAD PUSH3 0x461BCD PUSH1 0xE5 SHL DUP2 MSTORE PUSH1 0x20 PUSH1 0x4 DUP3 ADD MSTORE PUSH1 0x1B PUSH1 0x24 DUP3 ADD MSTORE PUSH32 0x4661726D6572206E616D652063616E6E6F7420626520656D7074790000000000 PUSH1 0x44 DUP3 ADD MSTORE PUSH1 0x64 ADD PUSH2 0x328 JUMP JUMPDEST PUSH1 0x0 DUP2 GT PUSH2 0x1482 JUMPI PUSH1 0x40 MLOAD PUSH3 0x461BCD PUSH1 0xE5 SHL DUP2 MSTORE PUSH1 0x20 PUSH1 0x4 DUP3 ADD MSTORE PUSH1 0x1F PUSH1 0x24 DUP3 ADD MSTORE PUSH32 0x5175616E74697479206D7573742062652067726561746572207468616E203000 PUSH1 0x44 DUP3 ADD MSTORE PUSH1 0x64 ADD PUSH2 0x328 JUMP JUMPDEST PUSH1 0x1 CALLER PUSH1 0x0 SWAP1 DUP2 MSTORE PUSH1 0x2 PUSH1 0x20 MSTORE PUSH1 0x40 SWAP1 KECCAK256 SLOAD PUSH1 0xFF AND PUSH1 0x5 DUP2 GT ISZERO PUSH2 0x14A8 JUMPI PUSH2 0x14A8 PUSH2 0x247F JUMP JUMPDEST EQ DUP1 PUSH2 0x14D7 JUMPI POP PUSH1 0x5 CALLER PUSH1 0x0 SWAP1 DUP2 MSTORE PUSH1 0x2 PUSH1 0x20 MSTORE PUSH1 0x40 SWAP1 KECCAK256 SLOAD PUSH1 0xFF AND PUSH1 0x5 DUP2 GT ISZERO PUSH2 0x14D5 JUMPI PUSH2 0x14D5 PUSH2 0x247F JUMP JUMPDEST EQ JUMPDEST PUSH2 0x1523 JUMPI PUSH1 0x40 MLOAD PUSH3 0x461BCD PUSH1 0xE5 SHL DUP2 MSTORE PUSH1 0x20 PUSH1 0x4 DUP3 ADD MSTORE PUSH1 0x1F PUSH1 0x24 DUP3 ADD MSTORE PUSH32 0x4F6E6C79206661726D6572732063616E20637265617465206261746368657300 PUSH1 0x44 DUP3 ADD MSTORE PUSH1 0x64 ADD PUSH2 0x328 JUMP JUMPDEST PUSH1 0x40 MLOAD DUP1 PUSH2 0x140 ADD PUSH1 0x40 MSTORE DUP1 DUP8 DUP2 MSTORE PUSH1 0x20 ADD DUP7 DUP2 MSTORE PUSH1 0x20 ADD DUP6 DUP2 MSTORE PUSH1 0x20 ADD DUP5 DUP2 MSTORE PUSH1 0x20 ADD DUP4 DUP2 MSTORE PUSH1 0x20 ADD DUP3 DUP2 MSTORE PUSH1 0x20 ADD TIMESTAMP DUP2 MSTORE PUSH1 0x20 ADD CALLER PUSH1 0x1 PUSH1 0x1 PUSH1 0xA0 SHL SUB AND DUP2 MSTORE PUSH1 0x20 ADD PUSH1 0x1 ISZERO ISZERO DUP2 MSTORE PUSH1 0x20 ADD PUSH1 0x0 ISZERO ISZERO DUP2 MSTORE POP PUSH1 0x0 DUP8 PUSH1 0x40 MLOAD PUSH2 0x1588 SWAP2 SWAP1 PUSH2 0x2A61 JUMP JUMPDEST SWAP1 DUP2 MSTORE PUSH1 0x40 MLOAD SWAP1 DUP2 SWAP1 SUB PUSH1 0x20 ADD SWAP1 KECCAK256 DUP2 MLOAD DUP2 SWAP1 PUSH2 0x15A5 SWAP1 DUP3 PUSH2 0x2B34 JUMP JUMPDEST POP PUSH1 0x20 DUP3 ADD MLOAD PUSH1 0x1 DUP3 ADD SWAP1 PUSH2 0x15BA SWAP1 DUP3 PUSH2 0x2B34 JUMP JUMPDEST POP PUSH1 0x40 DUP3 ADD MLOAD PUSH1 0x2 DUP3 ADD SWAP1 PUSH2 0x15CF SWAP1 DUP3 PUSH2 0x2B34 JUMP JUMPDEST POP PUSH1 0x60 DUP3 ADD MLOAD PUSH1 0x3 DUP3 ADD SWAP1 PUSH2 0x15E4 SWAP1 DUP3 PUSH2 0x2B34 JUMP JUMPDEST POP PUSH1 0x80 DUP3 ADD MLOAD PUSH1 0x4 DUP3 ADD SWAP1 PUSH2 0x15F9 SWAP1 DUP3 PUSH2 0x2B34 JUMP JUMPDEST POP PUSH1 0xA0 DUP3 ADD MLOAD PUSH1 0x5 DUP3 ADD SSTORE PUSH1 0xC0 DUP3 ADD MLOAD PUSH1 0x6 DUP3 ADD SSTORE PUSH1 0xE0 DUP3 ADD MLOAD PUSH1 0x7 SWAP1 SWAP2 ADD DUP1 SLOAD PUSH2 0x100 DUP5 ADD MLOAD PUSH2 0x120 SWAP1 SWAP5 ADD MLOAD ISZERO ISZERO PUSH1 0x1 PUSH1 0xA8 SHL MUL PUSH1 0xFF PUSH1 0xA8 SHL NOT SWAP5 ISZERO ISZERO PUSH1 0x1 PUSH1 0xA0 SHL MUL PUSH1 0x1 PUSH1 0x1 PUSH1 0xA8 SHL SUB NOT SWAP1 SWAP3 AND PUSH1 0x1 PUSH1 0x1 PUSH1 0xA0 SHL SUB SWAP1 SWAP5 AND SWAP4 SWAP1 SWAP4 OR OR SWAP3 SWAP1 SWAP3 AND OR SWAP1 SSTORE PUSH1 0x40 MLOAD PUSH1 0x1 SWAP1 PUSH2 0x1672 SWAP1 DUP9 SWAP1 PUSH2 0x2A61 JUMP JUMPDEST SWAP1 DUP2 MSTORE PUSH1 0x40 DUP1 MLOAD SWAP2 DUP3 SWAP1 SUB PUSH1 0x20 SWAP1 DUP2 ADD DUP4 KECCAK256 PUSH1 0xC0 DUP5 ADD DUP4 MSTORE PUSH1 0x0 DUP1 DUP6 MSTORE DUP3 DUP6 ADD DUP10 SWAP1 MSTORE DUP5 DUP5 ADD DUP8 SWAP1 MSTORE TIMESTAMP PUSH1 0x60 DUP7 ADD MSTORE DUP4 MLOAD DUP1 DUP6 ADD SWAP1 SWAP5 MSTORE PUSH1 0xF DUP5 MSTORE PUSH15 0x125B9A5D1A585B081A185C9D995CDD PUSH1 0x8A SHL DUP5 DUP5 ADD MSTORE PUSH1 0x80 DUP6 ADD SWAP4 SWAP1 SWAP4 MSTORE CALLER PUSH1 0xA0 DUP6 ADD MSTORE DUP1 SLOAD PUSH1 0x1 DUP1 DUP3 ADD DUP4 SSTORE SWAP2 DUP5 MSTORE SWAP2 SWAP1 SWAP3 KECCAK256 DUP4 MLOAD PUSH1 0x6 SWAP1 SWAP3 MUL ADD DUP1 SLOAD SWAP1 SWAP3 DUP4 SWAP2 PUSH1 0xFF NOT AND SWAP1 DUP4 PUSH1 0x3 DUP2 GT ISZERO PUSH2 0x1707 JUMPI PUSH2 0x1707 PUSH2 0x247F JUMP JUMPDEST MUL OR SWAP1 SSTORE POP PUSH1 0x20 DUP3 ADD MLOAD PUSH1 0x1 DUP3 ADD SWAP1 PUSH2 0x1720 SWAP1 DUP3 PUSH2 0x2B34 JUMP JUMPDEST POP PUSH1 0x40 DUP3 ADD MLOAD PUSH1 0x2 DUP3 ADD SWAP1 PUSH2 0x1735 SWAP1 DUP3 PUSH2 0x2B34 JUMP JUMPDEST POP PUSH1 0x60 DUP3 ADD MLOAD PUSH1 0x3 DUP3 ADD SSTORE PUSH1 0x80 DUP3 ADD MLOAD PUSH1 0x4 DUP3 ADD SWAP1 PUSH2 0x1754 SWAP1 DUP3 PUSH2 0x2B34 JUMP JUMPDEST POP PUSH1 0xA0 SWAP2 SWAP1 SWAP2 ADD MLOAD PUSH1 0x5 SWAP1 SWAP2 ADD DUP1 SLOAD PUSH1 0x1 PUSH1 0x1 PUSH1 0xA0 SHL SUB NOT AND PUSH1 0x1 PUSH1 0x1 PUSH1 0xA0 SHL SUB SWAP1 SWAP3 AND SWAP2 SWAP1 SWAP2 OR SWAP1 SSTORE PUSH1 0x3 DUP1 SLOAD PUSH1 0x1 DUP2 ADD DUP3 SSTORE PUSH1 0x0 SWAP2 SWAP1 SWAP2 MSTORE PUSH32 0xC2575A0E9E593C00F959F8C92F12DB2869C3395A3B0502D05E2516446F71F85B ADD PUSH2 0x17BA DUP8 DUP3 PUSH2 0x2B34 JUMP JUMPDEST POP PUSH1 0x40 MLOAD CALLER SWAP1 PUSH2 0x17CB SWAP1 DUP9 SWAP1 PUSH2 0x2A61 JUMP JUMPDEST PUSH1 0x40 MLOAD DUP1 SWAP2 SUB SWAP1 KECCAK256 PUSH32 0x36FDDECA3B99D4655E76FF3EB699CBFF3F16F4A5123824CDAA040880AB7E78EF DUP8 DUP5 PUSH1 0x40 MLOAD PUSH2 0x1804 SWAP3 SWAP2 SWAP1 PUSH2 0x2BF4 JUMP JUMPDEST PUSH1 0x40 MLOAD DUP1 SWAP2 SUB SWAP1 LOG3 POP POP POP POP POP POP JUMP JUMPDEST CALLER PUSH1 0x0 SWAP1 DUP2 MSTORE PUSH1 0x2 PUSH1 0x20 MSTORE PUSH1 0x40 DUP2 KECCAK256 SLOAD PUSH1 0xFF AND PUSH1 0x5 DUP2 GT ISZERO PUSH2 0x1838 JUMPI PUSH2 0x1838 PUSH2 0x247F JUMP JUMPDEST SUB PUSH2 0x1876 JUMPI PUSH1 0x40 MLOAD PUSH3 0x461BCD PUSH1 0xE5 SHL DUP2 MSTORE PUSH1 0x20 PUSH1 0x4 DUP3 ADD MSTORE PUSH1 0xE PUSH1 0x24 DUP3 ADD MSTORE PUSH14 0x139BDD08185D5D1A1BDC9A5E9959 PUSH1 0x92 SHL PUSH1 0x44 DUP3 ADD MSTORE PUSH1 0x64 ADD PUSH2 0x328 JUMP JUMPDEST DUP5 PUSH1 0x0 DUP2 PUSH1 0x40 MLOAD PUSH2 0x1887 SWAP2 SWAP1 PUSH2 0x2A61 JUMP JUMPDEST SWAP1 DUP2 MSTORE PUSH1 0x40 MLOAD SWAP1 DUP2 SWAP1 SUB PUSH1 0x20 ADD SWAP1 KECCAK256 PUSH1 0x7 ADD SLOAD PUSH1 0xFF PUSH1 0x1 PUSH1 0xA0 SHL SWAP1 SWAP2 DIV AND PUSH2 0x18C1 JUMPI PUSH1 0x40 MLOAD PUSH3 0x461BCD PUSH1 0xE5 SHL DUP2 MSTORE PUSH1 0x4 ADD PUSH2 0x328 SWAP1 PUSH2 0x2A7D JUMP JUMPDEST PUSH1 0x0 DUP7 PUSH1 0x40 MLOAD PUSH2 0x18D1 SWAP2 SWAP1 PUSH2 0x2A61 JUMP JUMPDEST SWAP1 DUP2 MSTORE PUSH1 0x40 MLOAD SWAP1 DUP2 SWAP1 SUB PUSH1 0x20 ADD SWAP1 KECCAK256 PUSH1 0x7 ADD SLOAD PUSH1 0xFF PUSH1 0x1 PUSH1 0xA8 SHL SWAP1 SWAP2 DIV AND ISZERO PUSH2 0x1930 JUMPI PUSH1 0x40 MLOAD PUSH3 0x461BCD PUSH1 0xE5 SHL DUP2 MSTORE PUSH1 0x20 PUSH1 0x4 DUP3 ADD MSTORE PUSH1 0x11 PUSH1 0x24 DUP3 ADD MSTORE PUSH17 0x10985D18DA081A5CC81C9958D85B1B1959 PUSH1 0x7A SHL PUSH1 0x44 DUP3 ADD MSTORE PUSH1 0x64 ADD PUSH2 0x328 JUMP JUMPDEST PUSH1 0x0 DUP5 MLOAD GT PUSH2 0x1981 JUMPI PUSH1 0x40 MLOAD PUSH3 0x461BCD PUSH1 0xE5 SHL DUP2 MSTORE PUSH1 0x20 PUSH1 0x4 DUP3 ADD MSTORE PUSH1 0x1A PUSH1 0x24 DUP3 ADD MSTORE PUSH32 0x4163746F72206E616D652063616E6E6F7420626520656D707479000000000000 PUSH1 0x44 DUP3 ADD MSTORE PUSH1 0x64 ADD PUSH2 0x328 JUMP JUMPDEST PUSH1 0x0 DUP4 MLOAD GT PUSH2 0x19D2 JUMPI PUSH1 0x40 MLOAD PUSH3 0x461BCD PUSH1 0xE5 SHL DUP2 MSTORE PUSH1 0x20 PUSH1 0x4 DUP3 ADD MSTORE PUSH1 0x18 PUSH1 0x24 DUP3 ADD MSTORE PUSH32 0x4C6F636174696F6E2063616E6E6F7420626520656D7074790000000000000000 PUSH1 0x44 DUP3 ADD MSTORE PUSH1 0x64 ADD PUSH2 0x328 JUMP JUMPDEST CALLER PUSH1 0x0 SWAP1 DUP2 MSTORE PUSH1 0x2 PUSH1 0x20 MSTORE PUSH1 0x40 SWAP1 KECCAK256 SLOAD PUSH2 0x19F0 SWAP1 DUP7 SWAP1 PUSH1 0xFF AND PUSH2 0x20E0 JUMP JUMPDEST PUSH2 0x1A47 JUMPI PUSH1 0x40 MLOAD PUSH3 0x461BCD PUSH1 0xE5 SHL DUP2 MSTORE PUSH1 0x20 PUSH1 0x4 DUP3 ADD MSTORE PUSH1 0x22 PUSH1 0x24 DUP3 ADD MSTORE PUSH32 0x526F6C65206E6F7420617574686F72697A656420666F72207468697320737461 PUSH1 0x44 DUP3 ADD MSTORE PUSH2 0x6765 PUSH1 0xF0 SHL PUSH1 0x64 DUP3 ADD MSTORE PUSH1 0x84 ADD PUSH2 0x328 JUMP JUMPDEST PUSH2 0x1A51 DUP7 DUP7 PUSH2 0x2209 JUMP JUMPDEST PUSH2 0x1A9D JUMPI PUSH1 0x40 MLOAD PUSH3 0x461BCD PUSH1 0xE5 SHL DUP2 MSTORE PUSH1 0x20 PUSH1 0x4 DUP3 ADD MSTORE PUSH1 0x18 PUSH1 0x24 DUP3 ADD MSTORE PUSH32 0x496E76616C6964207374616765207472616E736974696F6E0000000000000000 PUSH1 0x44 DUP3 ADD MSTORE PUSH1 0x64 ADD PUSH2 0x328 JUMP JUMPDEST PUSH1 0x1 DUP7 PUSH1 0x40 MLOAD PUSH2 0x1AAD SWAP2 SWAP1 PUSH2 0x2A61 JUMP JUMPDEST SWAP1 DUP2 MSTORE PUSH1 0x20 ADD PUSH1 0x40 MLOAD DUP1 SWAP2 SUB SWAP1 KECCAK256 PUSH1 0x40 MLOAD DUP1 PUSH1 0xC0 ADD PUSH1 0x40 MSTORE DUP1 DUP8 PUSH1 0x3 DUP2 GT ISZERO PUSH2 0x1AD8 JUMPI PUSH2 0x1AD8 PUSH2 0x247F JUMP JUMPDEST DUP2 MSTORE PUSH1 0x20 DUP1 DUP3 ADD DUP9 SWAP1 MSTORE PUSH1 0x40 DUP3 ADD DUP8 SWAP1 MSTORE TIMESTAMP PUSH1 0x60 DUP4 ADD MSTORE PUSH1 0x80 DUP3 ADD DUP7 SWAP1 MSTORE CALLER PUSH1 0xA0 SWAP1 SWAP3 ADD SWAP2 SWAP1 SWAP2 MSTORE DUP3 SLOAD PUSH1 0x1 DUP2 DUP2 ADD DUP6 SSTORE PUSH1 0x0 SWAP5 DUP6 MSTORE SWAP2 SWAP1 SWAP4 KECCAK256 DUP3 MLOAD PUSH1 0x6 SWAP1 SWAP5 MUL ADD DUP1 SLOAD SWAP3 SWAP4 SWAP1 SWAP3 SWAP1 SWAP2 DUP4 SWAP2 PUSH1 0xFF NOT AND SWAP1 DUP4 PUSH1 0x3 DUP2 GT ISZERO PUSH2 0x1B3B JUMPI PUSH2 0x1B3B PUSH2 0x247F JUMP JUMPDEST MUL OR SWAP1 SSTORE POP PUSH1 0x20 DUP3 ADD MLOAD PUSH1 0x1 DUP3 ADD SWAP1 PUSH2 0x1B54 SWAP1 DUP3 PUSH2 0x2B34 JUMP JUMPDEST POP PUSH1 0x40 DUP3 ADD MLOAD PUSH1 0x2 DUP3 ADD SWAP1 PUSH2 0x1B69 SWAP1 DUP3 PUSH2 0x2B34 JUMP JUMPDEST POP PUSH1 0x60 DUP3 ADD MLOAD PUSH1 0x3 DUP3 ADD SSTORE PUSH1 0x80 DUP3 ADD MLOAD PUSH1 0x4 DUP3 ADD SWAP1 PUSH2 0x1B88 SWAP1 DUP3 PUSH2 0x2B34 JUMP JUMPDEST POP PUSH1 0xA0 SWAP2 SWAP1 SWAP2 ADD MLOAD PUSH1 0x5 SWAP1 SWAP2 ADD DUP1 SLOAD PUSH1 0x1 PUSH1 0x1 PUSH1 0xA0 SHL SUB NOT AND PUSH1 0x1 PUSH1 0x1 PUSH1 0xA0 SHL SUB SWAP1 SWAP3 AND SWAP2 SWAP1 SWAP2 OR SWAP1 SSTORE PUSH1 0x40 MLOAD CALLER SWAP1 PUSH2 0x1BC2 SWAP1 DUP9 SWAP1 PUSH2 0x2A61 JUMP JUMPDEST PUSH1 0x40 MLOAD DUP1 SWAP2 SUB SWAP1 KECCAK256 PUSH32 0xBB321F4EA03679389AB54A11D18CB18C606A6FF2CEF6B8CE6F77F35ECFAF696 DUP8 DUP8 DUP8 PUSH1 0x40 MLOAD PUSH2 0x1804 SWAP4 SWAP3 SWAP2 SWAP1 PUSH2 0x2C16 JUMP JUMPDEST PUSH1 0x4 SLOAD PUSH1 0x1 PUSH1 0x1 PUSH1 0xA0 SHL SUB AND CALLER EQ PUSH2 0x1C27 JUMPI PUSH1 0x40 MLOAD PUSH3 0x461BCD PUSH1 0xE5 SHL DUP2 MSTORE PUSH1 0x4 ADD PUSH2 0x328 SWAP1 PUSH2 0x2A09 JUMP JUMPDEST PUSH1 0x1 PUSH1 0x1 PUSH1 0xA0 SHL SUB DUP2 AND PUSH2 0x1C6F JUMPI PUSH1 0x40 MLOAD PUSH3 0x461BCD PUSH1 0xE5 SHL DUP2 MSTORE PUSH1 0x20 PUSH1 0x4 DUP3 ADD MSTORE PUSH1 0xF PUSH1 0x24 DUP3 ADD MSTORE PUSH15 0x496E76616C69642061646472657373 PUSH1 0x88 SHL PUSH1 0x44 DUP3 ADD MSTORE PUSH1 0x64 ADD PUSH2 0x328 JUMP JUMPDEST PUSH1 0x4 DUP1 SLOAD PUSH1 0x1 PUSH1 0x1 PUSH1 0xA0 SHL SUB NOT DUP2 AND PUSH1 0x1 PUSH1 0x1 PUSH1 0xA0 SHL SUB DUP5 DUP2 AND SWAP2 DUP3 OR SWAP1 SWAP4 SSTORE PUSH1 0x0 DUP2 DUP2 MSTORE PUSH1 0x2 PUSH1 0x20 MSTORE PUSH1 0x40 DUP1 DUP3 KECCAK256 DUP1 SLOAD PUSH1 0xFF NOT AND PUSH1 0x5 OR SWAP1 SSTORE MLOAD SWAP4 SWAP1 SWAP3 AND SWAP3 SWAP1 SWAP2 DUP4 SWAP2 PUSH32 0x8BE0079C531659141344CD1FD0A4F28419497F9722A3DAAFE3B4186F6B6457E0 SWAP2 SWAP1 LOG3 POP POP JUMP JUMPDEST PUSH2 0x1D3E PUSH1 0x40 MLOAD DUP1 PUSH2 0x140 ADD PUSH1 0x40 MSTORE DUP1 PUSH1 0x60 DUP2 MSTORE PUSH1 0x20 ADD PUSH1 0x60 DUP2 MSTORE PUSH1 0x20 ADD PUSH1 0x60 DUP2 MSTORE PUSH1 0x20 ADD PUSH1 0x60 DUP2 MSTORE PUSH1 0x20 ADD PUSH1 0x60 DUP2 MSTORE PUSH1 0x20 ADD PUSH1 0x0 DUP2 MSTORE PUSH1 0x20 ADD PUSH1 0x0 DUP2 MSTORE PUSH1 0x20 ADD PUSH1 0x0 PUSH1 0x1 PUSH1 0x1 PUSH1 0xA0 SHL SUB AND DUP2 MSTORE PUSH1 0x20 ADD PUSH1 0x0 ISZERO ISZERO DUP2 MSTORE PUSH1 0x20 ADD PUSH1 0x0 ISZERO ISZERO DUP2 MSTORE POP SWAP1 JUMP JUMPDEST DUP2 PUSH1 0x0 DUP2 PUSH1 0x40 MLOAD PUSH2 0x1D4F SWAP2 SWAP1 PUSH2 0x2A61 JUMP JUMPDEST SWAP1 DUP2 MSTORE PUSH1 0x40 MLOAD SWAP1 DUP2 SWAP1 SUB PUSH1 0x20 ADD SWAP1 KECCAK256 PUSH1 0x7 ADD SLOAD PUSH1 0xFF PUSH1 0x1 PUSH1 0xA0 SHL SWAP1 SWAP2 DIV AND PUSH2 0x1D89 JUMPI PUSH1 0x40 MLOAD PUSH3 0x461BCD PUSH1 0xE5 SHL DUP2 MSTORE PUSH1 0x4 ADD PUSH2 0x328 SWAP1 PUSH2 0x2A7D JUMP JUMPDEST PUSH1 0x0 DUP4 PUSH1 0x40 MLOAD PUSH2 0x1D99 SWAP2 SWAP1 PUSH2 0x2A61 JUMP JUMPDEST SWAP1 DUP2 MSTORE PUSH1 0x20 ADD PUSH1 0x40 MLOAD DUP1 SWAP2 SUB SWAP1 KECCAK256 PUSH1 0x40 MLOAD DUP1 PUSH2 0x140 ADD PUSH1 0x40 MSTORE SWAP1 DUP2 PUSH1 0x0 DUP3 ADD DUP1 SLOAD PUSH2 0x1DC3 SWAP1 PUSH2 0x2A2D JUMP JUMPDEST DUP1 PUSH1 0x1F ADD PUSH1 0x20 DUP1 SWAP2 DIV MUL PUSH1 0x20 ADD PUSH1 0x40 MLOAD SWAP1 DUP2 ADD PUSH1 0x40 MSTORE DUP1 SWAP3 SWAP2 SWAP1 DUP2 DUP2 MSTORE PUSH1 0x20 ADD DUP3 DUP1 SLOAD PUSH2 0x1DEF SWAP1 PUSH2 0x2A2D JUMP JUMPDEST DUP1 ISZERO PUSH2 0x1E3C JUMPI DUP1 PUSH1 0x1F LT PUSH2 0x1E11 JUMPI PUSH2 0x100 DUP1 DUP4 SLOAD DIV MUL DUP4 MSTORE SWAP2 PUSH1 0x20 ADD SWAP2 PUSH2 0x1E3C JUMP JUMPDEST DUP3 ADD SWAP2 SWAP1 PUSH1 0x0 MSTORE PUSH1 0x20 PUSH1 0x0 KECCAK256 SWAP1 JUMPDEST DUP2 SLOAD DUP2 MSTORE SWAP1 PUSH1 0x1 ADD SWAP1 PUSH1 0x20 ADD DUP1 DUP4 GT PUSH2 0x1E1F JUMPI DUP3 SWAP1 SUB PUSH1 0x1F AND DUP3 ADD SWAP2 JUMPDEST POP POP POP POP POP DUP2 MSTORE PUSH1 0x20 ADD PUSH1 0x1 DUP3 ADD DUP1 SLOAD PUSH2 0x1E55 SWAP1 PUSH2 0x2A2D JUMP JUMPDEST DUP1 PUSH1 0x1F ADD PUSH1 0x20 DUP1 SWAP2 DIV MUL PUSH1 0x20 ADD PUSH1 0x40 MLOAD SWAP1 DUP2 ADD PUSH1 0x40 MSTORE DUP1 SWAP3 SWAP2 SWAP1 DUP2 DUP2 MSTORE PUSH1 0x20 ADD DUP3 DUP1 SLOAD PUSH2 0x1E81 SWAP1 PUSH2 0x2A2D JUMP JUMPDEST DUP1 ISZERO PUSH2 0x1ECE JUMPI DUP1 PUSH1 0x1F LT PUSH2 0x1EA3 JUMPI PUSH2 0x100 DUP1 DUP4 SLOAD DIV MUL DUP4 MSTORE SWAP2 PUSH1 0x20 ADD SWAP2 PUSH2 0x1ECE JUMP JUMPDEST DUP3 ADD SWAP2 SWAP1 PUSH1 0x0 MSTORE PUSH1 0x20 PUSH1 0x0 KECCAK256 SWAP1 JUMPDEST DUP2 SLOAD DUP2 MSTORE SWAP1 PUSH1 0x1 ADD SWAP1 PUSH1 0x20 ADD DUP1 DUP4 GT PUSH2 0x1EB1 JUMPI DUP3 SWAP1 SUB PUSH1 0x1F AND DUP3 ADD SWAP2 JUMPDEST POP POP POP POP POP DUP2 MSTORE PUSH1 0x20 ADD PUSH1 0x2 DUP3 ADD DUP1 SLOAD PUSH2 0x1EE7 SWAP1 PUSH2 0x2A2D JUMP JUMPDEST DUP1 PUSH1 0x1F ADD PUSH1 0x20 DUP1 SWAP2 DIV MUL PUSH1 0x20 ADD PUSH1 0x40 MLOAD SWAP1 DUP2 ADD PUSH1 0x40 MSTORE DUP1 SWAP3 SWAP2 SWAP1 DUP2 DUP2 MSTORE PUSH1 0x20 ADD DUP3 DUP1 SLOAD PUSH2 0x1F13 SWAP1 PUSH2 0x2A2D JUMP JUMPDEST DUP1 ISZERO PUSH2 0x1F60 JUMPI DUP1 PUSH1 0x1F LT PUSH2 0x1F35 JUMPI PUSH2 0x100 DUP1 DUP4 SLOAD DIV MUL DUP4 MSTORE SWAP2 PUSH1 0x20 ADD SWAP2 PUSH2 0x1F60 JUMP JUMPDEST DUP3 ADD SWAP2 SWAP1 PUSH1 0x0 MSTORE PUSH1 0x20 PUSH1 0x0 KECCAK256 SWAP1 JUMPDEST DUP2 SLOAD DUP2 MSTORE SWAP1 PUSH1 0x1 ADD SWAP1 PUSH1 0x20 ADD DUP1 DUP4 GT PUSH2 0x1F43 JUMPI DUP3 SWAP1 SUB PUSH1 0x1F AND DUP3 ADD SWAP2 JUMPDEST POP POP POP POP POP DUP2 MSTORE PUSH1 0x20 ADD PUSH1 0x3 DUP3 ADD DUP1 SLOAD PUSH2 0x1F79 SWAP1 PUSH2 0x2A2D JUMP JUMPDEST DUP1 PUSH1 0x1F ADD PUSH1 0x20 DUP1 SWAP2 DIV MUL PUSH1 0x20 ADD PUSH1 0x40 MLOAD SWAP1 DUP2 ADD PUSH1 0x40 MSTORE DUP1 SWAP3 SWAP2 SWAP1 DUP2 DUP2 MSTORE PUSH1 0x20 ADD DUP3 DUP1 SLOAD PUSH2 0x1FA5 SWAP1 PUSH2 0x2A2D JUMP JUMPDEST DUP1 ISZERO PUSH2 0x1FF2 JUMPI DUP1 PUSH1 0x1F LT PUSH2 0x1FC7 JUMPI PUSH2 0x100 DUP1 DUP4 SLOAD DIV MUL DUP4 MSTORE SWAP2 PUSH1 0x20 ADD SWAP2 PUSH2 0x1FF2 JUMP JUMPDEST DUP3 ADD SWAP2 SWAP1 PUSH1 0x0 MSTORE PUSH1 0x20 PUSH1 0x0 KECCAK256 SWAP1 JUMPDEST DUP2 SLOAD DUP2 MSTORE SWAP1 PUSH1 0x1 ADD SWAP1 PUSH1 0x20 ADD DUP1 DUP4 GT PUSH2 0x1FD5 JUMPI DUP3 SWAP1 SUB PUSH1 0x1F AND DUP3 ADD SWAP2 JUMPDEST POP POP POP POP POP DUP2 MSTORE PUSH1 0x20 ADD PUSH1 0x4 DUP3 ADD DUP1 SLOAD PUSH2 0x200B SWAP1 PUSH2 0x2A2D JUMP JUMPDEST DUP1 PUSH1 0x1F ADD PUSH1 0x20 DUP1 SWAP2 DIV MUL PUSH1 0x20 ADD PUSH1 0x40 MLOAD SWAP1 DUP2 ADD PUSH1 0x40 MSTORE DUP1 SWAP3 SWAP2 SWAP1 DUP2 DUP2 MSTORE PUSH1 0x20 ADD DUP3 DUP1 SLOAD PUSH2 0x2037 SWAP1 PUSH2 0x2A2D JUMP JUMPDEST DUP1 ISZERO PUSH2 0x2084 JUMPI DUP1 PUSH1 0x1F LT PUSH2 0x2059 JUMPI PUSH2 0x100 DUP1 DUP4 SLOAD DIV MUL DUP4 MSTORE SWAP2 PUSH1 0x20 ADD SWAP2 PUSH2 0x2084 JUMP JUMPDEST DUP3 ADD SWAP2 SWAP1 PUSH1 0x0 MSTORE PUSH1 0x20 PUSH1 0x0 KECCAK256 SWAP1 JUMPDEST DUP2 SLOAD DUP2 MSTORE SWAP1 PUSH1 0x1 ADD SWAP1 PUSH1 0x20 ADD DUP1 DUP4 GT PUSH2 0x2067 JUMPI DUP3 SWAP1 SUB PUSH1 0x1F AND DUP3 ADD SWAP2 JUMPDEST POP POP POP SWAP2 DUP4 MSTORE POP POP PUSH1 0x5 DUP3 ADD SLOAD PUSH1 0x20 DUP3 ADD MSTORE PUSH1 0x6 DUP3 ADD SLOAD PUSH1 0x40 DUP3 ADD MSTORE PUSH1 0x7 SWAP1 SWAP2 ADD SLOAD PUSH1 0x1 PUSH1 0x1 PUSH1 0xA0 SHL SUB DUP2 AND PUSH1 0x60 DUP4 ADD MSTORE PUSH1 0xFF PUSH1 0x1 PUSH1 0xA0 SHL DUP3 DIV DUP2 AND ISZERO ISZERO PUSH1 0x80 DUP5 ADD MSTORE PUSH1 0x1 PUSH1 0xA8 SHL SWAP1 SWAP2 DIV AND ISZERO ISZERO PUSH1 0xA0 SWAP1 SWAP2 ADD MSTORE SWAP2 POP POP SWAP2 SWAP1 POP JUMP JUMPDEST PUSH1 0x0 PUSH1 0x5 DUP3 PUSH1 0x5 DUP2 GT ISZERO PUSH2 0x20F6 JUMPI PUSH2 0x20F6 PUSH2 0x247F JUMP JUMPDEST SUB PUSH2 0x2103 JUMPI POP PUSH1 0x1 PUSH2 0x2203 JUMP JUMPDEST PUSH1 0x0 DUP4 PUSH1 0x3 DUP2 GT ISZERO PUSH2 0x2117 JUMPI PUSH2 0x2117 PUSH2 0x247F JUMP JUMPDEST EQ DUP1 ISZERO PUSH2 0x2135 JUMPI POP PUSH1 0x1 DUP3 PUSH1 0x5 DUP2 GT ISZERO PUSH2 0x2133 JUMPI PUSH2 0x2133 PUSH2 0x247F JUMP JUMPDEST EQ JUMPDEST ISZERO PUSH2 0x2142 JUMPI POP PUSH1 0x1 PUSH2 0x2203 JUMP JUMPDEST PUSH1 0x1 DUP4 PUSH1 0x3 DUP2 GT ISZERO PUSH2 0x2156 JUMPI PUSH2 0x2156 PUSH2 0x247F JUMP JUMPDEST EQ DUP1 ISZERO PUSH2 0x2174 JUMPI POP PUSH1 0x2 DUP3 PUSH1 0x5 DUP2 GT ISZERO PUSH2 0x2172 JUMPI PUSH2 0x2172 PUSH2 0x247F JUMP JUMPDEST EQ JUMPDEST ISZERO PUSH2 0x2181 JUMPI POP PUSH1 0x1 PUSH2 0x2203 JUMP JUMPDEST PUSH1 0x2 DUP4 PUSH1 0x3 DUP2 GT ISZERO PUSH2 0x2195 JUMPI PUSH2 0x2195 PUSH2 0x247F JUMP JUMPDEST EQ DUP1 ISZERO PUSH2 0x21B3 JUMPI POP PUSH1 0x3 DUP3 PUSH1 0x5 DUP2 GT ISZERO PUSH2 0x21B1 JUMPI PUSH2 0x21B1 PUSH2 0x247F JUMP JUMPDEST EQ JUMPDEST ISZERO PUSH2 0x21C0 JUMPI POP PUSH1 0x1 PUSH2 0x2203 JUMP JUMPDEST PUSH1 0x3 DUP4 PUSH1 0x3 DUP2 GT ISZERO PUSH2 0x21D4 JUMPI PUSH2 0x21D4 PUSH2 0x247F JUMP JUMPDEST EQ DUP1 ISZERO PUSH2 0x21F2 JUMPI POP PUSH1 0x4 DUP3 PUSH1 0x5 DUP2 GT ISZERO PUSH2 0x21F0 JUMPI PUSH2 0x21F0 PUSH2 0x247F JUMP JUMPDEST EQ JUMPDEST ISZERO PUSH2 0x21FF JUMPI POP PUSH1 0x1 PUSH2 0x2203 JUMP JUMPDEST POP PUSH1 0x0 JUMPDEST SWAP3 SWAP2 POP POP JUMP JUMPDEST PUSH1 0x0 DUP1 PUSH1 0x1 DUP5 PUSH1 0x40 MLOAD PUSH2 0x221C SWAP2 SWAP1 PUSH2 0x2A61 JUMP JUMPDEST SWAP1 DUP2 MSTORE PUSH1 0x40 MLOAD SWAP1 DUP2 SWAP1 SUB PUSH1 0x20 ADD SWAP1 KECCAK256 DUP1 SLOAD SWAP1 SWAP2 POP PUSH1 0x0 SUB PUSH2 0x2254 JUMPI PUSH1 0x0 DUP4 PUSH1 0x3 DUP2 GT ISZERO PUSH2 0x224B JUMPI PUSH2 0x224B PUSH2 0x247F JUMP JUMPDEST EQ SWAP2 POP POP PUSH2 0x2203 JUMP JUMPDEST DUP1 SLOAD PUSH1 0x0 SWAP1 DUP3 SWAP1 PUSH2 0x2267 SWAP1 PUSH1 0x1 SWAP1 PUSH2 0x2ABC JUMP JUMPDEST DUP2 SLOAD DUP2 LT PUSH2 0x2277 JUMPI PUSH2 0x2277 PUSH2 0x2ACF JUMP JUMPDEST PUSH1 0x0 SWAP2 DUP3 MSTORE PUSH1 0x20 SWAP1 SWAP2 KECCAK256 PUSH1 0x6 SWAP1 SWAP2 MUL ADD SLOAD PUSH1 0xFF AND SWAP1 POP DUP4 PUSH1 0x3 DUP2 GT ISZERO PUSH2 0x229F JUMPI PUSH2 0x229F PUSH2 0x247F JUMP JUMPDEST DUP2 PUSH1 0x3 DUP2 GT ISZERO PUSH2 0x22B1 JUMPI PUSH2 0x22B1 PUSH2 0x247F JUMP JUMPDEST SUB PUSH2 0x22C1 JUMPI PUSH1 0x1 SWAP3 POP POP POP PUSH2 0x2203 JUMP JUMPDEST DUP1 PUSH1 0x3 DUP2 GT ISZERO PUSH2 0x22D3 JUMPI PUSH2 0x22D3 PUSH2 0x247F JUMP JUMPDEST PUSH2 0x22DE SWAP1 PUSH1 0x1 PUSH2 0x2C52 JUMP JUMPDEST DUP5 PUSH1 0x3 DUP2 GT ISZERO PUSH2 0x22F0 JUMPI PUSH2 0x22F0 PUSH2 0x247F JUMP JUMPDEST EQ SWAP6 SWAP5 POP POP POP POP POP JUMP JUMPDEST PUSH1 0x0 PUSH1 0x20 DUP3 DUP5 SUB SLT ISZERO PUSH2 0x230C JUMPI PUSH1 0x0 DUP1 REVERT JUMPDEST DUP2 CALLDATALOAD DUP1 ISZERO ISZERO DUP2 EQ PUSH2 0x231C JUMPI PUSH1 0x0 DUP1 REVERT JUMPDEST SWAP4 SWAP3 POP POP POP JUMP JUMPDEST PUSH1 0x0 PUSH1 0x20 DUP3 DUP5 SUB SLT ISZERO PUSH2 0x2335 JUMPI PUSH1 0x0 DUP1 REVERT JUMPDEST POP CALLDATALOAD SWAP2 SWAP1 POP JUMP JUMPDEST PUSH1 0x0 JUMPDEST DUP4 DUP2 LT ISZERO PUSH2 0x2357 JUMPI DUP2 DUP2 ADD MLOAD DUP4 DUP3 ADD MSTORE PUSH1 0x20 ADD PUSH2 0x233F JUMP JUMPDEST POP POP PUSH1 0x0 SWAP2 ADD MSTORE JUMP JUMPDEST PUSH1 0x0 DUP2 MLOAD DUP1 DUP5 MSTORE PUSH2 0x2378 DUP2 PUSH1 0x20 DUP7 ADD PUSH1 0x20 DUP7 ADD PUSH2 0x233C JUMP JUMPDEST PUSH1 0x1F ADD PUSH1 0x1F NOT AND SWAP3 SWAP1 SWAP3 ADD PUSH1 0x20 ADD SWAP3 SWAP2 POP POP JUMP JUMPDEST PUSH1 0x20 DUP2 MSTORE PUSH1 0x0 PUSH2 0x231C PUSH1 0x20 DUP4 ADD DUP5 PUSH2 0x2360 JUMP JUMPDEST PUSH4 0x4E487B71 PUSH1 0xE0 SHL PUSH1 0x0 MSTORE PUSH1 0x41 PUSH1 0x4 MSTORE PUSH1 0x24 PUSH1 0x0 REVERT JUMPDEST PUSH1 0x0 DUP3 PUSH1 0x1F DUP4 ADD SLT PUSH2 0x23C6 JUMPI PUSH1 0x0 DUP1 REVERT JUMPDEST DUP2 CALLDATALOAD PUSH8 0xFFFFFFFFFFFFFFFF DUP1 DUP3 GT ISZERO PUSH2 0x23E1 JUMPI PUSH2 0x23E1 PUSH2 0x239F JUMP JUMPDEST PUSH1 0x40 MLOAD PUSH1 0x1F DUP4 ADD PUSH1 0x1F NOT SWAP1 DUP2 AND PUSH1 0x3F ADD AND DUP2 ADD SWAP1 DUP3 DUP3 GT DUP2 DUP4 LT OR ISZERO PUSH2 0x2409 JUMPI PUSH2 0x2409 PUSH2 0x239F JUMP JUMPDEST DUP2 PUSH1 0x40 MSTORE DUP4 DUP2 MSTORE DUP7 PUSH1 0x20 DUP6 DUP9 ADD ADD GT ISZERO PUSH2 0x2422 JUMPI PUSH1 0x0 DUP1 REVERT JUMPDEST DUP4 PUSH1 0x20 DUP8 ADD PUSH1 0x20 DUP4 ADD CALLDATACOPY PUSH1 0x0 PUSH1 0x20 DUP6 DUP4 ADD ADD MSTORE DUP1 SWAP5 POP POP POP POP POP SWAP3 SWAP2 POP POP JUMP JUMPDEST PUSH1 0x0 PUSH1 0x20 DUP3 DUP5 SUB SLT ISZERO PUSH2 0x2454 JUMPI PUSH1 0x0 DUP1 REVERT JUMPDEST DUP2 CALLDATALOAD PUSH8 0xFFFFFFFFFFFFFFFF DUP2 GT ISZERO PUSH2 0x246B JUMPI PUSH1 0x0 DUP1 REVERT JUMPDEST PUSH2 0x2477 DUP5 DUP3 DUP6 ADD PUSH2 0x23B5 JUMP JUMPDEST SWAP5 SWAP4 POP POP POP POP JUMP JUMPDEST PUSH4 0x4E487B71 PUSH1 0xE0 SHL PUSH1 0x0 MSTORE PUSH1 0x21 PUSH1 0x4 MSTORE PUSH1 0x24 PUSH1 0x0 REVERT JUMPDEST PUSH1 0x4 DUP2 LT PUSH2 0x24A5 JUMPI PUSH2 0x24A5 PUSH2 0x247F JUMP JUMPDEST SWAP1 MSTORE JUMP JUMPDEST PUSH2 0x24B4 DUP3 DUP3 MLOAD PUSH2 0x2495 JUMP JUMPDEST PUSH1 0x0 PUSH1 0x20 DUP3 ADD MLOAD PUSH1 0xC0 PUSH1 0x20 DUP6 ADD MSTORE PUSH2 0x24CF PUSH1 0xC0 DUP6 ADD DUP3 PUSH2 0x2360 JUMP JUMPDEST SWAP1 POP PUSH1 0x40 DUP4 ADD MLOAD DUP5 DUP3 SUB PUSH1 0x40 DUP7 ADD MSTORE PUSH2 0x24E8 DUP3 DUP3 PUSH2 0x2360 JUMP JUMPDEST SWAP2 POP POP PUSH1 0x60 DUP4 ADD MLOAD PUSH1 0x60 DUP6 ADD MSTORE PUSH1 0x80 DUP4 ADD MLOAD DUP5 DUP3 SUB PUSH1 0x80 DUP7 ADD MSTORE PUSH2 0x250C DUP3 DUP3 PUSH2 0x2360 JUMP JUMPDEST PUSH1 0xA0 SWAP5 DUP6 ADD MLOAD PUSH1 0x1 PUSH1 0x1 PUSH1 0xA0 SHL SUB AND SWAP6 SWAP1 SWAP5 ADD SWAP5 SWAP1 SWAP5 MSTORE POP SWAP1 SWAP3 SWAP2 POP POP JUMP JUMPDEST PUSH1 0x20 DUP2 MSTORE PUSH1 0x0 PUSH2 0x231C PUSH1 0x20 DUP4 ADD DUP5 PUSH2 0x24A9 JUMP JUMPDEST PUSH1 0x0 PUSH1 0x20 DUP1 DUP4 ADD DUP2 DUP5 MSTORE DUP1 DUP6 MLOAD DUP1 DUP4 MSTORE PUSH1 0x40 DUP7 ADD SWAP2 POP PUSH1 0x40 DUP2 PUSH1 0x5 SHL DUP8 ADD ADD SWAP3 POP DUP4 DUP8 ADD PUSH1 0x0 JUMPDEST DUP3 DUP2 LT ISZERO PUSH2 0x2593 JUMPI PUSH1 0x3F NOT DUP9 DUP7 SUB ADD DUP5 MSTORE PUSH2 0x2581 DUP6 DUP4 MLOAD PUSH2 0x24A9 JUMP JUMPDEST SWAP5 POP SWAP3 DUP6 ADD SWAP3 SWAP1 DUP6 ADD SWAP1 PUSH1 0x1 ADD PUSH2 0x2565 JUMP JUMPDEST POP SWAP3 SWAP8 SWAP7 POP POP POP POP POP POP POP JUMP JUMPDEST DUP1 CALLDATALOAD PUSH1 0x1 PUSH1 0x1 PUSH1 0xA0 SHL SUB DUP2 AND DUP2 EQ PUSH2 0x25B7 JUMPI PUSH1 0x0 DUP1 REVERT JUMPDEST SWAP2 SWAP1 POP JUMP JUMPDEST PUSH1 0x0 DUP1 PUSH1 0x40 DUP4 DUP6 SUB SLT ISZERO PUSH2 0x25CF JUMPI PUSH1 0x0 DUP1 REVERT JUMPDEST PUSH2 0x25D8 DUP4 PUSH2 0x25A0 JUMP JUMPDEST SWAP2 POP PUSH1 0x20 DUP4 ADD CALLDATALOAD PUSH1 0x6 DUP2 LT PUSH2 0x25EC JUMPI PUSH1 0x0 DUP1 REVERT JUMPDEST DUP1 SWAP2 POP POP SWAP3 POP SWAP3 SWAP1 POP JUMP JUMPDEST PUSH1 0x0 DUP1 PUSH1 0x40 DUP4 DUP6 SUB SLT ISZERO PUSH2 0x260A JUMPI PUSH1 0x0 DUP1 REVERT JUMPDEST DUP3 CALLDATALOAD PUSH8 0xFFFFFFFFFFFFFFFF DUP2 GT ISZERO PUSH2 0x2621 JUMPI PUSH1 0x0 DUP1 REVERT JUMPDEST PUSH2 0x262D DUP6 DUP3 DUP7 ADD PUSH2 0x23B5 JUMP JUMPDEST SWAP6 PUSH1 0x20 SWAP5 SWAP1 SWAP5 ADD CALLDATALOAD SWAP5 POP POP POP POP JUMP JUMPDEST PUSH2 0x2646 DUP2 DUP9 PUSH2 0x2495 JUMP JUMPDEST PUSH1 0xC0 PUSH1 0x20 DUP3 ADD MSTORE PUSH1 0x0 PUSH2 0x265C PUSH1 0xC0 DUP4 ADD DUP9 PUSH2 0x2360 JUMP JUMPDEST DUP3 DUP2 SUB PUSH1 0x40 DUP5 ADD MSTORE PUSH2 0x266E DUP2 DUP9 PUSH2 0x2360 JUMP JUMPDEST SWAP1 POP DUP6 PUSH1 0x60 DUP5 ADD MSTORE DUP3 DUP2 SUB PUSH1 0x80 DUP5 ADD MSTORE PUSH2 0x2688 DUP2 DUP7 PUSH2 0x2360 JUMP JUMPDEST SWAP2 POP POP PUSH1 0x1 DUP1 PUSH1 0xA0 SHL SUB DUP4 AND PUSH1 0xA0 DUP4 ADD MSTORE SWAP8 SWAP7 POP POP POP POP POP POP POP JUMP JUMPDEST PUSH1 0x0 PUSH2 0x140 DUP1 DUP4 MSTORE PUSH2 0x26B8 DUP2 DUP5 ADD DUP15 PUSH2 0x2360 JUMP JUMPDEST SWAP1 POP DUP3 DUP2 SUB PUSH1 0x20 DUP5 ADD MSTORE PUSH2 0x26CC DUP2 DUP14 PUSH2 0x2360 JUMP JUMPDEST SWAP1 POP DUP3 DUP2 SUB PUSH1 0x40 DUP5 ADD MSTORE PUSH2 0x26E0 DUP2 DUP13 PUSH2 0x2360 JUMP JUMPDEST SWAP1 POP DUP3 DUP2 SUB PUSH1 0x60 DUP5 ADD MSTORE PUSH2 0x26F4 DUP2 DUP12 PUSH2 0x2360 JUMP JUMPDEST SWAP1 POP DUP3 DUP2 SUB PUSH1 0x80 DUP5 ADD MSTORE PUSH2 0x2708 DUP2 DUP11 PUSH2 0x2360 JUMP JUMPDEST PUSH1 0xA0 DUP5 ADD SWAP9 SWAP1 SWAP9 MSTORE POP POP PUSH1 0xC0 DUP2 ADD SWAP5 SWAP1 SWAP5 MSTORE PUSH1 0x1 PUSH1 0x1 PUSH1 0xA0 SHL SUB SWAP3 SWAP1 SWAP3 AND PUSH1 0xE0 DUP5 ADD MSTORE ISZERO ISZERO PUSH2 0x100 DUP4 ADD MSTORE ISZERO ISZERO PUSH2 0x120 SWAP1 SWAP2 ADD MSTORE SWAP6 SWAP5 POP POP POP POP POP JUMP JUMPDEST PUSH1 0x0 PUSH1 0x20 DUP3 DUP5 SUB SLT ISZERO PUSH2 0x2757 JUMPI PUSH1 0x0 DUP1 REVERT JUMPDEST PUSH2 0x231C DUP3 PUSH2 0x25A0 JUMP JUMPDEST PUSH1 0x20 DUP2 ADD PUSH1 0x6 DUP4 LT PUSH2 0x2774 JUMPI PUSH2 0x2774 PUSH2 0x247F JUMP JUMPDEST SWAP2 SWAP1 MSTORE SWAP1 JUMP JUMPDEST PUSH1 0x0 DUP1 PUSH1 0x0 DUP1 PUSH1 0x0 DUP1 PUSH1 0xC0 DUP8 DUP10 SUB SLT ISZERO PUSH2 0x2793 JUMPI PUSH1 0x0 DUP1 REVERT JUMPDEST DUP7 CALLDATALOAD PUSH8 0xFFFFFFFFFFFFFFFF DUP1 DUP3 GT ISZERO PUSH2 0x27AB JUMPI PUSH1 0x0 DUP1 REVERT JUMPDEST PUSH2 0x27B7 DUP11 DUP4 DUP12 ADD PUSH2 0x23B5 JUMP JUMPDEST SWAP8 POP PUSH1 0x20 DUP10 ADD CALLDATALOAD SWAP2 POP DUP1 DUP3 GT ISZERO PUSH2 0x27CD JUMPI PUSH1 0x0 DUP1 REVERT JUMPDEST PUSH2 0x27D9 DUP11 DUP4 DUP12 ADD PUSH2 0x23B5 JUMP JUMPDEST SWAP7 POP PUSH1 0x40 DUP10 ADD CALLDATALOAD SWAP2 POP DUP1 DUP3 GT ISZERO PUSH2 0x27EF JUMPI PUSH1 0x0 DUP1 REVERT JUMPDEST PUSH2 0x27FB DUP11 DUP4 DUP12 ADD PUSH2 0x23B5 JUMP JUMPDEST SWAP6 POP PUSH1 0x60 DUP10 ADD CALLDATALOAD SWAP2 POP DUP1 DUP3 GT ISZERO PUSH2 0x2811 JUMPI PUSH1 0x0 DUP1 REVERT JUMPDEST PUSH2 0x281D DUP11 DUP4 DUP12 ADD PUSH2 0x23B5 JUMP JUMPDEST SWAP5 POP PUSH1 0x80 DUP10 ADD CALLDATALOAD SWAP2 POP DUP1 DUP3 GT ISZERO PUSH2 0x2833 JUMPI PUSH1 0x0 DUP1 REVERT JUMPDEST POP PUSH2 0x2840 DUP10 DUP3 DUP11 ADD PUSH2 0x23B5 JUMP JUMPDEST SWAP3 POP POP PUSH1 0xA0 DUP8 ADD CALLDATALOAD SWAP1 POP SWAP3 SWAP6 POP SWAP3 SWAP6 POP SWAP3 SWAP6 JUMP JUMPDEST PUSH1 0x0 DUP1 PUSH1 0x0 DUP1 PUSH1 0x0 PUSH1 0xA0 DUP7 DUP9 SUB SLT ISZERO PUSH2 0x286C JUMPI PUSH1 0x0 DUP1 REVERT JUMPDEST DUP6 CALLDATALOAD PUSH8 0xFFFFFFFFFFFFFFFF DUP1 DUP3 GT ISZERO PUSH2 0x2884 JUMPI PUSH1 0x0 DUP1 REVERT JUMPDEST PUSH2 0x2890 DUP10 DUP4 DUP11 ADD PUSH2 0x23B5 JUMP JUMPDEST SWAP7 POP PUSH1 0x20 DUP9 ADD CALLDATALOAD SWAP2 POP PUSH1 0x4 DUP3 LT PUSH2 0x28A6 JUMPI PUSH1 0x0 DUP1 REVERT JUMPDEST SWAP1 SWAP5 POP PUSH1 0x40 DUP8 ADD CALLDATALOAD SWAP1 DUP1 DUP3 GT ISZERO PUSH2 0x28BC JUMPI PUSH1 0x0 DUP1 REVERT JUMPDEST PUSH2 0x28C8 DUP10 DUP4 DUP11 ADD PUSH2 0x23B5 JUMP JUMPDEST SWAP5 POP PUSH1 0x60 DUP9 ADD CALLDATALOAD SWAP2 POP DUP1 DUP3 GT ISZERO PUSH2 0x28DE JUMPI PUSH1 0x0 DUP1 REVERT JUMPDEST PUSH2 0x28EA DUP10 DUP4 DUP11 ADD PUSH2 0x23B5 JUMP JUMPDEST SWAP4 POP PUSH1 0x80 DUP9 ADD CALLDATALOAD SWAP2 POP DUP1 DUP3 GT ISZERO PUSH2 0x2900 JUMPI PUSH1 0x0 DUP1 REVERT JUMPDEST POP PUSH2 0x290D DUP9 DUP3 DUP10 ADD PUSH2 0x23B5 JUMP JUMPDEST SWAP2 POP POP SWAP3 SWAP6 POP SWAP3 SWAP6 SWAP1 SWAP4 POP JUMP JUMPDEST PUSH1 0x20 DUP2 MSTORE PUSH1 0x0 DUP3 MLOAD PUSH2 0x140 DUP1 PUSH1 0x20 DUP6 ADD MSTORE PUSH2 0x2939 PUSH2 0x160 DUP6 ADD DUP4 PUSH2 0x2360 JUMP JUMPDEST SWAP2 POP PUSH1 0x20 DUP6 ADD MLOAD PUSH1 0x1F NOT DUP1 DUP7 DUP6 SUB ADD PUSH1 0x40 DUP8 ADD MSTORE PUSH2 0x2957 DUP5 DUP4 PUSH2 0x2360 JUMP JUMPDEST SWAP4 POP PUSH1 0x40 DUP8 ADD MLOAD SWAP2 POP DUP1 DUP7 DUP6 SUB ADD PUSH1 0x60 DUP8 ADD MSTORE PUSH2 0x2974 DUP5 DUP4 PUSH2 0x2360 JUMP JUMPDEST SWAP4 POP PUSH1 0x60 DUP8 ADD MLOAD SWAP2 POP DUP1 DUP7 DUP6 SUB ADD PUSH1 0x80 DUP8 ADD MSTORE PUSH2 0x2991 DUP5 DUP4 PUSH2 0x2360 JUMP JUMPDEST SWAP4 POP PUSH1 0x80 DUP8 ADD MLOAD SWAP2 POP DUP1 DUP7 DUP6 SUB ADD PUSH1 0xA0 DUP8 ADD MSTORE POP PUSH2 0x29AF DUP4 DUP3 PUSH2 0x2360 JUMP JUMPDEST SWAP3 POP POP PUSH1 0xA0 DUP6 ADD MLOAD PUSH1 0xC0 DUP6 ADD MSTORE PUSH1 0xC0 DUP6 ADD MLOAD PUSH1 0xE0 DUP6 ADD MSTORE PUSH1 0xE0 DUP6 ADD MLOAD PUSH2 0x100 PUSH2 0x29E2 DUP2 DUP8 ADD DUP4 PUSH1 0x1 PUSH1 0x1 PUSH1 0xA0 SHL SUB AND SWAP1 MSTORE JUMP JUMPDEST DUP7 ADD MLOAD SWAP1 POP PUSH2 0x120 PUSH2 0x29F7 DUP7 DUP3 ADD DUP4 ISZERO ISZERO SWAP1 MSTORE JUMP JUMPDEST SWAP1 SWAP6 ADD MLOAD ISZERO ISZERO SWAP4 ADD SWAP3 SWAP1 SWAP3 MSTORE POP SWAP2 SWAP1 POP JUMP JUMPDEST PUSH1 0x20 DUP1 DUP3 MSTORE PUSH1 0xA SWAP1 DUP3 ADD MSTORE PUSH10 0x27B7363C9037BBB732B9 PUSH1 0xB1 SHL PUSH1 0x40 DUP3 ADD MSTORE PUSH1 0x60 ADD SWAP1 JUMP JUMPDEST PUSH1 0x1 DUP2 DUP2 SHR SWAP1 DUP3 AND DUP1 PUSH2 0x2A41 JUMPI PUSH1 0x7F DUP3 AND SWAP2 POP JUMPDEST PUSH1 0x20 DUP3 LT DUP2 SUB PUSH2 0x7A9 JUMPI PUSH4 0x4E487B71 PUSH1 0xE0 SHL PUSH1 0x0 MSTORE PUSH1 0x22 PUSH1 0x4 MSTORE PUSH1 0x24 PUSH1 0x0 REVERT JUMPDEST PUSH1 0x0 DUP3 MLOAD PUSH2 0x2A73 DUP2 DUP5 PUSH1 0x20 DUP8 ADD PUSH2 0x233C JUMP JUMPDEST SWAP2 SWAP1 SWAP2 ADD SWAP3 SWAP2 POP POP JUMP JUMPDEST PUSH1 0x20 DUP1 DUP3 MSTORE PUSH1 0xF SWAP1 DUP3 ADD MSTORE PUSH15 0x10985D18DA081B9BDD08199BDD5B99 PUSH1 0x8A SHL PUSH1 0x40 DUP3 ADD MSTORE PUSH1 0x60 ADD SWAP1 JUMP JUMPDEST PUSH4 0x4E487B71 PUSH1 0xE0 SHL PUSH1 0x0 MSTORE PUSH1 0x11 PUSH1 0x4 MSTORE PUSH1 0x24 PUSH1 0x0 REVERT JUMPDEST DUP2 DUP2 SUB DUP2 DUP2 GT ISZERO PUSH2 0x2203 JUMPI PUSH2 0x2203 PUSH2 0x2AA6 JUMP JUMPDEST PUSH4 0x4E487B71 PUSH1 0xE0 SHL PUSH1 0x0 MSTORE PUSH1 0x32 PUSH1 0x4 MSTORE PUSH1 0x24 PUSH1 0x0 REVERT JUMPDEST PUSH1 0x1F DUP3 GT ISZERO PUSH2 0x2B2F JUMPI PUSH1 0x0 DUP2 DUP2 MSTORE PUSH1 0x20 DUP2 KECCAK256 PUSH1 0x1F DUP6 ADD PUSH1 0x5 SHR DUP2 ADD PUSH1 0x20 DUP7 LT ISZERO PUSH2 0x2B0C JUMPI POP DUP1 JUMPDEST PUSH1 0x1F DUP6 ADD PUSH1 0x5 SHR DUP3 ADD SWAP2 POP JUMPDEST DUP2 DUP2 LT ISZERO PUSH2 0x2B2B JUMPI DUP3 DUP2 SSTORE PUSH1 0x1 ADD PUSH2 0x2B18 JUMP JUMPDEST POP POP POP JUMPDEST POP POP POP JUMP JUMPDEST DUP2 MLOAD PUSH8 0xFFFFFFFFFFFFFFFF DUP2 GT ISZERO PUSH2 0x2B4E JUMPI PUSH2 0x2B4E PUSH2 0x239F JUMP JUMPDEST PUSH2 0x2B62 DUP2 PUSH2 0x2B5C DUP5 SLOAD PUSH2 0x2A2D JUMP JUMPDEST DUP5 PUSH2 0x2AE5 JUMP JUMPDEST PUSH1 0x20 DUP1 PUSH1 0x1F DUP4 GT PUSH1 0x1 DUP2 EQ PUSH2 0x2B97 JUMPI PUSH1 0x0 DUP5 ISZERO PUSH2 0x2B7F JUMPI POP DUP6 DUP4 ADD MLOAD JUMPDEST PUSH1 0x0 NOT PUSH1 0x3 DUP7 SWAP1 SHL SHR NOT AND PUSH1 0x1 DUP6 SWAP1 SHL OR DUP6 SSTORE PUSH2 0x2B2B JUMP JUMPDEST PUSH1 0x0 DUP6 DUP2 MSTORE PUSH1 0x20 DUP2 KECCAK256 PUSH1 0x1F NOT DUP7 AND SWAP2 JUMPDEST DUP3 DUP2 LT ISZERO PUSH2 0x2BC6 JUMPI DUP9 DUP7 ADD MLOAD DUP3 SSTORE SWAP5 DUP5 ADD SWAP5 PUSH1 0x1 SWAP1 SWAP2 ADD SWAP1 DUP5 ADD PUSH2 0x2BA7 JUMP JUMPDEST POP DUP6 DUP3 LT ISZERO PUSH2 0x2BE4 JUMPI DUP8 DUP6 ADD MLOAD PUSH1 0x0 NOT PUSH1 0x3 DUP9 SWAP1 SHL PUSH1 0xF8 AND SHR NOT AND DUP2 SSTORE JUMPDEST POP POP POP POP POP PUSH1 0x1 SWAP1 DUP2 SHL ADD SWAP1 SSTORE POP JUMP JUMPDEST PUSH1 0x40 DUP2 MSTORE PUSH1 0x0 PUSH2 0x2C07 PUSH1 0x40 DUP4 ADD DUP6 PUSH2 0x2360 JUMP JUMPDEST SWAP1 POP DUP3 PUSH1 0x20 DUP4 ADD MSTORE SWAP4 SWAP3 POP POP POP JUMP JUMPDEST PUSH2 0x2C20 DUP2 DUP6 PUSH2 0x2495 JUMP JUMPDEST PUSH1 0x60 PUSH1 0x20 DUP3 ADD MSTORE PUSH1 0x0 PUSH2 0x2C36 PUSH1 0x60 DUP4 ADD DUP6 PUSH2 0x2360 JUMP JUMPDEST DUP3 DUP2 SUB PUSH1 0x40 DUP5 ADD MSTORE PUSH2 0x2C48 DUP2 DUP6 PUSH2 0x2360 JUMP JUMPDEST SWAP7 SWAP6 POP POP POP POP POP POP JUMP JUMPDEST DUP1 DUP3 ADD DUP1 DUP3 GT ISZERO PUSH2 0x2203 JUMPI PUSH2 0x2203 PUSH2 0x2AA6 JUMP INVALID LOG2 PUSH5 0x6970667358 0x22 SLT KECCAK256 GASPRICE PUSH13 0x9D459CCA1FA8DE0FE21A2556BC 0x4D 0xAF 0xCD 0xBD XOR 0xCE SWAP14 BLOCKHASH PREVRANDAO 0xE8 PUSH21 0x33A91B733C1564736F6C6343000813003300000000 "},"methodIdentifiers":{"allBatchIds(uint256)":"290b17ec","batchUpdates(string,uint256)":"7301e5a8","createBatch(string,string,string,string,string,uint256)":"c9c9f36e","cropBatches(string)":"88675465","getBatch(string)":"f9ca4274","getBatchIdByIndex(uint256)":"a0b6041d","getBatchUpdates(string)":"3d8383b5","getLatestUpdate(string)":"372eeca6","getTotalBatches()":"e561dddc","owner()":"8da5cb5b","paused()":"5c975abb","recallBatch(string)":"52969187","roles(address)":"99374642","setPaused(bool)":"16c38b3c","setRole(address,uint8)":"571c3e60","transferOwnership(address)":"f2fde38b","updateBatch(string,uint8,string,string,string)":"cc023aa6"}}}}}