{
  "_format": "hh-sol-artifact-1",
  "contractName": "ReentrancyAttacker",
  "sourceName": "contracts/test/ReentrancyAttacker.sol",
  "abi": [
    {
      "inputs": [
        {
          "internalType": "address",
          "name": "_target",
          "type": "address"
        }
      ],
      "stateMutability": "nonpayable",
      "type": "constructor"
    },
    {
      "inputs": [],
      "name": "attackInProgress",
      "outputs": [
        {
          "internalType": "bool",
          "name": "",
          "type": "bool"
        }
      ],
      "stateMutability": "view",
      "type": "function"
    },
    {
      "inputs": [],
      "name": "depositToTarget",
      "outputs": [],
      "stateMutability": "payable",
      "type": "function"
    },
    {
      "inputs": [
        {
          "internalType": "uint256",
          "name": "_withdrawAmount",
          "type": "uint256"
        },
        {
          "internalType": "uint256",
          "name": "_maxReentries",
          "type": "uint256"
        }
      ],
      "name": "initiateAttack",
      "outputs": [],
      "stateMutability": "nonpayable",
      "type": "function"
    },
    {
      "inputs": [],
      "name": "maxReentries",
      "outputs": [
        {
          "internalType": "uint256",
          "name": "",
          "type": "uint256"
        }
      ],
      "stateMutability": "view",
      "type": "function"
    },
    {
      "inputs": [],
      "name": "reentryBlocked",
      "outputs": [
        {
          "internalType": "bool",
          "name": "",
          "type": "bool"
        }
      ],
      "stateMutability": "view",
      "type": "function"
    },
    {
      "inputs": [],
      "name": "reentryCount",
      "outputs": [
        {
          "internalType": "uint256",
          "name": "",
          "type": "uint256"
        }
      ],
      "stateMutability": "view",
      "type": "function"
    },
    {
      "inputs": [],
      "name": "target",
      "outputs": [
        {
          "internalType": "contract CropChain",
          "name": "",
          "type": "address"
        }
      ],
      "stateMutability": "view",
      "type": "function"
    },
    {
      "inputs": [],
      "name": "withdrawAmount",
      "outputs": [
        {
          "internalType": "uint256",
          "name": "",
          "type": "uint256"
        }
      ],
      "stateMutability": "view",
      "type": "function"
    },
    {
      "stateMutability": "payable",
      "type": "receive"
    }
  ],
  "bytecode": "0x60a060405234801561001057600080fd5b5060405161051c38038061051c83398101604081905261002f91610040565b6001600160a01b0316608052610070565b60006020828403121561005257600080fd5b81516001600160a01b038116811461006957600080fd5b9392505050565b60805161047d61009f6000396000818160d301528181610223015281816102db015261038a015261047d6000f3fe60806040526004361061007f5760003560e01c806353b381691161004e57806353b38169146101d957806364bf5dcb146101ef578063818c8c7c146101f7578063d4b839921461021157600080fd5b8063043d7fcd1461014b57806332db89f21461016b578063352bb4ba1461019f578063534844a2146101c357600080fd5b366101465760035460ff16158061009a575060015460025410155b156100a157005b6001600260008282546100b491906103fe565b90915550506000546040516305430f9560e11b815260048101919091527f00000000000000000000000000000000000000000000000000000000000000006001600160a01b031690630a861f2a90602401600060405180830381600087803b15801561011f57600080fd5b505af1925050508015610130575060015b610144576003805461ff0019166101001790555b005b600080fd5b34801561015757600080fd5b50610144610166366004610425565b61025d565b34801561017757600080fd5b5060035461018a90610100900460ff1681565b60405190151581526020015b60405180910390f35b3480156101ab57600080fd5b506101b560015481565b604051908152602001610196565b3480156101cf57600080fd5b506101b560005481565b3480156101e557600080fd5b506101b560025481565b61014461034d565b34801561020357600080fd5b5060035461018a9060ff1681565b34801561021d57600080fd5b506102457f000000000000000000000000000000000000000000000000000000000000000081565b6040516001600160a01b039091168152602001610196565b600082116102a75760405162461bcd60e51b81526020600482015260126024820152710416d6f756e74206d757374206265203e20360741b60448201526064015b60405180910390fd5b600082815560018281556002919091556003805461ffff191690911790556040516305430f9560e11b8152600481018390527f00000000000000000000000000000000000000000000000000000000000000006001600160a01b031690630a861f2a90602401600060405180830381600087803b15801561032757600080fd5b505af115801561033b573d6000803e3d6000fd5b50506003805460ff1916905550505050565b600034116103885760405162461bcd60e51b81526020600482015260086024820152674e6f2076616c756560c01b604482015260640161029e565b7f00000000000000000000000000000000000000000000000000000000000000006001600160a01b031663ca593c59346040518263ffffffff1660e01b81526004016000604051808303818588803b1580156103e357600080fd5b505af11580156103f7573d6000803e3d6000fd5b5050505050565b8082018082111561041f57634e487b7160e01b600052601160045260246000fd5b92915050565b6000806040838503121561043857600080fd5b5050803592602090910135915056fea264697066735822122083c5127b8011825ebef62573703ae6dd9f8d82f86cc6343c7f6905274916c6c264736f6c63430008130033",
  "linkReferences": {},
  "deployedLinkReferences": {}
}