{
  "_format": "hh-sol-artifact-1",
  "contractName": "CropChain",
  "sourceName": "contracts/CropChain.sol",
  "abi": [
    {
      "inputs": [],
      "stateMutability": "nonpayable",
      "type": "constructor"
    },
    {
      "anonymous": false,
      "inputs": [
        {
          "indexed": true,
          "internalType": "bytes32",
          "name": "batchId",
          "type": "bytes32"
        },
        {
          "indexed": false,
          "internalType": "string",
          "name": "ipfsCID",
          "type": "string"
        },
        {
          "indexed": false,
          "internalType": "uint256",
          "name": "quantity",
          "type": "uint256"
        },
        {
          "indexed": true,
          "internalType": "address",
          "name": "creator",
          "type": "address"
        }
      ],
      "name": "BatchCreated",
      "type": "event"
    },
    {
      "anonymous": false,
      "inputs": [
        {
          "indexed": true,
          "internalType": "bytes32",
          "name": "batchId",
          "type": "bytes32"
        },
        {
          "indexed": false,
          "internalType": "enum CropChain.Stage",
          "name": "stage",
          "type": "uint8"
        },
        {
          "indexed": false,
          "internalType": "string",
          "name": "actorName",
          "type": "string"
        },
        {
          "indexed": false,
          "internalType": "string",
          "name": "location",
          "type": "string"
        },
        {
          "indexed": true,
          "internalType": "address",
          "name": "updatedBy",
          "type": "address"
        }
      ],
      "name": "BatchUpdated",
      "type": "event"
    },
    {
      "anonymous": false,
      "inputs": [
        {
          "indexed": true,
          "internalType": "address",
          "name": "caller",
          "type": "address"
        },
        {
          "indexed": false,
          "internalType": "bool",
          "name": "isPaused",
          "type": "bool"
        }
      ],
      "name": "CircuitBreakerToggled",
      "type": "event"
    },
    {
      "anonymous": false,
      "inputs": [
        {
          "indexed": true,
          "internalType": "bytes32",
          "name": "cropKey",
          "type": "bytes32"
        },
        {
          "indexed": false,
          "internalType": "uint256",
          "name": "price",
          "type": "uint256"
        },
        {
          "indexed": false,
          "internalType": "uint256",
          "name": "timestamp",
          "type": "uint256"
        }
      ],
      "name": "CropPriceObserved",
      "type": "event"
    },
    {
      "anonymous": false,
      "inputs": [
        {
          "indexed": true,
          "internalType": "address",
          "name": "mandi",
          "type": "address"
        },
        {
          "indexed": false,
          "internalType": "uint256",
          "name": "amount",
          "type": "uint256"
        }
      ],
      "name": "LiquidityDeposited",
      "type": "event"
    },
    {
      "anonymous": false,
      "inputs": [
        {
          "indexed": true,
          "internalType": "address",
          "name": "mandi",
          "type": "address"
        },
        {
          "indexed": false,
          "internalType": "uint256",
          "name": "amount",
          "type": "uint256"
        }
      ],
      "name": "LiquidityWithdrawn",
      "type": "event"
    },
    {
      "anonymous": false,
      "inputs": [
        {
          "indexed": true,
          "internalType": "address",
          "name": "previousOwner",
          "type": "address"
        },
        {
          "indexed": true,
          "internalType": "address",
          "name": "newOwner",
          "type": "address"
        }
      ],
      "name": "OwnershipTransferred",
      "type": "event"
    },
    {
      "anonymous": false,
      "inputs": [
        {
          "indexed": false,
          "internalType": "address",
          "name": "account",
          "type": "address"
        }
      ],
      "name": "Paused",
      "type": "event"
    },
    {
      "anonymous": false,
      "inputs": [
        {
          "indexed": true,
          "internalType": "address",
          "name": "user",
          "type": "address"
        },
        {
          "indexed": false,
          "internalType": "enum CropChain.ActorRole",
          "name": "role",
          "type": "uint8"
        }
      ],
      "name": "RoleUpdated",
      "type": "event"
    },
    {
      "anonymous": false,
      "inputs": [
        {
          "indexed": false,
          "internalType": "uint256",
          "name": "previousWindow",
          "type": "uint256"
        },
        {
          "indexed": false,
          "internalType": "uint256",
          "name": "newWindow",
          "type": "uint256"
        }
      ],
      "name": "TWAPWindowUpdated",
      "type": "event"
    },
    {
      "anonymous": false,
      "inputs": [
        {
          "indexed": false,
          "internalType": "address",
          "name": "account",
          "type": "address"
        }
      ],
      "name": "Unpaused",
      "type": "event"
    },
    {
      "inputs": [
        {
          "internalType": "uint256",
          "name": "",
          "type": "uint256"
        }
      ],
      "name": "allBatchIds",
      "outputs": [
        {
          "internalType": "bytes32",
          "name": "",
          "type": "bytes32"
        }
      ],
      "stateMutability": "view",
      "type": "function"
    },
    {
      "inputs": [
        {
          "internalType": "bytes32",
          "name": "",
          "type": "bytes32"
        },
        {
          "internalType": "uint256",
          "name": "",
          "type": "uint256"
        }
      ],
      "name": "batchUpdates",
      "outputs": [
        {
          "internalType": "enum CropChain.Stage",
          "name": "stage",
          "type": "uint8"
        },
        {
          "internalType": "string",
          "name": "actorName",
          "type": "string"
        },
        {
          "internalType": "string",
          "name": "location",
          "type": "string"
        },
        {
          "internalType": "uint256",
          "name": "timestamp",
          "type": "uint256"
        },
        {
          "internalType": "string",
          "name": "notes",
          "type": "string"
        },
        {
          "internalType": "address",
          "name": "updatedBy",
          "type": "address"
        }
      ],
      "stateMutability": "view",
      "type": "function"
    },
    {
      "inputs": [
        {
          "internalType": "bytes32",
          "name": "_batchId",
          "type": "bytes32"
        },
        {
          "internalType": "string",
          "name": "_ipfsCID",
          "type": "string"
        },
        {
          "internalType": "uint256",
          "name": "_quantity",
          "type": "uint256"
        }
      ],
      "name": "createBatch",
      "outputs": [],
      "stateMutability": "nonpayable",
      "type": "function"
    },
    {
      "inputs": [
        {
          "internalType": "bytes32",
          "name": "",
          "type": "bytes32"
        }
      ],
      "name": "cropBatches",
      "outputs": [
        {
          "internalType": "bytes32",
          "name": "batchId",
          "type": "bytes32"
        },
        {
          "internalType": "string",
          "name": "ipfsCID",
          "type": "string"
        },
        {
          "internalType": "uint256",
          "name": "quantity",
          "type": "uint256"
        },
        {
          "internalType": "uint256",
          "name": "createdAt",
          "type": "uint256"
        },
        {
          "internalType": "address",
          "name": "creator",
          "type": "address"
        },
        {
          "internalType": "bool",
          "name": "exists",
          "type": "bool"
        }
      ],
      "stateMutability": "view",
      "type": "function"
    },
    {
      "inputs": [],
      "name": "depositLiquidity",
      "outputs": [],
      "stateMutability": "payable",
      "type": "function"
    },
    {
      "inputs": [
        {
          "internalType": "bytes32",
          "name": "_batchId",
          "type": "bytes32"
        }
      ],
      "name": "getBatch",
      "outputs": [
        {
          "components": [
            {
              "internalType": "bytes32",
              "name": "batchId",
              "type": "bytes32"
            },
            {
              "internalType": "string",
              "name": "ipfsCID",
              "type": "string"
            },
            {
              "internalType": "uint256",
              "name": "quantity",
              "type": "uint256"
            },
            {
              "internalType": "uint256",
              "name": "createdAt",
              "type": "uint256"
            },
            {
              "internalType": "address",
              "name": "creator",
              "type": "address"
            },
            {
              "internalType": "bool",
              "name": "exists",
              "type": "bool"
            }
          ],
          "internalType": "struct CropChain.CropBatch",
          "name": "",
          "type": "tuple"
        }
      ],
      "stateMutability": "view",
      "type": "function"
    },
    {
      "inputs": [
        {
          "internalType": "uint256",
          "name": "_index",
          "type": "uint256"
        }
      ],
      "name": "getBatchIdByIndex",
      "outputs": [
        {
          "internalType": "bytes32",
          "name": "",
          "type": "bytes32"
        }
      ],
      "stateMutability": "view",
      "type": "function"
    },
    {
      "inputs": [
        {
          "internalType": "bytes32",
          "name": "_batchId",
          "type": "bytes32"
        }
      ],
      "name": "getBatchUpdates",
      "outputs": [
        {
          "components": [
            {
              "internalType": "enum CropChain.Stage",
              "name": "stage",
              "type": "uint8"
            },
            {
              "internalType": "string",
              "name": "actorName",
              "type": "string"
            },
            {
              "internalType": "string",
              "name": "location",
              "type": "string"
            },
            {
              "internalType": "uint256",
              "name": "timestamp",
              "type": "uint256"
            },
            {
              "internalType": "string",
              "name": "notes",
              "type": "string"
            },
            {
              "internalType": "address",
              "name": "updatedBy",
              "type": "address"
            }
          ],
          "internalType": "struct CropChain.SupplyChainUpdate[]",
          "name": "",
          "type": "tuple[]"
        }
      ],
      "stateMutability": "view",
      "type": "function"
    },
    {
      "inputs": [
        {
          "internalType": "bytes32",
          "name": "_cropKey",
          "type": "bytes32"
        }
      ],
      "name": "getCropTWAP",
      "outputs": [
        {
          "internalType": "uint256",
          "name": "",
          "type": "uint256"
        }
      ],
      "stateMutability": "view",
      "type": "function"
    },
    {
      "inputs": [
        {
          "internalType": "bytes32",
          "name": "_cropKey",
          "type": "bytes32"
        }
      ],
      "name": "getLatestCropPrice",
      "outputs": [
        {
          "internalType": "uint256",
          "name": "",
          "type": "uint256"
        }
      ],
      "stateMutability": "view",
      "type": "function"
    },
    {
      "inputs": [
        {
          "internalType": "bytes32",
          "name": "_batchId",
          "type": "bytes32"
        }
      ],
      "name": "getLatestUpdate",
      "outputs": [
        {
          "components": [
            {
              "internalType": "enum CropChain.Stage",
              "name": "stage",
              "type": "uint8"
            },
            {
              "internalType": "string",
              "name": "actorName",
              "type": "string"
            },
            {
              "internalType": "string",
              "name": "location",
              "type": "string"
            },
            {
              "internalType": "uint256",
              "name": "timestamp",
              "type": "uint256"
            },
            {
              "internalType": "string",
              "name": "notes",
              "type": "string"
            },
            {
              "internalType": "address",
              "name": "updatedBy",
              "type": "address"
            }
          ],
          "internalType": "struct CropChain.SupplyChainUpdate",
          "name": "",
          "type": "tuple"
        }
      ],
      "stateMutability": "view",
      "type": "function"
    },
    {
      "inputs": [],
      "name": "getTotalBatches",
      "outputs": [
        {
          "internalType": "uint256",
          "name": "",
          "type": "uint256"
        }
      ],
      "stateMutability": "view",
      "type": "function"
    },
    {
      "inputs": [
        {
          "internalType": "address",
          "name": "",
          "type": "address"
        }
      ],
      "name": "mandiLiquidity",
      "outputs": [
        {
          "internalType": "uint256",
          "name": "",
          "type": "uint256"
        }
      ],
      "stateMutability": "view",
      "type": "function"
    },
    {
      "inputs": [],
      "name": "owner",
      "outputs": [
        {
          "internalType": "address",
          "name": "",
          "type": "address"
        }
      ],
      "stateMutability": "view",
      "type": "function"
    },
    {
      "inputs": [],
      "name": "pause",
      "outputs": [],
      "stateMutability": "nonpayable",
      "type": "function"
    },
    {
      "inputs": [],
      "name": "paused",
      "outputs": [
        {
          "internalType": "bool",
          "name": "",
          "type": "bool"
        }
      ],
      "stateMutability": "view",
      "type": "function"
    },
    {
      "inputs": [
        {
          "internalType": "bytes32",
          "name": "_cropKey",
          "type": "bytes32"
        },
        {
          "internalType": "uint256",
          "name": "_spotPrice",
          "type": "uint256"
        }
      ],
      "name": "recordCropPrice",
      "outputs": [],
      "stateMutability": "nonpayable",
      "type": "function"
    },
    {
      "inputs": [
        {
          "internalType": "address",
          "name": "",
          "type": "address"
        }
      ],
      "name": "roles",
      "outputs": [
        {
          "internalType": "enum CropChain.ActorRole",
          "name": "",
          "type": "uint8"
        }
      ],
      "stateMutability": "view",
      "type": "function"
    },
    {
      "inputs": [
        {
          "internalType": "bool",
          "name": "_paused",
          "type": "bool"
        }
      ],
      "name": "setPaused",
      "outputs": [],
      "stateMutability": "nonpayable",
      "type": "function"
    },
    {
      "inputs": [
        {
          "internalType": "address",
          "name": "_user",
          "type": "address"
        },
        {
          "internalType": "enum CropChain.ActorRole",
          "name": "_role",
          "type": "uint8"
        }
      ],
      "name": "setRole",
      "outputs": [],
      "stateMutability": "nonpayable",
      "type": "function"
    },
    {
      "inputs": [
        {
          "internalType": "uint256",
          "name": "_newWindowSeconds",
          "type": "uint256"
        }
      ],
      "name": "setTWAPWindow",
      "outputs": [],
      "stateMutability": "nonpayable",
      "type": "function"
    },
    {
      "inputs": [
        {
          "internalType": "address",
          "name": "_newOwner",
          "type": "address"
        }
      ],
      "name": "transferOwnership",
      "outputs": [],
      "stateMutability": "nonpayable",
      "type": "function"
    },
    {
      "inputs": [],
      "name": "twapWindow",
      "outputs": [
        {
          "internalType": "uint256",
          "name": "",
          "type": "uint256"
        }
      ],
      "stateMutability": "view",
      "type": "function"
    },
    {
      "inputs": [],
      "name": "unpause",
      "outputs": [],
      "stateMutability": "nonpayable",
      "type": "function"
    },
    {
      "inputs": [
        {
          "internalType": "bytes32",
          "name": "_batchId",
          "type": "bytes32"
        },
        {
          "internalType": "enum CropChain.Stage",
          "name": "_stage",
          "type": "uint8"
        },
        {
          "internalType": "string",
          "name": "_actorName",
          "type": "string"
        },
        {
          "internalType": "string",
          "name": "_location",
          "type": "string"
        },
        {
          "internalType": "string",
          "name": "_notes",
          "type": "string"
        }
      ],
      "name": "updateBatch",
      "outputs": [],
      "stateMutability": "nonpayable",
      "type": "function"
    },
    {
      "inputs": [
        {
          "internalType": "uint256",
          "name": "_amount",
          "type": "uint256"
        }
      ],
      "name": "withdrawLiquidity",
      "outputs": [],
      "stateMutability": "nonpayable",
      "type": "function"
    }
  ],
  "bytecode": "0x6080604052610e1060095534801561001657600080fd5b506000805460ff1990811682556001805560088054336001600160a01b0319909116811790915582526006602052604090912080549091166005179055612daa806100626000396000f3fe6080604052600436106101815760003560e01c8063906ddff1116100d1578063ae85079b1161008a578063e561dddc11610064578063e561dddc146104a6578063ed42136f146104bb578063f2fde38b146104e8578063f4cd0a391461050857600080fd5b8063ae85079b1461045e578063b744d9651461047e578063ca593c591461049e57600080fd5b8063906ddff1146103435780639937464214610375578063a0b6041d146103b2578063a9437275146103d2578063aa68b48e146103ff578063ab0050111461043157600080fd5b80633f4ba83a1161013e5780635fce131a116101185780635fce131a146102c05780638107e133146102e05780638456cb59146102f65780638da5cb5b1461030b57600080fd5b80633f4ba83a14610268578063571c3e601461027d5780635c975abb1461029d57600080fd5b8063068d4825146101865780630a861f2a146101a857806316c38b3c146101c8578063290b17ec146101e857806332fc21621461021b57806336214a1c14610248575b600080fd5b34801561019257600080fd5b506101a66101a1366004612585565b610528565b005b3480156101b457600080fd5b506101a66101c3366004612585565b610660565b3480156101d457600080fd5b506101a66101e336600461259e565b610814565b3480156101f457600080fd5b50610208610203366004612585565b6108f0565b6040519081526020015b60405180910390f35b34801561022757600080fd5b506102086102363660046125e3565b60056020526000908152604090205481565b34801561025457600080fd5b506101a66102633660046126a1565b610911565b34801561027457600080fd5b506101a6610c49565b34801561028957600080fd5b506101a661029836600461274a565b610ccd565b3480156102a957600080fd5b5060005460ff166040519015158152602001610212565b3480156102cc57600080fd5b506102086102db366004612585565b610de9565b3480156102ec57600080fd5b5061020860095481565b34801561030257600080fd5b506101a6610fa6565b34801561031757600080fd5b5060085461032b906001600160a01b031681565b6040516001600160a01b039091168152602001610212565b34801561034f57600080fd5b5061036361035e366004612585565b611020565b604051610212969594939291906127cb565b34801561038157600080fd5b506103a56103903660046125e3565b60066020526000908152604090205460ff1681565b604051610212919061282a565b3480156103be57600080fd5b506102086103cd366004612585565b6110ee565b3480156103de57600080fd5b506103f26103ed366004612585565b611157565b60405161021291906128da565b34801561040b57600080fd5b5061041f61041a36600461293c565b6113ff565b6040516102129695949392919061295e565b34801561043d57600080fd5b5061045161044c366004612585565b6115fa565b60405161021291906129c6565b34801561046a57600080fd5b506101a66104793660046129d9565b61194c565b34801561048a57600080fd5b506101a661049936600461293c565b611d98565b6101a6611ef4565b3480156104b257600080fd5b50600754610208565b3480156104c757600080fd5b506104db6104d6366004612585565b611fb6565b6040516102129190612a29565b3480156104f457600080fd5b506101a66105033660046125e3565b61211e565b34801561051457600080fd5b50610208610523366004612585565b612227565b6008546001600160a01b0316331461055b5760405162461bcd60e51b815260040161055290612a8d565b60405180910390fd5b60026001540361057d5760405162461bcd60e51b815260040161055290612ab1565b600260015561012c8110156105cc5760405162461bcd60e51b81526020600482015260156024820152741515d054081dda5b991bddc81d1bdbc81cdb585b1b605a1b6044820152606401610552565b62093a808111156106175760405162461bcd60e51b8152602060048201526015602482015274545741502077696e646f7720746f6f206c6172676560581b6044820152606401610552565b600980549082905560408051828152602081018490527f2c591976d63e416b8f3ed5acd979bd988ed00df9935a24902bca4c4edbbe1db4910160405180910390a1505060018055565b6106686122b5565b60026001540361068a5760405162461bcd60e51b815260040161055290612ab1565b6002600155806106cd5760405162461bcd60e51b815260206004820152600e60248201526d125b9d985b1a5908185b5bdd5b9d60921b6044820152606401610552565b33600090815260056020526040902054818110156107265760405162461bcd60e51b8152602060048201526016602482015275496e73756666696369656e74206c697175696469747960501b6044820152606401610552565b6107308282612afe565b3360008181526005602052604080822093909355915184908381818185875af1925050503d8060008114610780576040519150601f19603f3d011682016040523d82523d6000602084013e610785565b606091505b50509050806107d65760405162461bcd60e51b815260206004820152601a60248201527f5769746864726177616c207472616e73666572206661696c65640000000000006044820152606401610552565b60405183815233907fb1cce8684b4ffa8667b4577654e61ee3480d661ee9c27522ac80e211f6bd4d259060200160405180910390a250506001805550565b6008546001600160a01b0316331461083e5760405162461bcd60e51b815260040161055290612a8d565b6002600154036108605760405162461bcd60e51b815260040161055290612ab1565b6002600155808015610875575060005460ff16155b156108a7576108826122fd565b604051600181523390600080516020612d558339815191529060200160405180910390a25b801580156108b7575060005460ff165b156108e9576108c4612357565b604051600081523390600080516020612d558339815191529060200160405180910390a25b5060018055565b6007818154811061090057600080fd5b600091825260209091200154905081565b6109196122b5565b60026001540361093b5760405162461bcd60e51b815260040161055290612ab1565b60026001819055600086815260209190915260409020600401548590600160a01b900460ff1661097d5760405162461bcd60e51b815260040161055290612b11565b3360009081526006602052604081205460ff16908160058111156109a3576109a3612814565b036109da5760405162461bcd60e51b81526020600482015260076024820152664e6f20726f6c6560c81b6044820152606401610552565b6109e48682612390565b610a235760405162461bcd60e51b815260206004820152601060248201526f149bdb19481b9bdd08185b1b1bddd95960821b6044820152606401610552565b610a2d8787612497565b610a6d5760405162461bcd60e51b81526020600482015260116024820152702bb937b7339039ba30b3b29037b93232b960791b6044820152606401610552565b6000855111610aae5760405162461bcd60e51b815260206004820152600d60248201526c24b73b30b634b21030b1ba37b960991b6044820152606401610552565b6000845111610af25760405162461bcd60e51b815260206004820152601060248201526f24b73b30b634b2103637b1b0ba34b7b760811b6044820152606401610552565b600360008881526020019081526020016000206040518060c00160405280886003811115610b2257610b22612814565b8152602080820189905260408201889052426060830152608082018790523360a09092019190915282546001818101855560009485529190932082516006909402018054929390929091839160ff191690836003811115610b8557610b85612814565b021790555060208201516001820190610b9e9082612bbd565b5060408201516002820190610bb39082612bbd565b506060820151600382015560808201516004820190610bd29082612bbd565b5060a09190910151600590910180546001600160a01b0319166001600160a01b03909216919091179055604051339088907f2cefceaa731c274adf2f7bd3b3237d2e06cb4fe59bd62d9ea2055287a132d36490610c34908a908a908a90612c7d565b60405180910390a35050600180555050505050565b6008546001600160a01b03163314610c735760405162461bcd60e51b815260040161055290612a8d565b600260015403610c955760405162461bcd60e51b815260040161055290612ab1565b6002600155610ca2612357565b604051600081523390600080516020612d55833981519152906020015b60405180910390a260018055565b6008546001600160a01b03163314610cf75760405162461bcd60e51b815260040161055290612a8d565b600260015403610d195760405162461bcd60e51b815260040161055290612ab1565b60026001556001600160a01b038216610d665760405162461bcd60e51b815260206004820152600f60248201526e496e76616c6964206164647265737360881b6044820152606401610552565b6001600160a01b0382166000908152600660205260409020805482919060ff19166001836005811115610d9b57610d9b612814565b0217905550816001600160a01b03167fc3f8f61911a1537261f77e2703626e158e299a98e341024ecaa26bbd1d884c6482604051610dd9919061282a565b60405180910390a2505060018055565b6000818152600460205260408120805460021115610e425760405162461bcd60e51b8152602060048201526016602482015275496e73756666696369656e742054574150206461746160501b6044820152606401610552565b60006009544211610e54576000610e61565b600954610e619042612afe565b8254909150600090819042905b8015610f4d57600086610e82600184612afe565b81548110610e9257610e92612cb9565b906000526020600020906002020190508581600001541015610ef45785831115610eee576000610ec28785612afe565b9050808260010154610ed49190612ccf565b610ede9087612ce6565b9550610eea8186612ce6565b9450505b50610f4d565b8054831115610f38578054600090610f0c9085612afe565b9050808260010154610f1e9190612ccf565b610f289087612ce6565b9550610f348186612ce6565b9450505b54915080610f4581612cf9565b915050610e6e565b5060008211610f915760405162461bcd60e51b815260206004820152601060248201526f2737902a2ba0a810323ab930ba34b7b760811b6044820152606401610552565b610f9b8284612d10565b979650505050505050565b6008546001600160a01b03163314610fd05760405162461bcd60e51b815260040161055290612a8d565b600260015403610ff25760405162461bcd60e51b815260040161055290612ab1565b6002600155610fff6122fd565b604051600181523390600080516020612d5583398151915290602001610cbf565b6002602052600090815260409020805460018201805491929161104290612b3a565b80601f016020809104026020016040519081016040528092919081815260200182805461106e90612b3a565b80156110bb5780601f10611090576101008083540402835291602001916110bb565b820191906000526020600020905b81548152906001019060200180831161109e57829003601f168201915b5050505060028301546003840154600490940154929390929091506001600160a01b03811690600160a01b900460ff1686565b60075460009082106111325760405162461bcd60e51b815260206004820152600d60248201526c4f7574206f6620626f756e647360981b6044820152606401610552565b6007828154811061114557611145612cb9565b90600052602060002001549050919050565b6000818152600260205260409020600401546060908290600160a01b900460ff166111945760405162461bcd60e51b815260040161055290612b11565b600083815260036020908152604080832080548251818502810185019093528083529193909284015b828210156113f2576000848152602090206040805160c08101909152600684029091018054829060ff1660038111156111f8576111f8612814565b600381111561120957611209612814565b815260200160018201805461121d90612b3a565b80601f016020809104026020016040519081016040528092919081815260200182805461124990612b3a565b80156112965780601f1061126b57610100808354040283529160200191611296565b820191906000526020600020905b81548152906001019060200180831161127957829003601f168201915b505050505081526020016002820180546112af90612b3a565b80601f01602080910402602001604051908101604052809291908181526020018280546112db90612b3a565b80156113285780601f106112fd57610100808354040283529160200191611328565b820191906000526020600020905b81548152906001019060200180831161130b57829003601f168201915b505050505081526020016003820154815260200160048201805461134b90612b3a565b80601f016020809104026020016040519081016040528092919081815260200182805461137790612b3a565b80156113c45780601f10611399576101008083540402835291602001916113c4565b820191906000526020600020905b8154815290600101906020018083116113a757829003601f168201915b5050509183525050600591909101546001600160a01b031660209182015290825260019290920191016111bd565b5050505091505b50919050565b6003602052816000526040600020818154811061141b57600080fd5b60009182526020909120600690910201805460018201805460ff909216945091925061144690612b3a565b80601f016020809104026020016040519081016040528092919081815260200182805461147290612b3a565b80156114bf5780601f10611494576101008083540402835291602001916114bf565b820191906000526020600020905b8154815290600101906020018083116114a257829003601f168201915b5050505050908060020180546114d490612b3a565b80601f016020809104026020016040519081016040528092919081815260200182805461150090612b3a565b801561154d5780601f106115225761010080835404028352916020019161154d565b820191906000526020600020905b81548152906001019060200180831161153057829003601f168201915b50505050509080600301549080600401805461156890612b3a565b80601f016020809104026020016040519081016040528092919081815260200182805461159490612b3a565b80156115e15780601f106115b6576101008083540402835291602001916115e1565b820191906000526020600020905b8154815290600101906020018083116115c457829003601f168201915b505050600590930154919250506001600160a01b031686565b61163d6040805160c0810190915280600081526020016060815260200160608152602001600081526020016060815260200160006001600160a01b031681525090565b6000828152600260205260409020600401548290600160a01b900460ff166116775760405162461bcd60e51b815260040161055290612b11565b600083815260036020908152604080832080548251818502810185019093528083529192909190849084015b828210156118d8576000848152602090206040805160c08101909152600684029091018054829060ff1660038111156116de576116de612814565b60038111156116ef576116ef612814565b815260200160018201805461170390612b3a565b80601f016020809104026020016040519081016040528092919081815260200182805461172f90612b3a565b801561177c5780601f106117515761010080835404028352916020019161177c565b820191906000526020600020905b81548152906001019060200180831161175f57829003601f168201915b5050505050815260200160028201805461179590612b3a565b80601f01602080910402602001604051908101604052809291908181526020018280546117c190612b3a565b801561180e5780601f106117e35761010080835404028352916020019161180e565b820191906000526020600020905b8154815290600101906020018083116117f157829003601f168201915b505050505081526020016003820154815260200160048201805461183190612b3a565b80601f016020809104026020016040519081016040528092919081815260200182805461185d90612b3a565b80156118aa5780601f1061187f576101008083540402835291602001916118aa565b820191906000526020600020905b81548152906001019060200180831161188d57829003601f168201915b5050509183525050600591909101546001600160a01b031660209182015290825260019290920191016116a3565b505050509050600081511161191c5760405162461bcd60e51b815260206004820152600a6024820152694e6f207570646174657360b01b6044820152606401610552565b806001825161192b9190612afe565b8151811061193b5761193b612cb9565b602002602001015192505050919050565b6119546122b5565b6002600154036119765760405162461bcd60e51b815260040161055290612ab1565b600260019081553360009081526006602052604090205460ff1660058111156119a1576119a1612814565b14806119d0575060053360009081526006602052604090205460ff1660058111156119ce576119ce612814565b145b611a105760405162461bcd60e51b815260206004820152601160248201527027b7363c903330b936b2b917b0b236b4b760791b6044820152606401610552565b600083815260026020526040902060040154600160a01b900460ff1615611a685760405162461bcd60e51b815260206004820152600c60248201526b42617463682065786973747360a01b6044820152606401610552565b82611aa85760405162461bcd60e51b815260206004820152601060248201526f125b9d985b1a590818985d18da08125160821b6044820152606401610552565b6000825111611ae75760405162461bcd60e51b815260206004820152600b60248201526a125b9d985b1a590810d25160aa1b6044820152606401610552565b60008111611b2a5760405162461bcd60e51b815260206004820152601060248201526f496e76616c6964207175616e7469747960801b6044820152606401610552565b6040805160c0810182528481526020808201858152828401859052426060840152336080840152600160a0840181905260008881526002909352939091208251815590519192909190820190611b809082612bbd565b5060408281015160028301556060808401516003808501919091556080808601516004909501805460a0978801511515600160a01b026001600160a81b03199091166001600160a01b03909716969096179590951790945560008881526020828152848220855160c081018752838152865180880188526006808252652330b936b2b960d11b828601528285019190915287518089018952600981526846726f6d204950465360b81b818601528289015242968201969096528651808801909752600f87526e125b9a5d1a585b081a185c9d995cdd608a1b878401529687019590955233968601969096528354600181810186559482529590208451959092029091018054939490939092849260ff19909216918490811115611ca557611ca5612814565b021790555060208201516001820190611cbe9082612bbd565b5060408201516002820190611cd39082612bbd565b506060820151600382015560808201516004820190611cf29082612bbd565b5060a09190910151600590910180546001600160a01b0319166001600160a01b03909216919091179055600780546001810182556000919091527fa66cc928b5edb82af9bd49922954155ab7b0942694bea4ce44661d9a8736c68801839055604051339084907f1e548d6c3fb449f78f5b7457156dcfb300cbb65d12a4038b334b6bfbdba9573890611d879086908690612d32565b60405180910390a350506001805550565b6008546001600160a01b03163314611dc25760405162461bcd60e51b815260040161055290612a8d565b611dca6122b5565b600260015403611dec5760405162461bcd60e51b815260040161055290612ab1565b600260015581611e315760405162461bcd60e51b815260206004820152601060248201526f496e76616c69642063726f70206b657960801b6044820152606401610552565b60008111611e765760405162461bcd60e51b8152602060048201526012602482015271496e76616c69642073706f7420707269636560701b6044820152606401610552565b60008281526004602090815260408083208151808301835242808252818501878152835460018181018655948852959096209151600290950290910193845593519201919091555183917f38288a2896fa67f52d674f21012d72609440910efbc4503f6573b31248e4393291610dd991858252602082015260400190565b611efc6122b5565b600260015403611f1e5760405162461bcd60e51b815260040161055290612ab1565b600260015534611f605760405162461bcd60e51b815260206004820152600d60248201526c139bc81d985b1d59481cd95b9d609a1b6044820152606401610552565b3360009081526005602052604081208054349290611f7f908490612ce6565b909155505060405134815233907f7ff07ce9a287649537e4b012e45cf012d90228b12e2b56bb03515a6b5436fcdf90602001610cbf565b6040805160c08101825260008082526060602083018190529282018190529181018290526080810182905260a08101919091526000828152600260205260409020600401548290600160a01b900460ff166120235760405162461bcd60e51b815260040161055290612b11565b600260008481526020019081526020016000206040518060c00160405290816000820154815260200160018201805461205b90612b3a565b80601f016020809104026020016040519081016040528092919081815260200182805461208790612b3a565b80156120d45780601f106120a9576101008083540402835291602001916120d4565b820191906000526020600020905b8154815290600101906020018083116120b757829003601f168201915b505050918352505060028201546020820152600382015460408201526004909101546001600160a01b0381166060830152600160a01b900460ff1615156080909101529392505050565b6008546001600160a01b031633146121485760405162461bcd60e51b815260040161055290612a8d565b60026001540361216a5760405162461bcd60e51b815260040161055290612ab1565b60026001556001600160a01b0381166121b75760405162461bcd60e51b815260206004820152600f60248201526e496e76616c6964206164647265737360881b6044820152606401610552565b600880546001600160a01b031981166001600160a01b03848116918217909355600081815260066020526040808220805460ff19166005179055519390921692909183917f8be0079c531659141344cd1fd0a4f28419497f9722a3daafe3b4186f6b6457e09190a3505060018055565b6000818152600460205260408120805461227b5760405162461bcd60e51b81526020600482015260156024820152744e6f207072696365206f62736572766174696f6e7360581b6044820152606401610552565b8054819061228b90600190612afe565b8154811061229b5761229b612cb9565b906000526020600020906002020160010154915050919050565b60005460ff16156122fb5760405162461bcd60e51b815260206004820152601060248201526f14185d5cd8589b194e881c185d5cd95960821b6044820152606401610552565b565b6123056122b5565b6000805460ff191660011790557f62e78cea01bee320cd4e420270b5ea74000d11b0c9f74754ebdbfc544b05a25861233a3390565b6040516001600160a01b03909116815260200160405180910390a1565b61235f61253c565b6000805460ff191690557f5db9ee0a495bf2e6ff9c91a7834c1ba4fdd244a5e8aa4e537bd38aeae4b073aa3361233a565b6000808360038111156123a5576123a5612814565b1480156123c3575060018260058111156123c1576123c1612814565b145b156123d057506001612491565b60018360038111156123e4576123e4612814565b1480156124025750600282600581111561240057612400612814565b145b1561240f57506001612491565b600283600381111561242357612423612814565b1480156124415750600382600581111561243f5761243f612814565b145b1561244e57506001612491565b600383600381111561246257612462612814565b1480156124805750600482600581111561247e5761247e612814565b145b1561248d57506001612491565b5060005b92915050565b6000828152600360205260408120805482036124ca5760008360038111156124c1576124c1612814565b14915050612491565b805460009082906124dd90600190612afe565b815481106124ed576124ed612cb9565b600091825260209091206006909102015460ff16905080600381111561251557612515612814565b612520906001612ce6565b84600381111561253257612532612814565b1495945050505050565b60005460ff166122fb5760405162461bcd60e51b815260206004820152601460248201527314185d5cd8589b194e881b9bdd081c185d5cd95960621b6044820152606401610552565b60006020828403121561259757600080fd5b5035919050565b6000602082840312156125b057600080fd5b813580151581146125c057600080fd5b9392505050565b80356001600160a01b03811681146125de57600080fd5b919050565b6000602082840312156125f557600080fd5b6125c0826125c7565b634e487b7160e01b600052604160045260246000fd5b600082601f83011261262557600080fd5b813567ffffffffffffffff80821115612640576126406125fe565b604051601f8301601f19908116603f01168101908282118183101715612668576126686125fe565b8160405283815286602085880101111561268157600080fd5b836020870160208301376000602085830101528094505050505092915050565b600080600080600060a086880312156126b957600080fd5b853594506020860135600481106126cf57600080fd5b9350604086013567ffffffffffffffff808211156126ec57600080fd5b6126f889838a01612614565b9450606088013591508082111561270e57600080fd5b61271a89838a01612614565b9350608088013591508082111561273057600080fd5b5061273d88828901612614565b9150509295509295909350565b6000806040838503121561275d57600080fd5b612766836125c7565b915060208301356006811061277a57600080fd5b809150509250929050565b6000815180845260005b818110156127ab5760208185018101518683018201520161278f565b506000602082860101526020601f19601f83011685010191505092915050565b86815260c0602082015260006127e460c0830188612785565b60408301969096525060608101939093526001600160a01b03919091166080830152151560a09091015292915050565b634e487b7160e01b600052602160045260246000fd5b602081016006831061283e5761283e612814565b91905290565b6004811061285457612854612814565b9052565b612863828251612844565b6000602082015160c0602085015261287e60c0850182612785565b9050604083015184820360408601526128978282612785565b91505060608301516060850152608083015184820360808601526128bb8282612785565b60a0948501516001600160a01b03169590940194909452509092915050565b6000602080830181845280855180835260408601915060408160051b870101925083870160005b8281101561292f57603f1988860301845261291d858351612858565b94509285019290850190600101612901565b5092979650505050505050565b6000806040838503121561294f57600080fd5b50508035926020909101359150565b6129688188612844565b60c06020820152600061297e60c0830188612785565b82810360408401526129908188612785565b905085606084015282810360808401526129aa8186612785565b91505060018060a01b03831660a0830152979650505050505050565b6020815260006125c06020830184612858565b6000806000606084860312156129ee57600080fd5b83359250602084013567ffffffffffffffff811115612a0c57600080fd5b612a1886828701612614565b925050604084013590509250925092565b60208152815160208201526000602083015160c06040840152612a4f60e0840182612785565b9050604084015160608401526060840151608084015260018060a01b0360808501511660a084015260a0840151151560c08401528091505092915050565b6020808252600a908201526927b7363c9037bbb732b960b11b604082015260600190565b6020808252601f908201527f5265656e7472616e637947756172643a207265656e7472616e742063616c6c00604082015260600190565b634e487b7160e01b600052601160045260246000fd5b8181038181111561249157612491612ae8565b6020808252600f908201526e10985d18da081b9bdd08199bdd5b99608a1b604082015260600190565b600181811c90821680612b4e57607f821691505b6020821081036113f957634e487b7160e01b600052602260045260246000fd5b601f821115612bb857600081815260208120601f850160051c81016020861015612b955750805b601f850160051c820191505b81811015612bb457828155600101612ba1565b5050505b505050565b815167ffffffffffffffff811115612bd757612bd76125fe565b612beb81612be58454612b3a565b84612b6e565b602080601f831160018114612c205760008415612c085750858301515b600019600386901b1c1916600185901b178555612bb4565b600085815260208120601f198616915b82811015612c4f57888601518255948401946001909101908401612c30565b5085821015612c6d5787850151600019600388901b60f8161c191681555b5050505050600190811b01905550565b612c878185612844565b606060208201526000612c9d6060830185612785565b8281036040840152612caf8185612785565b9695505050505050565b634e487b7160e01b600052603260045260246000fd5b808202811582820484141761249157612491612ae8565b8082018082111561249157612491612ae8565b600081612d0857612d08612ae8565b506000190190565b600082612d2d57634e487b7160e01b600052601260045260246000fd5b500490565b604081526000612d456040830185612785565b9050826020830152939250505056fecb92c8eccd52273f7e17560edcf592ac2228ec2899c86ea1ca2f9fe2a2a0af4ea264697066735822122065d0a3dc4aab0d7686005ccf52e020d89dcdd324005a9540116f37caff38c53a64736f6c63430008130033",
  "linkReferences": {},
  "deployedLinkReferences": {}
}