{
  "_format": "hh-sol-artifact-1",
  "contractName": "CropChain",
  "sourceName": "contracts/CropChain.sol",
  "abi": [
    {
      "inputs": [],
      "stateMutability": "nonpayable",
      "type": "constructor"
    },
    {
      "anonymous": false,
      "inputs": [
        {
          "indexed": true,
          "internalType": "bytes32",
          "name": "batchId",
          "type": "bytes32"
        },
        {
          "indexed": false,
          "internalType": "string",
          "name": "ipfsCID",
          "type": "string"
        },
        {
          "indexed": false,
          "internalType": "uint256",
          "name": "quantity",
          "type": "uint256"
        },
        {
          "indexed": true,
          "internalType": "address",
          "name": "creator",
          "type": "address"
        }
      ],
      "name": "BatchCreated",
      "type": "event"
    },
    {
      "anonymous": false,
      "inputs": [
        {
          "indexed": true,
          "internalType": "bytes32",
          "name": "batchId",
          "type": "bytes32"
        },
        {
          "indexed": true,
          "internalType": "address",
          "name": "triggeredBy",
          "type": "address"
        }
      ],
      "name": "BatchRecalled",
      "type": "event"
    },
    {
      "anonymous": false,
      "inputs": [
        {
          "indexed": true,
          "internalType": "bytes32",
          "name": "batchId",
          "type": "bytes32"
        },
        {
          "indexed": false,
          "internalType": "enum CropChain.Stage",
          "name": "stage",
          "type": "uint8"
        },
        {
          "indexed": false,
          "internalType": "string",
          "name": "actorName",
          "type": "string"
        },
        {
          "indexed": false,
          "internalType": "string",
          "name": "location",
          "type": "string"
        },
        {
          "indexed": true,
          "internalType": "address",
          "name": "updatedBy",
          "type": "address"
        }
      ],
      "name": "BatchUpdated",
      "type": "event"
    },
    {
      "anonymous": false,
      "inputs": [
        {
          "indexed": true,
          "internalType": "bytes32",
          "name": "batchId",
          "type": "bytes32"
        },
        {
          "indexed": false,
          "internalType": "int256",
          "name": "temperature",
          "type": "int256"
        },
        {
          "indexed": false,
          "internalType": "int256",
          "name": "humidity",
          "type": "int256"
        },
        {
          "indexed": false,
          "internalType": "bool",
          "name": "isSpoiled",
          "type": "bool"
        }
      ],
      "name": "IoTDataFulfilled",
      "type": "event"
    },
    {
      "anonymous": false,
      "inputs": [
        {
          "indexed": true,
          "internalType": "bytes32",
          "name": "batchId",
          "type": "bytes32"
        },
        {
          "indexed": false,
          "internalType": "address",
          "name": "requester",
          "type": "address"
        }
      ],
      "name": "IoTDataRequested",
      "type": "event"
    },
    {
      "anonymous": false,
      "inputs": [
        {
          "indexed": true,
          "internalType": "uint256",
          "name": "listingId",
          "type": "uint256"
        },
        {
          "indexed": true,
          "internalType": "address",
          "name": "cancelledBy",
          "type": "address"
        }
      ],
      "name": "ListingCancelled",
      "type": "event"
    },
    {
      "anonymous": false,
      "inputs": [
        {
          "indexed": true,
          "internalType": "uint256",
          "name": "listingId",
          "type": "uint256"
        },
        {
          "indexed": true,
          "internalType": "bytes32",
          "name": "batchId",
          "type": "bytes32"
        },
        {
          "indexed": true,
          "internalType": "address",
          "name": "seller",
          "type": "address"
        },
        {
          "indexed": false,
          "internalType": "uint256",
          "name": "quantity",
          "type": "uint256"
        },
        {
          "indexed": false,
          "internalType": "uint256",
          "name": "unitPriceWei",
          "type": "uint256"
        }
      ],
      "name": "ListingCreated",
      "type": "event"
    },
    {
      "anonymous": false,
      "inputs": [
        {
          "indexed": true,
          "internalType": "uint256",
          "name": "listingId",
          "type": "uint256"
        },
        {
          "indexed": true,
          "internalType": "address",
          "name": "buyer",
          "type": "address"
        },
        {
          "indexed": false,
          "internalType": "uint256",
          "name": "quantity",
          "type": "uint256"
        },
        {
          "indexed": false,
          "internalType": "uint256",
          "name": "totalPaidWei",
          "type": "uint256"
        }
      ],
      "name": "ListingPurchased",
      "type": "event"
    },
    {
      "anonymous": false,
      "inputs": [
        {
          "indexed": true,
          "internalType": "address",
          "name": "previousOwner",
          "type": "address"
        },
        {
          "indexed": true,
          "internalType": "address",
          "name": "newOwner",
          "type": "address"
        }
      ],
      "name": "OwnershipTransferred",
      "type": "event"
    },
    {
      "anonymous": false,
      "inputs": [
        {
          "indexed": false,
          "internalType": "address",
          "name": "account",
          "type": "address"
        }
      ],
      "name": "Paused",
      "type": "event"
    },
    {
      "anonymous": false,
      "inputs": [
        {
          "indexed": true,
          "internalType": "address",
          "name": "account",
          "type": "address"
        },
        {
          "indexed": false,
          "internalType": "uint256",
          "name": "amountWei",
          "type": "uint256"
        }
      ],
      "name": "ProceedsWithdrawn",
      "type": "event"
    },
    {
      "anonymous": false,
      "inputs": [
        {
          "indexed": true,
          "internalType": "bytes32",
          "name": "role",
          "type": "bytes32"
        },
        {
          "indexed": true,
          "internalType": "address",
          "name": "account",
          "type": "address"
        },
        {
          "indexed": true,
          "internalType": "address",
          "name": "sender",
          "type": "address"
        }
      ],
      "name": "RoleGranted",
      "type": "event"
    },
    {
      "anonymous": false,
      "inputs": [
        {
          "indexed": true,
          "internalType": "bytes32",
          "name": "role",
          "type": "bytes32"
        },
        {
          "indexed": true,
          "internalType": "address",
          "name": "account",
          "type": "address"
        },
        {
          "indexed": true,
          "internalType": "address",
          "name": "sender",
          "type": "address"
        }
      ],
      "name": "RoleRevoked",
      "type": "event"
    },
    {
      "anonymous": false,
      "inputs": [
        {
          "indexed": true,
          "internalType": "address",
          "name": "user",
          "type": "address"
        },
        {
          "indexed": false,
          "internalType": "enum CropChain.ActorRole",
          "name": "role",
          "type": "uint8"
        }
      ],
      "name": "RoleUpdated",
      "type": "event"
    },
    {
      "anonymous": false,
      "inputs": [
        {
          "indexed": true,
          "internalType": "bytes32",
          "name": "cropTypeHash",
          "type": "bytes32"
        },
        {
          "indexed": false,
          "internalType": "uint256",
          "name": "priceWei",
          "type": "uint256"
        },
        {
          "indexed": false,
          "internalType": "uint256",
          "name": "timestamp",
          "type": "uint256"
        }
      ],
      "name": "SpotPriceRecorded",
      "type": "event"
    },
    {
      "anonymous": false,
      "inputs": [
        {
          "indexed": false,
          "internalType": "uint256",
          "name": "twapWindowSeconds",
          "type": "uint256"
        },
        {
          "indexed": false,
          "internalType": "uint256",
          "name": "maxPriceDeviationBps",
          "type": "uint256"
        }
      ],
      "name": "TwapConfigUpdated",
      "type": "event"
    },
    {
      "anonymous": false,
      "inputs": [
        {
          "indexed": false,
          "internalType": "address",
          "name": "account",
          "type": "address"
        }
      ],
      "name": "Unpaused",
      "type": "event"
    },
    {
      "inputs": [],
      "name": "DEFAULT_ADMIN_ROLE",
      "outputs": [
        {
          "internalType": "bytes32",
          "name": "",
          "type": "bytes32"
        }
      ],
      "stateMutability": "view",
      "type": "function"
    },
    {
      "inputs": [],
      "name": "FARMER_ROLE",
      "outputs": [
        {
          "internalType": "bytes32",
          "name": "",
          "type": "bytes32"
        }
      ],
      "stateMutability": "view",
      "type": "function"
    },
    {
      "inputs": [],
      "name": "MANDI_ROLE",
      "outputs": [
        {
          "internalType": "bytes32",
          "name": "",
          "type": "bytes32"
        }
      ],
      "stateMutability": "view",
      "type": "function"
    },
    {
      "inputs": [],
      "name": "ORACLE_ROLE",
      "outputs": [
        {
          "internalType": "bytes32",
          "name": "",
          "type": "bytes32"
        }
      ],
      "stateMutability": "view",
      "type": "function"
    },
    {
      "inputs": [],
      "name": "RETAILER_ROLE",
      "outputs": [
        {
          "internalType": "bytes32",
          "name": "",
          "type": "bytes32"
        }
      ],
      "stateMutability": "view",
      "type": "function"
    },
    {
      "inputs": [],
      "name": "TRANSPORTER_ROLE",
      "outputs": [
        {
          "internalType": "bytes32",
          "name": "",
          "type": "bytes32"
        }
      ],
      "stateMutability": "view",
      "type": "function"
    },
    {
      "inputs": [
        {
          "internalType": "uint256",
          "name": "",
          "type": "uint256"
        }
      ],
      "name": "allBatchIds",
      "outputs": [
        {
          "internalType": "bytes32",
          "name": "",
          "type": "bytes32"
        }
      ],
      "stateMutability": "view",
      "type": "function"
    },
    {
      "inputs": [
        {
          "internalType": "uint256",
          "name": "listingId",
          "type": "uint256"
        },
        {
          "internalType": "uint256",
          "name": "quantity",
          "type": "uint256"
        }
      ],
      "name": "buyFromListing",
      "outputs": [],
      "stateMutability": "payable",
      "type": "function"
    },
    {
      "inputs": [
        {
          "internalType": "uint256",
          "name": "listingId",
          "type": "uint256"
        }
      ],
      "name": "cancelListing",
      "outputs": [],
      "stateMutability": "nonpayable",
      "type": "function"
    },
    {
      "inputs": [
        {
          "internalType": "bytes32",
          "name": "batchId",
          "type": "bytes32"
        },
        {
          "internalType": "bytes32",
          "name": "cropTypeHash",
          "type": "bytes32"
        },
        {
          "internalType": "string",
          "name": "ipfsCID",
          "type": "string"
        },
        {
          "internalType": "uint256",
          "name": "quantity",
          "type": "uint256"
        },
        {
          "internalType": "string",
          "name": "actorName",
          "type": "string"
        },
        {
          "internalType": "string",
          "name": "location",
          "type": "string"
        },
        {
          "internalType": "string",
          "name": "notes",
          "type": "string"
        }
      ],
      "name": "createBatch",
      "outputs": [],
      "stateMutability": "nonpayable",
      "type": "function"
    },
    {
      "inputs": [
        {
          "internalType": "bytes32",
          "name": "batchId",
          "type": "bytes32"
        },
        {
          "internalType": "uint256",
          "name": "quantity",
          "type": "uint256"
        },
        {
          "internalType": "uint256",
          "name": "unitPriceWei",
          "type": "uint256"
        }
      ],
      "name": "createListing",
      "outputs": [
        {
          "internalType": "uint256",
          "name": "",
          "type": "uint256"
        }
      ],
      "stateMutability": "nonpayable",
      "type": "function"
    },
    {
      "inputs": [
        {
          "internalType": "bytes32",
          "name": "",
          "type": "bytes32"
        }
      ],
      "name": "cropBatches",
      "outputs": [
        {
          "internalType": "bytes32",
          "name": "batchId",
          "type": "bytes32"
        },
        {
          "internalType": "bytes32",
          "name": "cropTypeHash",
          "type": "bytes32"
        },
        {
          "internalType": "string",
          "name": "ipfsCID",
          "type": "string"
        },
        {
          "internalType": "uint256",
          "name": "quantity",
          "type": "uint256"
        },
        {
          "internalType": "uint256",
          "name": "createdAt",
          "type": "uint256"
        },
        {
          "internalType": "address",
          "name": "creator",
          "type": "address"
        },
        {
          "internalType": "bool",
          "name": "exists",
          "type": "bool"
        },
        {
          "internalType": "bool",
          "name": "isRecalled",
          "type": "bool"
        },
        {
          "internalType": "int256",
          "name": "currentTemperature",
          "type": "int256"
        },
        {
          "internalType": "int256",
          "name": "currentHumidity",
          "type": "int256"
        },
        {
          "internalType": "bool",
          "name": "isSpoiled",
          "type": "bool"
        }
      ],
      "stateMutability": "view",
      "type": "function"
    },
    {
      "inputs": [
        {
          "internalType": "bytes32",
          "name": "batchId",
          "type": "bytes32"
        },
        {
          "internalType": "int256",
          "name": "temperature",
          "type": "int256"
        },
        {
          "internalType": "int256",
          "name": "humidity",
          "type": "int256"
        }
      ],
      "name": "fulfillIoTData",
      "outputs": [],
      "stateMutability": "nonpayable",
      "type": "function"
    },
    {
      "inputs": [
        {
          "internalType": "bytes32",
          "name": "batchId",
          "type": "bytes32"
        }
      ],
      "name": "getBatch",
      "outputs": [
        {
          "components": [
            {
              "internalType": "bytes32",
              "name": "batchId",
              "type": "bytes32"
            },
            {
              "internalType": "bytes32",
              "name": "cropTypeHash",
              "type": "bytes32"
            },
            {
              "internalType": "string",
              "name": "ipfsCID",
              "type": "string"
            },
            {
              "internalType": "uint256",
              "name": "quantity",
              "type": "uint256"
            },
            {
              "internalType": "uint256",
              "name": "createdAt",
              "type": "uint256"
            },
            {
              "internalType": "address",
              "name": "creator",
              "type": "address"
            },
            {
              "internalType": "bool",
              "name": "exists",
              "type": "bool"
            },
            {
              "internalType": "bool",
              "name": "isRecalled",
              "type": "bool"
            },
            {
              "internalType": "int256",
              "name": "currentTemperature",
              "type": "int256"
            },
            {
              "internalType": "int256",
              "name": "currentHumidity",
              "type": "int256"
            },
            {
              "internalType": "bool",
              "name": "isSpoiled",
              "type": "bool"
            }
          ],
          "internalType": "struct CropChain.CropBatch",
          "name": "",
          "type": "tuple"
        }
      ],
      "stateMutability": "view",
      "type": "function"
    },
    {
      "inputs": [
        {
          "internalType": "uint256",
          "name": "index",
          "type": "uint256"
        }
      ],
      "name": "getBatchIdByIndex",
      "outputs": [
        {
          "internalType": "bytes32",
          "name": "",
          "type": "bytes32"
        }
      ],
      "stateMutability": "view",
      "type": "function"
    },
    {
      "inputs": [
        {
          "internalType": "bytes32",
          "name": "batchId",
          "type": "bytes32"
        }
      ],
      "name": "getBatchIoTData",
      "outputs": [
        {
          "internalType": "int256",
          "name": "temperature",
          "type": "int256"
        },
        {
          "internalType": "int256",
          "name": "humidity",
          "type": "int256"
        },
        {
          "internalType": "bool",
          "name": "isSpoiled",
          "type": "bool"
        }
      ],
      "stateMutability": "view",
      "type": "function"
    },
    {
      "inputs": [
        {
          "internalType": "bytes32",
          "name": "batchId",
          "type": "bytes32"
        }
      ],
      "name": "getBatchUpdates",
      "outputs": [
        {
          "components": [
            {
              "internalType": "enum CropChain.Stage",
              "name": "stage",
              "type": "uint8"
            },
            {
              "internalType": "string",
              "name": "actorName",
              "type": "string"
            },
            {
              "internalType": "string",
              "name": "location",
              "type": "string"
            },
            {
              "internalType": "uint256",
              "name": "timestamp",
              "type": "uint256"
            },
            {
              "internalType": "string",
              "name": "notes",
              "type": "string"
            },
            {
              "internalType": "address",
              "name": "updatedBy",
              "type": "address"
            }
          ],
          "internalType": "struct CropChain.SupplyChainUpdate[]",
          "name": "",
          "type": "tuple[]"
        }
      ],
      "stateMutability": "view",
      "type": "function"
    },
    {
      "inputs": [
        {
          "internalType": "bytes32",
          "name": "batchId",
          "type": "bytes32"
        }
      ],
      "name": "getLatestUpdate",
      "outputs": [
        {
          "components": [
            {
              "internalType": "enum CropChain.Stage",
              "name": "stage",
              "type": "uint8"
            },
            {
              "internalType": "string",
              "name": "actorName",
              "type": "string"
            },
            {
              "internalType": "string",
              "name": "location",
              "type": "string"
            },
            {
              "internalType": "uint256",
              "name": "timestamp",
              "type": "uint256"
            },
            {
              "internalType": "string",
              "name": "notes",
              "type": "string"
            },
            {
              "internalType": "address",
              "name": "updatedBy",
              "type": "address"
            }
          ],
          "internalType": "struct CropChain.SupplyChainUpdate",
          "name": "",
          "type": "tuple"
        }
      ],
      "stateMutability": "view",
      "type": "function"
    },
    {
      "inputs": [
        {
          "internalType": "bytes32",
          "name": "cropTypeHash",
          "type": "bytes32"
        }
      ],
      "name": "getPriceObservationCount",
      "outputs": [
        {
          "internalType": "uint256",
          "name": "",
          "type": "uint256"
        }
      ],
      "stateMutability": "view",
      "type": "function"
    },
    {
      "inputs": [
        {
          "internalType": "bytes32",
          "name": "role",
          "type": "bytes32"
        }
      ],
      "name": "getRoleAdmin",
      "outputs": [
        {
          "internalType": "bytes32",
          "name": "",
          "type": "bytes32"
        }
      ],
      "stateMutability": "view",
      "type": "function"
    },
    {
      "inputs": [],
      "name": "getTotalBatches",
      "outputs": [
        {
          "internalType": "uint256",
          "name": "",
          "type": "uint256"
        }
      ],
      "stateMutability": "view",
      "type": "function"
    },
    {
      "inputs": [
        {
          "internalType": "bytes32",
          "name": "cropTypeHash",
          "type": "bytes32"
        },
        {
          "internalType": "uint256",
          "name": "windowSeconds",
          "type": "uint256"
        }
      ],
      "name": "getTwapPrice",
      "outputs": [
        {
          "internalType": "uint256",
          "name": "",
          "type": "uint256"
        }
      ],
      "stateMutability": "view",
      "type": "function"
    },
    {
      "inputs": [
        {
          "internalType": "bytes32",
          "name": "role",
          "type": "bytes32"
        },
        {
          "internalType": "address",
          "name": "account",
          "type": "address"
        }
      ],
      "name": "grantRole",
      "outputs": [],
      "stateMutability": "nonpayable",
      "type": "function"
    },
    {
      "inputs": [
        {
          "internalType": "bytes32",
          "name": "role",
          "type": "bytes32"
        },
        {
          "internalType": "address",
          "name": "account",
          "type": "address"
        }
      ],
      "name": "grantStakeholderRole",
      "outputs": [],
      "stateMutability": "nonpayable",
      "type": "function"
    },
    {
      "inputs": [
        {
          "internalType": "bytes32",
          "name": "role",
          "type": "bytes32"
        },
        {
          "internalType": "address",
          "name": "account",
          "type": "address"
        }
      ],
      "name": "hasRole",
      "outputs": [
        {
          "internalType": "bool",
          "name": "",
          "type": "bool"
        }
      ],
      "stateMutability": "view",
      "type": "function"
    },
    {
      "inputs": [
        {
          "internalType": "bytes32",
          "name": "",
          "type": "bytes32"
        }
      ],
      "name": "latestOraclePrice",
      "outputs": [
        {
          "internalType": "uint256",
          "name": "",
          "type": "uint256"
        }
      ],
      "stateMutability": "view",
      "type": "function"
    },
    {
      "inputs": [
        {
          "internalType": "uint256",
          "name": "",
          "type": "uint256"
        }
      ],
      "name": "listings",
      "outputs": [
        {
          "internalType": "uint256",
          "name": "listingId",
          "type": "uint256"
        },
        {
          "internalType": "bytes32",
          "name": "batchId",
          "type": "bytes32"
        },
        {
          "internalType": "address",
          "name": "seller",
          "type": "address"
        },
        {
          "internalType": "uint256",
          "name": "quantity",
          "type": "uint256"
        },
        {
          "internalType": "uint256",
          "name": "quantityAvailable",
          "type": "uint256"
        },
        {
          "internalType": "uint256",
          "name": "unitPriceWei",
          "type": "uint256"
        },
        {
          "internalType": "bool",
          "name": "active",
          "type": "bool"
        },
        {
          "internalType": "uint256",
          "name": "createdAt",
          "type": "uint256"
        }
      ],
      "stateMutability": "view",
      "type": "function"
    },
    {
      "inputs": [],
      "name": "maxPriceDeviationBps",
      "outputs": [
        {
          "internalType": "uint256",
          "name": "",
          "type": "uint256"
        }
      ],
      "stateMutability": "view",
      "type": "function"
    },
    {
      "inputs": [],
      "name": "nextListingId",
      "outputs": [
        {
          "internalType": "uint256",
          "name": "",
          "type": "uint256"
        }
      ],
      "stateMutability": "view",
      "type": "function"
    },
    {
      "inputs": [],
      "name": "owner",
      "outputs": [
        {
          "internalType": "address",
          "name": "",
          "type": "address"
        }
      ],
      "stateMutability": "view",
      "type": "function"
    },
    {
      "inputs": [],
      "name": "pause",
      "outputs": [],
      "stateMutability": "nonpayable",
      "type": "function"
    },
    {
      "inputs": [],
      "name": "paused",
      "outputs": [
        {
          "internalType": "bool",
          "name": "",
          "type": "bool"
        }
      ],
      "stateMutability": "view",
      "type": "function"
    },
    {
      "inputs": [
        {
          "internalType": "address",
          "name": "",
          "type": "address"
        }
      ],
      "name": "pendingWithdrawals",
      "outputs": [
        {
          "internalType": "uint256",
          "name": "",
          "type": "uint256"
        }
      ],
      "stateMutability": "view",
      "type": "function"
    },
    {
      "inputs": [
        {
          "internalType": "bytes32",
          "name": "batchId",
          "type": "bytes32"
        }
      ],
      "name": "recallBatch",
      "outputs": [],
      "stateMutability": "nonpayable",
      "type": "function"
    },
    {
      "inputs": [
        {
          "internalType": "bytes32",
          "name": "cropTypeHash",
          "type": "bytes32"
        },
        {
          "internalType": "uint256",
          "name": "priceWei",
          "type": "uint256"
        }
      ],
      "name": "recordSpotPrice",
      "outputs": [],
      "stateMutability": "nonpayable",
      "type": "function"
    },
    {
      "inputs": [
        {
          "internalType": "bytes32",
          "name": "batchId",
          "type": "bytes32"
        }
      ],
      "name": "requestIoTVerification",
      "outputs": [],
      "stateMutability": "nonpayable",
      "type": "function"
    },
    {
      "inputs": [
        {
          "internalType": "bytes32",
          "name": "role",
          "type": "bytes32"
        },
        {
          "internalType": "address",
          "name": "account",
          "type": "address"
        }
      ],
      "name": "revokeRole",
      "outputs": [],
      "stateMutability": "nonpayable",
      "type": "function"
    },
    {
      "inputs": [
        {
          "internalType": "address",
          "name": "",
          "type": "address"
        }
      ],
      "name": "roles",
      "outputs": [
        {
          "internalType": "enum CropChain.ActorRole",
          "name": "",
          "type": "uint8"
        }
      ],
      "stateMutability": "view",
      "type": "function"
    },
    {
      "inputs": [
        {
          "internalType": "bool",
          "name": "shouldPause",
          "type": "bool"
        }
      ],
      "name": "setPaused",
      "outputs": [],
      "stateMutability": "nonpayable",
      "type": "function"
    },
    {
      "inputs": [
        {
          "internalType": "address",
          "name": "user",
          "type": "address"
        },
        {
          "internalType": "enum CropChain.ActorRole",
          "name": "role",
          "type": "uint8"
        }
      ],
      "name": "setRole",
      "outputs": [],
      "stateMutability": "nonpayable",
      "type": "function"
    },
    {
      "inputs": [
        {
          "internalType": "uint256",
          "name": "twapWindowSeconds",
          "type": "uint256"
        },
        {
          "internalType": "uint256",
          "name": "maxDeviationBps",
          "type": "uint256"
        }
      ],
      "name": "setTwapConfig",
      "outputs": [],
      "stateMutability": "nonpayable",
      "type": "function"
    },
    {
      "inputs": [
        {
          "internalType": "address",
          "name": "newOwner",
          "type": "address"
        }
      ],
      "name": "transferOwnership",
      "outputs": [],
      "stateMutability": "nonpayable",
      "type": "function"
    },
    {
      "inputs": [],
      "name": "twapWindow",
      "outputs": [
        {
          "internalType": "uint256",
          "name": "",
          "type": "uint256"
        }
      ],
      "stateMutability": "view",
      "type": "function"
    },
    {
      "inputs": [],
      "name": "unpause",
      "outputs": [],
      "stateMutability": "nonpayable",
      "type": "function"
    },
    {
      "inputs": [
        {
          "internalType": "bytes32",
          "name": "batchId",
          "type": "bytes32"
        },
        {
          "internalType": "enum CropChain.Stage",
          "name": "stage",
          "type": "uint8"
        },
        {
          "internalType": "string",
          "name": "actorName",
          "type": "string"
        },
        {
          "internalType": "string",
          "name": "location",
          "type": "string"
        },
        {
          "internalType": "string",
          "name": "notes",
          "type": "string"
        }
      ],
      "name": "updateBatch",
      "outputs": [],
      "stateMutability": "nonpayable",
      "type": "function"
    },
    {
      "inputs": [],
      "name": "withdrawProceeds",
      "outputs": [],
      "stateMutability": "nonpayable",
      "type": "function"
    }
  ],
  "bytecode": "0x60806040523480156200001157600080fd5b506000805460ff1990811682556001808055600b8054336001600160a01b031990911681179091558084526005602052604084208054909316600617909255600c55610e10600d556105dc600e556200006b91906200014d565b600260205260007f535e3cbd9037bc68d5f8d3c81b8127fd70001cd8531c1ab655efcd900e9e971d8190557fabde725685c041f6c2eb5c0df839de6263b8c8bc2c63f2570bdf8b6abe90cb388190557f64a73aea544bb93342d45059af8acbf451d8d7d7fd40f6c88ae2a269275690fc8190557fcd0530a84e200f27dba7ccfc1aa0770633bd2859b6b98ca8274a64edec824e978190557f68e79a7bf1e0bc45d0a330c573bc367f9cf464fd326078812f301165fbda4ef181527f4c5dd14cc36ac74df3f3035fa8453ebdbc47c888eb74d355b623b33097c65a4c55620001f2565b60008281526002602090815260408083206001600160a01b038516845290915290205460ff16620001ee5760008281526002602090815260408083206001600160a01b03851684529091529020805460ff19166001179055620001ad3390565b6001600160a01b0316816001600160a01b0316837f2f8788117e7eff1d82e926ec794901d17c78024a50270940304540a733656f0d60405160405180910390a45b5050565b61467880620002026000396000f3fe60806040526004361061027d5760003560e01c80638456cb591161014f578063a9437275116100c1578063de74e57b1161007a578063de74e57b1461081d578063e561dddc146108d6578063ed42136f146108eb578063f2fde38b14610918578063f394397014610938578063f3f437031461096c57600080fd5b8063a943727514610740578063aaccf1ec1461076d578063ab00501114610783578063aef9f813146107b0578063b68210a9146107dd578063d547741f146107fd57600080fd5b80639937464211610113578063993746421461066e5780639fdf2b95146106ab578063a0b6041d146106cb578063a1746f6b146106eb578063a2173df41461070b578063a217fddf1461072b57600080fd5b80638456cb59146105b55780638da5cb5b146105ca5780639038e69314610602578063906ddff11461061757806391d148541461064e57600080fd5b806336214a1c116101f3578063571c3e60116101ac578063571c3e60146104e85780635ac5aff8146105085780635c975abb146105455780636cccf52d1461056957806379baa1a2146105895780638107e1331461059f57600080fd5b806336214a1c146104315780633aac0544146104515780633f4ba83a146104715780634e8cdd9c146104865780634eabbe7714610499578063507e2224146104bb57600080fd5b80632115e7bf116102455780632115e7bf1461034d578063248a9ca314610381578063290b17ec146103b15780632f2ff15d146103d1578063305a67a8146103f1578063332e2ac01461041157600080fd5b806307e2cea5146102825780630c13e6db146102c9578063110f9f77146102eb57806314c82f131461030b57806316c38b3c1461032d575b600080fd5b34801561028e57600080fd5b506102b67f68e79a7bf1e0bc45d0a330c573bc367f9cf464fd326078812f301165fbda4ef181565b6040519081526020015b60405180910390f35b3480156102d557600080fd5b506102e96102e4366004613c99565b610999565b005b3480156102f757600080fd5b506102e9610306366004613cce565b610a6f565b34801561031757600080fd5b506102b660008051602061462383398151915281565b34801561033957600080fd5b506102e9610348366004613cfa565b610b8a565b34801561035957600080fd5b506102b67f2a5f906c256a5d799494fcd066e1f6c077689de1cdb65052a1624de4bace99bf81565b34801561038d57600080fd5b506102b661039c366004613c99565b60009081526002602052604090206001015490565b3480156103bd57600080fd5b506102b66103cc366004613c99565b610be0565b3480156103dd57600080fd5b506102e96103ec366004613cce565b610c01565b3480156103fd57600080fd5b506102e961040c366004613c99565b610c27565b34801561041d57600080fd5b506102e961042c366004613d1c565b610d37565b34801561043d57600080fd5b506102e961044c366004613d87565b610e3b565b34801561045d57600080fd5b506102e961046c366004613d1c565b611342565b34801561047d57600080fd5b506102e96114e7565b6102e9610494366004613d1c565b61152c565b3480156104a557600080fd5b506102b660008051602061460383398151915281565b3480156104c757600080fd5b506102b66104d6366004613c99565b60009081526007602052604090205490565b3480156104f457600080fd5b506102e9610503366004613e41565b61187f565b34801561051457600080fd5b50610528610523366004613c99565b61195b565b6040805193845260208401929092521515908201526060016102c0565b34801561055157600080fd5b5060005460ff165b60405190151581526020016102c0565b34801561057557600080fd5b506102e9610584366004613e7c565b6119c5565b34801561059557600080fd5b506102b6600e5481565b3480156105ab57600080fd5b506102b6600d5481565b3480156105c157600080fd5b506102e9612087565b3480156105d657600080fd5b50600b546105ea906001600160a01b031681565b6040516001600160a01b0390911681526020016102c0565b34801561060e57600080fd5b506102e96120c1565b34801561062357600080fd5b50610637610632366004613c99565b6121f5565b6040516102c09b9a99989796959493929190613fb4565b34801561065a57600080fd5b50610559610669366004613cce565b6122e6565b34801561067a57600080fd5b5061069e610689366004614023565b60056020526000908152604090205460ff1681565b6040516102c09190614054565b3480156106b757600080fd5b506102e96106c636600461406e565b612313565b3480156106d757600080fd5b506102b66106e6366004613c99565b612463565b3480156106f757600080fd5b506102e9610706366004613c99565b6124cc565b34801561071757600080fd5b506102b6610726366004613d1c565b612644565b34801561073757600080fd5b506102b6600081565b34801561074c57600080fd5b5061076061075b366004613c99565b6127c2565b6040516102c09190614130565b34801561077957600080fd5b506102b6600c5481565b34801561078f57600080fd5b506107a361079e366004613c99565b612a6a565b6040516102c09190614192565b3480156107bc57600080fd5b506102b66107cb366004613c99565b60086020526000908152604090205481565b3480156107e957600080fd5b506102b66107f836600461406e565b612d7e565b34801561080957600080fd5b506102e9610818366004613cce565b6130b8565b34801561082957600080fd5b5061088d610838366004613c99565b600660208190526000918252604090912080546001820154600283015460038401546004850154600586015496860154600790960154949693956001600160a01b039093169491939092909160ff9091169088565b6040805198895260208901979097526001600160a01b03909516958701959095526060860192909252608085015260a084015290151560c083015260e0820152610100016102c0565b3480156108e257600080fd5b50600a546102b6565b3480156108f757600080fd5b5061090b610906366004613c99565b6130de565b6040516102c091906141a5565b34801561092457600080fd5b506102e9610933366004614023565b6132af565b34801561094457600080fd5b506102b67f7c6181838a71a779e445600d4c6ecbe16bacf2b3c5bda69c29fada66d1b645d181565b34801561097857600080fd5b506102b6610987366004614023565b60096020526000908152604090205481565b600b546001600160a01b031633146109cc5760405162461bcd60e51b81526004016109c390614258565b60405180910390fd5b6109d461335b565b6109dc6133a1565b6000818152600360205260409020600501548190600160a01b900460ff16610a165760405162461bcd60e51b81526004016109c39061427c565b600082815260036020526040808220600501805460ff60a81b1916600160a81b17905551339184917fe436bcddf7c3f20475a5cdfeaed40936b46f491ec050e636f35cfa92161342ba9190a350610a6c60018055565b50565b6000610a7b81336133fa565b610a836133a1565b6001600160a01b038216610aa95760405162461bcd60e51b81526004016109c3906142a5565b7f7c6181838a71a779e445600d4c6ecbe16bacf2b3c5bda69c29fada66d1b645d1831480610ae4575060008051602061462383398151915283145b80610afc575060008051602061460383398151915283145b80610b2657507f2a5f906c256a5d799494fcd066e1f6c077689de1cdb65052a1624de4bace99bf83145b610b725760405162461bcd60e51b815260206004820152601860248201527f496e76616c6964207374616b65686f6c64657220726f6c65000000000000000060448201526064016109c3565b610b7c8383613451565b610b8560018055565b505050565b600b546001600160a01b03163314610bb45760405162461bcd60e51b81526004016109c390614258565b610bbc6133a1565b8015610bcf57610bca6134d7565b610bd7565b610bd7613531565b610a6c60018055565b600a8181548110610bf057600080fd5b600091825260209091200154905081565b600082815260026020526040902060010154610c1d81336133fa565b610b858383613451565b610c2f61335b565b610c376133a1565b60008181526006602081905260409091209081015460ff16610c8e5760405162461bcd60e51b815260206004820152601060248201526f4c697374696e6720696e61637469766560801b60448201526064016109c3565b60028101546001600160a01b0316331480610cb35750600b546001600160a01b031633145b610ced5760405162461bcd60e51b815260206004820152600b60248201526a139bdd08185b1b1bddd95960aa1b60448201526064016109c3565b60068101805460ff19169055600060048201819055604051339184917f8e25282255ab31897df2b0456bb993ac7f84d376861aefd84901d2d63a7428a29190a350610a6c60018055565b600b546001600160a01b03163314610d615760405162461bcd60e51b81526004016109c390614258565b610d696133a1565b60008211610da45760405162461bcd60e51b8152602060048201526008602482015267057696e646f773d360c41b60448201526064016109c3565b611388811115610deb5760405162461bcd60e51b8152602060048201526012602482015271088caecd2c2e8d2dedc40e8dede40d0d2ced60731b60448201526064016109c3565b600d829055600e81905560408051838152602081018390527fd7ddc163e966adaeef708042d878eaa18ade5df877818262c96dd6eb79c42b7d910160405180910390a1610e3760018055565b5050565b610e4361335b565b610e4b6133a1565b6000888152600360205260409020600501548890600160a01b900460ff16610e855760405162461bcd60e51b81526004016109c39061427c565b610ef987878080601f016020809104026020016040519081016040528093929190818152602001838380828437600092019190915250506040805180820190915260198152781058dd1bdc881b985b59481b195b99dd1a081a5b9d985b1a59603a1b6020820152600292506032915061356a565b610f6b85858080601f01602080910402602001604051908101604052809392919081815260200183838082843760009201919091525050604080518082019091526017815276131bd8d85d1a5bdb881b195b99dd1a081a5b9d985b1a59604a1b6020820152600292506064915061356a565b610fd483838080601f016020809104026020016040519081016040528093929190818152602001838380828437600092018290525060408051808201909152600e81526d4e6f74657320746f6f206c6f6e6760901b60208201529093506101f49250905061356a565b600089815260036020526040902060050154600160a81b900460ff161561100d5760405162461bcd60e51b81526004016109c3906142ce565b8561104b5760405162461bcd60e51b815260206004820152600e60248201526d1058dd1bdc881c995c5d5a5c995960921b60448201526064016109c3565b8361108c5760405162461bcd60e51b8152602060048201526011602482015270131bd8d85d1a5bdb881c995c5d5a5c9959607a1b60448201526064016109c3565b61109689896135a3565b6110e25760405162461bcd60e51b815260206004820152601860248201527f496e76616c6964207374616765207472616e736974696f6e000000000000000060448201526064016109c3565b6110ec8989613648565b61114b5760405162461bcd60e51b815260206004820152602a60248201527f526f6c65206e6f7420616c6c6f77656420666f722074686973207374616765206044820152693a3930b739b4ba34b7b760b11b60648201526084016109c3565b600460008a81526020019081526020016000206040518060c001604052808a600381111561117b5761117b61403e565b815260200189898080601f016020809104026020016040519081016040528093929190818152602001838380828437600092019190915250505090825250604080516020601f8a01819004810282018101909252888152918101919089908990819084018382808284376000920191909152505050908252504260208083019190915260408051601f880183900483028101830182528781529201919087908790819084018382808284376000920182905250938552505033602093840152508354600181810186559482529190208251600690920201805492939092839160ff19909116908360038111156112735761127361403e565b02179055506020820151600182019061128c9082614389565b50604082015160028201906112a19082614389565b5060608201516003820155608082015160048201906112c09082614389565b5060a09190910151600590910180546001600160a01b0319166001600160a01b0390921691909117905560405133908a907f2cefceaa731c274adf2f7bd3b3237d2e06cb4fe59bd62d9ea2055287a132d36490611326908c908c908c908c908c90614472565b60405180910390a35061133860018055565b5050505050505050565b3360009081526005602081905260409091205460ff169081600681111561136b5761136b61403e565b1480611388575060068160068111156113865761138661403e565b145b6113c85760405162461bcd60e51b815260206004820152601160248201527027b7363c9037b930b1b63297b0b236b4b760791b60448201526064016109c3565b6113d061335b565b6113d86133a1565b826114195760405162461bcd60e51b8152602060048201526011602482015270496e76616c69642063726f70207479706560781b60448201526064016109c3565b600082116114535760405162461bcd60e51b8152602060048201526007602482015266050726963653d360cc1b60448201526064016109c3565b6000838152600760209081526040808320815180830183524280825281850188815283546001808201865594885286882093516002909102909301928355519190920155868452600883529281902085905580518581529182019290925284917f9c43ba64e58f42018e29d3b8e3aa7f03ec30366613d0b3a2b07b26e75b5bb817910160405180910390a2610b8560018055565b600b546001600160a01b031633146115115760405162461bcd60e51b81526004016109c390614258565b6115196133a1565b611521613531565b61152a60018055565b565b61153461335b565b61153c6133a1565b60008281526006602081905260409091209081015460ff166115935760405162461bcd60e51b815260206004820152601060248201526f4c697374696e6720696e61637469766560801b60448201526064016109c3565b6000821180156115a7575080600401548211155b6115e65760405162461bcd60e51b815260206004820152601060248201526f496e76616c6964207175616e7469747960801b60448201526064016109c3565b600181015460009081526003602052604090206005810154600160a01b900460ff16801561162057506005810154600160a81b900460ff16155b6116605760405162461bcd60e51b8152602060048201526011602482015270426174636820756e617661696c61626c6560781b60448201526064016109c3565b60006116728260010154600d54612644565b905080156116d75761168b836005015482600e546137cc565b6116d75760405162461bcd60e51b815260206004820152601760248201527f5457415020646576696174696f6e20746f6f206869676800000000000000000060448201526064016109c3565b60008484600501546116e991906144c8565b9050803410156117325760405162461bcd60e51b8152602060048201526014602482015273125b9cdd59999a58da595b9d081c185e5b595b9d60621b60448201526064016109c3565b8484600401600082825461174691906144df565b909155505060048401546000036117645760068401805460ff191690555b60028401546001600160a01b0316600090815260096020526040812080548392906117909084906144f2565b90915550600090506117a282346144df565b9050801561183457604051600090339083908381818185875af1925050503d80600081146117ec576040519150601f19603f3d011682016040523d82523d6000602084013e6117f1565b606091505b50509050806118325760405162461bcd60e51b815260206004820152600d60248201526c1499599d5b990819985a5b1959609a1b60448201526064016109c3565b505b6040805187815260208101849052339189917f0db6cd6881fc0453b2d01f52eb5a16417707659f245732abc10f847426e3525d910160405180910390a35050505050610e3760018055565b600b546001600160a01b031633146118a95760405162461bcd60e51b81526004016109c390614258565b6118b16133a1565b6001600160a01b0382166118d75760405162461bcd60e51b81526004016109c3906142a5565b6001600160a01b0382166000908152600560205260409020805482919060ff1916600183600681111561190c5761190c61403e565b0217905550816001600160a01b03167fc3f8f61911a1537261f77e2703626e158e299a98e341024ecaa26bbd1d884c648260405161194a9190614054565b60405180910390a2610e3760018055565b600081815260036020526040812060050154819081908490600160a01b900460ff166119995760405162461bcd60e51b81526004016109c39061427c565b50505060009182525060036020526040902060068101546007820154600890920154909260ff90911690565b7f7c6181838a71a779e445600d4c6ecbe16bacf2b3c5bda69c29fada66d1b645d16119f081336133fa565b6119f861335b565b611a006133a1565b611a768a8a8080601f01602080910402602001604051908101604052809392919081815260200183838082843760009201919091525050604080518082018252601781527f496e76616c6964204950465320434944206c656e6774680000000000000000006020820152602e935090915061356a565b611aea87878080601f016020809104026020016040519081016040528093929190818152602001838380828437600092019190915250506040805180820190915260198152781058dd1bdc881b985b59481b195b99dd1a081a5b9d985b1a59603a1b6020820152600292506032915061356a565b611b5c85858080601f01602080910402602001604051908101604052809392919081815260200183838082843760009201919091525050604080518082019091526017815276131bd8d85d1a5bdb881b195b99dd1a081a5b9d985b1a59604a1b6020820152600292506064915061356a565b611bc583838080601f016020809104026020016040519081016040528093929190818152602001838380828437600092018290525060408051808201909152600e81526d4e6f74657320746f6f206c6f6e6760901b60208201529093506101f49250905061356a565b60008c815260036020526040902060050154600160a01b900460ff1615611c255760405162461bcd60e51b8152602060048201526014602482015273426174636820616c72656164792065786973747360601b60448201526064016109c3565b8b611c655760405162461bcd60e51b815260206004820152601060248201526f125b9d985b1a590818985d18da08125160821b60448201526064016109c3565b8a611ca65760405162461bcd60e51b8152602060048201526011602482015270496e76616c69642063726f70207479706560781b60448201526064016109c3565b60008811611ced5760405162461bcd60e51b815260206004820152601460248201527305175616e74697479206d757374206265203e20360641b60448201526064016109c3565b6040518061016001604052808d81526020018c81526020018b8b8080601f016020809104026020016040519081016040528093929190818152602001838380828437600081840152601f19601f820116905080830192505050505050508152602001898152602001428152602001336001600160a01b03168152602001600115158152602001600015158152602001600081526020016000815260200160001515815250600360008e815260200190815260200160002060008201518160000155602082015181600101556040820151816002019081611dcd9190614389565b5060608201516003820155608082015160048083019190915560a083015160058301805460c08087015160e08801511515600160a81b0260ff60a81b19911515600160a01b026001600160a81b03199094166001600160a01b0390961695909517929092179190911692909217905561010084015160068401556101208401516007840155610140909301516008909201805492151560ff199093169290921790915560008e81526020919091526040808220815193840190915291908190815260200189898080601f016020809104026020016040519081016040528093929190818152602001838380828437600092019190915250505090825250604080516020601f8a01819004810282018101909252888152918101919089908990819084018382808284376000920191909152505050908252504260208083019190915260408051601f880183900483028101830182528781529201919087908790819084018382808284376000920182905250938552505033602093840152508354600181810186559482529190208251600690920201805492939092839160ff1990911690836003811115611f8457611f8461403e565b021790555060208201516001820190611f9d9082614389565b5060408201516002820190611fb29082614389565b506060820151600382015560808201516004820190611fd19082614389565b5060a09190910151600590910180546001600160a01b0319166001600160a01b03909216919091179055600a80546001810182556000919091527fc65a7bb8d6351c1cf70c95a316cc6a92839c986682d98bc35f958f4883f9d2a8018c905560405133908d907f1e548d6c3fb449f78f5b7457156dcfb300cbb65d12a4038b334b6bfbdba9573890612068908e908e908e90614505565b60405180910390a361207960018055565b505050505050505050505050565b600b546001600160a01b031633146120b15760405162461bcd60e51b81526004016109c390614258565b6120b96133a1565b6115216134d7565b6120c961335b565b6120d16133a1565b336000908152600960205260409020548061211c5760405162461bcd60e51b815260206004820152600b60248201526a4e6f2070726f636565647360a81b60448201526064016109c3565b336000818152600960205260408082208290555190919083908381818185875af1925050503d806000811461216d576040519150601f19603f3d011682016040523d82523d6000602084013e612172565b606091505b50509050806121b55760405162461bcd60e51b815260206004820152600f60248201526e15da5d1a191c985dc819985a5b1959608a1b60448201526064016109c3565b60405182815233907f0f2fb75cc1977a496e94837f859e957f68e26e70dc1b75d9945ee92ae57969ba9060200160405180910390a2505061152a60018055565b6003602052600090815260409020805460018201546002830180549293919261221d9061430f565b80601f01602080910402602001604051908101604052809291908181526020018280546122499061430f565b80156122965780601f1061226b57610100808354040283529160200191612296565b820191906000526020600020905b81548152906001019060200180831161227957829003601f168201915b5050505060038301546004840154600585015460068601546007870154600890970154959693959294506001600160a01b0382169360ff600160a01b8404811694600160a81b909404811693168b565b60008281526002602090815260408083206001600160a01b038516845290915290205460ff165b92915050565b7f68e79a7bf1e0bc45d0a330c573bc367f9cf464fd326078812f301165fbda4ef161233e81336133fa565b61234661335b565b61234e6133a1565b6000848152600360205260409020600501548490600160a01b900460ff166123885760405162461bcd60e51b81526004016109c39061427c565b600085815260036020526040902060050154600160a81b900460ff16156123c15760405162461bcd60e51b81526004016109c3906142ce565b6000858152600360205260408120600681018690556007018490556103208513806123ed575061014085125b600087815260036020908152604091829020600801805484151560ff199091168117909155825189815291820188905281830152905191925087917f702766b5e39eadaee8b50c4e00b11e96873bea3fa06d178102d5b1cf676301f89181900360600190a2505061245d60018055565b50505050565b600a5460009082106124a75760405162461bcd60e51b815260206004820152600d60248201526c4f7574206f6620626f756e647360981b60448201526064016109c3565b600a82815481106124ba576124ba614529565b90600052602060002001549050919050565b6124d461335b565b6124dc6133a1565b6000818152600360205260409020600501548190600160a01b900460ff166125165760405162461bcd60e51b81526004016109c39061427c565b61252e600080516020614603833981519152336122e6565b8061254c575061254c600080516020614623833981519152336122e6565b6125cc5760405162461bcd60e51b8152602060048201526044602482018190527f556e617574686f72697a65643a204f6e6c79205472616e73706f72746572206f908201527f72204d616e64692063616e207265717565737420496f542076657269666963616064820152633a34b7b760e11b608482015260a4016109c3565b600082815260036020526040902060050154600160a81b900460ff16156126055760405162461bcd60e51b81526004016109c3906142ce565b60405133815282907f72856cf8d246c24dd029032eec2b64c82e06284341aee0b2bc0580ad44a722519060200160405180910390a250610a6c60018055565b600082815260076020526040812080548083036126665760009250505061230d565b836000036126a5578161267a6001836144df565b8154811061268a5761268a614529565b9060005260206000209060020201600101549250505061230d565b60008442116126b55760006126bf565b6126bf85426144df565b905042600080845b80156127675760018103905060008782815481106126e7576126e7614529565b9060005260206000209060020201905060008682600001541161270a578661270d565b81545b90508086111561274f57600061272382886144df565b905080836001015461273591906144c8565b61273f90876144f2565b955061274b81866144f2565b9450505b8154871061275e575050612767565b505493506126c7565b50806000036127ab578561277c6001876144df565b8154811061278c5761278c614529565b906000526020600020906002020160010154965050505050505061230d565b6127b5818361453f565b9998505050505050505050565b6000818152600360205260409020600501546060908290600160a01b900460ff166127ff5760405162461bcd60e51b81526004016109c39061427c565b600083815260046020908152604080832080548251818502810185019093528083529193909284015b82821015612a5d576000848152602090206040805160c08101909152600684029091018054829060ff1660038111156128635761286361403e565b60038111156128745761287461403e565b81526020016001820180546128889061430f565b80601f01602080910402602001604051908101604052809291908181526020018280546128b49061430f565b80156129015780601f106128d657610100808354040283529160200191612901565b820191906000526020600020905b8154815290600101906020018083116128e457829003601f168201915b5050505050815260200160028201805461291a9061430f565b80601f01602080910402602001604051908101604052809291908181526020018280546129469061430f565b80156129935780601f1061296857610100808354040283529160200191612993565b820191906000526020600020905b81548152906001019060200180831161297657829003601f168201915b50505050508152602001600382015481526020016004820180546129b69061430f565b80601f01602080910402602001604051908101604052809291908181526020018280546129e29061430f565b8015612a2f5780601f10612a0457610100808354040283529160200191612a2f565b820191906000526020600020905b815481529060010190602001808311612a1257829003601f168201915b5050509183525050600591909101546001600160a01b03166020918201529082526001929092019101612828565b5050505091505b50919050565b612aad6040805160c0810190915280600081526020016060815260200160608152602001600081526020016060815260200160006001600160a01b031681525090565b6000828152600360205260409020600501548290600160a01b900460ff16612ae75760405162461bcd60e51b81526004016109c39061427c565b60008381526004602052604090205480612b305760405162461bcd60e51b815260206004820152600a6024820152694e6f207570646174657360b01b60448201526064016109c3565b6000848152600460205260409020612b496001836144df565b81548110612b5957612b59614529565b600091825260209091206040805160c081019091526006909202018054829060ff166003811115612b8c57612b8c61403e565b6003811115612b9d57612b9d61403e565b8152602001600182018054612bb19061430f565b80601f0160208091040260200160405190810160405280929190818152602001828054612bdd9061430f565b8015612c2a5780601f10612bff57610100808354040283529160200191612c2a565b820191906000526020600020905b815481529060010190602001808311612c0d57829003601f168201915b50505050508152602001600282018054612c439061430f565b80601f0160208091040260200160405190810160405280929190818152602001828054612c6f9061430f565b8015612cbc5780601f10612c9157610100808354040283529160200191612cbc565b820191906000526020600020905b815481529060010190602001808311612c9f57829003601f168201915b5050505050815260200160038201548152602001600482018054612cdf9061430f565b80601f0160208091040260200160405190810160405280929190818152602001828054612d0b9061430f565b8015612d585780601f10612d2d57610100808354040283529160200191612d58565b820191906000526020600020905b815481529060010190602001808311612d3b57829003601f168201915b5050509183525050600591909101546001600160a01b0316602090910152949350505050565b6000803360009081526005602052604090205460ff166006811115612da557612da561403e565b03612de35760405162461bcd60e51b815260206004820152600e60248201526d139bdd08185d5d1a1bdc9a5e995960921b60448201526064016109c3565b612deb61335b565b612df36133a1565b6000848152600360205260409020600501548490600160a01b900460ff16612e2d5760405162461bcd60e51b81526004016109c39061427c565b60008581526003602052604090206005810154600160a81b900460ff1615612e675760405162461bcd60e51b81526004016109c3906142ce565b600085118015612e7b575080600301548511155b612eba5760405162461bcd60e51b815260206004820152601060248201526f496e76616c6964207175616e7469747960801b60448201526064016109c3565b60008411612ef45760405162461bcd60e51b8152602060048201526007602482015266050726963653d360cc1b60448201526064016109c3565b336000818152600560208190526040909120549083015460ff909116916001600160a01b039091161480612f3957506002816006811115612f3757612f3761403e565b145b80612f5557506006816006811115612f5357612f5361403e565b145b612fa15760405162461bcd60e51b815260206004820152601860248201527f4f6e6c792063726561746f722f6d616e64692f61646d696e000000000000000060448201526064016109c3565b600c54612faf8160016144f2565b600c55604080516101008101825282815260208082018b815233838501818152606085018d8152608086018e815260a087018e8152600160c089018181524260e08b0190815260008d81526006808c52908d90209b518c559851928b0192909255945160028a0180546001600160a01b0319166001600160a01b0390921691909117905592516003890155905160048801555160058701559051928501805460ff191693151593909317909255905160079093019290925582518a815290810189905290918a9184917f70a9073e3ca286ce6123fbda2a3a02d9ab166d67e00d7863763c09f138575220910160405180910390a493505050506130b160018055565b9392505050565b6000828152600260205260409020600101546130d481336133fa565b610b858383613831565b604080516101608101825260008082526020820181905260609282018390529181018290526080810182905260a0810182905260c0810182905260e08101829052610100810182905261012081018290526101408101919091526000828152600360205260409020600501548290600160a01b900460ff166131725760405162461bcd60e51b81526004016109c39061427c565b600360008481526020019081526020016000206040518061016001604052908160008201548152602001600182015481526020016002820180546131b59061430f565b80601f01602080910402602001604051908101604052809291908181526020018280546131e19061430f565b801561322e5780601f106132035761010080835404028352916020019161322e565b820191906000526020600020905b81548152906001019060200180831161321157829003601f168201915b5050509183525050600382015460208201526004820154604082015260058201546001600160a01b038116606083015260ff600160a01b8204811615156080840152600160a81b9091048116151560a0830152600683015460c0830152600783015460e0830152600890920154909116151561010090910152915050919050565b60006132bb81336133fa565b6132c36133a1565b6001600160a01b0382166132e95760405162461bcd60e51b81526004016109c3906142a5565b600b80546001600160a01b031981166001600160a01b03858116918217909355600081815260056020526040808220805460ff19166006179055519390921692909183917f8be0079c531659141344cd1fd0a4f28419497f9722a3daafe3b4186f6b6457e09190a350610e3760018055565b60005460ff161561152a5760405162461bcd60e51b815260206004820152601060248201526f14185d5cd8589b194e881c185d5cd95960821b60448201526064016109c3565b6002600154036133f35760405162461bcd60e51b815260206004820152601f60248201527f5265656e7472616e637947756172643a207265656e7472616e742063616c6c0060448201526064016109c3565b6002600155565b61340482826122e6565b610e375761341181613898565b61341a83613a83565b60405160200161342b929190614561565b60408051601f198184030181529082905262461bcd60e51b82526109c3916004016145d6565b61345b82826122e6565b610e375760008281526002602090815260408083206001600160a01b03851684529091529020805460ff191660011790556134933390565b6001600160a01b0316816001600160a01b0316837f2f8788117e7eff1d82e926ec794901d17c78024a50270940304540a733656f0d60405160405180910390a45050565b6134df61335b565b6000805460ff191660011790557f62e78cea01bee320cd4e420270b5ea74000d11b0c9f74754ebdbfc544b05a2586135143390565b6040516001600160a01b03909116815260200160405180910390a1565b613539613c50565b6000805460ff191690557f5db9ee0a495bf2e6ff9c91a7834c1ba4fdd244a5e8aa4e537bd38aeae4b073aa33613514565b835183811080159061357c5750828111155b829061359b5760405162461bcd60e51b81526004016109c391906145d6565b505050505050565b6000828152600460205260408120805482036135d65760008360038111156135cd576135cd61403e565b1491505061230d565b805460009082906135e9906001906144df565b815481106135f9576135f9614529565b600091825260209091206006909102015460ff1690508060038111156136215761362161403e565b61362c9060016144f2565b84600381111561363e5761363e61403e565b1495945050505050565b600082815260046020526040812061366082336122e6565b1561366f57600191505061230d565b80546000908103613682575060006136b9565b81548290613692906001906144df565b815481106136a2576136a2614529565b600091825260209091206006909102015460ff1690505b60008160038111156136cd576136cd61403e565b1480156136eb575060018460038111156136e9576136e961403e565b145b1561371157613708600080516020614623833981519152336122e6565b9250505061230d565b60018160038111156137255761372561403e565b148015613743575060028460038111156137415761374161403e565b145b1561376057613708600080516020614603833981519152336122e6565b60028160038111156137745761377461403e565b148015613792575060038460038111156137905761379061403e565b145b156137c1576137087f2a5f906c256a5d799494fcd066e1f6c077689de1cdb65052a1624de4bace99bf336122e6565b506000949350505050565b6000806127106137dc84826144df565b6137e690866144c8565b6137f0919061453f565b9050600061271061380185826144f2565b61380b90876144c8565b613815919061453f565b90508186101580156138275750808611155b9695505050505050565b61383b82826122e6565b15610e375760008281526002602090815260408083206001600160a01b0385168085529252808320805460ff1916905551339285917ff6391f5c32d9c69d2a47ea670b442974b53935d1edc7fd64eb21e047a839171b9190a45050565b604080518082018252601081526f181899199a1a9b1b9c1cb0b131b232b360811b60208201528151602a80825260608281019094526001600160a01b0385169291600091602082018180368337019050509050600360fc1b8160008151811061390357613903614529565b60200101906001600160f81b031916908160001a905350600f60fb1b8160018151811061393257613932614529565b60200101906001600160f81b031916908160001a90535060005b6014811015613a7a578260048561396484600c6144f2565b6020811061397457613974614529565b1a60f81b6001600160f81b031916901c60f81c60ff168151811061399a5761399a614529565b01602001516001600160f81b031916826139b58360026144c8565b6139c09060026144f2565b815181106139d0576139d0614529565b60200101906001600160f81b031916908160001a90535082846139f483600c6144f2565b60208110613a0457613a04614529565b825191901a600f16908110613a1b57613a1b614529565b01602001516001600160f81b03191682613a368360026144c8565b613a419060036144f2565b81518110613a5157613a51614529565b60200101906001600160f81b031916908160001a90535080613a72816145e9565b91505061394c565b50949350505050565b604080518082018252601081526f181899199a1a9b1b9c1cb0b131b232b360811b6020820152815160428082526080820190935260609260009190602082018180368337019050509050600360fc1b81600081518110613ae557613ae5614529565b60200101906001600160f81b031916908160001a905350600f60fb1b81600181518110613b1457613b14614529565b60200101906001600160f81b031916908160001a90535060005b6020811015613c4857826004868360208110613b4c57613b4c614529565b1a60f81b6001600160f81b031916901c60f81c60ff1681518110613b7257613b72614529565b01602001516001600160f81b03191682613b8d8360026144c8565b613b989060026144f2565b81518110613ba857613ba8614529565b60200101906001600160f81b031916908160001a90535082858260208110613bd257613bd2614529565b825191901a600f16908110613be957613be9614529565b01602001516001600160f81b03191682613c048360026144c8565b613c0f9060036144f2565b81518110613c1f57613c1f614529565b60200101906001600160f81b031916908160001a90535080613c40816145e9565b915050613b2e565b509392505050565b60005460ff1661152a5760405162461bcd60e51b815260206004820152601460248201527314185d5cd8589b194e881b9bdd081c185d5cd95960621b60448201526064016109c3565b600060208284031215613cab57600080fd5b5035919050565b80356001600160a01b0381168114613cc957600080fd5b919050565b60008060408385031215613ce157600080fd5b82359150613cf160208401613cb2565b90509250929050565b600060208284031215613d0c57600080fd5b813580151581146130b157600080fd5b60008060408385031215613d2f57600080fd5b50508035926020909101359150565b60008083601f840112613d5057600080fd5b50813567ffffffffffffffff811115613d6857600080fd5b602083019150836020828501011115613d8057600080fd5b9250929050565b60008060008060008060008060a0898b031215613da357600080fd5b88359750602089013560048110613db957600080fd5b9650604089013567ffffffffffffffff80821115613dd657600080fd5b613de28c838d01613d3e565b909850965060608b0135915080821115613dfb57600080fd5b613e078c838d01613d3e565b909650945060808b0135915080821115613e2057600080fd5b50613e2d8b828c01613d3e565b999c989b5096995094979396929594505050565b60008060408385031215613e5457600080fd5b613e5d83613cb2565b9150602083013560078110613e7157600080fd5b809150509250929050565b600080600080600080600080600080600060e08c8e031215613e9d57600080fd5b8b359a5060208c0135995067ffffffffffffffff8060408e01351115613ec257600080fd5b613ed28e60408f01358f01613d3e565b909a50985060608d0135975060808d0135811015613eef57600080fd5b613eff8e60808f01358f01613d3e565b909750955060a08d0135811015613f1557600080fd5b613f258e60a08f01358f01613d3e565b909550935060c08d0135811015613f3b57600080fd5b50613f4c8d60c08e01358e01613d3e565b81935080925050509295989b509295989b9093969950565b60005b83811015613f7f578181015183820152602001613f67565b50506000910152565b60008151808452613fa0816020860160208601613f64565b601f01601f19169290920160200192915050565b60006101608d83528c6020840152806040840152613fd48184018d613f88565b606084019b909b52505060808101979097526001600160a01b039590951660a087015292151560c086015290151560e08501526101008401526101208301521515610140909101529392505050565b60006020828403121561403557600080fd5b6130b182613cb2565b634e487b7160e01b600052602160045260246000fd5b60208101600783106140685761406861403e565b91905290565b60008060006060848603121561408357600080fd5b505081359360208301359350604090920135919050565b600481106140aa576140aa61403e565b9052565b6140b982825161409a565b6000602082015160c060208501526140d460c0850182613f88565b9050604083015184820360408601526140ed8282613f88565b91505060608301516060850152608083015184820360808601526141118282613f88565b60a0948501516001600160a01b03169590940194909452509092915050565b6000602080830181845280855180835260408601915060408160051b870101925083870160005b8281101561418557603f198886030184526141738583516140ae565b94509285019290850190600101614157565b5092979650505050505050565b6020815260006130b160208301846140ae565b602081528151602082015260208201516040820152600060408301516101608060608501526141d8610180850183613f88565b915060608501516080850152608085015160a085015260a085015161420860c08601826001600160a01b03169052565b5060c085015180151560e08601525060e085015161010061422c8187018315159052565b860151610120868101919091528601516101408087019190915290950151151593019290925250919050565b6020808252600a908201526927b7363c9037bbb732b960b11b604082015260600190565b6020808252600f908201526e10985d18da081b9bdd08199bdd5b99608a1b604082015260600190565b6020808252600f908201526e496e76616c6964206164647265737360881b604082015260600190565b60208082526011908201527010985d18da081a5cc81c9958d85b1b1959607a1b604082015260600190565b634e487b7160e01b600052604160045260246000fd5b600181811c9082168061432357607f821691505b602082108103612a6457634e487b7160e01b600052602260045260246000fd5b601f821115610b8557600081815260208120601f850160051c8101602086101561436a5750805b601f850160051c820191505b8181101561359b57828155600101614376565b815167ffffffffffffffff8111156143a3576143a36142f9565b6143b7816143b1845461430f565b84614343565b602080601f8311600181146143ec57600084156143d45750858301515b600019600386901b1c1916600185901b17855561359b565b600085815260208120601f198616915b8281101561441b578886015182559484019460019091019084016143fc565b50858210156144395787850151600019600388901b60f8161c191681555b5050505050600190811b01905550565b81835281816020850137506000828201602090810191909152601f909101601f19169091010190565b61447c818761409a565b606060208201526000614493606083018688614449565b82810360408401526144a6818587614449565b98975050505050505050565b634e487b7160e01b600052601160045260246000fd5b808202811582820484141761230d5761230d6144b2565b8181038181111561230d5761230d6144b2565b8082018082111561230d5761230d6144b2565b604081526000614519604083018587614449565b9050826020830152949350505050565b634e487b7160e01b600052603260045260246000fd5b60008261455c57634e487b7160e01b600052601260045260246000fd5b500490565b7f416363657373436f6e74726f6c3a206163636f756e7420000000000000000000815260008351614599816017850160208801613f64565b7001034b99036b4b9b9b4b733903937b6329607d1b60179184019182015283516145ca816028840160208801613f64565b01602801949350505050565b6020815260006130b16020830184613f88565b6000600182016145fb576145fb6144b2565b506001019056feddaa901e2fe3bda354fe0ede2785152d5c109282a613fe024a056a3e66c41bb3732375a6754a68b79d13a007379de6033ecdee94a015054c66fbfc47ada65585a26469706673582212206699ddbd50c03318756c681a2b1acf404d3c9526b4708120cc7e37b85d4e431b64736f6c63430008130033",
  "linkReferences": {},
  "deployedLinkReferences": {}
}