{
  "_format": "hh-sol-artifact-1",
  "contractName": "CropChain",
  "sourceName": "contracts/CropChain.sol",
  "abi": [
    {
      "inputs": [],
      "stateMutability": "nonpayable",
      "type": "constructor"
    },
    {
      "anonymous": false,
      "inputs": [
        {
          "indexed": true,
          "internalType": "bytes32",
          "name": "batchId",
          "type": "bytes32"
        },
        {
          "indexed": false,
          "internalType": "string",
          "name": "ipfsCID",
          "type": "string"
        },
        {
          "indexed": false,
          "internalType": "uint256",
          "name": "quantity",
          "type": "uint256"
        },
        {
          "indexed": true,
          "internalType": "address",
          "name": "creator",
          "type": "address"
        }
      ],
      "name": "BatchCreated",
      "type": "event"
    },
    {
      "anonymous": false,
      "inputs": [
        {
          "indexed": true,
          "internalType": "bytes32",
          "name": "batchId",
          "type": "bytes32"
        },
        {
          "indexed": true,
          "internalType": "address",
          "name": "triggeredBy",
          "type": "address"
        }
      ],
      "name": "BatchRecalled",
      "type": "event"
    },
    {
      "anonymous": false,
      "inputs": [
        {
          "indexed": true,
          "internalType": "bytes32",
          "name": "batchId",
          "type": "bytes32"
        },
        {
          "indexed": false,
          "internalType": "enum CropChain.Stage",
          "name": "stage",
          "type": "uint8"
        },
        {
          "indexed": false,
          "internalType": "string",
          "name": "actorName",
          "type": "string"
        },
        {
          "indexed": false,
          "internalType": "string",
          "name": "location",
          "type": "string"
        },
        {
          "indexed": true,
          "internalType": "address",
          "name": "updatedBy",
          "type": "address"
        }
      ],
      "name": "BatchUpdated",
      "type": "event"
    },
    {
      "anonymous": false,
      "inputs": [
        {
          "indexed": true,
          "internalType": "bytes32",
          "name": "batchId",
          "type": "bytes32"
        },
        {
          "indexed": false,
          "internalType": "int256",
          "name": "temperature",
          "type": "int256"
        },
        {
          "indexed": false,
          "internalType": "int256",
          "name": "humidity",
          "type": "int256"
        },
        {
          "indexed": false,
          "internalType": "bool",
          "name": "isSpoiled",
          "type": "bool"
        }
      ],
      "name": "IoTDataFulfilled",
      "type": "event"
    },
    {
      "anonymous": false,
      "inputs": [
        {
          "indexed": true,
          "internalType": "bytes32",
          "name": "batchId",
          "type": "bytes32"
        },
        {
          "indexed": false,
          "internalType": "address",
          "name": "requester",
          "type": "address"
        }
      ],
      "name": "IoTDataRequested",
      "type": "event"
    },
    {
      "anonymous": false,
      "inputs": [
        {
          "indexed": true,
          "internalType": "uint256",
          "name": "listingId",
          "type": "uint256"
        },
        {
          "indexed": true,
          "internalType": "address",
          "name": "cancelledBy",
          "type": "address"
        }
      ],
      "name": "ListingCancelled",
      "type": "event"
    },
    {
      "anonymous": false,
      "inputs": [
        {
          "indexed": true,
          "internalType": "uint256",
          "name": "listingId",
          "type": "uint256"
        },
        {
          "indexed": true,
          "internalType": "bytes32",
          "name": "batchId",
          "type": "bytes32"
        },
        {
          "indexed": true,
          "internalType": "address",
          "name": "seller",
          "type": "address"
        },
        {
          "indexed": false,
          "internalType": "uint256",
          "name": "quantity",
          "type": "uint256"
        },
        {
          "indexed": false,
          "internalType": "uint256",
          "name": "unitPriceWei",
          "type": "uint256"
        }
      ],
      "name": "ListingCreated",
      "type": "event"
    },
    {
      "anonymous": false,
      "inputs": [
        {
          "indexed": true,
          "internalType": "uint256",
          "name": "listingId",
          "type": "uint256"
        },
        {
          "indexed": true,
          "internalType": "address",
          "name": "buyer",
          "type": "address"
        },
        {
          "indexed": false,
          "internalType": "uint256",
          "name": "quantity",
          "type": "uint256"
        },
        {
          "indexed": false,
          "internalType": "uint256",
          "name": "totalPaidWei",
          "type": "uint256"
        }
      ],
      "name": "ListingPurchased",
      "type": "event"
    },
    {
      "anonymous": false,
      "inputs": [
        {
          "indexed": true,
          "internalType": "address",
          "name": "previousOwner",
          "type": "address"
        },
        {
          "indexed": true,
          "internalType": "address",
          "name": "newOwner",
          "type": "address"
        }
      ],
      "name": "OwnershipTransferred",
      "type": "event"
    },
    {
      "anonymous": false,
      "inputs": [
        {
          "indexed": false,
          "internalType": "address",
          "name": "account",
          "type": "address"
        }
      ],
      "name": "Paused",
      "type": "event"
    },
    {
      "anonymous": false,
      "inputs": [
        {
          "indexed": true,
          "internalType": "address",
          "name": "account",
          "type": "address"
        },
        {
          "indexed": false,
          "internalType": "uint256",
          "name": "amountWei",
          "type": "uint256"
        }
      ],
      "name": "ProceedsWithdrawn",
      "type": "event"
    },
    {
      "anonymous": false,
      "inputs": [
        {
          "indexed": true,
          "internalType": "bytes32",
          "name": "role",
          "type": "bytes32"
        },
        {
          "indexed": true,
          "internalType": "address",
          "name": "account",
          "type": "address"
        },
        {
          "indexed": true,
          "internalType": "address",
          "name": "sender",
          "type": "address"
        }
      ],
      "name": "RoleGranted",
      "type": "event"
    },
    {
      "anonymous": false,
      "inputs": [
        {
          "indexed": true,
          "internalType": "bytes32",
          "name": "role",
          "type": "bytes32"
        },
        {
          "indexed": true,
          "internalType": "address",
          "name": "account",
          "type": "address"
        },
        {
          "indexed": true,
          "internalType": "address",
          "name": "sender",
          "type": "address"
        }
      ],
      "name": "RoleRevoked",
      "type": "event"
    },
    {
      "anonymous": false,
      "inputs": [
        {
          "indexed": true,
          "internalType": "address",
          "name": "user",
          "type": "address"
        },
        {
          "indexed": false,
          "internalType": "enum CropChain.ActorRole",
          "name": "role",
          "type": "uint8"
        }
      ],
      "name": "RoleUpdated",
      "type": "event"
    },
    {
      "anonymous": false,
      "inputs": [
        {
          "indexed": true,
          "internalType": "bytes32",
          "name": "cropTypeHash",
          "type": "bytes32"
        },
        {
          "indexed": false,
          "internalType": "uint256",
          "name": "priceWei",
          "type": "uint256"
        },
        {
          "indexed": false,
          "internalType": "uint256",
          "name": "timestamp",
          "type": "uint256"
        }
      ],
      "name": "SpotPriceRecorded",
      "type": "event"
    },
    {
      "anonymous": false,
      "inputs": [
        {
          "indexed": false,
          "internalType": "uint256",
          "name": "twapWindowSeconds",
          "type": "uint256"
        },
        {
          "indexed": false,
          "internalType": "uint256",
          "name": "maxPriceDeviationBps",
          "type": "uint256"
        }
      ],
      "name": "TwapConfigUpdated",
      "type": "event"
    },
    {
      "anonymous": false,
      "inputs": [
        {
          "indexed": false,
          "internalType": "address",
          "name": "account",
          "type": "address"
        }
      ],
      "name": "Unpaused",
      "type": "event"
    },
    {
      "inputs": [],
      "name": "DEFAULT_ADMIN_ROLE",
      "outputs": [
        {
          "internalType": "bytes32",
          "name": "",
          "type": "bytes32"
        }
      ],
      "stateMutability": "view",
      "type": "function"
    },
    {
      "inputs": [],
      "name": "FARMER_ROLE",
      "outputs": [
        {
          "internalType": "bytes32",
          "name": "",
          "type": "bytes32"
        }
      ],
      "stateMutability": "view",
      "type": "function"
    },
    {
      "inputs": [],
      "name": "MANDI_ROLE",
      "outputs": [
        {
          "internalType": "bytes32",
          "name": "",
          "type": "bytes32"
        }
      ],
      "stateMutability": "view",
      "type": "function"
    },
    {
      "inputs": [],
      "name": "ORACLE_ROLE",
      "outputs": [
        {
          "internalType": "bytes32",
          "name": "",
          "type": "bytes32"
        }
      ],
      "stateMutability": "view",
      "type": "function"
    },
    {
      "inputs": [],
      "name": "RETAILER_ROLE",
      "outputs": [
        {
          "internalType": "bytes32",
          "name": "",
          "type": "bytes32"
        }
      ],
      "stateMutability": "view",
      "type": "function"
    },
    {
      "inputs": [],
      "name": "TRANSPORTER_ROLE",
      "outputs": [
        {
          "internalType": "bytes32",
          "name": "",
          "type": "bytes32"
        }
      ],
      "stateMutability": "view",
      "type": "function"
    },
    {
      "inputs": [
        {
          "internalType": "uint256",
          "name": "",
          "type": "uint256"
        }
      ],
      "name": "allBatchIds",
      "outputs": [
        {
          "internalType": "bytes32",
          "name": "",
          "type": "bytes32"
        }
      ],
      "stateMutability": "view",
      "type": "function"
    },
    {
      "inputs": [
        {
          "internalType": "uint256",
          "name": "listingId",
          "type": "uint256"
        },
        {
          "internalType": "uint256",
          "name": "quantity",
          "type": "uint256"
        }
      ],
      "name": "buyFromListing",
      "outputs": [],
      "stateMutability": "payable",
      "type": "function"
    },
    {
      "inputs": [
        {
          "internalType": "uint256",
          "name": "listingId",
          "type": "uint256"
        }
      ],
      "name": "cancelListing",
      "outputs": [],
      "stateMutability": "nonpayable",
      "type": "function"
    },
    {
      "inputs": [
        {
          "internalType": "bytes32",
          "name": "batchId",
          "type": "bytes32"
        },
        {
          "internalType": "bytes32",
          "name": "cropTypeHash",
          "type": "bytes32"
        },
        {
          "internalType": "string",
          "name": "ipfsCID",
          "type": "string"
        },
        {
          "internalType": "uint256",
          "name": "quantity",
          "type": "uint256"
        },
        {
          "internalType": "string",
          "name": "actorName",
          "type": "string"
        },
        {
          "internalType": "string",
          "name": "location",
          "type": "string"
        },
        {
          "internalType": "string",
          "name": "notes",
          "type": "string"
        }
      ],
      "name": "createBatch",
      "outputs": [],
      "stateMutability": "nonpayable",
      "type": "function"
    },
    {
      "inputs": [
        {
          "internalType": "bytes32",
          "name": "batchId",
          "type": "bytes32"
        },
        {
          "internalType": "uint256",
          "name": "quantity",
          "type": "uint256"
        },
        {
          "internalType": "uint256",
          "name": "unitPriceWei",
          "type": "uint256"
        }
      ],
      "name": "createListing",
      "outputs": [
        {
          "internalType": "uint256",
          "name": "",
          "type": "uint256"
        }
      ],
      "stateMutability": "nonpayable",
      "type": "function"
    },
    {
      "inputs": [
        {
          "internalType": "bytes32",
          "name": "",
          "type": "bytes32"
        }
      ],
      "name": "cropBatches",
      "outputs": [
        {
          "internalType": "bytes32",
          "name": "batchId",
          "type": "bytes32"
        },
        {
          "internalType": "bytes32",
          "name": "cropTypeHash",
          "type": "bytes32"
        },
        {
          "internalType": "string",
          "name": "ipfsCID",
          "type": "string"
        },
        {
          "internalType": "uint256",
          "name": "quantity",
          "type": "uint256"
        },
        {
          "internalType": "uint256",
          "name": "createdAt",
          "type": "uint256"
        },
        {
          "internalType": "address",
          "name": "creator",
          "type": "address"
        },
        {
          "internalType": "bool",
          "name": "exists",
          "type": "bool"
        },
        {
          "internalType": "bool",
          "name": "isRecalled",
          "type": "bool"
        },
        {
          "internalType": "int256",
          "name": "currentTemperature",
          "type": "int256"
        },
        {
          "internalType": "int256",
          "name": "currentHumidity",
          "type": "int256"
        },
        {
          "internalType": "bool",
          "name": "isSpoiled",
          "type": "bool"
        }
      ],
      "stateMutability": "view",
      "type": "function"
    },
    {
      "inputs": [
        {
          "internalType": "bytes32",
          "name": "batchId",
          "type": "bytes32"
        },
        {
          "internalType": "int256",
          "name": "temperature",
          "type": "int256"
        },
        {
          "internalType": "int256",
          "name": "humidity",
          "type": "int256"
        }
      ],
      "name": "fulfillIoTData",
      "outputs": [],
      "stateMutability": "nonpayable",
      "type": "function"
    },
    {
      "inputs": [
        {
          "internalType": "bytes32",
          "name": "batchId",
          "type": "bytes32"
        }
      ],
      "name": "getBatch",
      "outputs": [
        {
          "components": [
            {
              "internalType": "bytes32",
              "name": "batchId",
              "type": "bytes32"
            },
            {
              "internalType": "bytes32",
              "name": "cropTypeHash",
              "type": "bytes32"
            },
            {
              "internalType": "string",
              "name": "ipfsCID",
              "type": "string"
            },
            {
              "internalType": "uint256",
              "name": "quantity",
              "type": "uint256"
            },
            {
              "internalType": "uint256",
              "name": "createdAt",
              "type": "uint256"
            },
            {
              "internalType": "address",
              "name": "creator",
              "type": "address"
            },
            {
              "internalType": "bool",
              "name": "exists",
              "type": "bool"
            },
            {
              "internalType": "bool",
              "name": "isRecalled",
              "type": "bool"
            },
            {
              "internalType": "int256",
              "name": "currentTemperature",
              "type": "int256"
            },
            {
              "internalType": "int256",
              "name": "currentHumidity",
              "type": "int256"
            },
            {
              "internalType": "bool",
              "name": "isSpoiled",
              "type": "bool"
            }
          ],
          "internalType": "struct CropChain.CropBatch",
          "name": "",
          "type": "tuple"
        }
      ],
      "stateMutability": "view",
      "type": "function"
    },
    {
      "inputs": [
        {
          "internalType": "uint256",
          "name": "index",
          "type": "uint256"
        }
      ],
      "name": "getBatchIdByIndex",
      "outputs": [
        {
          "internalType": "bytes32",
          "name": "",
          "type": "bytes32"
        }
      ],
      "stateMutability": "view",
      "type": "function"
    },
    {
      "inputs": [
        {
          "internalType": "bytes32",
          "name": "batchId",
          "type": "bytes32"
        }
      ],
      "name": "getBatchIoTData",
      "outputs": [
        {
          "internalType": "int256",
          "name": "temperature",
          "type": "int256"
        },
        {
          "internalType": "int256",
          "name": "humidity",
          "type": "int256"
        },
        {
          "internalType": "bool",
          "name": "isSpoiled",
          "type": "bool"
        }
      ],
      "stateMutability": "view",
      "type": "function"
    },
    {
      "inputs": [
        {
          "internalType": "bytes32",
          "name": "batchId",
          "type": "bytes32"
        }
      ],
      "name": "getBatchUpdates",
      "outputs": [
        {
          "components": [
            {
              "internalType": "enum CropChain.Stage",
              "name": "stage",
              "type": "uint8"
            },
            {
              "internalType": "string",
              "name": "actorName",
              "type": "string"
            },
            {
              "internalType": "string",
              "name": "location",
              "type": "string"
            },
            {
              "internalType": "uint256",
              "name": "timestamp",
              "type": "uint256"
            },
            {
              "internalType": "string",
              "name": "notes",
              "type": "string"
            },
            {
              "internalType": "address",
              "name": "updatedBy",
              "type": "address"
            }
          ],
          "internalType": "struct CropChain.SupplyChainUpdate[]",
          "name": "",
          "type": "tuple[]"
        }
      ],
      "stateMutability": "view",
      "type": "function"
    },
    {
      "inputs": [
        {
          "internalType": "bytes32",
          "name": "batchId",
          "type": "bytes32"
        }
      ],
      "name": "getLatestUpdate",
      "outputs": [
        {
          "components": [
            {
              "internalType": "enum CropChain.Stage",
              "name": "stage",
              "type": "uint8"
            },
            {
              "internalType": "string",
              "name": "actorName",
              "type": "string"
            },
            {
              "internalType": "string",
              "name": "location",
              "type": "string"
            },
            {
              "internalType": "uint256",
              "name": "timestamp",
              "type": "uint256"
            },
            {
              "internalType": "string",
              "name": "notes",
              "type": "string"
            },
            {
              "internalType": "address",
              "name": "updatedBy",
              "type": "address"
            }
          ],
          "internalType": "struct CropChain.SupplyChainUpdate",
          "name": "",
          "type": "tuple"
        }
      ],
      "stateMutability": "view",
      "type": "function"
    },
    {
      "inputs": [
        {
          "internalType": "bytes32",
          "name": "cropTypeHash",
          "type": "bytes32"
        }
      ],
      "name": "getPriceObservationCount",
      "outputs": [
        {
          "internalType": "uint256",
          "name": "",
          "type": "uint256"
        }
      ],
      "stateMutability": "view",
      "type": "function"
    },
    {
      "inputs": [
        {
          "internalType": "bytes32",
          "name": "role",
          "type": "bytes32"
        }
      ],
      "name": "getRoleAdmin",
      "outputs": [
        {
          "internalType": "bytes32",
          "name": "",
          "type": "bytes32"
        }
      ],
      "stateMutability": "view",
      "type": "function"
    },
    {
      "inputs": [],
      "name": "getTotalBatches",
      "outputs": [
        {
          "internalType": "uint256",
          "name": "",
          "type": "uint256"
        }
      ],
      "stateMutability": "view",
      "type": "function"
    },
    {
      "inputs": [
        {
          "internalType": "bytes32",
          "name": "cropTypeHash",
          "type": "bytes32"
        },
        {
          "internalType": "uint256",
          "name": "windowSeconds",
          "type": "uint256"
        }
      ],
      "name": "getTwapPrice",
      "outputs": [
        {
          "internalType": "uint256",
          "name": "",
          "type": "uint256"
        }
      ],
      "stateMutability": "view",
      "type": "function"
    },
    {
      "inputs": [
        {
          "internalType": "bytes32",
          "name": "role",
          "type": "bytes32"
        },
        {
          "internalType": "address",
          "name": "account",
          "type": "address"
        }
      ],
      "name": "grantRole",
      "outputs": [],
      "stateMutability": "nonpayable",
      "type": "function"
    },
    {
      "inputs": [
        {
          "internalType": "bytes32",
          "name": "role",
          "type": "bytes32"
        },
        {
          "internalType": "address",
          "name": "account",
          "type": "address"
        }
      ],
      "name": "grantStakeholderRole",
      "outputs": [],
      "stateMutability": "nonpayable",
      "type": "function"
    },
    {
      "inputs": [
        {
          "internalType": "bytes32",
          "name": "role",
          "type": "bytes32"
        },
        {
          "internalType": "address",
          "name": "account",
          "type": "address"
        }
      ],
      "name": "hasRole",
      "outputs": [
        {
          "internalType": "bool",
          "name": "",
          "type": "bool"
        }
      ],
      "stateMutability": "view",
      "type": "function"
    },
    {
      "inputs": [
        {
          "internalType": "bytes32",
          "name": "",
          "type": "bytes32"
        }
      ],
      "name": "latestOraclePrice",
      "outputs": [
        {
          "internalType": "uint256",
          "name": "",
          "type": "uint256"
        }
      ],
      "stateMutability": "view",
      "type": "function"
    },
    {
      "inputs": [
        {
          "internalType": "uint256",
          "name": "",
          "type": "uint256"
        }
      ],
      "name": "listings",
      "outputs": [
        {
          "internalType": "uint256",
          "name": "listingId",
          "type": "uint256"
        },
        {
          "internalType": "bytes32",
          "name": "batchId",
          "type": "bytes32"
        },
        {
          "internalType": "address",
          "name": "seller",
          "type": "address"
        },
        {
          "internalType": "uint256",
          "name": "quantity",
          "type": "uint256"
        },
        {
          "internalType": "uint256",
          "name": "quantityAvailable",
          "type": "uint256"
        },
        {
          "internalType": "uint256",
          "name": "unitPriceWei",
          "type": "uint256"
        },
        {
          "internalType": "bool",
          "name": "active",
          "type": "bool"
        },
        {
          "internalType": "uint256",
          "name": "createdAt",
          "type": "uint256"
        }
      ],
      "stateMutability": "view",
      "type": "function"
    },
    {
      "inputs": [],
      "name": "maxPriceDeviationBps",
      "outputs": [
        {
          "internalType": "uint256",
          "name": "",
          "type": "uint256"
        }
      ],
      "stateMutability": "view",
      "type": "function"
    },
    {
      "inputs": [],
      "name": "nextListingId",
      "outputs": [
        {
          "internalType": "uint256",
          "name": "",
          "type": "uint256"
        }
      ],
      "stateMutability": "view",
      "type": "function"
    },
    {
      "inputs": [],
      "name": "owner",
      "outputs": [
        {
          "internalType": "address",
          "name": "",
          "type": "address"
        }
      ],
      "stateMutability": "view",
      "type": "function"
    },
    {
      "inputs": [],
      "name": "pause",
      "outputs": [],
      "stateMutability": "nonpayable",
      "type": "function"
    },
    {
      "inputs": [],
      "name": "paused",
      "outputs": [
        {
          "internalType": "bool",
          "name": "",
          "type": "bool"
        }
      ],
      "stateMutability": "view",
      "type": "function"
    },
    {
      "inputs": [
        {
          "internalType": "address",
          "name": "",
          "type": "address"
        }
      ],
      "name": "pendingWithdrawals",
      "outputs": [
        {
          "internalType": "uint256",
          "name": "",
          "type": "uint256"
        }
      ],
      "stateMutability": "view",
      "type": "function"
    },
    {
      "inputs": [
        {
          "internalType": "bytes32",
          "name": "batchId",
          "type": "bytes32"
        }
      ],
      "name": "recallBatch",
      "outputs": [],
      "stateMutability": "nonpayable",
      "type": "function"
    },
    {
      "inputs": [
        {
          "internalType": "bytes32",
          "name": "cropTypeHash",
          "type": "bytes32"
        },
        {
          "internalType": "uint256",
          "name": "priceWei",
          "type": "uint256"
        }
      ],
      "name": "recordSpotPrice",
      "outputs": [],
      "stateMutability": "nonpayable",
      "type": "function"
    },
    {
      "inputs": [
        {
          "internalType": "bytes32",
          "name": "batchId",
          "type": "bytes32"
        }
      ],
      "name": "requestIoTVerification",
      "outputs": [],
      "stateMutability": "nonpayable",
      "type": "function"
    },
    {
      "inputs": [
        {
          "internalType": "bytes32",
          "name": "role",
          "type": "bytes32"
        },
        {
          "internalType": "address",
          "name": "account",
          "type": "address"
        }
      ],
      "name": "revokeRole",
      "outputs": [],
      "stateMutability": "nonpayable",
      "type": "function"
    },
    {
      "inputs": [
        {
          "internalType": "address",
          "name": "",
          "type": "address"
        }
      ],
      "name": "roles",
      "outputs": [
        {
          "internalType": "enum CropChain.ActorRole",
          "name": "",
          "type": "uint8"
        }
      ],
      "stateMutability": "view",
      "type": "function"
    },
    {
      "inputs": [
        {
          "internalType": "bool",
          "name": "shouldPause",
          "type": "bool"
        }
      ],
      "name": "setPaused",
      "outputs": [],
      "stateMutability": "nonpayable",
      "type": "function"
    },
    {
      "inputs": [
        {
          "internalType": "address",
          "name": "user",
          "type": "address"
        },
        {
          "internalType": "enum CropChain.ActorRole",
          "name": "role",
          "type": "uint8"
        }
      ],
      "name": "setRole",
      "outputs": [],
      "stateMutability": "nonpayable",
      "type": "function"
    },
    {
      "inputs": [
        {
          "internalType": "uint256",
          "name": "twapWindowSeconds",
          "type": "uint256"
        },
        {
          "internalType": "uint256",
          "name": "maxDeviationBps",
          "type": "uint256"
        }
      ],
      "name": "setTwapConfig",
      "outputs": [],
      "stateMutability": "nonpayable",
      "type": "function"
    },
    {
      "inputs": [
        {
          "internalType": "address",
          "name": "newOwner",
          "type": "address"
        }
      ],
      "name": "transferOwnership",
      "outputs": [],
      "stateMutability": "nonpayable",
      "type": "function"
    },
    {
      "inputs": [],
      "name": "twapWindow",
      "outputs": [
        {
          "internalType": "uint256",
          "name": "",
          "type": "uint256"
        }
      ],
      "stateMutability": "view",
      "type": "function"
    },
    {
      "inputs": [],
      "name": "unpause",
      "outputs": [],
      "stateMutability": "nonpayable",
      "type": "function"
    },
    {
      "inputs": [
        {
          "internalType": "bytes32",
          "name": "batchId",
          "type": "bytes32"
        },
        {
          "internalType": "enum CropChain.Stage",
          "name": "stage",
          "type": "uint8"
        },
        {
          "internalType": "string",
          "name": "actorName",
          "type": "string"
        },
        {
          "internalType": "string",
          "name": "location",
          "type": "string"
        },
        {
          "internalType": "string",
          "name": "notes",
          "type": "string"
        }
      ],
      "name": "updateBatch",
      "outputs": [],
      "stateMutability": "nonpayable",
      "type": "function"
    },
    {
      "inputs": [],
      "name": "withdrawProceeds",
      "outputs": [],
      "stateMutability": "nonpayable",
      "type": "function"
    }
  ],
  "bytecode": "0x60806040523480156200001157600080fd5b506000805460ff1990811682556001808055600b8054336001600160a01b031990911681179091558084526005602052604084208054909316600617909255600c55610e10600d556105dc600e556200006b91906200014d565b600260205260007f535e3cbd9037bc68d5f8d3c81b8127fd70001cd8531c1ab655efcd900e9e971d8190557fabde725685c041f6c2eb5c0df839de6263b8c8bc2c63f2570bdf8b6abe90cb388190557f64a73aea544bb93342d45059af8acbf451d8d7d7fd40f6c88ae2a269275690fc8190557fcd0530a84e200f27dba7ccfc1aa0770633bd2859b6b98ca8274a64edec824e978190557f68e79a7bf1e0bc45d0a330c573bc367f9cf464fd326078812f301165fbda4ef181527f4c5dd14cc36ac74df3f3035fa8453ebdbc47c888eb74d355b623b33097c65a4c55620001f2565b60008281526002602090815260408083206001600160a01b038516845290915290205460ff16620001ee5760008281526002602090815260408083206001600160a01b03851684529091529020805460ff19166001179055620001ad3390565b6001600160a01b0316816001600160a01b0316837f2f8788117e7eff1d82e926ec794901d17c78024a50270940304540a733656f0d60405160405180910390a45b5050565b614a3080620002026000396000f3fe60806040526004361061027d5760003560e01c80638456cb591161014f578063a9437275116100c1578063de74e57b1161007a578063de74e57b146107f9578063e561dddc146108b2578063ed42136f146108c7578063f2fde38b146108f4578063f394397014610914578063f3f437031461093657600080fd5b8063a94372751461071c578063aaccf1ec14610749578063ab0050111461075f578063aef9f8131461078c578063b68210a9146107b9578063d547741f146107d957600080fd5b80639937464211610113578063993746421461064a5780639fdf2b9514610687578063a0b6041d146106a7578063a1746f6b146106c7578063a2173df4146106e7578063a217fddf1461070757600080fd5b80638456cb59146105915780638da5cb5b146105a65780639038e693146105de578063906ddff1146105f357806391d148541461062a57600080fd5b806336214a1c116101f3578063571c3e60116101ac578063571c3e60146104c45780635ac5aff8146104e45780635c975abb146105215780636cccf52d1461054557806379baa1a2146105655780638107e1331461057b57600080fd5b806336214a1c1461040d5780633aac05441461042d5780633f4ba83a1461044d5780634e8cdd9c146104625780634eabbe7714610475578063507e22241461049757600080fd5b80632115e7bf116102455780632115e7bf1461033b578063248a9ca31461035d578063290b17ec1461038d5780632f2ff15d146103ad578063305a67a8146103cd578063332e2ac0146103ed57600080fd5b806307e2cea5146102825780630c13e6db146102b7578063110f9f77146102d957806314c82f13146102f957806316c38b3c1461031b575b600080fd5b34801561028e57600080fd5b506102a460008051602061499b83398151915281565b6040519081526020015b60405180910390f35b3480156102c357600080fd5b506102d76102d2366004614015565b610963565b005b3480156102e557600080fd5b506102d76102f436600461404a565b610a52565b34801561030557600080fd5b506102a46000805160206149db83398151915281565b34801561032757600080fd5b506102d7610336366004614076565b610c9a565b34801561034757600080fd5b506102a460008051602061497b83398151915281565b34801561036957600080fd5b506102a4610378366004614015565b60009081526002602052604090206001015490565b34801561039957600080fd5b506102a46103a8366004614015565b610cd6565b3480156103b957600080fd5b506102d76103c836600461404a565b610cf7565b3480156103d957600080fd5b506102d76103e8366004614015565b610d1d565b3480156103f957600080fd5b506102d7610408366004614098565b610e29565b34801561041957600080fd5b506102d7610428366004614103565b610f0b565b34801561043957600080fd5b506102d7610448366004614098565b611412565b34801561045957600080fd5b506102d76115ab565b6102d7610470366004614098565b6115d0565b34801561048157600080fd5b506102a460008051602061495b83398151915281565b3480156104a357600080fd5b506102a46104b2366004614015565b60009081526007602052604090205490565b3480156104d057600080fd5b506102d76104df3660046141bd565b6118be565b3480156104f057600080fd5b506105046104ff366004614015565b611ca1565b6040805193845260208401929092521515908201526060016102ae565b34801561052d57600080fd5b5060005460ff165b60405190151581526020016102ae565b34801561055157600080fd5b506102d76105603660046141f8565b611d0b565b34801561057157600080fd5b506102a4600e5481565b34801561058757600080fd5b506102a4600d5481565b34801561059d57600080fd5b506102d76123bb565b3480156105b257600080fd5b50600b546105c6906001600160a01b031681565b6040516001600160a01b0390911681526020016102ae565b3480156105ea57600080fd5b506102d76123d7565b3480156105ff57600080fd5b5061061361060e366004614015565b61250d565b6040516102ae9b9a99989796959493929190614330565b34801561063657600080fd5b5061053561064536600461404a565b6125fe565b34801561065657600080fd5b5061067a61066536600461439f565b60056020526000908152604090205460ff1681565b6040516102ae91906143d0565b34801561069357600080fd5b506102d76106a23660046143ea565b61262b565b3480156106b357600080fd5b506102a46106c2366004614015565b612769565b3480156106d357600080fd5b506102d76106e2366004614015565b6127d2565b3480156106f357600080fd5b506102a4610702366004614098565b61294a565b34801561071357600080fd5b506102a4600081565b34801561072857600080fd5b5061073c610737366004614015565b612ac8565b6040516102ae91906144ac565b34801561075557600080fd5b506102a4600c5481565b34801561076b57600080fd5b5061077f61077a366004614015565b612d70565b6040516102ae919061450e565b34801561079857600080fd5b506102a46107a7366004614015565b60086020526000908152604090205481565b3480156107c557600080fd5b506102a46107d43660046143ea565b613084565b3480156107e557600080fd5b506102d76107f436600461404a565b6133be565b34801561080557600080fd5b50610869610814366004614015565b600660208190526000918252604090912080546001820154600283015460038401546004850154600586015496860154600790960154949693956001600160a01b039093169491939092909160ff9091169088565b6040805198895260208901979097526001600160a01b03909516958701959095526060860192909252608085015260a084015290151560c083015260e0820152610100016102ae565b3480156108be57600080fd5b50600a546102a4565b3480156108d357600080fd5b506108e76108e2366004614015565b6133e4565b6040516102ae9190614521565b34801561090057600080fd5b506102d761090f36600461439f565b6135b5565b34801561092057600080fd5b506102a46000805160206149bb83398151915281565b34801561094257600080fd5b506102a461095136600461439f565b60096020526000908152604090205481565b600b546001600160a01b031633146109af5760405162461bcd60e51b815260206004820152600a60248201526927b7363c9037bbb732b960b11b60448201526064015b60405180910390fd5b6109b76136e9565b6109bf61372f565b6000818152600360205260409020600501548190600160a01b900460ff166109f95760405162461bcd60e51b81526004016109a6906145d4565b600082815260036020526040808220600501805460ff60a81b1916600160a81b17905551339184917fe436bcddf7c3f20475a5cdfeaed40936b46f491ec050e636f35cfa92161342ba9190a350610a4f60018055565b50565b6000610a5e8133613788565b610a6661372f565b6001600160a01b038216610a8c5760405162461bcd60e51b81526004016109a6906145fd565b6000805160206149bb833981519152831480610ab557506000805160206149db83398151915283145b80610acd575060008051602061495b83398151915283145b80610ae5575060008051602061497b83398151915283145b610b315760405162461bcd60e51b815260206004820152601860248201527f496e76616c6964207374616b65686f6c64657220726f6c65000000000000000060448201526064016109a6565b6000805160206149bb8339815191528303610b75576001600160a01b038216600090815260056020526040902080546001919060ff191682805b0217905550610c2c565b6000805160206149db8339815191528303610bb4576001600160a01b038216600090815260056020526040902080546002919060ff1916600183610b6b565b60008051602061495b8339815191528303610bf3576001600160a01b038216600090815260056020526040902080546003919060ff1916600183610b6b565b60008051602061497b8339815191528303610c2c576001600160a01b0382166000908152600560205260409020805460ff191660041790555b610c3683836137df565b6001600160a01b038216600081815260056020526040908190205490517fc3f8f61911a1537261f77e2703626e158e299a98e341024ecaa26bbd1d884c6491610c849160ff909116906143d0565b60405180910390a2610c9560018055565b505050565b6000610ca68133613788565b610cae61372f565b8115610cc157610cbc613865565b610cc9565b610cc96138bf565b610cd260018055565b5050565b600a8181548110610ce657600080fd5b600091825260209091200154905081565b600082815260026020526040902060010154610d138133613788565b610c9583836137df565b610d256136e9565b610d2d61372f565b60008181526006602081905260409091209081015460ff16610d845760405162461bcd60e51b815260206004820152601060248201526f4c697374696e6720696e61637469766560801b60448201526064016109a6565b60028101546001600160a01b0316331480610da55750610da56000336125fe565b610ddf5760405162461bcd60e51b815260206004820152600b60248201526a139bdd08185b1b1bddd95960aa1b60448201526064016109a6565b60068101805460ff19169055600060048201819055604051339184917f8e25282255ab31897df2b0456bb993ac7f84d376861aefd84901d2d63a7428a29190a350610a4f60018055565b6000610e358133613788565b610e3d61372f565b60008311610e785760405162461bcd60e51b8152602060048201526008602482015267057696e646f773d360c41b60448201526064016109a6565b611388821115610ebf5760405162461bcd60e51b8152602060048201526012602482015271088caecd2c2e8d2dedc40e8dede40d0d2ced60731b60448201526064016109a6565b600d839055600e82905560408051848152602081018490527fd7ddc163e966adaeef708042d878eaa18ade5df877818262c96dd6eb79c42b7d910160405180910390a1610c9560018055565b610f136136e9565b610f1b61372f565b6000888152600360205260409020600501548890600160a01b900460ff16610f555760405162461bcd60e51b81526004016109a6906145d4565b610fc987878080601f016020809104026020016040519081016040528093929190818152602001838380828437600092019190915250506040805180820190915260198152781058dd1bdc881b985b59481b195b99dd1a081a5b9d985b1a59603a1b602082015260029250603291506138f8565b61103b85858080601f01602080910402602001604051908101604052809392919081815260200183838082843760009201919091525050604080518082019091526017815276131bd8d85d1a5bdb881b195b99dd1a081a5b9d985b1a59604a1b602082015260029250606491506138f8565b6110a483838080601f016020809104026020016040519081016040528093929190818152602001838380828437600092018290525060408051808201909152600e81526d4e6f74657320746f6f206c6f6e6760901b60208201529093506101f4925090506138f8565b600089815260036020526040902060050154600160a81b900460ff16156110dd5760405162461bcd60e51b81526004016109a690614626565b8561111b5760405162461bcd60e51b815260206004820152600e60248201526d1058dd1bdc881c995c5d5a5c995960921b60448201526064016109a6565b8361115c5760405162461bcd60e51b8152602060048201526011602482015270131bd8d85d1a5bdb881c995c5d5a5c9959607a1b60448201526064016109a6565b6111668989613931565b6111b25760405162461bcd60e51b815260206004820152601860248201527f496e76616c6964207374616765207472616e736974696f6e000000000000000060448201526064016109a6565b6111bc89896139d6565b61121b5760405162461bcd60e51b815260206004820152602a60248201527f526f6c65206e6f7420616c6c6f77656420666f722074686973207374616765206044820152693a3930b739b4ba34b7b760b11b60648201526084016109a6565b600460008a81526020019081526020016000206040518060c001604052808a600381111561124b5761124b6143ba565b815260200189898080601f016020809104026020016040519081016040528093929190818152602001838380828437600092019190915250505090825250604080516020601f8a01819004810282018101909252888152918101919089908990819084018382808284376000920191909152505050908252504260208083019190915260408051601f880183900483028101830182528781529201919087908790819084018382808284376000920182905250938552505033602093840152508354600181810186559482529190208251600690920201805492939092839160ff1990911690836003811115611343576113436143ba565b02179055506020820151600182019061135c90826146e1565b506040820151600282019061137190826146e1565b50606082015160038201556080820151600482019061139090826146e1565b5060a09190910151600590910180546001600160a01b0319166001600160a01b0390921691909117905560405133908a907f2cefceaa731c274adf2f7bd3b3237d2e06cb4fe59bd62d9ea2055287a132d364906113f6908c908c908c908c908c906147ca565b60405180910390a35061140860018055565b5050505050505050565b3360009081526005602081905260409091205460ff169081600681111561143b5761143b6143ba565b148061145857506006816006811115611456576114566143ba565b145b6114985760405162461bcd60e51b815260206004820152601160248201527027b7363c9037b930b1b63297b0b236b4b760791b60448201526064016109a6565b6114a06136e9565b6114a861372f565b826114e95760405162461bcd60e51b8152602060048201526011602482015270496e76616c69642063726f70207479706560781b60448201526064016109a6565b600082116115235760405162461bcd60e51b8152602060048201526007602482015266050726963653d360cc1b60448201526064016109a6565b6000838152600760209081526040808320815180830183524280825281850188815283546001808201865594885286882093516002909102909301928355519190920155868452600883529281902085905580518581529182019290925284917f9c43ba64e58f42018e29d3b8e3aa7f03ec30366613d0b3a2b07b26e75b5bb8179101610c84565b60006115b78133613788565b6115bf61372f565b6115c76138bf565b610a4f60018055565b6115d86136e9565b6115e061372f565b60008281526006602081905260409091209081015460ff166116375760405162461bcd60e51b815260206004820152601060248201526f4c697374696e6720696e61637469766560801b60448201526064016109a6565b60008211801561164b575080600401548211155b61168a5760405162461bcd60e51b815260206004820152601060248201526f496e76616c6964207175616e7469747960801b60448201526064016109a6565b600181015460009081526003602052604090206005810154600160a01b900460ff1680156116c457506005810154600160a81b900460ff16155b6117045760405162461bcd60e51b8152602060048201526011602482015270426174636820756e617661696c61626c6560781b60448201526064016109a6565b60006117168260010154600d5461294a565b9050801561177b5761172f836005015482600e54613b48565b61177b5760405162461bcd60e51b815260206004820152601760248201527f5457415020646576696174696f6e20746f6f206869676800000000000000000060448201526064016109a6565b600084846005015461178d9190614820565b9050803410156117d65760405162461bcd60e51b8152602060048201526014602482015273125b9cdd59999a58da595b9d081c185e5b595b9d60621b60448201526064016109a6565b848460040160008282546117ea9190614837565b909155505060048401546000036118085760068401805460ff191690555b60028401546001600160a01b03166000908152600960205260408120805483929061183490849061484a565b90915550600090506118468234614837565b9050801561187357336000908152600960205260408120805483929061186d90849061484a565b90915550505b6040805187815260208101849052339189917f0db6cd6881fc0453b2d01f52eb5a16417707659f245732abc10f847426e3525d910160405180910390a35050505050610cd260018055565b600b546001600160a01b031633146119055760405162461bcd60e51b815260206004820152600a60248201526927b7363c9037bbb732b960b11b60448201526064016109a6565b61190d61372f565b6001600160a01b0382166119335760405162461bcd60e51b81526004016109a6906145fd565b600b546001600160a01b039081169083160361199d5760405162461bcd60e51b8152602060048201526024808201527f43616e6e6f74206368616e6765206f776e657220726f6c652076696120736574604482015263526f6c6560e01b60648201526084016109a6565b60068160068111156119b1576119b16143ba565b03611a0c5760405162461bcd60e51b815260206004820152602560248201527f557365207472616e736665724f776e65727368697020746f2061737369676e2060448201526420b236b4b760d91b60648201526084016109a6565b6001600160a01b03821660009081526005602052604090205460ff166001816006811115611a3c57611a3c6143ba565b03611a5e57611a596000805160206149bb83398151915284613bad565b611b22565b6002816006811115611a7257611a726143ba565b03611a8f57611a596000805160206149db83398151915284613bad565b6003816006811115611aa357611aa36143ba565b03611ac057611a5960008051602061495b83398151915284613bad565b6004816006811115611ad457611ad46143ba565b03611af157611a5960008051602061497b83398151915284613bad565b6005816006811115611b0557611b056143ba565b03611b2257611b2260008051602061499b83398151915284613bad565b6001600160a01b0383166000908152600560205260409020805483919060ff19166001836006811115611b5757611b576143ba565b02179055506001826006811115611b7057611b706143ba565b03611b9257611b8d6000805160206149bb833981519152846137df565b611c56565b6002826006811115611ba657611ba66143ba565b03611bc357611b8d6000805160206149db833981519152846137df565b6003826006811115611bd757611bd76143ba565b03611bf457611b8d60008051602061495b833981519152846137df565b6004826006811115611c0857611c086143ba565b03611c2557611b8d60008051602061497b833981519152846137df565b6005826006811115611c3957611c396143ba565b03611c5657611c5660008051602061499b833981519152846137df565b826001600160a01b03167fc3f8f61911a1537261f77e2703626e158e299a98e341024ecaa26bbd1d884c6483604051611c8f91906143d0565b60405180910390a250610cd260018055565b600081815260036020526040812060050154819081908490600160a01b900460ff16611cdf5760405162461bcd60e51b81526004016109a6906145d4565b50505060009182525060036020526040902060068101546007820154600890920154909260ff90911690565b6000805160206149bb833981519152611d248133613788565b611d2c6136e9565b611d3461372f565b611daa8a8a8080601f01602080910402602001604051908101604052809392919081815260200183838082843760009201919091525050604080518082018252601781527f496e76616c6964204950465320434944206c656e6774680000000000000000006020820152602e93509091506138f8565b611e1e87878080601f016020809104026020016040519081016040528093929190818152602001838380828437600092019190915250506040805180820190915260198152781058dd1bdc881b985b59481b195b99dd1a081a5b9d985b1a59603a1b602082015260029250603291506138f8565b611e9085858080601f01602080910402602001604051908101604052809392919081815260200183838082843760009201919091525050604080518082019091526017815276131bd8d85d1a5bdb881b195b99dd1a081a5b9d985b1a59604a1b602082015260029250606491506138f8565b611ef983838080601f016020809104026020016040519081016040528093929190818152602001838380828437600092018290525060408051808201909152600e81526d4e6f74657320746f6f206c6f6e6760901b60208201529093506101f4925090506138f8565b60008c815260036020526040902060050154600160a01b900460ff1615611f595760405162461bcd60e51b8152602060048201526014602482015273426174636820616c72656164792065786973747360601b60448201526064016109a6565b8b611f995760405162461bcd60e51b815260206004820152601060248201526f125b9d985b1a590818985d18da08125160821b60448201526064016109a6565b8a611fda5760405162461bcd60e51b8152602060048201526011602482015270496e76616c69642063726f70207479706560781b60448201526064016109a6565b600088116120215760405162461bcd60e51b815260206004820152601460248201527305175616e74697479206d757374206265203e20360641b60448201526064016109a6565b6040518061016001604052808d81526020018c81526020018b8b8080601f016020809104026020016040519081016040528093929190818152602001838380828437600081840152601f19601f820116905080830192505050505050508152602001898152602001428152602001336001600160a01b03168152602001600115158152602001600015158152602001600081526020016000815260200160001515815250600360008e81526020019081526020016000206000820151816000015560208201518160010155604082015181600201908161210191906146e1565b5060608201516003820155608082015160048083019190915560a083015160058301805460c08087015160e08801511515600160a81b0260ff60a81b19911515600160a01b026001600160a81b03199094166001600160a01b0390961695909517929092179190911692909217905561010084015160068401556101208401516007840155610140909301516008909201805492151560ff199093169290921790915560008e81526020919091526040808220815193840190915291908190815260200189898080601f016020809104026020016040519081016040528093929190818152602001838380828437600092019190915250505090825250604080516020601f8a01819004810282018101909252888152918101919089908990819084018382808284376000920191909152505050908252504260208083019190915260408051601f880183900483028101830182528781529201919087908790819084018382808284376000920182905250938552505033602093840152508354600181810186559482529190208251600690920201805492939092839160ff19909116908360038111156122b8576122b86143ba565b0217905550602082015160018201906122d190826146e1565b50604082015160028201906122e690826146e1565b50606082015160038201556080820151600482019061230590826146e1565b5060a09190910151600590910180546001600160a01b0319166001600160a01b03909216919091179055600a80546001810182556000919091527fc65a7bb8d6351c1cf70c95a316cc6a92839c986682d98bc35f958f4883f9d2a8018c905560405133908d907f1e548d6c3fb449f78f5b7457156dcfb300cbb65d12a4038b334b6bfbdba957389061239c908e908e908e9061485d565b60405180910390a36123ad60018055565b505050505050505050505050565b60006123c78133613788565b6123cf61372f565b6115c7613865565b6123df6136e9565b6123e761372f565b33600090815260096020526040902054806124325760405162461bcd60e51b815260206004820152600b60248201526a4e6f2070726f636565647360a81b60448201526064016109a6565b336000818152600960205260408082208290555190919083908381818185875af1925050503d8060008114612483576040519150601f19603f3d011682016040523d82523d6000602084013e612488565b606091505b50509050806124cb5760405162461bcd60e51b815260206004820152600f60248201526e15da5d1a191c985dc819985a5b1959608a1b60448201526064016109a6565b60405182815233907f0f2fb75cc1977a496e94837f859e957f68e26e70dc1b75d9945ee92ae57969ba9060200160405180910390a2505061250b60018055565b565b6003602052600090815260409020805460018201546002830180549293919261253590614667565b80601f016020809104026020016040519081016040528092919081815260200182805461256190614667565b80156125ae5780601f10612583576101008083540402835291602001916125ae565b820191906000526020600020905b81548152906001019060200180831161259157829003601f168201915b5050505060038301546004840154600585015460068601546007870154600890970154959693959294506001600160a01b0382169360ff600160a01b8404811694600160a81b909404811693168b565b60008281526002602090815260408083206001600160a01b038516845290915290205460ff165b92915050565b60008051602061499b8339815191526126448133613788565b61264c6136e9565b61265461372f565b6000848152600360205260409020600501548490600160a01b900460ff1661268e5760405162461bcd60e51b81526004016109a6906145d4565b600085815260036020526040902060050154600160a81b900460ff16156126c75760405162461bcd60e51b81526004016109a690614626565b6000858152600360205260408120600681018690556007018490556103208513806126f3575061014085125b600087815260036020908152604091829020600801805484151560ff199091168117909155825189815291820188905281830152905191925087917f702766b5e39eadaee8b50c4e00b11e96873bea3fa06d178102d5b1cf676301f89181900360600190a2505061276360018055565b50505050565b600a5460009082106127ad5760405162461bcd60e51b815260206004820152600d60248201526c4f7574206f6620626f756e647360981b60448201526064016109a6565b600a82815481106127c0576127c0614881565b90600052602060002001549050919050565b6127da6136e9565b6127e261372f565b6000818152600360205260409020600501548190600160a01b900460ff1661281c5760405162461bcd60e51b81526004016109a6906145d4565b61283460008051602061495b833981519152336125fe565b8061285257506128526000805160206149db833981519152336125fe565b6128d25760405162461bcd60e51b8152602060048201526044602482018190527f556e617574686f72697a65643a204f6e6c79205472616e73706f72746572206f908201527f72204d616e64692063616e207265717565737420496f542076657269666963616064820152633a34b7b760e11b608482015260a4016109a6565b600082815260036020526040902060050154600160a81b900460ff161561290b5760405162461bcd60e51b81526004016109a690614626565b60405133815282907f72856cf8d246c24dd029032eec2b64c82e06284341aee0b2bc0580ad44a722519060200160405180910390a250610a4f60018055565b6000828152600760205260408120805480830361296c57600092505050612625565b836000036129ab5781612980600183614837565b8154811061299057612990614881565b90600052602060002090600202016001015492505050612625565b60008442116129bb5760006129c5565b6129c58542614837565b905042600080845b8015612a6d5760018103905060008782815481106129ed576129ed614881565b90600052602060002090600202019050600086826000015411612a105786612a13565b81545b905080861115612a55576000612a298288614837565b9050808360010154612a3b9190614820565b612a45908761484a565b9550612a51818661484a565b9450505b81548710612a64575050612a6d565b505493506129cd565b5080600003612ab15785612a82600187614837565b81548110612a9257612a92614881565b9060005260206000209060020201600101549650505050505050612625565b612abb8183614897565b9998505050505050505050565b6000818152600360205260409020600501546060908290600160a01b900460ff16612b055760405162461bcd60e51b81526004016109a6906145d4565b600083815260046020908152604080832080548251818502810185019093528083529193909284015b82821015612d63576000848152602090206040805160c08101909152600684029091018054829060ff166003811115612b6957612b696143ba565b6003811115612b7a57612b7a6143ba565b8152602001600182018054612b8e90614667565b80601f0160208091040260200160405190810160405280929190818152602001828054612bba90614667565b8015612c075780601f10612bdc57610100808354040283529160200191612c07565b820191906000526020600020905b815481529060010190602001808311612bea57829003601f168201915b50505050508152602001600282018054612c2090614667565b80601f0160208091040260200160405190810160405280929190818152602001828054612c4c90614667565b8015612c995780601f10612c6e57610100808354040283529160200191612c99565b820191906000526020600020905b815481529060010190602001808311612c7c57829003601f168201915b5050505050815260200160038201548152602001600482018054612cbc90614667565b80601f0160208091040260200160405190810160405280929190818152602001828054612ce890614667565b8015612d355780601f10612d0a57610100808354040283529160200191612d35565b820191906000526020600020905b815481529060010190602001808311612d1857829003601f168201915b5050509183525050600591909101546001600160a01b03166020918201529082526001929092019101612b2e565b5050505091505b50919050565b612db36040805160c0810190915280600081526020016060815260200160608152602001600081526020016060815260200160006001600160a01b031681525090565b6000828152600360205260409020600501548290600160a01b900460ff16612ded5760405162461bcd60e51b81526004016109a6906145d4565b60008381526004602052604090205480612e365760405162461bcd60e51b815260206004820152600a6024820152694e6f207570646174657360b01b60448201526064016109a6565b6000848152600460205260409020612e4f600183614837565b81548110612e5f57612e5f614881565b600091825260209091206040805160c081019091526006909202018054829060ff166003811115612e9257612e926143ba565b6003811115612ea357612ea36143ba565b8152602001600182018054612eb790614667565b80601f0160208091040260200160405190810160405280929190818152602001828054612ee390614667565b8015612f305780601f10612f0557610100808354040283529160200191612f30565b820191906000526020600020905b815481529060010190602001808311612f1357829003601f168201915b50505050508152602001600282018054612f4990614667565b80601f0160208091040260200160405190810160405280929190818152602001828054612f7590614667565b8015612fc25780601f10612f9757610100808354040283529160200191612fc2565b820191906000526020600020905b815481529060010190602001808311612fa557829003601f168201915b5050505050815260200160038201548152602001600482018054612fe590614667565b80601f016020809104026020016040519081016040528092919081815260200182805461301190614667565b801561305e5780601f106130335761010080835404028352916020019161305e565b820191906000526020600020905b81548152906001019060200180831161304157829003601f168201915b5050509183525050600591909101546001600160a01b0316602090910152949350505050565b6000803360009081526005602052604090205460ff1660068111156130ab576130ab6143ba565b036130e95760405162461bcd60e51b815260206004820152600e60248201526d139bdd08185d5d1a1bdc9a5e995960921b60448201526064016109a6565b6130f16136e9565b6130f961372f565b6000848152600360205260409020600501548490600160a01b900460ff166131335760405162461bcd60e51b81526004016109a6906145d4565b60008581526003602052604090206005810154600160a81b900460ff161561316d5760405162461bcd60e51b81526004016109a690614626565b600085118015613181575080600301548511155b6131c05760405162461bcd60e51b815260206004820152601060248201526f496e76616c6964207175616e7469747960801b60448201526064016109a6565b600084116131fa5760405162461bcd60e51b8152602060048201526007602482015266050726963653d360cc1b60448201526064016109a6565b336000818152600560208190526040909120549083015460ff909116916001600160a01b03909116148061323f5750600281600681111561323d5761323d6143ba565b145b8061325b57506006816006811115613259576132596143ba565b145b6132a75760405162461bcd60e51b815260206004820152601860248201527f4f6e6c792063726561746f722f6d616e64692f61646d696e000000000000000060448201526064016109a6565b600c546132b581600161484a565b600c55604080516101008101825282815260208082018b815233838501818152606085018d8152608086018e815260a087018e8152600160c089018181524260e08b0190815260008d81526006808c52908d90209b518c559851928b0192909255945160028a0180546001600160a01b0319166001600160a01b0390921691909117905592516003890155905160048801555160058701559051928501805460ff191693151593909317909255905160079093019290925582518a815290810189905290918a9184917f70a9073e3ca286ce6123fbda2a3a02d9ab166d67e00d7863763c09f138575220910160405180910390a493505050506133b760018055565b9392505050565b6000828152600260205260409020600101546133da8133613788565b610c958383613bad565b604080516101608101825260008082526020820181905260609282018390529181018290526080810182905260a0810182905260c0810182905260e08101829052610100810182905261012081018290526101408101919091526000828152600360205260409020600501548290600160a01b900460ff166134785760405162461bcd60e51b81526004016109a6906145d4565b600360008481526020019081526020016000206040518061016001604052908160008201548152602001600182015481526020016002820180546134bb90614667565b80601f01602080910402602001604051908101604052809291908181526020018280546134e790614667565b80156135345780601f1061350957610100808354040283529160200191613534565b820191906000526020600020905b81548152906001019060200180831161351757829003601f168201915b5050509183525050600382015460208201526004820154604082015260058201546001600160a01b038116606083015260ff600160a01b8204811615156080840152600160a81b9091048116151560a0830152600683015460c0830152600783015460e0830152600890920154909116151561010090910152915050919050565b60006135c18133613788565b6135c961372f565b6001600160a01b0382166135ef5760405162461bcd60e51b81526004016109a6906145fd565b600b546001600160a01b039081169083160361363d5760405162461bcd60e51b815260206004820152600d60248201526c20b63932b0b23c9037bbb732b960991b60448201526064016109a6565b600b80546001600160a01b031981166001600160a01b038581169182179093559116600081815260056020526040808220805460ff1990811690915593825281208054909316600617909255906136949082613bad565b61369f6000846137df565b826001600160a01b0316816001600160a01b03167f8be0079c531659141344cd1fd0a4f28419497f9722a3daafe3b4186f6b6457e060405160405180910390a350610cd260018055565b60005460ff161561250b5760405162461bcd60e51b815260206004820152601060248201526f14185d5cd8589b194e881c185d5cd95960821b60448201526064016109a6565b6002600154036137815760405162461bcd60e51b815260206004820152601f60248201527f5265656e7472616e637947756172643a207265656e7472616e742063616c6c0060448201526064016109a6565b6002600155565b61379282826125fe565b610cd25761379f81613c14565b6137a883613dff565b6040516020016137b99291906148b9565b60408051601f198184030181529082905262461bcd60e51b82526109a69160040161492e565b6137e982826125fe565b610cd25760008281526002602090815260408083206001600160a01b03851684529091529020805460ff191660011790556138213390565b6001600160a01b0316816001600160a01b0316837f2f8788117e7eff1d82e926ec794901d17c78024a50270940304540a733656f0d60405160405180910390a45050565b61386d6136e9565b6000805460ff191660011790557f62e78cea01bee320cd4e420270b5ea74000d11b0c9f74754ebdbfc544b05a2586138a23390565b6040516001600160a01b03909116815260200160405180910390a1565b6138c7613fcc565b6000805460ff191690557f5db9ee0a495bf2e6ff9c91a7834c1ba4fdd244a5e8aa4e537bd38aeae4b073aa336138a2565b835183811080159061390a5750828111155b82906139295760405162461bcd60e51b81526004016109a6919061492e565b505050505050565b60008281526004602052604081208054820361396457600083600381111561395b5761395b6143ba565b14915050612625565b8054600090829061397790600190614837565b8154811061398757613987614881565b600091825260209091206006909102015460ff1690508060038111156139af576139af6143ba565b6139ba90600161484a565b8460038111156139cc576139cc6143ba565b1495945050505050565b60008281526004602052604081206139ee82336125fe565b156139fd576001915050612625565b80546000908103613a1057506000613a47565b81548290613a2090600190614837565b81548110613a3057613a30614881565b600091825260209091206006909102015460ff1690505b6000816003811115613a5b57613a5b6143ba565b148015613a7957506001846003811115613a7757613a776143ba565b145b15613a9f57613a966000805160206149db833981519152336125fe565b92505050612625565b6001816003811115613ab357613ab36143ba565b148015613ad157506002846003811115613acf57613acf6143ba565b145b15613aee57613a9660008051602061495b833981519152336125fe565b6002816003811115613b0257613b026143ba565b148015613b2057506003846003811115613b1e57613b1e6143ba565b145b15613b3d57613a9660008051602061497b833981519152336125fe565b506000949350505050565b600080612710613b588482614837565b613b629086614820565b613b6c9190614897565b90506000612710613b7d858261484a565b613b879087614820565b613b919190614897565b9050818610158015613ba35750808611155b9695505050505050565b613bb782826125fe565b15610cd25760008281526002602090815260408083206001600160a01b0385168085529252808320805460ff1916905551339285917ff6391f5c32d9c69d2a47ea670b442974b53935d1edc7fd64eb21e047a839171b9190a45050565b604080518082018252601081526f181899199a1a9b1b9c1cb0b131b232b360811b60208201528151602a80825260608281019094526001600160a01b0385169291600091602082018180368337019050509050600360fc1b81600081518110613c7f57613c7f614881565b60200101906001600160f81b031916908160001a905350600f60fb1b81600181518110613cae57613cae614881565b60200101906001600160f81b031916908160001a90535060005b6014811015613df65782600485613ce084600c61484a565b60208110613cf057613cf0614881565b1a60f81b6001600160f81b031916901c60f81c60ff1681518110613d1657613d16614881565b01602001516001600160f81b03191682613d31836002614820565b613d3c90600261484a565b81518110613d4c57613d4c614881565b60200101906001600160f81b031916908160001a9053508284613d7083600c61484a565b60208110613d8057613d80614881565b825191901a600f16908110613d9757613d97614881565b01602001516001600160f81b03191682613db2836002614820565b613dbd90600361484a565b81518110613dcd57613dcd614881565b60200101906001600160f81b031916908160001a90535080613dee81614941565b915050613cc8565b50949350505050565b604080518082018252601081526f181899199a1a9b1b9c1cb0b131b232b360811b6020820152815160428082526080820190935260609260009190602082018180368337019050509050600360fc1b81600081518110613e6157613e61614881565b60200101906001600160f81b031916908160001a905350600f60fb1b81600181518110613e9057613e90614881565b60200101906001600160f81b031916908160001a90535060005b6020811015613fc457826004868360208110613ec857613ec8614881565b1a60f81b6001600160f81b031916901c60f81c60ff1681518110613eee57613eee614881565b01602001516001600160f81b03191682613f09836002614820565b613f1490600261484a565b81518110613f2457613f24614881565b60200101906001600160f81b031916908160001a90535082858260208110613f4e57613f4e614881565b825191901a600f16908110613f6557613f65614881565b01602001516001600160f81b03191682613f80836002614820565b613f8b90600361484a565b81518110613f9b57613f9b614881565b60200101906001600160f81b031916908160001a90535080613fbc81614941565b915050613eaa565b509392505050565b60005460ff1661250b5760405162461bcd60e51b815260206004820152601460248201527314185d5cd8589b194e881b9bdd081c185d5cd95960621b60448201526064016109a6565b60006020828403121561402757600080fd5b5035919050565b80356001600160a01b038116811461404557600080fd5b919050565b6000806040838503121561405d57600080fd5b8235915061406d6020840161402e565b90509250929050565b60006020828403121561408857600080fd5b813580151581146133b757600080fd5b600080604083850312156140ab57600080fd5b50508035926020909101359150565b60008083601f8401126140cc57600080fd5b50813567ffffffffffffffff8111156140e457600080fd5b6020830191508360208285010111156140fc57600080fd5b9250929050565b60008060008060008060008060a0898b03121561411f57600080fd5b8835975060208901356004811061413557600080fd5b9650604089013567ffffffffffffffff8082111561415257600080fd5b61415e8c838d016140ba565b909850965060608b013591508082111561417757600080fd5b6141838c838d016140ba565b909650945060808b013591508082111561419c57600080fd5b506141a98b828c016140ba565b999c989b5096995094979396929594505050565b600080604083850312156141d057600080fd5b6141d98361402e565b91506020830135600781106141ed57600080fd5b809150509250929050565b600080600080600080600080600080600060e08c8e03121561421957600080fd5b8b359a5060208c0135995067ffffffffffffffff8060408e0135111561423e57600080fd5b61424e8e60408f01358f016140ba565b909a50985060608d0135975060808d013581101561426b57600080fd5b61427b8e60808f01358f016140ba565b909750955060a08d013581101561429157600080fd5b6142a18e60a08f01358f016140ba565b909550935060c08d01358110156142b757600080fd5b506142c88d60c08e01358e016140ba565b81935080925050509295989b509295989b9093969950565b60005b838110156142fb5781810151838201526020016142e3565b50506000910152565b6000815180845261431c8160208601602086016142e0565b601f01601f19169290920160200192915050565b60006101608d83528c60208401528060408401526143508184018d614304565b606084019b909b52505060808101979097526001600160a01b039590951660a087015292151560c086015290151560e08501526101008401526101208301521515610140909101529392505050565b6000602082840312156143b157600080fd5b6133b78261402e565b634e487b7160e01b600052602160045260246000fd5b60208101600783106143e4576143e46143ba565b91905290565b6000806000606084860312156143ff57600080fd5b505081359360208301359350604090920135919050565b60048110614426576144266143ba565b9052565b614435828251614416565b6000602082015160c0602085015261445060c0850182614304565b9050604083015184820360408601526144698282614304565b915050606083015160608501526080830151848203608086015261448d8282614304565b60a0948501516001600160a01b03169590940194909452509092915050565b6000602080830181845280855180835260408601915060408160051b870101925083870160005b8281101561450157603f198886030184526144ef85835161442a565b945092850192908501906001016144d3565b5092979650505050505050565b6020815260006133b7602083018461442a565b60208152815160208201526020820151604082015260006040830151610160806060850152614554610180850183614304565b915060608501516080850152608085015160a085015260a085015161458460c08601826001600160a01b03169052565b5060c085015180151560e08601525060e08501516101006145a88187018315159052565b860151610120868101919091528601516101408087019190915290950151151593019290925250919050565b6020808252600f908201526e10985d18da081b9bdd08199bdd5b99608a1b604082015260600190565b6020808252600f908201526e496e76616c6964206164647265737360881b604082015260600190565b60208082526011908201527010985d18da081a5cc81c9958d85b1b1959607a1b604082015260600190565b634e487b7160e01b600052604160045260246000fd5b600181811c9082168061467b57607f821691505b602082108103612d6a57634e487b7160e01b600052602260045260246000fd5b601f821115610c9557600081815260208120601f850160051c810160208610156146c25750805b601f850160051c820191505b81811015613929578281556001016146ce565b815167ffffffffffffffff8111156146fb576146fb614651565b61470f816147098454614667565b8461469b565b602080601f831160018114614744576000841561472c5750858301515b600019600386901b1c1916600185901b178555613929565b600085815260208120601f198616915b8281101561477357888601518255948401946001909101908401614754565b50858210156147915787850151600019600388901b60f8161c191681555b5050505050600190811b01905550565b81835281816020850137506000828201602090810191909152601f909101601f19169091010190565b6147d48187614416565b6060602082015260006147eb6060830186886147a1565b82810360408401526147fe8185876147a1565b98975050505050505050565b634e487b7160e01b600052601160045260246000fd5b80820281158282048414176126255761262561480a565b818103818111156126255761262561480a565b808201808211156126255761262561480a565b6040815260006148716040830185876147a1565b9050826020830152949350505050565b634e487b7160e01b600052603260045260246000fd5b6000826148b457634e487b7160e01b600052601260045260246000fd5b500490565b7f416363657373436f6e74726f6c3a206163636f756e74200000000000000000008152600083516148f18160178501602088016142e0565b7001034b99036b4b9b9b4b733903937b6329607d1b60179184019182015283516149228160288401602088016142e0565b01602801949350505050565b6020815260006133b76020830184614304565b6000600182016149535761495361480a565b506001019056feddaa901e2fe3bda354fe0ede2785152d5c109282a613fe024a056a3e66c41bb32a5f906c256a5d799494fcd066e1f6c077689de1cdb65052a1624de4bace99bf68e79a7bf1e0bc45d0a330c573bc367f9cf464fd326078812f301165fbda4ef17c6181838a71a779e445600d4c6ecbe16bacf2b3c5bda69c29fada66d1b645d1732375a6754a68b79d13a007379de6033ecdee94a015054c66fbfc47ada65585a2646970667358221220ce7f5c3e1b9e2caf8391a378c34ef6d7a812cf8248bf0558a60735ba6b6da7a864736f6c63430008130033",
  "linkReferences": {},
  "deployedLinkReferences": {}
}