{
  "_format": "hh-sol-artifact-1",
  "contractName": "CropChain",
  "sourceName": "contracts/CropChain.sol",
  "abi": [
    {
      "inputs": [],
      "stateMutability": "nonpayable",
      "type": "constructor"
    },
    {
      "anonymous": false,
      "inputs": [
        {
          "indexed": true,
          "internalType": "string",
          "name": "batchId",
          "type": "string"
        },
        {
          "indexed": false,
          "internalType": "string",
          "name": "ipfsCID",
          "type": "string"
        },
        {
          "indexed": false,
          "internalType": "uint256",
          "name": "quantity",
          "type": "uint256"
        },
        {
          "indexed": true,
          "internalType": "address",
          "name": "creator",
          "type": "address"
        }
      ],
      "name": "BatchCreated",
      "type": "event"
    },
    {
      "anonymous": false,
      "inputs": [
        {
          "indexed": true,
          "internalType": "string",
          "name": "batchId",
          "type": "string"
        },
        {
          "indexed": true,
          "internalType": "address",
          "name": "triggeredBy",
          "type": "address"
        }
      ],
      "name": "BatchRecalled",
      "type": "event"
    },
    {
      "anonymous": false,
      "inputs": [
        {
          "indexed": true,
          "internalType": "string",
          "name": "batchId",
          "type": "string"
        },
        {
          "indexed": false,
          "internalType": "enum CropChain.Stage",
          "name": "stage",
          "type": "uint8"
        },
        {
          "indexed": false,
          "internalType": "string",
          "name": "actorName",
          "type": "string"
        },
        {
          "indexed": false,
          "internalType": "string",
          "name": "location",
          "type": "string"
        },
        {
          "indexed": true,
          "internalType": "address",
          "name": "updatedBy",
          "type": "address"
        }
      ],
      "name": "BatchUpdated",
      "type": "event"
    },
    {
      "anonymous": false,
      "inputs": [
        {
          "indexed": true,
          "internalType": "address",
          "name": "previousOwner",
          "type": "address"
        },
        {
          "indexed": true,
          "internalType": "address",
          "name": "newOwner",
          "type": "address"
        }
      ],
      "name": "OwnershipTransferred",
      "type": "event"
    },
    {
      "anonymous": false,
      "inputs": [
        {
          "indexed": true,
          "internalType": "address",
          "name": "account",
          "type": "address"
        },
        {
          "indexed": false,
          "internalType": "bool",
          "name": "isPaused",
          "type": "bool"
        }
      ],
      "name": "Paused",
      "type": "event"
    },
    {
      "anonymous": false,
      "inputs": [
        {
          "indexed": true,
          "internalType": "address",
          "name": "user",
          "type": "address"
        },
        {
          "indexed": false,
          "internalType": "enum CropChain.ActorRole",
          "name": "role",
          "type": "uint8"
        }
      ],
      "name": "RoleUpdated",
      "type": "event"
    },
    {
      "inputs": [
        {
          "internalType": "uint256",
          "name": "",
          "type": "uint256"
        }
      ],
      "name": "allBatchIds",
      "outputs": [
        {
          "internalType": "string",
          "name": "",
          "type": "string"
        }
      ],
      "stateMutability": "view",
      "type": "function"
    },
    {
      "inputs": [
        {
          "internalType": "string",
          "name": "",
          "type": "string"
        },
        {
          "internalType": "uint256",
          "name": "",
          "type": "uint256"
        }
      ],
      "name": "batchUpdates",
      "outputs": [
        {
          "internalType": "enum CropChain.Stage",
          "name": "stage",
          "type": "uint8"
        },
        {
          "internalType": "string",
          "name": "actorName",
          "type": "string"
        },
        {
          "internalType": "string",
          "name": "location",
          "type": "string"
        },
        {
          "internalType": "uint256",
          "name": "timestamp",
          "type": "uint256"
        },
        {
          "internalType": "string",
          "name": "notes",
          "type": "string"
        },
        {
          "internalType": "address",
          "name": "updatedBy",
          "type": "address"
        }
      ],
      "stateMutability": "view",
      "type": "function"
    },
    {
      "inputs": [
        {
          "internalType": "string",
          "name": "_batchId",
          "type": "string"
        },
        {
          "internalType": "string",
          "name": "_ipfsCID",
          "type": "string"
        },
        {
          "internalType": "string",
          "name": "_farmerName",
          "type": "string"
        },
        {
          "internalType": "string",
          "name": "_cropType",
          "type": "string"
        },
        {
          "internalType": "string",
          "name": "_origin",
          "type": "string"
        },
        {
          "internalType": "uint256",
          "name": "_quantity",
          "type": "uint256"
        }
      ],
      "name": "createBatch",
      "outputs": [],
      "stateMutability": "nonpayable",
      "type": "function"
    },
    {
      "inputs": [
        {
          "internalType": "string",
          "name": "",
          "type": "string"
        }
      ],
      "name": "cropBatches",
      "outputs": [
        {
          "internalType": "string",
          "name": "batchId",
          "type": "string"
        },
        {
          "internalType": "string",
          "name": "ipfsCID",
          "type": "string"
        },
        {
          "internalType": "string",
          "name": "farmerName",
          "type": "string"
        },
        {
          "internalType": "string",
          "name": "cropType",
          "type": "string"
        },
        {
          "internalType": "string",
          "name": "origin",
          "type": "string"
        },
        {
          "internalType": "uint256",
          "name": "quantity",
          "type": "uint256"
        },
        {
          "internalType": "uint256",
          "name": "createdAt",
          "type": "uint256"
        },
        {
          "internalType": "address",
          "name": "creator",
          "type": "address"
        },
        {
          "internalType": "bool",
          "name": "exists",
          "type": "bool"
        },
        {
          "internalType": "bool",
          "name": "isRecalled",
          "type": "bool"
        }
      ],
      "stateMutability": "view",
      "type": "function"
    },
    {
      "inputs": [
        {
          "internalType": "string",
          "name": "_batchId",
          "type": "string"
        }
      ],
      "name": "getBatch",
      "outputs": [
        {
          "components": [
            {
              "internalType": "string",
              "name": "batchId",
              "type": "string"
            },
            {
              "internalType": "string",
              "name": "ipfsCID",
              "type": "string"
            },
            {
              "internalType": "string",
              "name": "farmerName",
              "type": "string"
            },
            {
              "internalType": "string",
              "name": "cropType",
              "type": "string"
            },
            {
              "internalType": "string",
              "name": "origin",
              "type": "string"
            },
            {
              "internalType": "uint256",
              "name": "quantity",
              "type": "uint256"
            },
            {
              "internalType": "uint256",
              "name": "createdAt",
              "type": "uint256"
            },
            {
              "internalType": "address",
              "name": "creator",
              "type": "address"
            },
            {
              "internalType": "bool",
              "name": "exists",
              "type": "bool"
            },
            {
              "internalType": "bool",
              "name": "isRecalled",
              "type": "bool"
            }
          ],
          "internalType": "struct CropChain.CropBatch",
          "name": "",
          "type": "tuple"
        }
      ],
      "stateMutability": "view",
      "type": "function"
    },
    {
      "inputs": [
        {
          "internalType": "uint256",
          "name": "_index",
          "type": "uint256"
        }
      ],
      "name": "getBatchIdByIndex",
      "outputs": [
        {
          "internalType": "string",
          "name": "",
          "type": "string"
        }
      ],
      "stateMutability": "view",
      "type": "function"
    },
    {
      "inputs": [
        {
          "internalType": "string",
          "name": "_batchId",
          "type": "string"
        }
      ],
      "name": "getBatchUpdates",
      "outputs": [
        {
          "components": [
            {
              "internalType": "enum CropChain.Stage",
              "name": "stage",
              "type": "uint8"
            },
            {
              "internalType": "string",
              "name": "actorName",
              "type": "string"
            },
            {
              "internalType": "string",
              "name": "location",
              "type": "string"
            },
            {
              "internalType": "uint256",
              "name": "timestamp",
              "type": "uint256"
            },
            {
              "internalType": "string",
              "name": "notes",
              "type": "string"
            },
            {
              "internalType": "address",
              "name": "updatedBy",
              "type": "address"
            }
          ],
          "internalType": "struct CropChain.SupplyChainUpdate[]",
          "name": "",
          "type": "tuple[]"
        }
      ],
      "stateMutability": "view",
      "type": "function"
    },
    {
      "inputs": [
        {
          "internalType": "string",
          "name": "_batchId",
          "type": "string"
        }
      ],
      "name": "getLatestUpdate",
      "outputs": [
        {
          "components": [
            {
              "internalType": "enum CropChain.Stage",
              "name": "stage",
              "type": "uint8"
            },
            {
              "internalType": "string",
              "name": "actorName",
              "type": "string"
            },
            {
              "internalType": "string",
              "name": "location",
              "type": "string"
            },
            {
              "internalType": "uint256",
              "name": "timestamp",
              "type": "uint256"
            },
            {
              "internalType": "string",
              "name": "notes",
              "type": "string"
            },
            {
              "internalType": "address",
              "name": "updatedBy",
              "type": "address"
            }
          ],
          "internalType": "struct CropChain.SupplyChainUpdate",
          "name": "",
          "type": "tuple"
        }
      ],
      "stateMutability": "view",
      "type": "function"
    },
    {
      "inputs": [],
      "name": "getTotalBatches",
      "outputs": [
        {
          "internalType": "uint256",
          "name": "",
          "type": "uint256"
        }
      ],
      "stateMutability": "view",
      "type": "function"
    },
    {
      "inputs": [],
      "name": "owner",
      "outputs": [
        {
          "internalType": "address",
          "name": "",
          "type": "address"
        }
      ],
      "stateMutability": "view",
      "type": "function"
    },
    {
      "inputs": [],
      "name": "paused",
      "outputs": [
        {
          "internalType": "bool",
          "name": "",
          "type": "bool"
        }
      ],
      "stateMutability": "view",
      "type": "function"
    },
    {
      "inputs": [
        {
          "internalType": "string",
          "name": "_batchId",
          "type": "string"
        }
      ],
      "name": "recallBatch",
      "outputs": [],
      "stateMutability": "nonpayable",
      "type": "function"
    },
    {
      "inputs": [
        {
          "internalType": "address",
          "name": "",
          "type": "address"
        }
      ],
      "name": "roles",
      "outputs": [
        {
          "internalType": "enum CropChain.ActorRole",
          "name": "",
          "type": "uint8"
        }
      ],
      "stateMutability": "view",
      "type": "function"
    },
    {
      "inputs": [
        {
          "internalType": "bool",
          "name": "_paused",
          "type": "bool"
        }
      ],
      "name": "setPaused",
      "outputs": [],
      "stateMutability": "nonpayable",
      "type": "function"
    },
    {
      "inputs": [
        {
          "internalType": "address",
          "name": "_user",
          "type": "address"
        },
        {
          "internalType": "enum CropChain.ActorRole",
          "name": "_role",
          "type": "uint8"
        }
      ],
      "name": "setRole",
      "outputs": [],
      "stateMutability": "nonpayable",
      "type": "function"
    },
    {
      "inputs": [
        {
          "internalType": "address",
          "name": "_newOwner",
          "type": "address"
        }
      ],
      "name": "transferOwnership",
      "outputs": [],
      "stateMutability": "nonpayable",
      "type": "function"
    },
    {
      "inputs": [
        {
          "internalType": "string",
          "name": "_batchId",
          "type": "string"
        },
        {
          "internalType": "enum CropChain.Stage",
          "name": "_stage",
          "type": "uint8"
        },
        {
          "internalType": "string",
          "name": "_actorName",
          "type": "string"
        },
        {
          "internalType": "string",
          "name": "_location",
          "type": "string"
        },
        {
          "internalType": "string",
          "name": "_notes",
          "type": "string"
        }
      ],
      "name": "updateBatch",
      "outputs": [],
      "stateMutability": "nonpayable",
      "type": "function"
    }
  ],
  "bytecode": "0x60806040526004805460ff60a01b1916905534801561001d57600080fd5b5060048054336001600160a01b031990911681179091556000908152600260205260409020805460ff19166005179055612c9b8061005c6000396000f3fe608060405234801561001057600080fd5b506004361061010b5760003560e01c806388675465116100a2578063c9c9f36e11610071578063c9c9f36e14610294578063cc023aa6146102a7578063e561dddc146102ba578063f2fde38b146102cb578063f9ca4274146102de57600080fd5b806388675465146101fd5780638da5cb5b146102265780639937464214610251578063a0b6041d1461028157600080fd5b806352969187116100de578063529691871461018e578063571c3e60146101a15780635c975abb146101b45780637301e5a8146101d857600080fd5b806316c38b3c14610110578063290b17ec14610125578063372eeca61461014e5780633d8383b51461016e575b600080fd5b61012361011e3660046122fa565b6102fe565b005b610138610133366004612323565b61038b565b604051610145919061238c565b60405180910390f35b61016161015c366004612442565b610437565b604051610145919061252b565b61018161017c366004612442565b6107af565b604051610145919061253e565b61012361019c366004612442565b610a7b565b6101236101af3660046125bc565b610b70565b6004546101c890600160a01b900460ff1681565b6040519015158152602001610145565b6101eb6101e63660046125f7565b610c61565b6040516101459695949392919061263c565b61021061020b366004612442565b610e6b565b6040516101459a999897969594939291906126a4565b600454610239906001600160a01b031681565b6040516001600160a01b039091168152602001610145565b61027461025f366004612745565b60026020526000908152604090205460ff1681565b6040516101459190612760565b61013861028f366004612323565b61117f565b6101236102a236600461277a565b611270565b6101236102b5366004612854565b611814565b600354604051908152602001610145565b6101236102d9366004612745565b611bfd565b6102f16102ec366004612442565b611cdb565b604051610145919061291a565b6004546001600160a01b031633146103315760405162461bcd60e51b815260040161032890612a09565b60405180910390fd5b60048054821515600160a01b0260ff60a01b1990911617905560405133907fe8699cf681560fd07de85543bd994263f4557bdc5179dd702f256d15fd083e1d9061038090841515815260200190565b60405180910390a250565b6003818154811061039b57600080fd5b9060005260206000200160009150905080546103b690612a2d565b80601f01602080910402602001604051908101604052809291908181526020018280546103e290612a2d565b801561042f5780601f106104045761010080835404028352916020019161042f565b820191906000526020600020905b81548152906001019060200180831161041257829003601f168201915b505050505081565b61047a6040805160c0810190915280600081526020016060815260200160608152602001600081526020016060815260200160006001600160a01b031681525090565b8160008160405161048b9190612a61565b9081526040519081900360200190206007015460ff600160a01b909104166104c55760405162461bcd60e51b815260040161032890612a7d565b60006001846040516104d79190612a61565b9081526020016040518091039020805480602002602001604051908101604052809291908181526020016000905b8282101561073a576000848152602090206040805160c08101909152600684029091018054829060ff1660038111156105405761054061247f565b60038111156105515761055161247f565b815260200160018201805461056590612a2d565b80601f016020809104026020016040519081016040528092919081815260200182805461059190612a2d565b80156105de5780601f106105b3576101008083540402835291602001916105de565b820191906000526020600020905b8154815290600101906020018083116105c157829003601f168201915b505050505081526020016002820180546105f790612a2d565b80601f016020809104026020016040519081016040528092919081815260200182805461062390612a2d565b80156106705780601f1061064557610100808354040283529160200191610670565b820191906000526020600020905b81548152906001019060200180831161065357829003601f168201915b505050505081526020016003820154815260200160048201805461069390612a2d565b80601f01602080910402602001604051908101604052809291908181526020018280546106bf90612a2d565b801561070c5780601f106106e15761010080835404028352916020019161070c565b820191906000526020600020905b8154815290600101906020018083116106ef57829003601f168201915b5050509183525050600591909101546001600160a01b03166020918201529082526001929092019101610505565b505050509050600081511161077e5760405162461bcd60e51b815260206004820152600a6024820152694e6f207570646174657360b01b6044820152606401610328565b806001825161078d9190612abc565b8151811061079d5761079d612acf565b60200260200101519250505b50919050565b6060816000816040516107c29190612a61565b9081526040519081900360200190206007015460ff600160a01b909104166107fc5760405162461bcd60e51b815260040161032890612a7d565b60018360405161080c9190612a61565b9081526020016040518091039020805480602002602001604051908101604052809291908181526020016000905b82821015610a6f576000848152602090206040805160c08101909152600684029091018054829060ff1660038111156108755761087561247f565b60038111156108865761088661247f565b815260200160018201805461089a90612a2d565b80601f01602080910402602001604051908101604052809291908181526020018280546108c690612a2d565b80156109135780601f106108e857610100808354040283529160200191610913565b820191906000526020600020905b8154815290600101906020018083116108f657829003601f168201915b5050505050815260200160028201805461092c90612a2d565b80601f016020809104026020016040519081016040528092919081815260200182805461095890612a2d565b80156109a55780601f1061097a576101008083540402835291602001916109a5565b820191906000526020600020905b81548152906001019060200180831161098857829003601f168201915b50505050508152602001600382015481526020016004820180546109c890612a2d565b80601f01602080910402602001604051908101604052809291908181526020018280546109f490612a2d565b8015610a415780601f10610a1657610100808354040283529160200191610a41565b820191906000526020600020905b815481529060010190602001808311610a2457829003601f168201915b5050509183525050600591909101546001600160a01b0316602091820152908252600192909201910161083a565b50505050915050919050565b6004546001600160a01b03163314610aa55760405162461bcd60e51b815260040161032890612a09565b80600081604051610ab69190612a61565b9081526040519081900360200190206007015460ff600160a01b90910416610af05760405162461bcd60e51b815260040161032890612a7d565b6001600083604051610b029190612a61565b9081526040519081900360200181206007018054921515600160a81b0260ff60a81b19909316929092179091553390610b3c908490612a61565b604051908190038120907f423ae59b8825a6f0d6872201b0102d5bc3ff543cca72ddf16d2e4d698fc9898b90600090a35050565b6004546001600160a01b03163314610b9a5760405162461bcd60e51b815260040161032890612a09565b6001600160a01b038216610be25760405162461bcd60e51b815260206004820152600f60248201526e496e76616c6964206164647265737360881b6044820152606401610328565b6001600160a01b0382166000908152600260205260409020805482919060ff19166001836005811115610c1757610c1761247f565b0217905550816001600160a01b03167fc3f8f61911a1537261f77e2703626e158e299a98e341024ecaa26bbd1d884c6482604051610c559190612760565b60405180910390a25050565b81516020818401810180516001825292820191850191909120919052805482908110610c8c57600080fd5b60009182526020909120600690910201805460018201805460ff9092169450919250610cb790612a2d565b80601f0160208091040260200160405190810160405280929190818152602001828054610ce390612a2d565b8015610d305780601f10610d0557610100808354040283529160200191610d30565b820191906000526020600020905b815481529060010190602001808311610d1357829003601f168201915b505050505090806002018054610d4590612a2d565b80601f0160208091040260200160405190810160405280929190818152602001828054610d7190612a2d565b8015610dbe5780601f10610d9357610100808354040283529160200191610dbe565b820191906000526020600020905b815481529060010190602001808311610da157829003601f168201915b505050505090806003015490806004018054610dd990612a2d565b80601f0160208091040260200160405190810160405280929190818152602001828054610e0590612a2d565b8015610e525780601f10610e2757610100808354040283529160200191610e52565b820191906000526020600020905b815481529060010190602001808311610e3557829003601f168201915b505050600590930154919250506001600160a01b031686565b8051602081830181018051600082529282019190930120915280548190610e9190612a2d565b80601f0160208091040260200160405190810160405280929190818152602001828054610ebd90612a2d565b8015610f0a5780601f10610edf57610100808354040283529160200191610f0a565b820191906000526020600020905b815481529060010190602001808311610eed57829003601f168201915b505050505090806001018054610f1f90612a2d565b80601f0160208091040260200160405190810160405280929190818152602001828054610f4b90612a2d565b8015610f985780601f10610f6d57610100808354040283529160200191610f98565b820191906000526020600020905b815481529060010190602001808311610f7b57829003601f168201915b505050505090806002018054610fad90612a2d565b80601f0160208091040260200160405190810160405280929190818152602001828054610fd990612a2d565b80156110265780601f10610ffb57610100808354040283529160200191611026565b820191906000526020600020905b81548152906001019060200180831161100957829003601f168201915b50505050509080600301805461103b90612a2d565b80601f016020809104026020016040519081016040528092919081815260200182805461106790612a2d565b80156110b45780601f10611089576101008083540402835291602001916110b4565b820191906000526020600020905b81548152906001019060200180831161109757829003601f168201915b5050505050908060040180546110c990612a2d565b80601f01602080910402602001604051908101604052809291908181526020018280546110f590612a2d565b80156111425780601f1061111757610100808354040283529160200191611142565b820191906000526020600020905b81548152906001019060200180831161112557829003601f168201915b50505060058401546006850154600790950154939490939092506001600160a01b038116915060ff600160a01b8204811691600160a81b9004168a565b60035460609082106111c35760405162461bcd60e51b815260206004820152600d60248201526c4f7574206f6620626f756e647360981b6044820152606401610328565b600382815481106111d6576111d6612acf565b9060005260206000200180546111eb90612a2d565b80601f016020809104026020016040519081016040528092919081815260200182805461121790612a2d565b80156112645780601f1061123957610100808354040283529160200191611264565b820191906000526020600020905b81548152906001019060200180831161124757829003601f168201915b50505050509050919050565b3360009081526002602052604081205460ff1660058111156112945761129461247f565b036112d25760405162461bcd60e51b815260206004820152600e60248201526d139bdd08185d5d1a1bdc9a5e995960921b6044820152606401610328565b600454600160a01b900460ff161561131e5760405162461bcd60e51b815260206004820152600f60248201526e10dbdb9d1c9858dd081c185d5cd959608a1b6044820152606401610328565b60008660405161132e9190612a61565b9081526040519081900360200190206007015460ff600160a01b90910416156113905760405162461bcd60e51b8152602060048201526014602482015273426174636820616c72656164792065786973747360601b6044820152606401610328565b60008651116113e15760405162461bcd60e51b815260206004820152601860248201527f42617463682049442063616e6e6f7420626520656d70747900000000000000006044820152606401610328565b60008451116114325760405162461bcd60e51b815260206004820152601b60248201527f4661726d6572206e616d652063616e6e6f7420626520656d70747900000000006044820152606401610328565b600081116114825760405162461bcd60e51b815260206004820152601f60248201527f5175616e74697479206d7573742062652067726561746572207468616e2030006044820152606401610328565b60013360009081526002602052604090205460ff1660058111156114a8576114a861247f565b14806114d7575060053360009081526002602052604090205460ff1660058111156114d5576114d561247f565b145b6115235760405162461bcd60e51b815260206004820152601f60248201527f4f6e6c79206661726d6572732063616e206372656174652062617463686573006044820152606401610328565b604051806101400160405280878152602001868152602001858152602001848152602001838152602001828152602001428152602001336001600160a01b03168152602001600115158152602001600015158152506000876040516115889190612a61565b908152604051908190036020019020815181906115a59082612b34565b50602082015160018201906115ba9082612b34565b50604082015160028201906115cf9082612b34565b50606082015160038201906115e49082612b34565b50608082015160048201906115f99082612b34565b5060a0820151600582015560c0820151600682015560e082015160079091018054610100840151610120909401511515600160a81b0260ff60a81b19941515600160a01b026001600160a81b03199092166001600160a01b03909416939093171792909216179055604051600190611672908890612a61565b90815260408051918290036020908101832060c08401835260008085528285018990528484018790524260608601528351808501909452600f84526e125b9a5d1a585b081a185c9d995cdd608a1b8484015260808501939093523360a085015280546001808201835591845291909220835160069092020180549092839160ff1916908360038111156117075761170761247f565b0217905550602082015160018201906117209082612b34565b50604082015160028201906117359082612b34565b5060608201516003820155608082015160048201906117549082612b34565b5060a09190910151600590910180546001600160a01b0319166001600160a01b03909216919091179055600380546001810182556000919091527fc2575a0e9e593c00f959f8c92f12db2869c3395a3b0502d05e2516446f71f85b016117ba8782612b34565b5060405133906117cb908890612a61565b60405180910390207f36fddeca3b99d4655e76ff3eb699cbff3f16f4a5123824cdaa040880ab7e78ef8784604051611804929190612bf4565b60405180910390a3505050505050565b3360009081526002602052604081205460ff1660058111156118385761183861247f565b036118765760405162461bcd60e51b815260206004820152600e60248201526d139bdd08185d5d1a1bdc9a5e995960921b6044820152606401610328565b846000816040516118879190612a61565b9081526040519081900360200190206007015460ff600160a01b909104166118c15760405162461bcd60e51b815260040161032890612a7d565b6000866040516118d19190612a61565b9081526040519081900360200190206007015460ff600160a81b90910416156119305760405162461bcd60e51b815260206004820152601160248201527010985d18da081a5cc81c9958d85b1b1959607a1b6044820152606401610328565b60008451116119815760405162461bcd60e51b815260206004820152601a60248201527f4163746f72206e616d652063616e6e6f7420626520656d7074790000000000006044820152606401610328565b60008351116119d25760405162461bcd60e51b815260206004820152601860248201527f4c6f636174696f6e2063616e6e6f7420626520656d70747900000000000000006044820152606401610328565b336000908152600260205260409020546119f090869060ff166120e0565b611a475760405162461bcd60e51b815260206004820152602260248201527f526f6c65206e6f7420617574686f72697a656420666f72207468697320737461604482015261676560f01b6064820152608401610328565b611a518686612209565b611a9d5760405162461bcd60e51b815260206004820152601860248201527f496e76616c6964207374616765207472616e736974696f6e00000000000000006044820152606401610328565b600186604051611aad9190612a61565b90815260200160405180910390206040518060c00160405280876003811115611ad857611ad861247f565b8152602080820188905260408201879052426060830152608082018690523360a09092019190915282546001818101855560009485529190932082516006909402018054929390929091839160ff191690836003811115611b3b57611b3b61247f565b021790555060208201516001820190611b549082612b34565b5060408201516002820190611b699082612b34565b506060820151600382015560808201516004820190611b889082612b34565b5060a09190910151600590910180546001600160a01b0319166001600160a01b039092169190911790556040513390611bc2908890612a61565b60405180910390207f0bb321f4ea03679389ab54a11d18cb18c606a6ff2cef6b8ce6f77f35ecfaf69687878760405161180493929190612c16565b6004546001600160a01b03163314611c275760405162461bcd60e51b815260040161032890612a09565b6001600160a01b038116611c6f5760405162461bcd60e51b815260206004820152600f60248201526e496e76616c6964206164647265737360881b6044820152606401610328565b600480546001600160a01b031981166001600160a01b03848116918217909355600081815260026020526040808220805460ff19166005179055519390921692909183917f8be0079c531659141344cd1fd0a4f28419497f9722a3daafe3b4186f6b6457e09190a35050565b611d3e6040518061014001604052806060815260200160608152602001606081526020016060815260200160608152602001600081526020016000815260200160006001600160a01b031681526020016000151581526020016000151581525090565b81600081604051611d4f9190612a61565b9081526040519081900360200190206007015460ff600160a01b90910416611d895760405162461bcd60e51b815260040161032890612a7d565b600083604051611d999190612a61565b908152602001604051809103902060405180610140016040529081600082018054611dc390612a2d565b80601f0160208091040260200160405190810160405280929190818152602001828054611def90612a2d565b8015611e3c5780601f10611e1157610100808354040283529160200191611e3c565b820191906000526020600020905b815481529060010190602001808311611e1f57829003601f168201915b50505050508152602001600182018054611e5590612a2d565b80601f0160208091040260200160405190810160405280929190818152602001828054611e8190612a2d565b8015611ece5780601f10611ea357610100808354040283529160200191611ece565b820191906000526020600020905b815481529060010190602001808311611eb157829003601f168201915b50505050508152602001600282018054611ee790612a2d565b80601f0160208091040260200160405190810160405280929190818152602001828054611f1390612a2d565b8015611f605780601f10611f3557610100808354040283529160200191611f60565b820191906000526020600020905b815481529060010190602001808311611f4357829003601f168201915b50505050508152602001600382018054611f7990612a2d565b80601f0160208091040260200160405190810160405280929190818152602001828054611fa590612a2d565b8015611ff25780601f10611fc757610100808354040283529160200191611ff2565b820191906000526020600020905b815481529060010190602001808311611fd557829003601f168201915b5050505050815260200160048201805461200b90612a2d565b80601f016020809104026020016040519081016040528092919081815260200182805461203790612a2d565b80156120845780601f1061205957610100808354040283529160200191612084565b820191906000526020600020905b81548152906001019060200180831161206757829003601f168201915b505050918352505060058201546020820152600682015460408201526007909101546001600160a01b038116606083015260ff600160a01b8204811615156080840152600160a81b90910416151560a090910152915050919050565b600060058260058111156120f6576120f661247f565b0361210357506001612203565b60008360038111156121175761211761247f565b148015612135575060018260058111156121335761213361247f565b145b1561214257506001612203565b60018360038111156121565761215661247f565b148015612174575060028260058111156121725761217261247f565b145b1561218157506001612203565b60028360038111156121955761219561247f565b1480156121b3575060038260058111156121b1576121b161247f565b145b156121c057506001612203565b60038360038111156121d4576121d461247f565b1480156121f2575060048260058111156121f0576121f061247f565b145b156121ff57506001612203565b5060005b92915050565b60008060018460405161221c9190612a61565b908152604051908190036020019020805490915060000361225457600083600381111561224b5761224b61247f565b14915050612203565b8054600090829061226790600190612abc565b8154811061227757612277612acf565b600091825260209091206006909102015460ff16905083600381111561229f5761229f61247f565b8160038111156122b1576122b161247f565b036122c157600192505050612203565b8060038111156122d3576122d361247f565b6122de906001612c52565b8460038111156122f0576122f061247f565b1495945050505050565b60006020828403121561230c57600080fd5b8135801515811461231c57600080fd5b9392505050565b60006020828403121561233557600080fd5b5035919050565b60005b8381101561235757818101518382015260200161233f565b50506000910152565b6000815180845261237881602086016020860161233c565b601f01601f19169290920160200192915050565b60208152600061231c6020830184612360565b634e487b7160e01b600052604160045260246000fd5b600082601f8301126123c657600080fd5b813567ffffffffffffffff808211156123e1576123e161239f565b604051601f8301601f19908116603f011681019082821181831017156124095761240961239f565b8160405283815286602085880101111561242257600080fd5b836020870160208301376000602085830101528094505050505092915050565b60006020828403121561245457600080fd5b813567ffffffffffffffff81111561246b57600080fd5b612477848285016123b5565b949350505050565b634e487b7160e01b600052602160045260246000fd5b600481106124a5576124a561247f565b9052565b6124b4828251612495565b6000602082015160c060208501526124cf60c0850182612360565b9050604083015184820360408601526124e88282612360565b915050606083015160608501526080830151848203608086015261250c8282612360565b60a0948501516001600160a01b03169590940194909452509092915050565b60208152600061231c60208301846124a9565b6000602080830181845280855180835260408601915060408160051b870101925083870160005b8281101561259357603f198886030184526125818583516124a9565b94509285019290850190600101612565565b5092979650505050505050565b80356001600160a01b03811681146125b757600080fd5b919050565b600080604083850312156125cf57600080fd5b6125d8836125a0565b91506020830135600681106125ec57600080fd5b809150509250929050565b6000806040838503121561260a57600080fd5b823567ffffffffffffffff81111561262157600080fd5b61262d858286016123b5565b95602094909401359450505050565b6126468188612495565b60c06020820152600061265c60c0830188612360565b828103604084015261266e8188612360565b905085606084015282810360808401526126888186612360565b91505060018060a01b03831660a0830152979650505050505050565b60006101408083526126b88184018e612360565b905082810360208401526126cc818d612360565b905082810360408401526126e0818c612360565b905082810360608401526126f4818b612360565b90508281036080840152612708818a612360565b60a0840198909852505060c08101949094526001600160a01b039290921660e0840152151561010083015215156101209091015295945050505050565b60006020828403121561275757600080fd5b61231c826125a0565b60208101600683106127745761277461247f565b91905290565b60008060008060008060c0878903121561279357600080fd5b863567ffffffffffffffff808211156127ab57600080fd5b6127b78a838b016123b5565b975060208901359150808211156127cd57600080fd5b6127d98a838b016123b5565b965060408901359150808211156127ef57600080fd5b6127fb8a838b016123b5565b9550606089013591508082111561281157600080fd5b61281d8a838b016123b5565b9450608089013591508082111561283357600080fd5b5061284089828a016123b5565b92505060a087013590509295509295509295565b600080600080600060a0868803121561286c57600080fd5b853567ffffffffffffffff8082111561288457600080fd5b61289089838a016123b5565b965060208801359150600482106128a657600080fd5b909450604087013590808211156128bc57600080fd5b6128c889838a016123b5565b945060608801359150808211156128de57600080fd5b6128ea89838a016123b5565b9350608088013591508082111561290057600080fd5b5061290d888289016123b5565b9150509295509295909350565b6020815260008251610140806020850152612939610160850183612360565b91506020850151601f19808685030160408701526129578483612360565b935060408701519150808685030160608701526129748483612360565b935060608701519150808685030160808701526129918483612360565b935060808701519150808685030160a0870152506129af8382612360565b92505060a085015160c085015260c085015160e085015260e08501516101006129e2818701836001600160a01b03169052565b86015190506101206129f78682018315159052565b90950151151593019290925250919050565b6020808252600a908201526927b7363c9037bbb732b960b11b604082015260600190565b600181811c90821680612a4157607f821691505b6020821081036107a957634e487b7160e01b600052602260045260246000fd5b60008251612a7381846020870161233c565b9190910192915050565b6020808252600f908201526e10985d18da081b9bdd08199bdd5b99608a1b604082015260600190565b634e487b7160e01b600052601160045260246000fd5b8181038181111561220357612203612aa6565b634e487b7160e01b600052603260045260246000fd5b601f821115612b2f57600081815260208120601f850160051c81016020861015612b0c5750805b601f850160051c820191505b81811015612b2b57828155600101612b18565b5050505b505050565b815167ffffffffffffffff811115612b4e57612b4e61239f565b612b6281612b5c8454612a2d565b84612ae5565b602080601f831160018114612b975760008415612b7f5750858301515b600019600386901b1c1916600185901b178555612b2b565b600085815260208120601f198616915b82811015612bc657888601518255948401946001909101908401612ba7565b5085821015612be45787850151600019600388901b60f8161c191681555b5050505050600190811b01905550565b604081526000612c076040830185612360565b90508260208301529392505050565b612c208185612495565b606060208201526000612c366060830185612360565b8281036040840152612c488185612360565b9695505050505050565b8082018082111561220357612203612aa656fea26469706673582212203a6c9d459cca1fa8de0fe21a2556bc4dafcdbd18ce9d4044e87433a91b733c1564736f6c63430008130033",
  "linkReferences": {},
  "deployedLinkReferences": {}
}