{
  "_format": "hh-sol-artifact-1",
  "contractName": "ReentrancyAttacker",
  "sourceName": "contracts/mocks/ReentrancyAttacker.sol",
  "abi": [
    {
      "inputs": [
        {
          "internalType": "address",
          "name": "targetAddress",
          "type": "address"
        }
      ],
      "stateMutability": "nonpayable",
      "type": "constructor"
    },
    {
      "inputs": [],
      "name": "attackInProgress",
      "outputs": [
        {
          "internalType": "bool",
          "name": "",
          "type": "bool"
        }
      ],
      "stateMutability": "view",
      "type": "function"
    },
    {
      "inputs": [],
      "name": "attackWithdraw",
      "outputs": [],
      "stateMutability": "nonpayable",
      "type": "function"
    },
    {
      "inputs": [
        {
          "internalType": "bytes32",
          "name": "batchId",
          "type": "bytes32"
        },
        {
          "internalType": "bytes32",
          "name": "cropTypeHash",
          "type": "bytes32"
        },
        {
          "internalType": "uint256",
          "name": "batchQuantity",
          "type": "uint256"
        },
        {
          "internalType": "uint256",
          "name": "listingQuantity",
          "type": "uint256"
        },
        {
          "internalType": "uint256",
          "name": "unitPriceWei",
          "type": "uint256"
        }
      ],
      "name": "createBatchAndListing",
      "outputs": [],
      "stateMutability": "nonpayable",
      "type": "function"
    },
    {
      "inputs": [],
      "name": "reentrancySucceeded",
      "outputs": [
        {
          "internalType": "bool",
          "name": "",
          "type": "bool"
        }
      ],
      "stateMutability": "view",
      "type": "function"
    },
    {
      "inputs": [],
      "name": "reentryAttempts",
      "outputs": [
        {
          "internalType": "uint256",
          "name": "",
          "type": "uint256"
        }
      ],
      "stateMutability": "view",
      "type": "function"
    },
    {
      "inputs": [],
      "name": "target",
      "outputs": [
        {
          "internalType": "contract ICropChain",
          "name": "",
          "type": "address"
        }
      ],
      "stateMutability": "view",
      "type": "function"
    },
    {
      "stateMutability": "payable",
      "type": "receive"
    }
  ],
  "bytecode": "0x60a060405234801561001057600080fd5b506040516105f03803806105f083398101604081905261002f91610040565b6001600160a01b0316608052610070565b60006020828403121561005257600080fd5b81516001600160a01b038116811461006957600080fd5b9392505050565b60805161054a6100a66000396000818160b0015281816101d90152818161025a015281816102d80152610365015261054a6000f3fe6080604052600436106100595760003560e01c80636c760a23146101405780637340889514610174578063818c8c7c14610189578063a8745cd2146101a3578063d4b83992146101c7578063dd4bc2f51461021357600080fd5b3661013b5760005460ff1680156100705750600154155b15610139576001805560408051600481526024810182526020810180516001600160e01b0316639038e69360e01b17905290516000916001600160a01b037f000000000000000000000000000000000000000000000000000000000000000016916100db91906103e4565b6000604051808303816000865af19150503d8060008114610118576040519150601f19603f3d011682016040523d82523d6000602084013e61011d565b606091505b5050600080549115156101000261ff0019909216919091179055505b005b600080fd5b34801561014c57600080fd5b5060005461015f90610100900460ff1681565b60405190151581526020015b60405180910390f35b34801561018057600080fd5b50610139610233565b34801561019557600080fd5b5060005461015f9060ff1681565b3480156101af57600080fd5b506101b960015481565b60405190815260200161016b565b3480156101d357600080fd5b506101fb7f000000000000000000000000000000000000000000000000000000000000000081565b6040516001600160a01b03909116815260200161016b565b34801561021f57600080fd5b5061013961022e366004610413565b6102c1565b6000805460ff1916600117815560408051639038e69360e01b815290516001600160a01b037f00000000000000000000000000000000000000000000000000000000000000001692639038e693926004808201939182900301818387803b15801561029d57600080fd5b505af11580156102b1573d6000803e3d6000fd5b50506000805460ff191690555050565b604051636cccf52d60e01b81526001600160a01b037f00000000000000000000000000000000000000000000000000000000000000001690636cccf52d906103119088908890889060040161044e565b600060405180830381600087803b15801561032b57600080fd5b505af115801561033f573d6000803e3d6000fd5b505060405163b68210a960e01b81526004810188905260248101859052604481018490527f00000000000000000000000000000000000000000000000000000000000000006001600160a01b0316925063b68210a991506064016020604051808303816000875af11580156103b8573d6000803e3d6000fd5b505050506040513d601f19601f820116820180604052508101906103dc91906104fb565b505050505050565b6000825160005b8181101561040557602081860181015185830152016103eb565b506000920191825250919050565b600080600080600060a0868803121561042b57600080fd5b505083359560208501359550604085013594606081013594506080013592509050565b83815282602082015260e06040820152601360e0820152720d2e0cce6745e5ec2e8e8c2c6d65ac4c2e8c6d606b1b6101008201526000610120836060840152806080840152600881840152506730ba3a30b1b5b2b960c11b6101408301526101608060a084015260058184015250646d616e646960d81b6101808301526101a08060c08401526104f181840160048152631cd9595960e21b602082015260400190565b9695505050505050565b60006020828403121561050d57600080fd5b505191905056fea2646970667358221220a87942e281ef50aa74c9e378fe39e88696145173326a52e40ecb14b1c5a4457a64736f6c63430008130033",
  "linkReferences": {},
  "deployedLinkReferences": {}
}