{
  "_format": "hh-sol-artifact-1",
  "contractName": "ReentrancyAttacker",
  "sourceName": "contracts/mocks/ReentrancyAttacker.sol",
  "abi": [
    {
      "inputs": [
        {
          "internalType": "address",
          "name": "_target",
          "type": "address"
        }
      ],
      "stateMutability": "nonpayable",
      "type": "constructor"
    },
    {
      "inputs": [],
      "name": "attack",
      "outputs": [],
      "stateMutability": "payable",
      "type": "function"
    },
    {
      "inputs": [],
      "name": "attackAmount",
      "outputs": [
        {
          "internalType": "uint256",
          "name": "",
          "type": "uint256"
        }
      ],
      "stateMutability": "view",
      "type": "function"
    },
    {
      "inputs": [],
      "name": "reentrancyAttempted",
      "outputs": [
        {
          "internalType": "bool",
          "name": "",
          "type": "bool"
        }
      ],
      "stateMutability": "view",
      "type": "function"
    },
    {
      "inputs": [],
      "name": "target",
      "outputs": [
        {
          "internalType": "contract ICropChainLiquidity",
          "name": "",
          "type": "address"
        }
      ],
      "stateMutability": "view",
      "type": "function"
    },
    {
      "stateMutability": "payable",
      "type": "receive"
    }
  ],
  "bytecode": "0x60a060405234801561001057600080fd5b5060405161040d38038061040d83398101604081905261002f91610040565b6001600160a01b0316608052610070565b60006020828403121561005257600080fd5b81516001600160a01b038116811461006957600080fd5b9392505050565b60805161036e61009f60003960008181606f015281816101660152818161021b015261029f015261036e6000f3fe6080604052600436106100435760003560e01c806388193565146101235780639e5faafc1461014c578063d4b8399214610154578063fb160c2d146101a057600080fd5b3661011e5760015460ff1661011c576001805460ff191681179055600080546040516001600160a01b037f000000000000000000000000000000000000000000000000000000000000000016916100a09160240190815260200190565b60408051601f198184030181529181526020820180516001600160e01b03166305430f9560e11b179052516100d59190610309565b6000604051808303816000865af19150503d8060008114610112576040519150601f19603f3d011682016040523d82523d6000602084013e610117565b606091505b505050505b005b600080fd5b34801561012f57600080fd5b5061013960005481565b6040519081526020015b60405180910390f35b61011c6101ca565b34801561016057600080fd5b506101887f000000000000000000000000000000000000000000000000000000000000000081565b6040516001600160a01b039091168152602001610143565b3480156101ac57600080fd5b506001546101ba9060ff1681565b6040519015158152602001610143565b600034116102125760405162461bcd60e51b8152602060048201526011602482015270139bc8185d1d1858dac818d85c1a5d185b607a1b604482015260640160405180910390fd5b346000819055507f00000000000000000000000000000000000000000000000000000000000000006001600160a01b031663ca593c59346040518263ffffffff1660e01b81526004016000604051808303818588803b15801561027457600080fd5b505af1158015610288573d6000803e3d6000fd5b50506040516305430f9560e11b81523460048201527f00000000000000000000000000000000000000000000000000000000000000006001600160a01b03169350630a861f2a92506024019050600060405180830381600087803b1580156102ef57600080fd5b505af1158015610303573d6000803e3d6000fd5b50505050565b6000825160005b8181101561032a5760208186018101518583015201610310565b50600092019182525091905056fea2646970667358221220733e58a7d6f927d31945e965f170cb5f538a50dcef50e9959081f4d0b99acca564736f6c63430008130033",
  "linkReferences": {},
  "deployedLinkReferences": {}
}